{
	"data": {
		"bytecode": {
			"linkReferences": {},
			"object": "6080604052348015600e575f80fd5b506103b48061001c5f395ff3fe608060405234801561000f575f80fd5b5060043610610029575f3560e01c80631eba86cc1461002d575b5f80fd5b6100476004803603810190610042919061014d565b61005d565b60405161005491906101ac565b60405180910390f35b5f6001820361007957828461007291906101f2565b90506100dc565b6002820361009457828461008d9190610233565b90506100db565b600382036100af5782846100a89190610273565b90506100da565b600482036100d95782670de0b6b3a7640000856100cc9190610273565b6100d69190610316565b90505b5b5b5b9392505050565b5f80fd5b5f819050919050565b6100f9816100e7565b8114610103575f80fd5b50565b5f81359050610114816100f0565b92915050565b5f819050919050565b61012c8161011a565b8114610136575f80fd5b50565b5f8135905061014781610123565b92915050565b5f805f60608486031215610164576101636100e3565b5b5f61017186828701610106565b935050602061018286828701610106565b925050604061019386828701610139565b9150509250925092565b6101a6816100e7565b82525050565b5f6020820190506101bf5f83018461019d565b92915050565b7f4e487b71000000000000000000000000000000000000000000000000000000005f52601160045260245ffd5b5f6101fc826100e7565b9150610207836100e7565b92508282019050828112155f8312168382125f84121516171561022d5761022c6101c5565b5b92915050565b5f61023d826100e7565b9150610248836100e7565b925082820390508181125f8412168282135f85121516171561026d5761026c6101c5565b5b92915050565b5f61027d826100e7565b9150610288836100e7565b9250828202610296816100e7565b91507f800000000000000000000000000000000000000000000000000000000000000084145f841216156102cd576102cc6101c5565b5b82820584148315176102e2576102e16101c5565b5b5092915050565b7f4e487b71000000000000000000000000000000000000000000000000000000005f52601260045260245ffd5b5f610320826100e7565b915061032b836100e7565b92508261033b5761033a6102e9565b5b60015f0383147f800000000000000000000000000000000000000000000000000000000000000083141615610373576103726101c5565b5b82820590509291505056fea264697066735822122075f7fddba06c5e6ff4233b8c78efb691cf5245ff53e1dfba5694fd9c16cf49ff64736f6c634300081a0033",
			"opcodes": "PUSH1 0x80 PUSH1 0x40 MSTORE CALLVALUE DUP1 ISZERO PUSH1 0xE JUMPI PUSH0 DUP1 REVERT JUMPDEST POP PUSH2 0x3B4 DUP1 PUSH2 0x1C PUSH0 CODECOPY PUSH0 RETURN INVALID PUSH1 0x80 PUSH1 0x40 MSTORE CALLVALUE DUP1 ISZERO PUSH2 0xF JUMPI PUSH0 DUP1 REVERT JUMPDEST POP PUSH1 0x4 CALLDATASIZE LT PUSH2 0x29 JUMPI PUSH0 CALLDATALOAD PUSH1 0xE0 SHR DUP1 PUSH4 0x1EBA86CC EQ PUSH2 0x2D JUMPI JUMPDEST PUSH0 DUP1 REVERT JUMPDEST PUSH2 0x47 PUSH1 0x4 DUP1 CALLDATASIZE SUB DUP2 ADD SWAP1 PUSH2 0x42 SWAP2 SWAP1 PUSH2 0x14D JUMP JUMPDEST PUSH2 0x5D JUMP JUMPDEST PUSH1 0x40 MLOAD PUSH2 0x54 SWAP2 SWAP1 PUSH2 0x1AC JUMP JUMPDEST PUSH1 0x40 MLOAD DUP1 SWAP2 SUB SWAP1 RETURN JUMPDEST PUSH0 PUSH1 0x1 DUP3 SUB PUSH2 0x79 JUMPI DUP3 DUP5 PUSH2 0x72 SWAP2 SWAP1 PUSH2 0x1F2 JUMP JUMPDEST SWAP1 POP PUSH2 0xDC JUMP JUMPDEST PUSH1 0x2 DUP3 SUB PUSH2 0x94 JUMPI DUP3 DUP5 PUSH2 0x8D SWAP2 SWAP1 PUSH2 0x233 JUMP JUMPDEST SWAP1 POP PUSH2 0xDB JUMP JUMPDEST PUSH1 0x3 DUP3 SUB PUSH2 0xAF JUMPI DUP3 DUP5 PUSH2 0xA8 SWAP2 SWAP1 PUSH2 0x273 JUMP JUMPDEST SWAP1 POP PUSH2 0xDA JUMP JUMPDEST PUSH1 0x4 DUP3 SUB PUSH2 0xD9 JUMPI DUP3 PUSH8 0xDE0B6B3A7640000 DUP6 PUSH2 0xCC SWAP2 SWAP1 PUSH2 0x273 JUMP JUMPDEST PUSH2 0xD6 SWAP2 SWAP1 PUSH2 0x316 JUMP JUMPDEST SWAP1 POP JUMPDEST JUMPDEST JUMPDEST JUMPDEST SWAP4 SWAP3 POP POP POP JUMP JUMPDEST PUSH0 DUP1 REVERT JUMPDEST PUSH0 DUP2 SWAP1 POP SWAP2 SWAP1 POP JUMP JUMPDEST PUSH2 0xF9 DUP2 PUSH2 0xE7 JUMP JUMPDEST DUP2 EQ PUSH2 0x103 JUMPI PUSH0 DUP1 REVERT JUMPDEST POP JUMP JUMPDEST PUSH0 DUP2 CALLDATALOAD SWAP1 POP PUSH2 0x114 DUP2 PUSH2 0xF0 JUMP JUMPDEST SWAP3 SWAP2 POP POP JUMP JUMPDEST PUSH0 DUP2 SWAP1 POP SWAP2 SWAP1 POP JUMP JUMPDEST PUSH2 0x12C DUP2 PUSH2 0x11A JUMP JUMPDEST DUP2 EQ PUSH2 0x136 JUMPI PUSH0 DUP1 REVERT JUMPDEST POP JUMP JUMPDEST PUSH0 DUP2 CALLDATALOAD SWAP1 POP PUSH2 0x147 DUP2 PUSH2 0x123 JUMP JUMPDEST SWAP3 SWAP2 POP POP JUMP JUMPDEST PUSH0 DUP1 PUSH0 PUSH1 0x60 DUP5 DUP7 SUB SLT ISZERO PUSH2 0x164 JUMPI PUSH2 0x163 PUSH2 0xE3 JUMP JUMPDEST JUMPDEST PUSH0 PUSH2 0x171 DUP7 DUP3 DUP8 ADD PUSH2 0x106 JUMP JUMPDEST SWAP4 POP POP PUSH1 0x20 PUSH2 0x182 DUP7 DUP3 DUP8 ADD PUSH2 0x106 JUMP JUMPDEST SWAP3 POP POP PUSH1 0x40 PUSH2 0x193 DUP7 DUP3 DUP8 ADD PUSH2 0x139 JUMP JUMPDEST SWAP2 POP POP SWAP3 POP SWAP3 POP SWAP3 JUMP JUMPDEST PUSH2 0x1A6 DUP2 PUSH2 0xE7 JUMP JUMPDEST DUP3 MSTORE POP POP JUMP JUMPDEST PUSH0 PUSH1 0x20 DUP3 ADD SWAP1 POP PUSH2 0x1BF PUSH0 DUP4 ADD DUP5 PUSH2 0x19D JUMP JUMPDEST SWAP3 SWAP2 POP POP JUMP JUMPDEST PUSH32 0x4E487B7100000000000000000000000000000000000000000000000000000000 PUSH0 MSTORE PUSH1 0x11 PUSH1 0x4 MSTORE PUSH1 0x24 PUSH0 REVERT JUMPDEST PUSH0 PUSH2 0x1FC DUP3 PUSH2 0xE7 JUMP JUMPDEST SWAP2 POP PUSH2 0x207 DUP4 PUSH2 0xE7 JUMP JUMPDEST SWAP3 POP DUP3 DUP3 ADD SWAP1 POP DUP3 DUP2 SLT ISZERO PUSH0 DUP4 SLT AND DUP4 DUP3 SLT PUSH0 DUP5 SLT ISZERO AND OR ISZERO PUSH2 0x22D JUMPI PUSH2 0x22C PUSH2 0x1C5 JUMP JUMPDEST JUMPDEST SWAP3 SWAP2 POP POP JUMP JUMPDEST PUSH0 PUSH2 0x23D DUP3 PUSH2 0xE7 JUMP JUMPDEST SWAP2 POP PUSH2 0x248 DUP4 PUSH2 0xE7 JUMP JUMPDEST SWAP3 POP DUP3 DUP3 SUB SWAP1 POP DUP2 DUP2 SLT PUSH0 DUP5 SLT AND DUP3 DUP3 SGT PUSH0 DUP6 SLT ISZERO AND OR ISZERO PUSH2 0x26D JUMPI PUSH2 0x26C PUSH2 0x1C5 JUMP JUMPDEST JUMPDEST SWAP3 SWAP2 POP POP JUMP JUMPDEST PUSH0 PUSH2 0x27D DUP3 PUSH2 0xE7 JUMP JUMPDEST SWAP2 POP PUSH2 0x288 DUP4 PUSH2 0xE7 JUMP JUMPDEST SWAP3 POP DUP3 DUP3 MUL PUSH2 0x296 DUP2 PUSH2 0xE7 JUMP JUMPDEST SWAP2 POP PUSH32 0x8000000000000000000000000000000000000000000000000000000000000000 DUP5 EQ PUSH0 DUP5 SLT AND ISZERO PUSH2 0x2CD JUMPI PUSH2 0x2CC PUSH2 0x1C5 JUMP JUMPDEST JUMPDEST DUP3 DUP3 SDIV DUP5 EQ DUP4 ISZERO OR PUSH2 0x2E2 JUMPI PUSH2 0x2E1 PUSH2 0x1C5 JUMP JUMPDEST JUMPDEST POP SWAP3 SWAP2 POP POP JUMP JUMPDEST PUSH32 0x4E487B7100000000000000000000000000000000000000000000000000000000 PUSH0 MSTORE PUSH1 0x12 PUSH1 0x4 MSTORE PUSH1 0x24 PUSH0 REVERT JUMPDEST PUSH0 PUSH2 0x320 DUP3 PUSH2 0xE7 JUMP JUMPDEST SWAP2 POP PUSH2 0x32B DUP4 PUSH2 0xE7 JUMP JUMPDEST SWAP3 POP DUP3 PUSH2 0x33B JUMPI PUSH2 0x33A PUSH2 0x2E9 JUMP JUMPDEST JUMPDEST PUSH1 0x1 PUSH0 SUB DUP4 EQ PUSH32 0x8000000000000000000000000000000000000000000000000000000000000000 DUP4 EQ AND ISZERO PUSH2 0x373 JUMPI PUSH2 0x372 PUSH2 0x1C5 JUMP JUMPDEST JUMPDEST DUP3 DUP3 SDIV SWAP1 POP SWAP3 SWAP2 POP POP JUMP INVALID LOG2 PUSH5 0x6970667358 0x22 SLT KECCAK256 PUSH22 0xF7FDDBA06C5E6FF4233B8C78EFB691CF5245FF53E1DF 0xBA JUMP SWAP5 REVERT SWAP13 AND 0xCF BLOBHASH SELFDESTRUCT PUSH5 0x736F6C6343 STOP ADDMOD BYTE STOP CALLER "
		},
		"gasEstimates": {
			"creation": {
				"codeDepositCost": "189600",
				"executionCost": "230",
				"totalCost": "189830"
			},
			"external": {
				"calculate(int256,int256,uint256)": "infinite"
			}
		},
		"methodIdentifiers": {
			"calculate(int256,int256,uint256)": "1eba86cc"
		}
	},
	"abi": [
		{
			"inputs": [
				{
					"internalType": "int256",
					"name": "num1",
					"type": "int256"
				},
				{
					"internalType": "int256",
					"name": "num2",
					"type": "int256"
				},
				{
					"internalType": "uint256",
					"name": "operator",
					"type": "uint256"
				}
			],
			"name": "calculate",
			"outputs": [
				{
					"internalType": "int256",
					"name": "result",
					"type": "int256"
				}
			],
			"stateMutability": "pure",
			"type": "function"
		}
	]
}