{
	"data": {
		"bytecode": {
			"linkReferences": {},
			"object": "6080604052348015600e575f80fd5b506107838061001c5f395ff3fe608060405234801561000f575f80fd5b5060043610610055575f3560e01c80631761d218146100595780631ffee7ed14610089578063312053eb146100b9578063677342ce146100e95780638ad8dfd114610119575b5f80fd5b610073600480360381019061006e91906104b6565b610149565b6040516100809190610576565b60405180910390f35b6100a3600480360381019061009e91906104b6565b6102cd565b6040516100b091906105b0565b60405180910390f35b6100d360048036038101906100ce91906104b6565b610311565b6040516100e091906105d8565b60405180910390f35b61010360048036038101906100fe91906105f1565b6103b2565b60405161011091906105d8565b60405180910390f35b610133600480360381019061012e91906104b6565b610413565b60405161014091906105b0565b60405180910390f35b60606101568484846102cd565b610197576040518060400160405280601481526020017f4e6f7420612076616c696420747269616e676c6500000000000000000000000081525090506102c6565b82841480156101a557508183145b156101e7576040518060400160405280600b81526020017f457175696c61746572616c00000000000000000000000000000000000000000081525090506102c6565b828414806101f457508183145b806101fe57508184145b15610240576040518060400160405280600981526020017f49736f7363656c6573000000000000000000000000000000000000000000000081525090506102c6565b61024b848484610413565b1561028d576040518060400160405280600c81526020017f52696768742d616e676c6564000000000000000000000000000000000000000081525090506102c6565b6040518060400160405280600781526020017f5363616c656e650000000000000000000000000000000000000000000000000081525090505b9392505050565b5f8183856102db9190610649565b1180156102f257508282856102f09190610649565b115b801561030857508382846103069190610649565b115b90509392505050565b5f61031d8484846102cd565b610329575f90506103ab565b5f60028385876103399190610649565b6103439190610649565b61034d91906106a9565b90505f61039b848361035f91906106d9565b868461036b91906106d9565b888561037791906106d9565b85610382919061070c565b61038c919061070c565b610396919061070c565b6103b2565b90506103a6816103b2565b925050505b9392505050565b5f8060026001846103c39190610649565b6103cd91906106a9565b90505f8390505b808210156104095781905060028283866103ee91906106a9565b6103f89190610649565b61040291906106a9565b91506103d4565b8092505050919050565b5f808490505f8490505f84905082861115610432578592508691508490505b82851115610444578492508691508590505b8283610450919061070c565b818261045c919061070c565b8384610468919061070c565b6104729190610649565b1493505050509392505050565b5f80fd5b5f819050919050565b61049581610483565b811461049f575f80fd5b50565b5f813590506104b08161048c565b92915050565b5f805f606084860312156104cd576104cc61047f565b5b5f6104da868287016104a2565b93505060206104eb868287016104a2565b92505060406104fc868287016104a2565b9150509250925092565b5f81519050919050565b5f82825260208201905092915050565b8281835e5f83830152505050565b5f601f19601f8301169050919050565b5f61054882610506565b6105528185610510565b9350610562818560208601610520565b61056b8161052e565b840191505092915050565b5f6020820190508181035f83015261058e818461053e565b905092915050565b5f8115159050919050565b6105aa81610596565b82525050565b5f6020820190506105c35f8301846105a1565b92915050565b6105d281610483565b82525050565b5f6020820190506105eb5f8301846105c9565b92915050565b5f602082840312156106065761060561047f565b5b5f610613848285016104a2565b91505092915050565b7f4e487b71000000000000000000000000000000000000000000000000000000005f52601160045260245ffd5b5f61065382610483565b915061065e83610483565b92508282019050808211156106765761067561061c565b5b92915050565b7f4e487b71000000000000000000000000000000000000000000000000000000005f52601260045260245ffd5b5f6106b382610483565b91506106be83610483565b9250826106ce576106cd61067c565b5b828204905092915050565b5f6106e382610483565b91506106ee83610483565b92508282039050818111156107065761070561061c565b5b92915050565b5f61071682610483565b915061072183610483565b925082820261072f81610483565b915082820484148315176107465761074561061c565b5b509291505056fea26469706673582212208ea1797a6b93f56a8ca35605ece2ea0f0a0b0b88ab3d8af816f6ed00cea429e764736f6c634300081a0033",
			"opcodes": "PUSH1 0x80 PUSH1 0x40 MSTORE CALLVALUE DUP1 ISZERO PUSH1 0xE JUMPI PUSH0 DUP1 REVERT JUMPDEST POP PUSH2 0x783 DUP1 PUSH2 0x1C PUSH0 CODECOPY PUSH0 RETURN INVALID PUSH1 0x80 PUSH1 0x40 MSTORE CALLVALUE DUP1 ISZERO PUSH2 0xF JUMPI PUSH0 DUP1 REVERT JUMPDEST POP PUSH1 0x4 CALLDATASIZE LT PUSH2 0x55 JUMPI PUSH0 CALLDATALOAD PUSH1 0xE0 SHR DUP1 PUSH4 0x1761D218 EQ PUSH2 0x59 JUMPI DUP1 PUSH4 0x1FFEE7ED EQ PUSH2 0x89 JUMPI DUP1 PUSH4 0x312053EB EQ PUSH2 0xB9 JUMPI DUP1 PUSH4 0x677342CE EQ PUSH2 0xE9 JUMPI DUP1 PUSH4 0x8AD8DFD1 EQ PUSH2 0x119 JUMPI JUMPDEST PUSH0 DUP1 REVERT JUMPDEST PUSH2 0x73 PUSH1 0x4 DUP1 CALLDATASIZE SUB DUP2 ADD SWAP1 PUSH2 0x6E SWAP2 SWAP1 PUSH2 0x4B6 JUMP JUMPDEST PUSH2 0x149 JUMP JUMPDEST PUSH1 0x40 MLOAD PUSH2 0x80 SWAP2 SWAP1 PUSH2 0x576 JUMP JUMPDEST PUSH1 0x40 MLOAD DUP1 SWAP2 SUB SWAP1 RETURN JUMPDEST PUSH2 0xA3 PUSH1 0x4 DUP1 CALLDATASIZE SUB DUP2 ADD SWAP1 PUSH2 0x9E SWAP2 SWAP1 PUSH2 0x4B6 JUMP JUMPDEST PUSH2 0x2CD JUMP JUMPDEST PUSH1 0x40 MLOAD PUSH2 0xB0 SWAP2 SWAP1 PUSH2 0x5B0 JUMP JUMPDEST PUSH1 0x40 MLOAD DUP1 SWAP2 SUB SWAP1 RETURN JUMPDEST PUSH2 0xD3 PUSH1 0x4 DUP1 CALLDATASIZE SUB DUP2 ADD SWAP1 PUSH2 0xCE SWAP2 SWAP1 PUSH2 0x4B6 JUMP JUMPDEST PUSH2 0x311 JUMP JUMPDEST PUSH1 0x40 MLOAD PUSH2 0xE0 SWAP2 SWAP1 PUSH2 0x5D8 JUMP JUMPDEST PUSH1 0x40 MLOAD DUP1 SWAP2 SUB SWAP1 RETURN JUMPDEST PUSH2 0x103 PUSH1 0x4 DUP1 CALLDATASIZE SUB DUP2 ADD SWAP1 PUSH2 0xFE SWAP2 SWAP1 PUSH2 0x5F1 JUMP JUMPDEST PUSH2 0x3B2 JUMP JUMPDEST PUSH1 0x40 MLOAD PUSH2 0x110 SWAP2 SWAP1 PUSH2 0x5D8 JUMP JUMPDEST PUSH1 0x40 MLOAD DUP1 SWAP2 SUB SWAP1 RETURN JUMPDEST PUSH2 0x133 PUSH1 0x4 DUP1 CALLDATASIZE SUB DUP2 ADD SWAP1 PUSH2 0x12E SWAP2 SWAP1 PUSH2 0x4B6 JUMP JUMPDEST PUSH2 0x413 JUMP JUMPDEST PUSH1 0x40 MLOAD PUSH2 0x140 SWAP2 SWAP1 PUSH2 0x5B0 JUMP JUMPDEST PUSH1 0x40 MLOAD DUP1 SWAP2 SUB SWAP1 RETURN JUMPDEST PUSH1 0x60 PUSH2 0x156 DUP5 DUP5 DUP5 PUSH2 0x2CD JUMP JUMPDEST PUSH2 0x197 JUMPI PUSH1 0x40 MLOAD DUP1 PUSH1 0x40 ADD PUSH1 0x40 MSTORE DUP1 PUSH1 0x14 DUP2 MSTORE PUSH1 0x20 ADD PUSH32 0x4E6F7420612076616C696420747269616E676C65000000000000000000000000 DUP2 MSTORE POP SWAP1 POP PUSH2 0x2C6 JUMP JUMPDEST DUP3 DUP5 EQ DUP1 ISZERO PUSH2 0x1A5 JUMPI POP DUP2 DUP4 EQ JUMPDEST ISZERO PUSH2 0x1E7 JUMPI PUSH1 0x40 MLOAD DUP1 PUSH1 0x40 ADD PUSH1 0x40 MSTORE DUP1 PUSH1 0xB DUP2 MSTORE PUSH1 0x20 ADD PUSH32 0x457175696C61746572616C000000000000000000000000000000000000000000 DUP2 MSTORE POP SWAP1 POP PUSH2 0x2C6 JUMP JUMPDEST DUP3 DUP5 EQ DUP1 PUSH2 0x1F4 JUMPI POP DUP2 DUP4 EQ JUMPDEST DUP1 PUSH2 0x1FE JUMPI POP DUP2 DUP5 EQ JUMPDEST ISZERO PUSH2 0x240 JUMPI PUSH1 0x40 MLOAD DUP1 PUSH1 0x40 ADD PUSH1 0x40 MSTORE DUP1 PUSH1 0x9 DUP2 MSTORE PUSH1 0x20 ADD PUSH32 0x49736F7363656C65730000000000000000000000000000000000000000000000 DUP2 MSTORE POP SWAP1 POP PUSH2 0x2C6 JUMP JUMPDEST PUSH2 0x24B DUP5 DUP5 DUP5 PUSH2 0x413 JUMP JUMPDEST ISZERO PUSH2 0x28D JUMPI PUSH1 0x40 MLOAD DUP1 PUSH1 0x40 ADD PUSH1 0x40 MSTORE DUP1 PUSH1 0xC DUP2 MSTORE PUSH1 0x20 ADD PUSH32 0x52696768742D616E676C65640000000000000000000000000000000000000000 DUP2 MSTORE POP SWAP1 POP PUSH2 0x2C6 JUMP JUMPDEST PUSH1 0x40 MLOAD DUP1 PUSH1 0x40 ADD PUSH1 0x40 MSTORE DUP1 PUSH1 0x7 DUP2 MSTORE PUSH1 0x20 ADD PUSH32 0x5363616C656E6500000000000000000000000000000000000000000000000000 DUP2 MSTORE POP SWAP1 POP JUMPDEST SWAP4 SWAP3 POP POP POP JUMP JUMPDEST PUSH0 DUP2 DUP4 DUP6 PUSH2 0x2DB SWAP2 SWAP1 PUSH2 0x649 JUMP JUMPDEST GT DUP1 ISZERO PUSH2 0x2F2 JUMPI POP DUP3 DUP3 DUP6 PUSH2 0x2F0 SWAP2 SWAP1 PUSH2 0x649 JUMP JUMPDEST GT JUMPDEST DUP1 ISZERO PUSH2 0x308 JUMPI POP DUP4 DUP3 DUP5 PUSH2 0x306 SWAP2 SWAP1 PUSH2 0x649 JUMP JUMPDEST GT JUMPDEST SWAP1 POP SWAP4 SWAP3 POP POP POP JUMP JUMPDEST PUSH0 PUSH2 0x31D DUP5 DUP5 DUP5 PUSH2 0x2CD JUMP JUMPDEST PUSH2 0x329 JUMPI PUSH0 SWAP1 POP PUSH2 0x3AB JUMP JUMPDEST PUSH0 PUSH1 0x2 DUP4 DUP6 DUP8 PUSH2 0x339 SWAP2 SWAP1 PUSH2 0x649 JUMP JUMPDEST PUSH2 0x343 SWAP2 SWAP1 PUSH2 0x649 JUMP JUMPDEST PUSH2 0x34D SWAP2 SWAP1 PUSH2 0x6A9 JUMP JUMPDEST SWAP1 POP PUSH0 PUSH2 0x39B DUP5 DUP4 PUSH2 0x35F SWAP2 SWAP1 PUSH2 0x6D9 JUMP JUMPDEST DUP7 DUP5 PUSH2 0x36B SWAP2 SWAP1 PUSH2 0x6D9 JUMP JUMPDEST DUP9 DUP6 PUSH2 0x377 SWAP2 SWAP1 PUSH2 0x6D9 JUMP JUMPDEST DUP6 PUSH2 0x382 SWAP2 SWAP1 PUSH2 0x70C JUMP JUMPDEST PUSH2 0x38C SWAP2 SWAP1 PUSH2 0x70C JUMP JUMPDEST PUSH2 0x396 SWAP2 SWAP1 PUSH2 0x70C JUMP JUMPDEST PUSH2 0x3B2 JUMP JUMPDEST SWAP1 POP PUSH2 0x3A6 DUP2 PUSH2 0x3B2 JUMP JUMPDEST SWAP3 POP POP POP JUMPDEST SWAP4 SWAP3 POP POP POP JUMP JUMPDEST PUSH0 DUP1 PUSH1 0x2 PUSH1 0x1 DUP5 PUSH2 0x3C3 SWAP2 SWAP1 PUSH2 0x649 JUMP JUMPDEST PUSH2 0x3CD SWAP2 SWAP1 PUSH2 0x6A9 JUMP JUMPDEST SWAP1 POP PUSH0 DUP4 SWAP1 POP JUMPDEST DUP1 DUP3 LT ISZERO PUSH2 0x409 JUMPI DUP2 SWAP1 POP PUSH1 0x2 DUP3 DUP4 DUP7 PUSH2 0x3EE SWAP2 SWAP1 PUSH2 0x6A9 JUMP JUMPDEST PUSH2 0x3F8 SWAP2 SWAP1 PUSH2 0x649 JUMP JUMPDEST PUSH2 0x402 SWAP2 SWAP1 PUSH2 0x6A9 JUMP JUMPDEST SWAP2 POP PUSH2 0x3D4 JUMP JUMPDEST DUP1 SWAP3 POP POP POP SWAP2 SWAP1 POP JUMP JUMPDEST PUSH0 DUP1 DUP5 SWAP1 POP PUSH0 DUP5 SWAP1 POP PUSH0 DUP5 SWAP1 POP DUP3 DUP7 GT ISZERO PUSH2 0x432 JUMPI DUP6 SWAP3 POP DUP7 SWAP2 POP DUP5 SWAP1 POP JUMPDEST DUP3 DUP6 GT ISZERO PUSH2 0x444 JUMPI DUP5 SWAP3 POP DUP7 SWAP2 POP DUP6 SWAP1 POP JUMPDEST DUP3 DUP4 PUSH2 0x450 SWAP2 SWAP1 PUSH2 0x70C JUMP JUMPDEST DUP2 DUP3 PUSH2 0x45C SWAP2 SWAP1 PUSH2 0x70C JUMP JUMPDEST DUP4 DUP5 PUSH2 0x468 SWAP2 SWAP1 PUSH2 0x70C JUMP JUMPDEST PUSH2 0x472 SWAP2 SWAP1 PUSH2 0x649 JUMP JUMPDEST EQ SWAP4 POP POP POP POP SWAP4 SWAP3 POP POP POP JUMP JUMPDEST PUSH0 DUP1 REVERT JUMPDEST PUSH0 DUP2 SWAP1 POP SWAP2 SWAP1 POP JUMP JUMPDEST PUSH2 0x495 DUP2 PUSH2 0x483 JUMP JUMPDEST DUP2 EQ PUSH2 0x49F JUMPI PUSH0 DUP1 REVERT JUMPDEST POP JUMP JUMPDEST PUSH0 DUP2 CALLDATALOAD SWAP1 POP PUSH2 0x4B0 DUP2 PUSH2 0x48C JUMP JUMPDEST SWAP3 SWAP2 POP POP JUMP JUMPDEST PUSH0 DUP1 PUSH0 PUSH1 0x60 DUP5 DUP7 SUB SLT ISZERO PUSH2 0x4CD JUMPI PUSH2 0x4CC PUSH2 0x47F JUMP JUMPDEST JUMPDEST PUSH0 PUSH2 0x4DA DUP7 DUP3 DUP8 ADD PUSH2 0x4A2 JUMP JUMPDEST SWAP4 POP POP PUSH1 0x20 PUSH2 0x4EB DUP7 DUP3 DUP8 ADD PUSH2 0x4A2 JUMP JUMPDEST SWAP3 POP POP PUSH1 0x40 PUSH2 0x4FC DUP7 DUP3 DUP8 ADD PUSH2 0x4A2 JUMP JUMPDEST SWAP2 POP POP SWAP3 POP SWAP3 POP SWAP3 JUMP JUMPDEST PUSH0 DUP2 MLOAD SWAP1 POP SWAP2 SWAP1 POP JUMP JUMPDEST PUSH0 DUP3 DUP3 MSTORE PUSH1 0x20 DUP3 ADD SWAP1 POP SWAP3 SWAP2 POP POP JUMP JUMPDEST DUP3 DUP2 DUP4 MCOPY PUSH0 DUP4 DUP4 ADD MSTORE POP POP POP JUMP JUMPDEST PUSH0 PUSH1 0x1F NOT PUSH1 0x1F DUP4 ADD AND SWAP1 POP SWAP2 SWAP1 POP JUMP JUMPDEST PUSH0 PUSH2 0x548 DUP3 PUSH2 0x506 JUMP JUMPDEST PUSH2 0x552 DUP2 DUP6 PUSH2 0x510 JUMP JUMPDEST SWAP4 POP PUSH2 0x562 DUP2 DUP6 PUSH1 0x20 DUP7 ADD PUSH2 0x520 JUMP JUMPDEST PUSH2 0x56B DUP2 PUSH2 0x52E JUMP JUMPDEST DUP5 ADD SWAP2 POP POP SWAP3 SWAP2 POP POP JUMP JUMPDEST PUSH0 PUSH1 0x20 DUP3 ADD SWAP1 POP DUP2 DUP2 SUB PUSH0 DUP4 ADD MSTORE PUSH2 0x58E DUP2 DUP5 PUSH2 0x53E JUMP JUMPDEST SWAP1 POP SWAP3 SWAP2 POP POP JUMP JUMPDEST PUSH0 DUP2 ISZERO ISZERO SWAP1 POP SWAP2 SWAP1 POP JUMP JUMPDEST PUSH2 0x5AA DUP2 PUSH2 0x596 JUMP JUMPDEST DUP3 MSTORE POP POP JUMP JUMPDEST PUSH0 PUSH1 0x20 DUP3 ADD SWAP1 POP PUSH2 0x5C3 PUSH0 DUP4 ADD DUP5 PUSH2 0x5A1 JUMP JUMPDEST SWAP3 SWAP2 POP POP JUMP JUMPDEST PUSH2 0x5D2 DUP2 PUSH2 0x483 JUMP JUMPDEST DUP3 MSTORE POP POP JUMP JUMPDEST PUSH0 PUSH1 0x20 DUP3 ADD SWAP1 POP PUSH2 0x5EB PUSH0 DUP4 ADD DUP5 PUSH2 0x5C9 JUMP JUMPDEST SWAP3 SWAP2 POP POP JUMP JUMPDEST PUSH0 PUSH1 0x20 DUP3 DUP5 SUB SLT ISZERO PUSH2 0x606 JUMPI PUSH2 0x605 PUSH2 0x47F JUMP JUMPDEST JUMPDEST PUSH0 PUSH2 0x613 DUP5 DUP3 DUP6 ADD PUSH2 0x4A2 JUMP JUMPDEST SWAP2 POP POP SWAP3 SWAP2 POP POP JUMP JUMPDEST PUSH32 0x4E487B7100000000000000000000000000000000000000000000000000000000 PUSH0 MSTORE PUSH1 0x11 PUSH1 0x4 MSTORE PUSH1 0x24 PUSH0 REVERT JUMPDEST PUSH0 PUSH2 0x653 DUP3 PUSH2 0x483 JUMP JUMPDEST SWAP2 POP PUSH2 0x65E DUP4 PUSH2 0x483 JUMP JUMPDEST SWAP3 POP DUP3 DUP3 ADD SWAP1 POP DUP1 DUP3 GT ISZERO PUSH2 0x676 JUMPI PUSH2 0x675 PUSH2 0x61C JUMP JUMPDEST JUMPDEST SWAP3 SWAP2 POP POP JUMP JUMPDEST PUSH32 0x4E487B7100000000000000000000000000000000000000000000000000000000 PUSH0 MSTORE PUSH1 0x12 PUSH1 0x4 MSTORE PUSH1 0x24 PUSH0 REVERT JUMPDEST PUSH0 PUSH2 0x6B3 DUP3 PUSH2 0x483 JUMP JUMPDEST SWAP2 POP PUSH2 0x6BE DUP4 PUSH2 0x483 JUMP JUMPDEST SWAP3 POP DUP3 PUSH2 0x6CE JUMPI PUSH2 0x6CD PUSH2 0x67C JUMP JUMPDEST JUMPDEST DUP3 DUP3 DIV SWAP1 POP SWAP3 SWAP2 POP POP JUMP JUMPDEST PUSH0 PUSH2 0x6E3 DUP3 PUSH2 0x483 JUMP JUMPDEST SWAP2 POP PUSH2 0x6EE DUP4 PUSH2 0x483 JUMP JUMPDEST SWAP3 POP DUP3 DUP3 SUB SWAP1 POP DUP2 DUP2 GT ISZERO PUSH2 0x706 JUMPI PUSH2 0x705 PUSH2 0x61C JUMP JUMPDEST JUMPDEST SWAP3 SWAP2 POP POP JUMP JUMPDEST PUSH0 PUSH2 0x716 DUP3 PUSH2 0x483 JUMP JUMPDEST SWAP2 POP PUSH2 0x721 DUP4 PUSH2 0x483 JUMP JUMPDEST SWAP3 POP DUP3 DUP3 MUL PUSH2 0x72F DUP2 PUSH2 0x483 JUMP JUMPDEST SWAP2 POP DUP3 DUP3 DIV DUP5 EQ DUP4 ISZERO OR PUSH2 0x746 JUMPI PUSH2 0x745 PUSH2 0x61C JUMP JUMPDEST JUMPDEST POP SWAP3 SWAP2 POP POP JUMP INVALID LOG2 PUSH5 0x6970667358 0x22 SLT KECCAK256 DUP15 LOG1 PUSH26 0x7A6B93F56A8CA35605ECE2EA0F0A0B0B88AB3D8AF816F6ED00CE LOG4 0x29 0xE7 PUSH5 0x736F6C6343 STOP ADDMOD BYTE STOP CALLER "
		},
		"gasEstimates": {
			"creation": {
				"codeDepositCost": "384600",
				"executionCost": "422",
				"totalCost": "385022"
			},
			"external": {
				"getArea(uint256,uint256,uint256)": "infinite",
				"getTriangleType(uint256,uint256,uint256)": "infinite",
				"isRightAngled(uint256,uint256,uint256)": "infinite",
				"isValidTriangle(uint256,uint256,uint256)": "infinite",
				"sqrt(uint256)": "infinite"
			}
		},
		"methodIdentifiers": {
			"getArea(uint256,uint256,uint256)": "312053eb",
			"getTriangleType(uint256,uint256,uint256)": "1761d218",
			"isRightAngled(uint256,uint256,uint256)": "8ad8dfd1",
			"isValidTriangle(uint256,uint256,uint256)": "1ffee7ed",
			"sqrt(uint256)": "677342ce"
		}
	},
	"abi": [
		{
			"inputs": [
				{
					"internalType": "uint256",
					"name": "a",
					"type": "uint256"
				},
				{
					"internalType": "uint256",
					"name": "b",
					"type": "uint256"
				},
				{
					"internalType": "uint256",
					"name": "c",
					"type": "uint256"
				}
			],
			"name": "getArea",
			"outputs": [
				{
					"internalType": "uint256",
					"name": "",
					"type": "uint256"
				}
			],
			"stateMutability": "pure",
			"type": "function"
		},
		{
			"inputs": [
				{
					"internalType": "uint256",
					"name": "a",
					"type": "uint256"
				},
				{
					"internalType": "uint256",
					"name": "b",
					"type": "uint256"
				},
				{
					"internalType": "uint256",
					"name": "c",
					"type": "uint256"
				}
			],
			"name": "getTriangleType",
			"outputs": [
				{
					"internalType": "string",
					"name": "",
					"type": "string"
				}
			],
			"stateMutability": "pure",
			"type": "function"
		},
		{
			"inputs": [
				{
					"internalType": "uint256",
					"name": "a",
					"type": "uint256"
				},
				{
					"internalType": "uint256",
					"name": "b",
					"type": "uint256"
				},
				{
					"internalType": "uint256",
					"name": "c",
					"type": "uint256"
				}
			],
			"name": "isRightAngled",
			"outputs": [
				{
					"internalType": "bool",
					"name": "",
					"type": "bool"
				}
			],
			"stateMutability": "pure",
			"type": "function"
		},
		{
			"inputs": [
				{
					"internalType": "uint256",
					"name": "a",
					"type": "uint256"
				},
				{
					"internalType": "uint256",
					"name": "b",
					"type": "uint256"
				},
				{
					"internalType": "uint256",
					"name": "c",
					"type": "uint256"
				}
			],
			"name": "isValidTriangle",
			"outputs": [
				{
					"internalType": "bool",
					"name": "",
					"type": "bool"
				}
			],
			"stateMutability": "pure",
			"type": "function"
		},
		{
			"inputs": [
				{
					"internalType": "uint256",
					"name": "x",
					"type": "uint256"
				}
			],
			"name": "sqrt",
			"outputs": [
				{
					"internalType": "uint256",
					"name": "",
					"type": "uint256"
				}
			],
			"stateMutability": "pure",
			"type": "function"
		}
	]
}