{
	"Day09/d9p1.sol": {
		"Hostel": {
			"abi": [
				{
					"inputs": [],
					"name": "hostelLocation",
					"outputs": [
						{
							"internalType": "string",
							"name": "",
							"type": "string"
						}
					],
					"stateMutability": "view",
					"type": "function"
				},
				{
					"inputs": [],
					"name": "hostelName",
					"outputs": [
						{
							"internalType": "string",
							"name": "",
							"type": "string"
						}
					],
					"stateMutability": "view",
					"type": "function"
				},
				{
					"inputs": [],
					"name": "numberOfRooms",
					"outputs": [
						{
							"internalType": "uint256",
							"name": "",
							"type": "uint256"
						}
					],
					"stateMutability": "view",
					"type": "function"
				},
				{
					"inputs": [],
					"name": "printHostelDetails",
					"outputs": [
						{
							"internalType": "string",
							"name": "",
							"type": "string"
						},
						{
							"internalType": "string",
							"name": "",
							"type": "string"
						},
						{
							"internalType": "uint256",
							"name": "",
							"type": "uint256"
						}
					],
					"stateMutability": "view",
					"type": "function"
				},
				{
					"inputs": [
						{
							"internalType": "string",
							"name": "_hostelName",
							"type": "string"
						},
						{
							"internalType": "string",
							"name": "_hostelLocation",
							"type": "string"
						},
						{
							"internalType": "uint256",
							"name": "_numberOfRooms",
							"type": "uint256"
						}
					],
					"name": "setHostelDetails",
					"outputs": [],
					"stateMutability": "nonpayable",
					"type": "function"
				}
			],
			"devdoc": {
				"kind": "dev",
				"methods": {},
				"version": 1
			},
			"evm": {
				"assembly": "    /* \"Day09/d9p1.sol\":237:764  contract Hostel {... */\n  mstore(0x40, 0x80)\n  callvalue\n  dup1\n  iszero\n  tag_1\n  jumpi\n  0x00\n  dup1\n  revert\ntag_1:\n  pop\n  dataSize(sub_0)\n  dup1\n  dataOffset(sub_0)\n  0x00\n  codecopy\n  0x00\n  return\nstop\n\nsub_0: assembly {\n        /* \"Day09/d9p1.sol\":237:764  contract Hostel {... */\n      mstore(0x40, 0x80)\n      callvalue\n      dup1\n      iszero\n      tag_1\n      jumpi\n      0x00\n      dup1\n      revert\n    tag_1:\n      pop\n      jumpi(tag_2, lt(calldatasize, 0x04))\n      shr(0xe0, calldataload(0x00))\n      dup1\n      0x11ebae41\n      eq\n      tag_3\n      jumpi\n      dup1\n      0x2224b6a9\n      eq\n      tag_4\n      jumpi\n      dup1\n      0x99d568b3\n      eq\n      tag_5\n      jumpi\n      dup1\n      0xcb9cb0c2\n      eq\n      tag_6\n      jumpi\n      dup1\n      0xf8fd1948\n      eq\n      tag_7\n      jumpi\n    tag_2:\n      0x00\n      dup1\n      revert\n        /* \"Day09/d9p1.sol\":291:319  string public hostelLocation */\n    tag_3:\n      tag_8\n      tag_9\n      jump\t// in\n    tag_8:\n      mload(0x40)\n      tag_10\n      swap2\n      swap1\n      tag_11\n      jump\t// in\n    tag_10:\n      mload(0x40)\n      dup1\n      swap2\n      sub\n      swap1\n      return\n        /* \"Day09/d9p1.sol\":358:597  function setHostelDetails(string memory _hostelName, string memory _hostelLocation, uint _numberOfRooms) public {... */\n    tag_4:\n      tag_12\n      0x04\n      dup1\n      calldatasize\n      sub\n      dup2\n      add\n      swap1\n      tag_13\n      swap2\n      swap1\n      tag_14\n      jump\t// in\n    tag_13:\n      tag_15\n      jump\t// in\n    tag_12:\n      stop\n        /* \"Day09/d9p1.sol\":326:351  uint public numberOfRooms */\n    tag_5:\n      tag_16\n      tag_17\n      jump\t// in\n    tag_16:\n      mload(0x40)\n      tag_18\n      swap2\n      swap1\n      tag_19\n      jump\t// in\n    tag_18:\n      mload(0x40)\n      dup1\n      swap2\n      sub\n      swap1\n      return\n        /* \"Day09/d9p1.sol\":260:284  string public hostelName */\n    tag_6:\n      tag_20\n      tag_21\n      jump\t// in\n    tag_20:\n      mload(0x40)\n      tag_22\n      swap2\n      swap1\n      tag_11\n      jump\t// in\n    tag_22:\n      mload(0x40)\n      dup1\n      swap2\n      sub\n      swap1\n      return\n        /* \"Day09/d9p1.sol\":605:761  function printHostelDetails() public view returns (string memory, string memory, uint) {... */\n    tag_7:\n      tag_23\n      tag_24\n      jump\t// in\n    tag_23:\n      mload(0x40)\n      tag_25\n      swap4\n      swap3\n      swap2\n      swap1\n      tag_26\n      jump\t// in\n    tag_25:\n      mload(0x40)\n      dup1\n      swap2\n      sub\n      swap1\n      return\n        /* \"Day09/d9p1.sol\":291:319  string public hostelLocation */\n    tag_9:\n      0x01\n      dup1\n      sload\n      tag_27\n      swap1\n      tag_28\n      jump\t// in\n    tag_27:\n      dup1\n      0x1f\n      add\n      0x20\n      dup1\n      swap2\n      div\n      mul\n      0x20\n      add\n      mload(0x40)\n      swap1\n      dup2\n      add\n      0x40\n      mstore\n      dup1\n      swap3\n      swap2\n      swap1\n      dup2\n      dup2\n      mstore\n      0x20\n      add\n      dup3\n      dup1\n      sload\n      tag_29\n      swap1\n      tag_28\n      jump\t// in\n    tag_29:\n      dup1\n      iszero\n      tag_30\n      jumpi\n      dup1\n      0x1f\n      lt\n      tag_31\n      jumpi\n      0x0100\n      dup1\n      dup4\n      sload\n      div\n      mul\n      dup4\n      mstore\n      swap2\n      0x20\n      add\n      swap2\n      jump(tag_30)\n    tag_31:\n      dup3\n      add\n      swap2\n      swap1\n      0x00\n      mstore\n      keccak256(0x00, 0x20)\n      swap1\n    tag_32:\n      dup2\n      sload\n      dup2\n      mstore\n      swap1\n      0x01\n      add\n      swap1\n      0x20\n      add\n      dup1\n      dup4\n      gt\n      tag_32\n      jumpi\n      dup3\n      swap1\n      sub\n      0x1f\n      and\n      dup3\n      add\n      swap2\n    tag_30:\n      pop\n      pop\n      pop\n      pop\n      pop\n      dup2\n      jump\t// out\n        /* \"Day09/d9p1.sol\":358:597  function setHostelDetails(string memory _hostelName, string memory _hostelLocation, uint _numberOfRooms) public {... */\n    tag_15:\n        /* \"Day09/d9p1.sol\":494:505  _hostelName */\n      dup3\n        /* \"Day09/d9p1.sol\":481:491  hostelName */\n      0x00\n        /* \"Day09/d9p1.sol\":481:505  hostelName = _hostelName */\n      swap1\n      dup2\n      tag_34\n      swap2\n      swap1\n      tag_35\n      jump\t// in\n    tag_34:\n      pop\n        /* \"Day09/d9p1.sol\":533:548  _hostelLocation */\n      dup2\n        /* \"Day09/d9p1.sol\":516:530  hostelLocation */\n      0x01\n        /* \"Day09/d9p1.sol\":516:548  hostelLocation = _hostelLocation */\n      swap1\n      dup2\n      tag_36\n      swap2\n      swap1\n      tag_35\n      jump\t// in\n    tag_36:\n      pop\n        /* \"Day09/d9p1.sol\":575:589  _numberOfRooms */\n      dup1\n        /* \"Day09/d9p1.sol\":559:572  numberOfRooms */\n      0x02\n        /* \"Day09/d9p1.sol\":559:589  numberOfRooms = _numberOfRooms */\n      dup2\n      swap1\n      sstore\n      pop\n        /* \"Day09/d9p1.sol\":358:597  function setHostelDetails(string memory _hostelName, string memory _hostelLocation, uint _numberOfRooms) public {... */\n      pop\n      pop\n      pop\n      jump\t// out\n        /* \"Day09/d9p1.sol\":326:351  uint public numberOfRooms */\n    tag_17:\n      sload(0x02)\n      dup2\n      jump\t// out\n        /* \"Day09/d9p1.sol\":260:284  string public hostelName */\n    tag_21:\n      0x00\n      dup1\n      sload\n      tag_37\n      swap1\n      tag_28\n      jump\t// in\n    tag_37:\n      dup1\n      0x1f\n      add\n      0x20\n      dup1\n      swap2\n      div\n      mul\n      0x20\n      add\n      mload(0x40)\n      swap1\n      dup2\n      add\n      0x40\n      mstore\n      dup1\n      swap3\n      swap2\n      swap1\n      dup2\n      dup2\n      mstore\n      0x20\n      add\n      dup3\n      dup1\n      sload\n      tag_38\n      swap1\n      tag_28\n      jump\t// in\n    tag_38:\n      dup1\n      iszero\n      tag_39\n      jumpi\n      dup1\n      0x1f\n      lt\n      tag_40\n      jumpi\n      0x0100\n      dup1\n      dup4\n      sload\n      div\n      mul\n      dup4\n      mstore\n      swap2\n      0x20\n      add\n      swap2\n      jump(tag_39)\n    tag_40:\n      dup3\n      add\n      swap2\n      swap1\n      0x00\n      mstore\n      keccak256(0x00, 0x20)\n      swap1\n    tag_41:\n      dup2\n      sload\n      dup2\n      mstore\n      swap1\n      0x01\n      add\n      swap1\n      0x20\n      add\n      dup1\n      dup4\n      gt\n      tag_41\n      jumpi\n      dup3\n      swap1\n      sub\n      0x1f\n      and\n      dup3\n      add\n      swap2\n    tag_39:\n      pop\n      pop\n      pop\n      pop\n      pop\n      dup2\n      jump\t// out\n        /* \"Day09/d9p1.sol\":605:761  function printHostelDetails() public view returns (string memory, string memory, uint) {... */\n    tag_24:\n        /* \"Day09/d9p1.sol\":656:669  string memory */\n      0x60\n        /* \"Day09/d9p1.sol\":671:684  string memory */\n      dup1\n        /* \"Day09/d9p1.sol\":686:690  uint */\n      0x00\n        /* \"Day09/d9p1.sol\":711:721  hostelName */\n      dup1\n        /* \"Day09/d9p1.sol\":723:737  hostelLocation */\n      0x01\n        /* \"Day09/d9p1.sol\":739:752  numberOfRooms */\n      sload(0x02)\n        /* \"Day09/d9p1.sol\":703:753  return (hostelName, hostelLocation, numberOfRooms) */\n      dup3\n      dup1\n      sload\n      tag_43\n      swap1\n      tag_28\n      jump\t// in\n    tag_43:\n      dup1\n      0x1f\n      add\n      0x20\n      dup1\n      swap2\n      div\n      mul\n      0x20\n      add\n      mload(0x40)\n      swap1\n      dup2\n      add\n      0x40\n      mstore\n      dup1\n      swap3\n      swap2\n      swap1\n      dup2\n      dup2\n      mstore\n      0x20\n      add\n      dup3\n      dup1\n      sload\n      tag_44\n      swap1\n      tag_28\n      jump\t// in\n    tag_44:\n      dup1\n      iszero\n      tag_45\n      jumpi\n      dup1\n      0x1f\n      lt\n      tag_46\n      jumpi\n      0x0100\n      dup1\n      dup4\n      sload\n      div\n      mul\n      dup4\n      mstore\n      swap2\n      0x20\n      add\n      swap2\n      jump(tag_45)\n    tag_46:\n      dup3\n      add\n      swap2\n      swap1\n      0x00\n      mstore\n      keccak256(0x00, 0x20)\n      swap1\n    tag_47:\n      dup2\n      sload\n      dup2\n      mstore\n      swap1\n      0x01\n      add\n      swap1\n      0x20\n      add\n      dup1\n      dup4\n      gt\n      tag_47\n      jumpi\n      dup3\n      swap1\n      sub\n      0x1f\n      and\n      dup3\n      add\n      swap2\n    tag_45:\n      pop\n      pop\n      pop\n      pop\n      pop\n      swap3\n      pop\n      dup2\n      dup1\n      sload\n      tag_48\n      swap1\n      tag_28\n      jump\t// in\n    tag_48:\n      dup1\n      0x1f\n      add\n      0x20\n      dup1\n      swap2\n      div\n      mul\n      0x20\n      add\n      mload(0x40)\n      swap1\n      dup2\n      add\n      0x40\n      mstore\n      dup1\n      swap3\n      swap2\n      swap1\n      dup2\n      dup2\n      mstore\n      0x20\n      add\n      dup3\n      dup1\n      sload\n      tag_49\n      swap1\n      tag_28\n      jump\t// in\n    tag_49:\n      dup1\n      iszero\n      tag_50\n      jumpi\n      dup1\n      0x1f\n      lt\n      tag_51\n      jumpi\n      0x0100\n      dup1\n      dup4\n      sload\n      div\n      mul\n      dup4\n      mstore\n      swap2\n      0x20\n      add\n      swap2\n      jump(tag_50)\n    tag_51:\n      dup3\n      add\n      swap2\n      swap1\n      0x00\n      mstore\n      keccak256(0x00, 0x20)\n      swap1\n    tag_52:\n      dup2\n      sload\n      dup2\n      mstore\n      swap1\n      0x01\n      add\n      swap1\n      0x20\n      add\n      dup1\n      dup4\n      gt\n      tag_52\n      jumpi\n      dup3\n      swap1\n      sub\n      0x1f\n      and\n      dup3\n      add\n      swap2\n    tag_50:\n      pop\n      pop\n      pop\n      pop\n      pop\n      swap2\n      pop\n      swap3\n      pop\n      swap3\n      pop\n      swap3\n      pop\n        /* \"Day09/d9p1.sol\":605:761  function printHostelDetails() public view returns (string memory, string memory, uint) {... */\n      swap1\n      swap2\n      swap3\n      jump\t// out\n        /* \"#utility.yul\":7:106   */\n    tag_53:\n        /* \"#utility.yul\":59:65   */\n      0x00\n        /* \"#utility.yul\":93:98   */\n      dup2\n        /* \"#utility.yul\":87:99   */\n      mload\n        /* \"#utility.yul\":77:99   */\n      swap1\n      pop\n        /* \"#utility.yul\":7:106   */\n      swap2\n      swap1\n      pop\n      jump\t// out\n        /* \"#utility.yul\":112:281   */\n    tag_54:\n        /* \"#utility.yul\":196:207   */\n      0x00\n        /* \"#utility.yul\":230:236   */\n      dup3\n        /* \"#utility.yul\":225:228   */\n      dup3\n        /* \"#utility.yul\":218:237   */\n      mstore\n        /* \"#utility.yul\":270:274   */\n      0x20\n        /* \"#utility.yul\":265:268   */\n      dup3\n        /* \"#utility.yul\":261:275   */\n      add\n        /* \"#utility.yul\":246:275   */\n      swap1\n      pop\n        /* \"#utility.yul\":112:281   */\n      swap3\n      swap2\n      pop\n      pop\n      jump\t// out\n        /* \"#utility.yul\":287:426   */\n    tag_55:\n        /* \"#utility.yul\":376:382   */\n      dup3\n        /* \"#utility.yul\":371:374   */\n      dup2\n        /* \"#utility.yul\":366:369   */\n      dup4\n        /* \"#utility.yul\":360:383   */\n      mcopy\n        /* \"#utility.yul\":417:418   */\n      0x00\n        /* \"#utility.yul\":408:414   */\n      dup4\n        /* \"#utility.yul\":403:406   */\n      dup4\n        /* \"#utility.yul\":399:415   */\n      add\n        /* \"#utility.yul\":392:419   */\n      mstore\n        /* \"#utility.yul\":287:426   */\n      pop\n      pop\n      pop\n      jump\t// out\n        /* \"#utility.yul\":432:534   */\n    tag_56:\n        /* \"#utility.yul\":473:479   */\n      0x00\n        /* \"#utility.yul\":524:526   */\n      0x1f\n        /* \"#utility.yul\":520:527   */\n      not\n        /* \"#utility.yul\":515:517   */\n      0x1f\n        /* \"#utility.yul\":508:513   */\n      dup4\n        /* \"#utility.yul\":504:518   */\n      add\n        /* \"#utility.yul\":500:528   */\n      and\n        /* \"#utility.yul\":490:528   */\n      swap1\n      pop\n        /* \"#utility.yul\":432:534   */\n      swap2\n      swap1\n      pop\n      jump\t// out\n        /* \"#utility.yul\":540:917   */\n    tag_57:\n        /* \"#utility.yul\":628:631   */\n      0x00\n        /* \"#utility.yul\":656:695   */\n      tag_96\n        /* \"#utility.yul\":689:694   */\n      dup3\n        /* \"#utility.yul\":656:695   */\n      tag_53\n      jump\t// in\n    tag_96:\n        /* \"#utility.yul\":711:782   */\n      tag_97\n        /* \"#utility.yul\":775:781   */\n      dup2\n        /* \"#utility.yul\":770:773   */\n      dup6\n        /* \"#utility.yul\":711:782   */\n      tag_54\n      jump\t// in\n    tag_97:\n        /* \"#utility.yul\":704:782   */\n      swap4\n      pop\n        /* \"#utility.yul\":791:856   */\n      tag_98\n        /* \"#utility.yul\":849:855   */\n      dup2\n        /* \"#utility.yul\":844:847   */\n      dup6\n        /* \"#utility.yul\":837:841   */\n      0x20\n        /* \"#utility.yul\":830:835   */\n      dup7\n        /* \"#utility.yul\":826:842   */\n      add\n        /* \"#utility.yul\":791:856   */\n      tag_55\n      jump\t// in\n    tag_98:\n        /* \"#utility.yul\":881:910   */\n      tag_99\n        /* \"#utility.yul\":903:909   */\n      dup2\n        /* \"#utility.yul\":881:910   */\n      tag_56\n      jump\t// in\n    tag_99:\n        /* \"#utility.yul\":876:879   */\n      dup5\n        /* \"#utility.yul\":872:911   */\n      add\n        /* \"#utility.yul\":865:911   */\n      swap2\n      pop\n        /* \"#utility.yul\":632:917   */\n      pop\n        /* \"#utility.yul\":540:917   */\n      swap3\n      swap2\n      pop\n      pop\n      jump\t// out\n        /* \"#utility.yul\":923:1236   */\n    tag_11:\n        /* \"#utility.yul\":1036:1040   */\n      0x00\n        /* \"#utility.yul\":1074:1076   */\n      0x20\n        /* \"#utility.yul\":1063:1072   */\n      dup3\n        /* \"#utility.yul\":1059:1077   */\n      add\n        /* \"#utility.yul\":1051:1077   */\n      swap1\n      pop\n        /* \"#utility.yul\":1123:1132   */\n      dup2\n        /* \"#utility.yul\":1117:1121   */\n      dup2\n        /* \"#utility.yul\":1113:1133   */\n      sub\n        /* \"#utility.yul\":1109:1110   */\n      0x00\n        /* \"#utility.yul\":1098:1107   */\n      dup4\n        /* \"#utility.yul\":1094:1111   */\n      add\n        /* \"#utility.yul\":1087:1134   */\n      mstore\n        /* \"#utility.yul\":1151:1229   */\n      tag_101\n        /* \"#utility.yul\":1224:1228   */\n      dup2\n        /* \"#utility.yul\":1215:1221   */\n      dup5\n        /* \"#utility.yul\":1151:1229   */\n      tag_57\n      jump\t// in\n    tag_101:\n        /* \"#utility.yul\":1143:1229   */\n      swap1\n      pop\n        /* \"#utility.yul\":923:1236   */\n      swap3\n      swap2\n      pop\n      pop\n      jump\t// out\n        /* \"#utility.yul\":1242:1317   */\n    tag_58:\n        /* \"#utility.yul\":1275:1281   */\n      0x00\n        /* \"#utility.yul\":1308:1310   */\n      0x40\n        /* \"#utility.yul\":1302:1311   */\n      mload\n        /* \"#utility.yul\":1292:1311   */\n      swap1\n      pop\n        /* \"#utility.yul\":1242:1317   */\n      swap1\n      jump\t// out\n        /* \"#utility.yul\":1323:1440   */\n    tag_59:\n        /* \"#utility.yul\":1432:1433   */\n      0x00\n        /* \"#utility.yul\":1429:1430   */\n      dup1\n        /* \"#utility.yul\":1422:1434   */\n      revert\n        /* \"#utility.yul\":1446:1563   */\n    tag_60:\n        /* \"#utility.yul\":1555:1556   */\n      0x00\n        /* \"#utility.yul\":1552:1553   */\n      dup1\n        /* \"#utility.yul\":1545:1557   */\n      revert\n        /* \"#utility.yul\":1569:1686   */\n    tag_61:\n        /* \"#utility.yul\":1678:1679   */\n      0x00\n        /* \"#utility.yul\":1675:1676   */\n      dup1\n        /* \"#utility.yul\":1668:1680   */\n      revert\n        /* \"#utility.yul\":1692:1809   */\n    tag_62:\n        /* \"#utility.yul\":1801:1802   */\n      0x00\n        /* \"#utility.yul\":1798:1799   */\n      dup1\n        /* \"#utility.yul\":1791:1803   */\n      revert\n        /* \"#utility.yul\":1815:1995   */\n    tag_63:\n        /* \"#utility.yul\":1863:1940   */\n      0x4e487b7100000000000000000000000000000000000000000000000000000000\n        /* \"#utility.yul\":1860:1861   */\n      0x00\n        /* \"#utility.yul\":1853:1941   */\n      mstore\n        /* \"#utility.yul\":1960:1964   */\n      0x41\n        /* \"#utility.yul\":1957:1958   */\n      0x04\n        /* \"#utility.yul\":1950:1965   */\n      mstore\n        /* \"#utility.yul\":1984:1988   */\n      0x24\n        /* \"#utility.yul\":1981:1982   */\n      0x00\n        /* \"#utility.yul\":1974:1989   */\n      revert\n        /* \"#utility.yul\":2001:2282   */\n    tag_64:\n        /* \"#utility.yul\":2084:2111   */\n      tag_109\n        /* \"#utility.yul\":2106:2110   */\n      dup3\n        /* \"#utility.yul\":2084:2111   */\n      tag_56\n      jump\t// in\n    tag_109:\n        /* \"#utility.yul\":2076:2082   */\n      dup2\n        /* \"#utility.yul\":2072:2112   */\n      add\n        /* \"#utility.yul\":2214:2220   */\n      dup2\n        /* \"#utility.yul\":2202:2212   */\n      dup2\n        /* \"#utility.yul\":2199:2221   */\n      lt\n        /* \"#utility.yul\":2178:2196   */\n      0xffffffffffffffff\n        /* \"#utility.yul\":2166:2176   */\n      dup3\n        /* \"#utility.yul\":2163:2197   */\n      gt\n        /* \"#utility.yul\":2160:2222   */\n      or\n        /* \"#utility.yul\":2157:2245   */\n      iszero\n      tag_110\n      jumpi\n        /* \"#utility.yul\":2225:2243   */\n      tag_111\n      tag_63\n      jump\t// in\n    tag_111:\n        /* \"#utility.yul\":2157:2245   */\n    tag_110:\n        /* \"#utility.yul\":2265:2275   */\n      dup1\n        /* \"#utility.yul\":2261:2263   */\n      0x40\n        /* \"#utility.yul\":2254:2276   */\n      mstore\n        /* \"#utility.yul\":2044:2282   */\n      pop\n        /* \"#utility.yul\":2001:2282   */\n      pop\n      pop\n      jump\t// out\n        /* \"#utility.yul\":2288:2417   */\n    tag_65:\n        /* \"#utility.yul\":2322:2328   */\n      0x00\n        /* \"#utility.yul\":2349:2369   */\n      tag_113\n      tag_58\n      jump\t// in\n    tag_113:\n        /* \"#utility.yul\":2339:2369   */\n      swap1\n      pop\n        /* \"#utility.yul\":2378:2411   */\n      tag_114\n        /* \"#utility.yul\":2406:2410   */\n      dup3\n        /* \"#utility.yul\":2398:2404   */\n      dup3\n        /* \"#utility.yul\":2378:2411   */\n      tag_64\n      jump\t// in\n    tag_114:\n        /* \"#utility.yul\":2288:2417   */\n      swap2\n      swap1\n      pop\n      jump\t// out\n        /* \"#utility.yul\":2423:2731   */\n    tag_66:\n        /* \"#utility.yul\":2485:2489   */\n      0x00\n        /* \"#utility.yul\":2575:2593   */\n      0xffffffffffffffff\n        /* \"#utility.yul\":2567:2573   */\n      dup3\n        /* \"#utility.yul\":2564:2594   */\n      gt\n        /* \"#utility.yul\":2561:2617   */\n      iszero\n      tag_116\n      jumpi\n        /* \"#utility.yul\":2597:2615   */\n      tag_117\n      tag_63\n      jump\t// in\n    tag_117:\n        /* \"#utility.yul\":2561:2617   */\n    tag_116:\n        /* \"#utility.yul\":2635:2664   */\n      tag_118\n        /* \"#utility.yul\":2657:2663   */\n      dup3\n        /* \"#utility.yul\":2635:2664   */\n      tag_56\n      jump\t// in\n    tag_118:\n        /* \"#utility.yul\":2627:2664   */\n      swap1\n      pop\n        /* \"#utility.yul\":2719:2723   */\n      0x20\n        /* \"#utility.yul\":2713:2717   */\n      dup2\n        /* \"#utility.yul\":2709:2724   */\n      add\n        /* \"#utility.yul\":2701:2724   */\n      swap1\n      pop\n        /* \"#utility.yul\":2423:2731   */\n      swap2\n      swap1\n      pop\n      jump\t// out\n        /* \"#utility.yul\":2737:2885   */\n    tag_67:\n        /* \"#utility.yul\":2835:2841   */\n      dup3\n        /* \"#utility.yul\":2830:2833   */\n      dup2\n        /* \"#utility.yul\":2825:2828   */\n      dup4\n        /* \"#utility.yul\":2812:2842   */\n      calldatacopy\n        /* \"#utility.yul\":2876:2877   */\n      0x00\n        /* \"#utility.yul\":2867:2873   */\n      dup4\n        /* \"#utility.yul\":2862:2865   */\n      dup4\n        /* \"#utility.yul\":2858:2874   */\n      add\n        /* \"#utility.yul\":2851:2878   */\n      mstore\n        /* \"#utility.yul\":2737:2885   */\n      pop\n      pop\n      pop\n      jump\t// out\n        /* \"#utility.yul\":2891:3316   */\n    tag_68:\n        /* \"#utility.yul\":2969:2974   */\n      0x00\n        /* \"#utility.yul\":2994:3060   */\n      tag_121\n        /* \"#utility.yul\":3010:3059   */\n      tag_122\n        /* \"#utility.yul\":3052:3058   */\n      dup5\n        /* \"#utility.yul\":3010:3059   */\n      tag_66\n      jump\t// in\n    tag_122:\n        /* \"#utility.yul\":2994:3060   */\n      tag_65\n      jump\t// in\n    tag_121:\n        /* \"#utility.yul\":2985:3060   */\n      swap1\n      pop\n        /* \"#utility.yul\":3083:3089   */\n      dup3\n        /* \"#utility.yul\":3076:3081   */\n      dup2\n        /* \"#utility.yul\":3069:3090   */\n      mstore\n        /* \"#utility.yul\":3121:3125   */\n      0x20\n        /* \"#utility.yul\":3114:3119   */\n      dup2\n        /* \"#utility.yul\":3110:3126   */\n      add\n        /* \"#utility.yul\":3159:3162   */\n      dup5\n        /* \"#utility.yul\":3150:3156   */\n      dup5\n        /* \"#utility.yul\":3145:3148   */\n      dup5\n        /* \"#utility.yul\":3141:3157   */\n      add\n        /* \"#utility.yul\":3138:3163   */\n      gt\n        /* \"#utility.yul\":3135:3247   */\n      iszero\n      tag_123\n      jumpi\n        /* \"#utility.yul\":3166:3245   */\n      tag_124\n      tag_62\n      jump\t// in\n    tag_124:\n        /* \"#utility.yul\":3135:3247   */\n    tag_123:\n        /* \"#utility.yul\":3256:3310   */\n      tag_125\n        /* \"#utility.yul\":3303:3309   */\n      dup5\n        /* \"#utility.yul\":3298:3301   */\n      dup3\n        /* \"#utility.yul\":3293:3296   */\n      dup6\n        /* \"#utility.yul\":3256:3310   */\n      tag_67\n      jump\t// in\n    tag_125:\n        /* \"#utility.yul\":2975:3316   */\n      pop\n        /* \"#utility.yul\":2891:3316   */\n      swap4\n      swap3\n      pop\n      pop\n      pop\n      jump\t// out\n        /* \"#utility.yul\":3336:3676   */\n    tag_69:\n        /* \"#utility.yul\":3392:3397   */\n      0x00\n        /* \"#utility.yul\":3441:3444   */\n      dup3\n        /* \"#utility.yul\":3434:3438   */\n      0x1f\n        /* \"#utility.yul\":3426:3432   */\n      dup4\n        /* \"#utility.yul\":3422:3439   */\n      add\n        /* \"#utility.yul\":3418:3445   */\n      slt\n        /* \"#utility.yul\":3408:3530   */\n      tag_127\n      jumpi\n        /* \"#utility.yul\":3449:3528   */\n      tag_128\n      tag_61\n      jump\t// in\n    tag_128:\n        /* \"#utility.yul\":3408:3530   */\n    tag_127:\n        /* \"#utility.yul\":3566:3572   */\n      dup2\n        /* \"#utility.yul\":3553:3573   */\n      calldataload\n        /* \"#utility.yul\":3591:3670   */\n      tag_129\n        /* \"#utility.yul\":3666:3669   */\n      dup5\n        /* \"#utility.yul\":3658:3664   */\n      dup3\n        /* \"#utility.yul\":3651:3655   */\n      0x20\n        /* \"#utility.yul\":3643:3649   */\n      dup7\n        /* \"#utility.yul\":3639:3656   */\n      add\n        /* \"#utility.yul\":3591:3670   */\n      tag_68\n      jump\t// in\n    tag_129:\n        /* \"#utility.yul\":3582:3670   */\n      swap2\n      pop\n        /* \"#utility.yul\":3398:3676   */\n      pop\n        /* \"#utility.yul\":3336:3676   */\n      swap3\n      swap2\n      pop\n      pop\n      jump\t// out\n        /* \"#utility.yul\":3682:3759   */\n    tag_70:\n        /* \"#utility.yul\":3719:3726   */\n      0x00\n        /* \"#utility.yul\":3748:3753   */\n      dup2\n        /* \"#utility.yul\":3737:3753   */\n      swap1\n      pop\n        /* \"#utility.yul\":3682:3759   */\n      swap2\n      swap1\n      pop\n      jump\t// out\n        /* \"#utility.yul\":3765:3887   */\n    tag_71:\n        /* \"#utility.yul\":3838:3862   */\n      tag_132\n        /* \"#utility.yul\":3856:3861   */\n      dup2\n        /* \"#utility.yul\":3838:3862   */\n      tag_70\n      jump\t// in\n    tag_132:\n        /* \"#utility.yul\":3831:3836   */\n      dup2\n        /* \"#utility.yul\":3828:3863   */\n      eq\n        /* \"#utility.yul\":3818:3881   */\n      tag_133\n      jumpi\n        /* \"#utility.yul\":3877:3878   */\n      0x00\n        /* \"#utility.yul\":3874:3875   */\n      dup1\n        /* \"#utility.yul\":3867:3879   */\n      revert\n        /* \"#utility.yul\":3818:3881   */\n    tag_133:\n        /* \"#utility.yul\":3765:3887   */\n      pop\n      jump\t// out\n        /* \"#utility.yul\":3893:4032   */\n    tag_72:\n        /* \"#utility.yul\":3939:3944   */\n      0x00\n        /* \"#utility.yul\":3977:3983   */\n      dup2\n        /* \"#utility.yul\":3964:3984   */\n      calldataload\n        /* \"#utility.yul\":3955:3984   */\n      swap1\n      pop\n        /* \"#utility.yul\":3993:4026   */\n      tag_135\n        /* \"#utility.yul\":4020:4025   */\n      dup2\n        /* \"#utility.yul\":3993:4026   */\n      tag_71\n      jump\t// in\n    tag_135:\n        /* \"#utility.yul\":3893:4032   */\n      swap3\n      swap2\n      pop\n      pop\n      jump\t// out\n        /* \"#utility.yul\":4038:5017   */\n    tag_14:\n        /* \"#utility.yul\":4135:4141   */\n      0x00\n        /* \"#utility.yul\":4143:4149   */\n      dup1\n        /* \"#utility.yul\":4151:4157   */\n      0x00\n        /* \"#utility.yul\":4200:4202   */\n      0x60\n        /* \"#utility.yul\":4188:4197   */\n      dup5\n        /* \"#utility.yul\":4179:4186   */\n      dup7\n        /* \"#utility.yul\":4175:4198   */\n      sub\n        /* \"#utility.yul\":4171:4203   */\n      slt\n        /* \"#utility.yul\":4168:4287   */\n      iszero\n      tag_137\n      jumpi\n        /* \"#utility.yul\":4206:4285   */\n      tag_138\n      tag_59\n      jump\t// in\n    tag_138:\n        /* \"#utility.yul\":4168:4287   */\n    tag_137:\n        /* \"#utility.yul\":4354:4355   */\n      0x00\n        /* \"#utility.yul\":4343:4352   */\n      dup5\n        /* \"#utility.yul\":4339:4356   */\n      add\n        /* \"#utility.yul\":4326:4357   */\n      calldataload\n        /* \"#utility.yul\":4384:4402   */\n      0xffffffffffffffff\n        /* \"#utility.yul\":4376:4382   */\n      dup2\n        /* \"#utility.yul\":4373:4403   */\n      gt\n        /* \"#utility.yul\":4370:4487   */\n      iszero\n      tag_139\n      jumpi\n        /* \"#utility.yul\":4406:4485   */\n      tag_140\n      tag_60\n      jump\t// in\n    tag_140:\n        /* \"#utility.yul\":4370:4487   */\n    tag_139:\n        /* \"#utility.yul\":4511:4574   */\n      tag_141\n        /* \"#utility.yul\":4566:4573   */\n      dup7\n        /* \"#utility.yul\":4557:4563   */\n      dup3\n        /* \"#utility.yul\":4546:4555   */\n      dup8\n        /* \"#utility.yul\":4542:4564   */\n      add\n        /* \"#utility.yul\":4511:4574   */\n      tag_69\n      jump\t// in\n    tag_141:\n        /* \"#utility.yul\":4501:4574   */\n      swap4\n      pop\n        /* \"#utility.yul\":4297:4584   */\n      pop\n        /* \"#utility.yul\":4651:4653   */\n      0x20\n        /* \"#utility.yul\":4640:4649   */\n      dup5\n        /* \"#utility.yul\":4636:4654   */\n      add\n        /* \"#utility.yul\":4623:4655   */\n      calldataload\n        /* \"#utility.yul\":4682:4700   */\n      0xffffffffffffffff\n        /* \"#utility.yul\":4674:4680   */\n      dup2\n        /* \"#utility.yul\":4671:4701   */\n      gt\n        /* \"#utility.yul\":4668:4785   */\n      iszero\n      tag_142\n      jumpi\n        /* \"#utility.yul\":4704:4783   */\n      tag_143\n      tag_60\n      jump\t// in\n    tag_143:\n        /* \"#utility.yul\":4668:4785   */\n    tag_142:\n        /* \"#utility.yul\":4809:4872   */\n      tag_144\n        /* \"#utility.yul\":4864:4871   */\n      dup7\n        /* \"#utility.yul\":4855:4861   */\n      dup3\n        /* \"#utility.yul\":4844:4853   */\n      dup8\n        /* \"#utility.yul\":4840:4862   */\n      add\n        /* \"#utility.yul\":4809:4872   */\n      tag_69\n      jump\t// in\n    tag_144:\n        /* \"#utility.yul\":4799:4872   */\n      swap3\n      pop\n        /* \"#utility.yul\":4594:4882   */\n      pop\n        /* \"#utility.yul\":4921:4923   */\n      0x40\n        /* \"#utility.yul\":4947:5000   */\n      tag_145\n        /* \"#utility.yul\":4992:4999   */\n      dup7\n        /* \"#utility.yul\":4983:4989   */\n      dup3\n        /* \"#utility.yul\":4972:4981   */\n      dup8\n        /* \"#utility.yul\":4968:4990   */\n      add\n        /* \"#utility.yul\":4947:5000   */\n      tag_72\n      jump\t// in\n    tag_145:\n        /* \"#utility.yul\":4937:5000   */\n      swap2\n      pop\n        /* \"#utility.yul\":4892:5010   */\n      pop\n        /* \"#utility.yul\":4038:5017   */\n      swap3\n      pop\n      swap3\n      pop\n      swap3\n      jump\t// out\n        /* \"#utility.yul\":5023:5141   */\n    tag_73:\n        /* \"#utility.yul\":5110:5134   */\n      tag_147\n        /* \"#utility.yul\":5128:5133   */\n      dup2\n        /* \"#utility.yul\":5110:5134   */\n      tag_70\n      jump\t// in\n    tag_147:\n        /* \"#utility.yul\":5105:5108   */\n      dup3\n        /* \"#utility.yul\":5098:5135   */\n      mstore\n        /* \"#utility.yul\":5023:5141   */\n      pop\n      pop\n      jump\t// out\n        /* \"#utility.yul\":5147:5369   */\n    tag_19:\n        /* \"#utility.yul\":5240:5244   */\n      0x00\n        /* \"#utility.yul\":5278:5280   */\n      0x20\n        /* \"#utility.yul\":5267:5276   */\n      dup3\n        /* \"#utility.yul\":5263:5281   */\n      add\n        /* \"#utility.yul\":5255:5281   */\n      swap1\n      pop\n        /* \"#utility.yul\":5291:5362   */\n      tag_149\n        /* \"#utility.yul\":5359:5360   */\n      0x00\n        /* \"#utility.yul\":5348:5357   */\n      dup4\n        /* \"#utility.yul\":5344:5361   */\n      add\n        /* \"#utility.yul\":5335:5341   */\n      dup5\n        /* \"#utility.yul\":5291:5362   */\n      tag_73\n      jump\t// in\n    tag_149:\n        /* \"#utility.yul\":5147:5369   */\n      swap3\n      swap2\n      pop\n      pop\n      jump\t// out\n        /* \"#utility.yul\":5375:5999   */\n    tag_26:\n        /* \"#utility.yul\":5564:5568   */\n      0x00\n        /* \"#utility.yul\":5602:5604   */\n      0x60\n        /* \"#utility.yul\":5591:5600   */\n      dup3\n        /* \"#utility.yul\":5587:5605   */\n      add\n        /* \"#utility.yul\":5579:5605   */\n      swap1\n      pop\n        /* \"#utility.yul\":5651:5660   */\n      dup2\n        /* \"#utility.yul\":5645:5649   */\n      dup2\n        /* \"#utility.yul\":5641:5661   */\n      sub\n        /* \"#utility.yul\":5637:5638   */\n      0x00\n        /* \"#utility.yul\":5626:5635   */\n      dup4\n        /* \"#utility.yul\":5622:5639   */\n      add\n        /* \"#utility.yul\":5615:5662   */\n      mstore\n        /* \"#utility.yul\":5679:5757   */\n      tag_151\n        /* \"#utility.yul\":5752:5756   */\n      dup2\n        /* \"#utility.yul\":5743:5749   */\n      dup7\n        /* \"#utility.yul\":5679:5757   */\n      tag_57\n      jump\t// in\n    tag_151:\n        /* \"#utility.yul\":5671:5757   */\n      swap1\n      pop\n        /* \"#utility.yul\":5804:5813   */\n      dup2\n        /* \"#utility.yul\":5798:5802   */\n      dup2\n        /* \"#utility.yul\":5794:5814   */\n      sub\n        /* \"#utility.yul\":5789:5791   */\n      0x20\n        /* \"#utility.yul\":5778:5787   */\n      dup4\n        /* \"#utility.yul\":5774:5792   */\n      add\n        /* \"#utility.yul\":5767:5815   */\n      mstore\n        /* \"#utility.yul\":5832:5910   */\n      tag_152\n        /* \"#utility.yul\":5905:5909   */\n      dup2\n        /* \"#utility.yul\":5896:5902   */\n      dup6\n        /* \"#utility.yul\":5832:5910   */\n      tag_57\n      jump\t// in\n    tag_152:\n        /* \"#utility.yul\":5824:5910   */\n      swap1\n      pop\n        /* \"#utility.yul\":5920:5992   */\n      tag_153\n        /* \"#utility.yul\":5988:5990   */\n      0x40\n        /* \"#utility.yul\":5977:5986   */\n      dup4\n        /* \"#utility.yul\":5973:5991   */\n      add\n        /* \"#utility.yul\":5964:5970   */\n      dup5\n        /* \"#utility.yul\":5920:5992   */\n      tag_73\n      jump\t// in\n    tag_153:\n        /* \"#utility.yul\":5375:5999   */\n      swap5\n      swap4\n      pop\n      pop\n      pop\n      pop\n      jump\t// out\n        /* \"#utility.yul\":6005:6185   */\n    tag_74:\n        /* \"#utility.yul\":6053:6130   */\n      0x4e487b7100000000000000000000000000000000000000000000000000000000\n        /* \"#utility.yul\":6050:6051   */\n      0x00\n        /* \"#utility.yul\":6043:6131   */\n      mstore\n        /* \"#utility.yul\":6150:6154   */\n      0x22\n        /* \"#utility.yul\":6147:6148   */\n      0x04\n        /* \"#utility.yul\":6140:6155   */\n      mstore\n        /* \"#utility.yul\":6174:6178   */\n      0x24\n        /* \"#utility.yul\":6171:6172   */\n      0x00\n        /* \"#utility.yul\":6164:6179   */\n      revert\n        /* \"#utility.yul\":6191:6511   */\n    tag_28:\n        /* \"#utility.yul\":6235:6241   */\n      0x00\n        /* \"#utility.yul\":6272:6273   */\n      0x02\n        /* \"#utility.yul\":6266:6270   */\n      dup3\n        /* \"#utility.yul\":6262:6274   */\n      div\n        /* \"#utility.yul\":6252:6274   */\n      swap1\n      pop\n        /* \"#utility.yul\":6319:6320   */\n      0x01\n        /* \"#utility.yul\":6313:6317   */\n      dup3\n        /* \"#utility.yul\":6309:6321   */\n      and\n        /* \"#utility.yul\":6340:6358   */\n      dup1\n        /* \"#utility.yul\":6330:6411   */\n      tag_156\n      jumpi\n        /* \"#utility.yul\":6396:6400   */\n      0x7f\n        /* \"#utility.yul\":6388:6394   */\n      dup3\n        /* \"#utility.yul\":6384:6401   */\n      and\n        /* \"#utility.yul\":6374:6401   */\n      swap2\n      pop\n        /* \"#utility.yul\":6330:6411   */\n    tag_156:\n        /* \"#utility.yul\":6458:6460   */\n      0x20\n        /* \"#utility.yul\":6450:6456   */\n      dup3\n        /* \"#utility.yul\":6447:6461   */\n      lt\n        /* \"#utility.yul\":6427:6445   */\n      dup2\n        /* \"#utility.yul\":6424:6462   */\n      sub\n        /* \"#utility.yul\":6421:6505   */\n      tag_157\n      jumpi\n        /* \"#utility.yul\":6477:6495   */\n      tag_158\n      tag_74\n      jump\t// in\n    tag_158:\n        /* \"#utility.yul\":6421:6505   */\n    tag_157:\n        /* \"#utility.yul\":6242:6511   */\n      pop\n        /* \"#utility.yul\":6191:6511   */\n      swap2\n      swap1\n      pop\n      jump\t// out\n        /* \"#utility.yul\":6517:6658   */\n    tag_75:\n        /* \"#utility.yul\":6566:6570   */\n      0x00\n        /* \"#utility.yul\":6589:6592   */\n      dup2\n        /* \"#utility.yul\":6581:6592   */\n      swap1\n      pop\n        /* \"#utility.yul\":6612:6615   */\n      dup2\n        /* \"#utility.yul\":6609:6610   */\n      0x00\n        /* \"#utility.yul\":6602:6616   */\n      mstore\n        /* \"#utility.yul\":6646:6650   */\n      0x20\n        /* \"#utility.yul\":6643:6644   */\n      0x00\n        /* \"#utility.yul\":6633:6651   */\n      keccak256\n        /* \"#utility.yul\":6625:6651   */\n      swap1\n      pop\n        /* \"#utility.yul\":6517:6658   */\n      swap2\n      swap1\n      pop\n      jump\t// out\n        /* \"#utility.yul\":6664:6757   */\n    tag_76:\n        /* \"#utility.yul\":6701:6707   */\n      0x00\n        /* \"#utility.yul\":6748:6750   */\n      0x20\n        /* \"#utility.yul\":6743:6745   */\n      0x1f\n        /* \"#utility.yul\":6736:6741   */\n      dup4\n        /* \"#utility.yul\":6732:6746   */\n      add\n        /* \"#utility.yul\":6728:6751   */\n      div\n        /* \"#utility.yul\":6718:6751   */\n      swap1\n      pop\n        /* \"#utility.yul\":6664:6757   */\n      swap2\n      swap1\n      pop\n      jump\t// out\n        /* \"#utility.yul\":6763:6870   */\n    tag_77:\n        /* \"#utility.yul\":6807:6815   */\n      0x00\n        /* \"#utility.yul\":6857:6862   */\n      dup3\n        /* \"#utility.yul\":6851:6855   */\n      dup3\n        /* \"#utility.yul\":6847:6863   */\n      shl\n        /* \"#utility.yul\":6826:6863   */\n      swap1\n      pop\n        /* \"#utility.yul\":6763:6870   */\n      swap3\n      swap2\n      pop\n      pop\n      jump\t// out\n        /* \"#utility.yul\":6876:7269   */\n    tag_78:\n        /* \"#utility.yul\":6945:6951   */\n      0x00\n        /* \"#utility.yul\":6995:6996   */\n      0x08\n        /* \"#utility.yul\":6983:6993   */\n      dup4\n        /* \"#utility.yul\":6979:6997   */\n      mul\n        /* \"#utility.yul\":7018:7115   */\n      tag_163\n        /* \"#utility.yul\":7048:7114   */\n      0xffffffffffffffffffffffffffffffffffffffffffffffffffffffffffffffff\n        /* \"#utility.yul\":7037:7046   */\n      dup3\n        /* \"#utility.yul\":7018:7115   */\n      tag_77\n      jump\t// in\n    tag_163:\n        /* \"#utility.yul\":7136:7175   */\n      tag_164\n        /* \"#utility.yul\":7166:7174   */\n      dup7\n        /* \"#utility.yul\":7155:7164   */\n      dup4\n        /* \"#utility.yul\":7136:7175   */\n      tag_77\n      jump\t// in\n    tag_164:\n        /* \"#utility.yul\":7124:7175   */\n      swap6\n      pop\n        /* \"#utility.yul\":7208:7212   */\n      dup1\n        /* \"#utility.yul\":7204:7213   */\n      not\n        /* \"#utility.yul\":7197:7202   */\n      dup5\n        /* \"#utility.yul\":7193:7214   */\n      and\n        /* \"#utility.yul\":7184:7214   */\n      swap4\n      pop\n        /* \"#utility.yul\":7257:7261   */\n      dup1\n        /* \"#utility.yul\":7247:7255   */\n      dup7\n        /* \"#utility.yul\":7243:7262   */\n      and\n        /* \"#utility.yul\":7236:7241   */\n      dup5\n        /* \"#utility.yul\":7233:7263   */\n      or\n        /* \"#utility.yul\":7223:7263   */\n      swap3\n      pop\n        /* \"#utility.yul\":6952:7269   */\n      pop\n      pop\n        /* \"#utility.yul\":6876:7269   */\n      swap4\n      swap3\n      pop\n      pop\n      pop\n      jump\t// out\n        /* \"#utility.yul\":7275:7335   */\n    tag_79:\n        /* \"#utility.yul\":7303:7306   */\n      0x00\n        /* \"#utility.yul\":7324:7329   */\n      dup2\n        /* \"#utility.yul\":7317:7329   */\n      swap1\n      pop\n        /* \"#utility.yul\":7275:7335   */\n      swap2\n      swap1\n      pop\n      jump\t// out\n        /* \"#utility.yul\":7341:7483   */\n    tag_80:\n        /* \"#utility.yul\":7391:7400   */\n      0x00\n        /* \"#utility.yul\":7424:7477   */\n      tag_167\n        /* \"#utility.yul\":7442:7476   */\n      tag_168\n        /* \"#utility.yul\":7451:7475   */\n      tag_169\n        /* \"#utility.yul\":7469:7474   */\n      dup5\n        /* \"#utility.yul\":7451:7475   */\n      tag_70\n      jump\t// in\n    tag_169:\n        /* \"#utility.yul\":7442:7476   */\n      tag_79\n      jump\t// in\n    tag_168:\n        /* \"#utility.yul\":7424:7477   */\n      tag_70\n      jump\t// in\n    tag_167:\n        /* \"#utility.yul\":7411:7477   */\n      swap1\n      pop\n        /* \"#utility.yul\":7341:7483   */\n      swap2\n      swap1\n      pop\n      jump\t// out\n        /* \"#utility.yul\":7489:7564   */\n    tag_81:\n        /* \"#utility.yul\":7532:7535   */\n      0x00\n        /* \"#utility.yul\":7553:7558   */\n      dup2\n        /* \"#utility.yul\":7546:7558   */\n      swap1\n      pop\n        /* \"#utility.yul\":7489:7564   */\n      swap2\n      swap1\n      pop\n      jump\t// out\n        /* \"#utility.yul\":7570:7839   */\n    tag_82:\n        /* \"#utility.yul\":7680:7719   */\n      tag_172\n        /* \"#utility.yul\":7711:7718   */\n      dup4\n        /* \"#utility.yul\":7680:7719   */\n      tag_80\n      jump\t// in\n    tag_172:\n        /* \"#utility.yul\":7741:7832   */\n      tag_173\n        /* \"#utility.yul\":7790:7831   */\n      tag_174\n        /* \"#utility.yul\":7814:7830   */\n      dup3\n        /* \"#utility.yul\":7790:7831   */\n      tag_81\n      jump\t// in\n    tag_174:\n        /* \"#utility.yul\":7782:7788   */\n      dup5\n        /* \"#utility.yul\":7775:7779   */\n      dup5\n        /* \"#utility.yul\":7769:7780   */\n      sload\n        /* \"#utility.yul\":7741:7832   */\n      tag_78\n      jump\t// in\n    tag_173:\n        /* \"#utility.yul\":7735:7739   */\n      dup3\n        /* \"#utility.yul\":7728:7833   */\n      sstore\n        /* \"#utility.yul\":7646:7839   */\n      pop\n        /* \"#utility.yul\":7570:7839   */\n      pop\n      pop\n      pop\n      jump\t// out\n        /* \"#utility.yul\":7845:7918   */\n    tag_83:\n        /* \"#utility.yul\":7890:7893   */\n      0x00\n        /* \"#utility.yul\":7845:7918   */\n      swap1\n      jump\t// out\n        /* \"#utility.yul\":7924:8113   */\n    tag_84:\n        /* \"#utility.yul\":8001:8033   */\n      tag_177\n      tag_83\n      jump\t// in\n    tag_177:\n        /* \"#utility.yul\":8042:8107   */\n      tag_178\n        /* \"#utility.yul\":8100:8106   */\n      dup2\n        /* \"#utility.yul\":8092:8098   */\n      dup5\n        /* \"#utility.yul\":8086:8090   */\n      dup5\n        /* \"#utility.yul\":8042:8107   */\n      tag_82\n      jump\t// in\n    tag_178:\n        /* \"#utility.yul\":7977:8113   */\n      pop\n        /* \"#utility.yul\":7924:8113   */\n      pop\n      pop\n      jump\t// out\n        /* \"#utility.yul\":8119:8305   */\n    tag_85:\n        /* \"#utility.yul\":8179:8299   */\n    tag_180:\n        /* \"#utility.yul\":8196:8199   */\n      dup2\n        /* \"#utility.yul\":8189:8194   */\n      dup2\n        /* \"#utility.yul\":8186:8200   */\n      lt\n        /* \"#utility.yul\":8179:8299   */\n      iszero\n      tag_182\n      jumpi\n        /* \"#utility.yul\":8250:8289   */\n      tag_183\n        /* \"#utility.yul\":8287:8288   */\n      0x00\n        /* \"#utility.yul\":8280:8285   */\n      dup3\n        /* \"#utility.yul\":8250:8289   */\n      tag_84\n      jump\t// in\n    tag_183:\n        /* \"#utility.yul\":8223:8224   */\n      0x01\n        /* \"#utility.yul\":8216:8221   */\n      dup2\n        /* \"#utility.yul\":8212:8225   */\n      add\n        /* \"#utility.yul\":8203:8225   */\n      swap1\n      pop\n        /* \"#utility.yul\":8179:8299   */\n      jump(tag_180)\n    tag_182:\n        /* \"#utility.yul\":8119:8305   */\n      pop\n      pop\n      jump\t// out\n        /* \"#utility.yul\":8311:8854   */\n    tag_86:\n        /* \"#utility.yul\":8412:8414   */\n      0x1f\n        /* \"#utility.yul\":8407:8410   */\n      dup3\n        /* \"#utility.yul\":8404:8415   */\n      gt\n        /* \"#utility.yul\":8401:8847   */\n      iszero\n      tag_185\n      jumpi\n        /* \"#utility.yul\":8446:8484   */\n      tag_186\n        /* \"#utility.yul\":8478:8483   */\n      dup2\n        /* \"#utility.yul\":8446:8484   */\n      tag_75\n      jump\t// in\n    tag_186:\n        /* \"#utility.yul\":8530:8559   */\n      tag_187\n        /* \"#utility.yul\":8548:8558   */\n      dup5\n        /* \"#utility.yul\":8530:8559   */\n      tag_76\n      jump\t// in\n    tag_187:\n        /* \"#utility.yul\":8520:8528   */\n      dup2\n        /* \"#utility.yul\":8516:8560   */\n      add\n        /* \"#utility.yul\":8713:8715   */\n      0x20\n        /* \"#utility.yul\":8701:8711   */\n      dup6\n        /* \"#utility.yul\":8698:8716   */\n      lt\n        /* \"#utility.yul\":8695:8744   */\n      iszero\n      tag_188\n      jumpi\n        /* \"#utility.yul\":8734:8742   */\n      dup2\n        /* \"#utility.yul\":8719:8742   */\n      swap1\n      pop\n        /* \"#utility.yul\":8695:8744   */\n    tag_188:\n        /* \"#utility.yul\":8757:8837   */\n      tag_189\n        /* \"#utility.yul\":8813:8835   */\n      tag_190\n        /* \"#utility.yul\":8831:8834   */\n      dup6\n        /* \"#utility.yul\":8813:8835   */\n      tag_76\n      jump\t// in\n    tag_190:\n        /* \"#utility.yul\":8803:8811   */\n      dup4\n        /* \"#utility.yul\":8799:8836   */\n      add\n        /* \"#utility.yul\":8786:8797   */\n      dup3\n        /* \"#utility.yul\":8757:8837   */\n      tag_85\n      jump\t// in\n    tag_189:\n        /* \"#utility.yul\":8416:8847   */\n      pop\n      pop\n        /* \"#utility.yul\":8401:8847   */\n    tag_185:\n        /* \"#utility.yul\":8311:8854   */\n      pop\n      pop\n      pop\n      jump\t// out\n        /* \"#utility.yul\":8860:8977   */\n    tag_87:\n        /* \"#utility.yul\":8914:8922   */\n      0x00\n        /* \"#utility.yul\":8964:8969   */\n      dup3\n        /* \"#utility.yul\":8958:8962   */\n      dup3\n        /* \"#utility.yul\":8954:8970   */\n      shr\n        /* \"#utility.yul\":8933:8970   */\n      swap1\n      pop\n        /* \"#utility.yul\":8860:8977   */\n      swap3\n      swap2\n      pop\n      pop\n      jump\t// out\n        /* \"#utility.yul\":8983:9152   */\n    tag_88:\n        /* \"#utility.yul\":9027:9033   */\n      0x00\n        /* \"#utility.yul\":9060:9111   */\n      tag_193\n        /* \"#utility.yul\":9108:9109   */\n      0x00\n        /* \"#utility.yul\":9104:9110   */\n      not\n        /* \"#utility.yul\":9096:9101   */\n      dup5\n        /* \"#utility.yul\":9093:9094   */\n      0x08\n        /* \"#utility.yul\":9089:9102   */\n      mul\n        /* \"#utility.yul\":9060:9111   */\n      tag_87\n      jump\t// in\n    tag_193:\n        /* \"#utility.yul\":9056:9112   */\n      not\n        /* \"#utility.yul\":9141:9145   */\n      dup1\n        /* \"#utility.yul\":9135:9139   */\n      dup4\n        /* \"#utility.yul\":9131:9146   */\n      and\n        /* \"#utility.yul\":9121:9146   */\n      swap2\n      pop\n        /* \"#utility.yul\":9034:9152   */\n      pop\n        /* \"#utility.yul\":8983:9152   */\n      swap3\n      swap2\n      pop\n      pop\n      jump\t// out\n        /* \"#utility.yul\":9157:9452   */\n    tag_89:\n        /* \"#utility.yul\":9233:9237   */\n      0x00\n        /* \"#utility.yul\":9379:9408   */\n      tag_195\n        /* \"#utility.yul\":9404:9407   */\n      dup4\n        /* \"#utility.yul\":9398:9402   */\n      dup4\n        /* \"#utility.yul\":9379:9408   */\n      tag_88\n      jump\t// in\n    tag_195:\n        /* \"#utility.yul\":9371:9408   */\n      swap2\n      pop\n        /* \"#utility.yul\":9441:9444   */\n      dup3\n        /* \"#utility.yul\":9438:9439   */\n      0x02\n        /* \"#utility.yul\":9434:9445   */\n      mul\n        /* \"#utility.yul\":9428:9432   */\n      dup3\n        /* \"#utility.yul\":9425:9446   */\n      or\n        /* \"#utility.yul\":9417:9446   */\n      swap1\n      pop\n        /* \"#utility.yul\":9157:9452   */\n      swap3\n      swap2\n      pop\n      pop\n      jump\t// out\n        /* \"#utility.yul\":9457:10852   */\n    tag_35:\n        /* \"#utility.yul\":9574:9611   */\n      tag_197\n        /* \"#utility.yul\":9607:9610   */\n      dup3\n        /* \"#utility.yul\":9574:9611   */\n      tag_53\n      jump\t// in\n    tag_197:\n        /* \"#utility.yul\":9676:9694   */\n      0xffffffffffffffff\n        /* \"#utility.yul\":9668:9674   */\n      dup2\n        /* \"#utility.yul\":9665:9695   */\n      gt\n        /* \"#utility.yul\":9662:9718   */\n      iszero\n      tag_198\n      jumpi\n        /* \"#utility.yul\":9698:9716   */\n      tag_199\n      tag_63\n      jump\t// in\n    tag_199:\n        /* \"#utility.yul\":9662:9718   */\n    tag_198:\n        /* \"#utility.yul\":9742:9780   */\n      tag_200\n        /* \"#utility.yul\":9774:9778   */\n      dup3\n        /* \"#utility.yul\":9768:9779   */\n      sload\n        /* \"#utility.yul\":9742:9780   */\n      tag_28\n      jump\t// in\n    tag_200:\n        /* \"#utility.yul\":9827:9894   */\n      tag_201\n        /* \"#utility.yul\":9887:9893   */\n      dup3\n        /* \"#utility.yul\":9879:9885   */\n      dup3\n        /* \"#utility.yul\":9873:9877   */\n      dup6\n        /* \"#utility.yul\":9827:9894   */\n      tag_86\n      jump\t// in\n    tag_201:\n        /* \"#utility.yul\":9921:9922   */\n      0x00\n        /* \"#utility.yul\":9945:9949   */\n      0x20\n        /* \"#utility.yul\":9932:9949   */\n      swap1\n      pop\n        /* \"#utility.yul\":9977:9979   */\n      0x1f\n        /* \"#utility.yul\":9969:9975   */\n      dup4\n        /* \"#utility.yul\":9966:9980   */\n      gt\n        /* \"#utility.yul\":9994:9995   */\n      0x01\n        /* \"#utility.yul\":9989:10607   */\n      dup2\n      eq\n      tag_203\n      jumpi\n        /* \"#utility.yul\":10651:10652   */\n      0x00\n        /* \"#utility.yul\":10668:10674   */\n      dup5\n        /* \"#utility.yul\":10665:10742   */\n      iszero\n      tag_204\n      jumpi\n        /* \"#utility.yul\":10717:10726   */\n      dup3\n        /* \"#utility.yul\":10712:10715   */\n      dup8\n        /* \"#utility.yul\":10708:10727   */\n      add\n        /* \"#utility.yul\":10702:10728   */\n      mload\n        /* \"#utility.yul\":10693:10728   */\n      swap1\n      pop\n        /* \"#utility.yul\":10665:10742   */\n    tag_204:\n        /* \"#utility.yul\":10768:10835   */\n      tag_205\n        /* \"#utility.yul\":10828:10834   */\n      dup6\n        /* \"#utility.yul\":10821:10826   */\n      dup3\n        /* \"#utility.yul\":10768:10835   */\n      tag_89\n      jump\t// in\n    tag_205:\n        /* \"#utility.yul\":10762:10766   */\n      dup7\n        /* \"#utility.yul\":10755:10836   */\n      sstore\n        /* \"#utility.yul\":10624:10846   */\n      pop\n        /* \"#utility.yul\":9959:10846   */\n      jump(tag_202)\n        /* \"#utility.yul\":9989:10607   */\n    tag_203:\n        /* \"#utility.yul\":10041:10045   */\n      0x1f\n        /* \"#utility.yul\":10037:10046   */\n      not\n        /* \"#utility.yul\":10029:10035   */\n      dup5\n        /* \"#utility.yul\":10025:10047   */\n      and\n        /* \"#utility.yul\":10075:10112   */\n      tag_206\n        /* \"#utility.yul\":10107:10111   */\n      dup7\n        /* \"#utility.yul\":10075:10112   */\n      tag_75\n      jump\t// in\n    tag_206:\n        /* \"#utility.yul\":10134:10135   */\n      0x00\n        /* \"#utility.yul\":10148:10356   */\n    tag_207:\n        /* \"#utility.yul\":10162:10169   */\n      dup3\n        /* \"#utility.yul\":10159:10160   */\n      dup2\n        /* \"#utility.yul\":10156:10170   */\n      lt\n        /* \"#utility.yul\":10148:10356   */\n      iszero\n      tag_209\n      jumpi\n        /* \"#utility.yul\":10241:10250   */\n      dup5\n        /* \"#utility.yul\":10236:10239   */\n      dup10\n        /* \"#utility.yul\":10232:10251   */\n      add\n        /* \"#utility.yul\":10226:10252   */\n      mload\n        /* \"#utility.yul\":10218:10224   */\n      dup3\n        /* \"#utility.yul\":10211:10253   */\n      sstore\n        /* \"#utility.yul\":10292:10293   */\n      0x01\n        /* \"#utility.yul\":10284:10290   */\n      dup3\n        /* \"#utility.yul\":10280:10294   */\n      add\n        /* \"#utility.yul\":10270:10294   */\n      swap2\n      pop\n        /* \"#utility.yul\":10339:10341   */\n      0x20\n        /* \"#utility.yul\":10328:10337   */\n      dup6\n        /* \"#utility.yul\":10324:10342   */\n      add\n        /* \"#utility.yul\":10311:10342   */\n      swap5\n      pop\n        /* \"#utility.yul\":10185:10189   */\n      0x20\n        /* \"#utility.yul\":10182:10183   */\n      dup2\n        /* \"#utility.yul\":10178:10190   */\n      add\n        /* \"#utility.yul\":10173:10190   */\n      swap1\n      pop\n        /* \"#utility.yul\":10148:10356   */\n      jump(tag_207)\n    tag_209:\n        /* \"#utility.yul\":10384:10390   */\n      dup7\n        /* \"#utility.yul\":10375:10382   */\n      dup4\n        /* \"#utility.yul\":10372:10391   */\n      lt\n        /* \"#utility.yul\":10369:10548   */\n      iszero\n      tag_210\n      jumpi\n        /* \"#utility.yul\":10442:10451   */\n      dup5\n        /* \"#utility.yul\":10437:10440   */\n      dup10\n        /* \"#utility.yul\":10433:10452   */\n      add\n        /* \"#utility.yul\":10427:10453   */\n      mload\n        /* \"#utility.yul\":10485:10533   */\n      tag_211\n        /* \"#utility.yul\":10527:10531   */\n      0x1f\n        /* \"#utility.yul\":10519:10525   */\n      dup10\n        /* \"#utility.yul\":10515:10532   */\n      and\n        /* \"#utility.yul\":10504:10513   */\n      dup3\n        /* \"#utility.yul\":10485:10533   */\n      tag_88\n      jump\t// in\n    tag_211:\n        /* \"#utility.yul\":10477:10483   */\n      dup4\n        /* \"#utility.yul\":10470:10534   */\n      sstore\n        /* \"#utility.yul\":10392:10548   */\n      pop\n        /* \"#utility.yul\":10369:10548   */\n    tag_210:\n        /* \"#utility.yul\":10594:10595   */\n      0x01\n        /* \"#utility.yul\":10590:10591   */\n      0x02\n        /* \"#utility.yul\":10582:10588   */\n      dup9\n        /* \"#utility.yul\":10578:10592   */\n      mul\n        /* \"#utility.yul\":10574:10596   */\n      add\n        /* \"#utility.yul\":10568:10572   */\n      dup9\n        /* \"#utility.yul\":10561:10597   */\n      sstore\n        /* \"#utility.yul\":9996:10607   */\n      pop\n      pop\n      pop\n        /* \"#utility.yul\":9959:10846   */\n    tag_202:\n      pop\n        /* \"#utility.yul\":9549:10852   */\n      pop\n      pop\n      pop\n        /* \"#utility.yul\":9457:10852   */\n      pop\n      pop\n      jump\t// out\n\n    auxdata: 0xa2646970667358221220fd1679ed1069e42683cf577b0741251d49896cba173feb5d2bbce2be90e67d0d64736f6c634300081a0033\n}\n",
				"bytecode": {
					"linkReferences": {},
					"object": "6080604052348015600e575f80fd5b506109528061001c5f395ff3fe608060405234801561000f575f80fd5b5060043610610055575f3560e01c806311ebae41146100595780632224b6a91461007757806399d568b314610093578063cb9cb0c2146100b1578063f8fd1948146100cf575b5f80fd5b6100616100ef565b60405161006e91906103d0565b60405180910390f35b610091600480360381019061008c9190610560565b61017b565b005b61009b6101a6565b6040516100a891906105f7565b60405180910390f35b6100b96101ac565b6040516100c691906103d0565b60405180910390f35b6100d7610237565b6040516100e693929190610610565b60405180910390f35b600180546100fc90610680565b80601f016020809104026020016040519081016040528092919081815260200182805461012890610680565b80156101735780601f1061014a57610100808354040283529160200191610173565b820191905f5260205f20905b81548152906001019060200180831161015657829003601f168201915b505050505081565b825f9081610189919061084d565b508160019081610199919061084d565b5080600281905550505050565b60025481565b5f80546101b890610680565b80601f01602080910402602001604051908101604052809291908181526020018280546101e490610680565b801561022f5780601f106102065761010080835404028352916020019161022f565b820191905f5260205f20905b81548152906001019060200180831161021257829003601f168201915b505050505081565b6060805f80600160025482805461024d90610680565b80601f016020809104026020016040519081016040528092919081815260200182805461027990610680565b80156102c45780601f1061029b576101008083540402835291602001916102c4565b820191905f5260205f20905b8154815290600101906020018083116102a757829003601f168201915b505050505092508180546102d790610680565b80601f016020809104026020016040519081016040528092919081815260200182805461030390610680565b801561034e5780601f106103255761010080835404028352916020019161034e565b820191905f5260205f20905b81548152906001019060200180831161033157829003601f168201915b50505050509150925092509250909192565b5f81519050919050565b5f82825260208201905092915050565b8281835e5f83830152505050565b5f601f19601f8301169050919050565b5f6103a282610360565b6103ac818561036a565b93506103bc81856020860161037a565b6103c581610388565b840191505092915050565b5f6020820190508181035f8301526103e88184610398565b905092915050565b5f604051905090565b5f80fd5b5f80fd5b5f80fd5b5f80fd5b7f4e487b71000000000000000000000000000000000000000000000000000000005f52604160045260245ffd5b61043f82610388565b810181811067ffffffffffffffff8211171561045e5761045d610409565b5b80604052505050565b5f6104706103f0565b905061047c8282610436565b919050565b5f67ffffffffffffffff82111561049b5761049a610409565b5b6104a482610388565b9050602081019050919050565b828183375f83830152505050565b5f6104d16104cc84610481565b610467565b9050828152602081018484840111156104ed576104ec610405565b5b6104f88482856104b1565b509392505050565b5f82601f83011261051457610513610401565b5b81356105248482602086016104bf565b91505092915050565b5f819050919050565b61053f8161052d565b8114610549575f80fd5b50565b5f8135905061055a81610536565b92915050565b5f805f60608486031215610577576105766103f9565b5b5f84013567ffffffffffffffff811115610594576105936103fd565b5b6105a086828701610500565b935050602084013567ffffffffffffffff8111156105c1576105c06103fd565b5b6105cd86828701610500565b92505060406105de8682870161054c565b9150509250925092565b6105f18161052d565b82525050565b5f60208201905061060a5f8301846105e8565b92915050565b5f6060820190508181035f8301526106288186610398565b9050818103602083015261063c8185610398565b905061064b60408301846105e8565b949350505050565b7f4e487b71000000000000000000000000000000000000000000000000000000005f52602260045260245ffd5b5f600282049050600182168061069757607f821691505b6020821081036106aa576106a9610653565b5b50919050565b5f819050815f5260205f209050919050565b5f6020601f8301049050919050565b5f82821b905092915050565b5f6008830261070c7fffffffffffffffffffffffffffffffffffffffffffffffffffffffffffffffff826106d1565b61071686836106d1565b95508019841693508086168417925050509392505050565b5f819050919050565b5f61075161074c6107478461052d565b61072e565b61052d565b9050919050565b5f819050919050565b61076a83610737565b61077e61077682610758565b8484546106dd565b825550505050565b5f90565b610792610786565b61079d818484610761565b505050565b5b818110156107c0576107b55f8261078a565b6001810190506107a3565b5050565b601f821115610805576107d6816106b0565b6107df846106c2565b810160208510156107ee578190505b6108026107fa856106c2565b8301826107a2565b50505b505050565b5f82821c905092915050565b5f6108255f198460080261080a565b1980831691505092915050565b5f61083d8383610816565b9150826002028217905092915050565b61085682610360565b67ffffffffffffffff81111561086f5761086e610409565b5b6108798254610680565b6108848282856107c4565b5f60209050601f8311600181146108b5575f84156108a3578287015190505b6108ad8582610832565b865550610914565b601f1984166108c3866106b0565b5f5b828110156108ea578489015182556001820191506020850194506020810190506108c5565b868310156109075784890151610903601f891682610816565b8355505b6001600288020188555050505b50505050505056fea2646970667358221220fd1679ed1069e42683cf577b0741251d49896cba173feb5d2bbce2be90e67d0d64736f6c634300081a0033",
					"opcodes": "PUSH1 0x80 PUSH1 0x40 MSTORE CALLVALUE DUP1 ISZERO PUSH1 0xE JUMPI PUSH0 DUP1 REVERT JUMPDEST POP PUSH2 0x952 DUP1 PUSH2 0x1C PUSH0 CODECOPY PUSH0 RETURN INVALID PUSH1 0x80 PUSH1 0x40 MSTORE CALLVALUE DUP1 ISZERO PUSH2 0xF JUMPI PUSH0 DUP1 REVERT JUMPDEST POP PUSH1 0x4 CALLDATASIZE LT PUSH2 0x55 JUMPI PUSH0 CALLDATALOAD PUSH1 0xE0 SHR DUP1 PUSH4 0x11EBAE41 EQ PUSH2 0x59 JUMPI DUP1 PUSH4 0x2224B6A9 EQ PUSH2 0x77 JUMPI DUP1 PUSH4 0x99D568B3 EQ PUSH2 0x93 JUMPI DUP1 PUSH4 0xCB9CB0C2 EQ PUSH2 0xB1 JUMPI DUP1 PUSH4 0xF8FD1948 EQ PUSH2 0xCF JUMPI JUMPDEST PUSH0 DUP1 REVERT JUMPDEST PUSH2 0x61 PUSH2 0xEF JUMP JUMPDEST PUSH1 0x40 MLOAD PUSH2 0x6E SWAP2 SWAP1 PUSH2 0x3D0 JUMP JUMPDEST PUSH1 0x40 MLOAD DUP1 SWAP2 SUB SWAP1 RETURN JUMPDEST PUSH2 0x91 PUSH1 0x4 DUP1 CALLDATASIZE SUB DUP2 ADD SWAP1 PUSH2 0x8C SWAP2 SWAP1 PUSH2 0x560 JUMP JUMPDEST PUSH2 0x17B JUMP JUMPDEST STOP JUMPDEST PUSH2 0x9B PUSH2 0x1A6 JUMP JUMPDEST PUSH1 0x40 MLOAD PUSH2 0xA8 SWAP2 SWAP1 PUSH2 0x5F7 JUMP JUMPDEST PUSH1 0x40 MLOAD DUP1 SWAP2 SUB SWAP1 RETURN JUMPDEST PUSH2 0xB9 PUSH2 0x1AC JUMP JUMPDEST PUSH1 0x40 MLOAD PUSH2 0xC6 SWAP2 SWAP1 PUSH2 0x3D0 JUMP JUMPDEST PUSH1 0x40 MLOAD DUP1 SWAP2 SUB SWAP1 RETURN JUMPDEST PUSH2 0xD7 PUSH2 0x237 JUMP JUMPDEST PUSH1 0x40 MLOAD PUSH2 0xE6 SWAP4 SWAP3 SWAP2 SWAP1 PUSH2 0x610 JUMP JUMPDEST PUSH1 0x40 MLOAD DUP1 SWAP2 SUB SWAP1 RETURN JUMPDEST PUSH1 0x1 DUP1 SLOAD PUSH2 0xFC SWAP1 PUSH2 0x680 JUMP JUMPDEST DUP1 PUSH1 0x1F ADD PUSH1 0x20 DUP1 SWAP2 DIV MUL PUSH1 0x20 ADD PUSH1 0x40 MLOAD SWAP1 DUP2 ADD PUSH1 0x40 MSTORE DUP1 SWAP3 SWAP2 SWAP1 DUP2 DUP2 MSTORE PUSH1 0x20 ADD DUP3 DUP1 SLOAD PUSH2 0x128 SWAP1 PUSH2 0x680 JUMP JUMPDEST DUP1 ISZERO PUSH2 0x173 JUMPI DUP1 PUSH1 0x1F LT PUSH2 0x14A JUMPI PUSH2 0x100 DUP1 DUP4 SLOAD DIV MUL DUP4 MSTORE SWAP2 PUSH1 0x20 ADD SWAP2 PUSH2 0x173 JUMP JUMPDEST DUP3 ADD SWAP2 SWAP1 PUSH0 MSTORE PUSH1 0x20 PUSH0 KECCAK256 SWAP1 JUMPDEST DUP2 SLOAD DUP2 MSTORE SWAP1 PUSH1 0x1 ADD SWAP1 PUSH1 0x20 ADD DUP1 DUP4 GT PUSH2 0x156 JUMPI DUP3 SWAP1 SUB PUSH1 0x1F AND DUP3 ADD SWAP2 JUMPDEST POP POP POP POP POP DUP2 JUMP JUMPDEST DUP3 PUSH0 SWAP1 DUP2 PUSH2 0x189 SWAP2 SWAP1 PUSH2 0x84D JUMP JUMPDEST POP DUP2 PUSH1 0x1 SWAP1 DUP2 PUSH2 0x199 SWAP2 SWAP1 PUSH2 0x84D JUMP JUMPDEST POP DUP1 PUSH1 0x2 DUP2 SWAP1 SSTORE POP POP POP POP JUMP JUMPDEST PUSH1 0x2 SLOAD DUP2 JUMP JUMPDEST PUSH0 DUP1 SLOAD PUSH2 0x1B8 SWAP1 PUSH2 0x680 JUMP JUMPDEST DUP1 PUSH1 0x1F ADD PUSH1 0x20 DUP1 SWAP2 DIV MUL PUSH1 0x20 ADD PUSH1 0x40 MLOAD SWAP1 DUP2 ADD PUSH1 0x40 MSTORE DUP1 SWAP3 SWAP2 SWAP1 DUP2 DUP2 MSTORE PUSH1 0x20 ADD DUP3 DUP1 SLOAD PUSH2 0x1E4 SWAP1 PUSH2 0x680 JUMP JUMPDEST DUP1 ISZERO PUSH2 0x22F JUMPI DUP1 PUSH1 0x1F LT PUSH2 0x206 JUMPI PUSH2 0x100 DUP1 DUP4 SLOAD DIV MUL DUP4 MSTORE SWAP2 PUSH1 0x20 ADD SWAP2 PUSH2 0x22F JUMP JUMPDEST DUP3 ADD SWAP2 SWAP1 PUSH0 MSTORE PUSH1 0x20 PUSH0 KECCAK256 SWAP1 JUMPDEST DUP2 SLOAD DUP2 MSTORE SWAP1 PUSH1 0x1 ADD SWAP1 PUSH1 0x20 ADD DUP1 DUP4 GT PUSH2 0x212 JUMPI DUP3 SWAP1 SUB PUSH1 0x1F AND DUP3 ADD SWAP2 JUMPDEST POP POP POP POP POP DUP2 JUMP JUMPDEST PUSH1 0x60 DUP1 PUSH0 DUP1 PUSH1 0x1 PUSH1 0x2 SLOAD DUP3 DUP1 SLOAD PUSH2 0x24D SWAP1 PUSH2 0x680 JUMP JUMPDEST DUP1 PUSH1 0x1F ADD PUSH1 0x20 DUP1 SWAP2 DIV MUL PUSH1 0x20 ADD PUSH1 0x40 MLOAD SWAP1 DUP2 ADD PUSH1 0x40 MSTORE DUP1 SWAP3 SWAP2 SWAP1 DUP2 DUP2 MSTORE PUSH1 0x20 ADD DUP3 DUP1 SLOAD PUSH2 0x279 SWAP1 PUSH2 0x680 JUMP JUMPDEST DUP1 ISZERO PUSH2 0x2C4 JUMPI DUP1 PUSH1 0x1F LT PUSH2 0x29B JUMPI PUSH2 0x100 DUP1 DUP4 SLOAD DIV MUL DUP4 MSTORE SWAP2 PUSH1 0x20 ADD SWAP2 PUSH2 0x2C4 JUMP JUMPDEST DUP3 ADD SWAP2 SWAP1 PUSH0 MSTORE PUSH1 0x20 PUSH0 KECCAK256 SWAP1 JUMPDEST DUP2 SLOAD DUP2 MSTORE SWAP1 PUSH1 0x1 ADD SWAP1 PUSH1 0x20 ADD DUP1 DUP4 GT PUSH2 0x2A7 JUMPI DUP3 SWAP1 SUB PUSH1 0x1F AND DUP3 ADD SWAP2 JUMPDEST POP POP POP POP POP SWAP3 POP DUP2 DUP1 SLOAD PUSH2 0x2D7 SWAP1 PUSH2 0x680 JUMP JUMPDEST DUP1 PUSH1 0x1F ADD PUSH1 0x20 DUP1 SWAP2 DIV MUL PUSH1 0x20 ADD PUSH1 0x40 MLOAD SWAP1 DUP2 ADD PUSH1 0x40 MSTORE DUP1 SWAP3 SWAP2 SWAP1 DUP2 DUP2 MSTORE PUSH1 0x20 ADD DUP3 DUP1 SLOAD PUSH2 0x303 SWAP1 PUSH2 0x680 JUMP JUMPDEST DUP1 ISZERO PUSH2 0x34E JUMPI DUP1 PUSH1 0x1F LT PUSH2 0x325 JUMPI PUSH2 0x100 DUP1 DUP4 SLOAD DIV MUL DUP4 MSTORE SWAP2 PUSH1 0x20 ADD SWAP2 PUSH2 0x34E JUMP JUMPDEST DUP3 ADD SWAP2 SWAP1 PUSH0 MSTORE PUSH1 0x20 PUSH0 KECCAK256 SWAP1 JUMPDEST DUP2 SLOAD DUP2 MSTORE SWAP1 PUSH1 0x1 ADD SWAP1 PUSH1 0x20 ADD DUP1 DUP4 GT PUSH2 0x331 JUMPI DUP3 SWAP1 SUB PUSH1 0x1F AND DUP3 ADD SWAP2 JUMPDEST POP POP POP POP POP SWAP2 POP SWAP3 POP SWAP3 POP SWAP3 POP SWAP1 SWAP2 SWAP3 JUMP JUMPDEST PUSH0 DUP2 MLOAD SWAP1 POP SWAP2 SWAP1 POP JUMP JUMPDEST PUSH0 DUP3 DUP3 MSTORE PUSH1 0x20 DUP3 ADD SWAP1 POP SWAP3 SWAP2 POP POP JUMP JUMPDEST DUP3 DUP2 DUP4 MCOPY PUSH0 DUP4 DUP4 ADD MSTORE POP POP POP JUMP JUMPDEST PUSH0 PUSH1 0x1F NOT PUSH1 0x1F DUP4 ADD AND SWAP1 POP SWAP2 SWAP1 POP JUMP JUMPDEST PUSH0 PUSH2 0x3A2 DUP3 PUSH2 0x360 JUMP JUMPDEST PUSH2 0x3AC DUP2 DUP6 PUSH2 0x36A JUMP JUMPDEST SWAP4 POP PUSH2 0x3BC DUP2 DUP6 PUSH1 0x20 DUP7 ADD PUSH2 0x37A JUMP JUMPDEST PUSH2 0x3C5 DUP2 PUSH2 0x388 JUMP JUMPDEST DUP5 ADD SWAP2 POP POP SWAP3 SWAP2 POP POP JUMP JUMPDEST PUSH0 PUSH1 0x20 DUP3 ADD SWAP1 POP DUP2 DUP2 SUB PUSH0 DUP4 ADD MSTORE PUSH2 0x3E8 DUP2 DUP5 PUSH2 0x398 JUMP JUMPDEST SWAP1 POP SWAP3 SWAP2 POP POP JUMP JUMPDEST PUSH0 PUSH1 0x40 MLOAD SWAP1 POP SWAP1 JUMP JUMPDEST PUSH0 DUP1 REVERT JUMPDEST PUSH0 DUP1 REVERT JUMPDEST PUSH0 DUP1 REVERT JUMPDEST PUSH0 DUP1 REVERT JUMPDEST PUSH32 0x4E487B7100000000000000000000000000000000000000000000000000000000 PUSH0 MSTORE PUSH1 0x41 PUSH1 0x4 MSTORE PUSH1 0x24 PUSH0 REVERT JUMPDEST PUSH2 0x43F DUP3 PUSH2 0x388 JUMP JUMPDEST DUP2 ADD DUP2 DUP2 LT PUSH8 0xFFFFFFFFFFFFFFFF DUP3 GT OR ISZERO PUSH2 0x45E JUMPI PUSH2 0x45D PUSH2 0x409 JUMP JUMPDEST JUMPDEST DUP1 PUSH1 0x40 MSTORE POP POP POP JUMP JUMPDEST PUSH0 PUSH2 0x470 PUSH2 0x3F0 JUMP JUMPDEST SWAP1 POP PUSH2 0x47C DUP3 DUP3 PUSH2 0x436 JUMP JUMPDEST SWAP2 SWAP1 POP JUMP JUMPDEST PUSH0 PUSH8 0xFFFFFFFFFFFFFFFF DUP3 GT ISZERO PUSH2 0x49B JUMPI PUSH2 0x49A PUSH2 0x409 JUMP JUMPDEST JUMPDEST PUSH2 0x4A4 DUP3 PUSH2 0x388 JUMP JUMPDEST SWAP1 POP PUSH1 0x20 DUP2 ADD SWAP1 POP SWAP2 SWAP1 POP JUMP JUMPDEST DUP3 DUP2 DUP4 CALLDATACOPY PUSH0 DUP4 DUP4 ADD MSTORE POP POP POP JUMP JUMPDEST PUSH0 PUSH2 0x4D1 PUSH2 0x4CC DUP5 PUSH2 0x481 JUMP JUMPDEST PUSH2 0x467 JUMP JUMPDEST SWAP1 POP DUP3 DUP2 MSTORE PUSH1 0x20 DUP2 ADD DUP5 DUP5 DUP5 ADD GT ISZERO PUSH2 0x4ED JUMPI PUSH2 0x4EC PUSH2 0x405 JUMP JUMPDEST JUMPDEST PUSH2 0x4F8 DUP5 DUP3 DUP6 PUSH2 0x4B1 JUMP JUMPDEST POP SWAP4 SWAP3 POP POP POP JUMP JUMPDEST PUSH0 DUP3 PUSH1 0x1F DUP4 ADD SLT PUSH2 0x514 JUMPI PUSH2 0x513 PUSH2 0x401 JUMP JUMPDEST JUMPDEST DUP2 CALLDATALOAD PUSH2 0x524 DUP5 DUP3 PUSH1 0x20 DUP7 ADD PUSH2 0x4BF JUMP JUMPDEST SWAP2 POP POP SWAP3 SWAP2 POP POP JUMP JUMPDEST PUSH0 DUP2 SWAP1 POP SWAP2 SWAP1 POP JUMP JUMPDEST PUSH2 0x53F DUP2 PUSH2 0x52D JUMP JUMPDEST DUP2 EQ PUSH2 0x549 JUMPI PUSH0 DUP1 REVERT JUMPDEST POP JUMP JUMPDEST PUSH0 DUP2 CALLDATALOAD SWAP1 POP PUSH2 0x55A DUP2 PUSH2 0x536 JUMP JUMPDEST SWAP3 SWAP2 POP POP JUMP JUMPDEST PUSH0 DUP1 PUSH0 PUSH1 0x60 DUP5 DUP7 SUB SLT ISZERO PUSH2 0x577 JUMPI PUSH2 0x576 PUSH2 0x3F9 JUMP JUMPDEST JUMPDEST PUSH0 DUP5 ADD CALLDATALOAD PUSH8 0xFFFFFFFFFFFFFFFF DUP2 GT ISZERO PUSH2 0x594 JUMPI PUSH2 0x593 PUSH2 0x3FD JUMP JUMPDEST JUMPDEST PUSH2 0x5A0 DUP7 DUP3 DUP8 ADD PUSH2 0x500 JUMP JUMPDEST SWAP4 POP POP PUSH1 0x20 DUP5 ADD CALLDATALOAD PUSH8 0xFFFFFFFFFFFFFFFF DUP2 GT ISZERO PUSH2 0x5C1 JUMPI PUSH2 0x5C0 PUSH2 0x3FD JUMP JUMPDEST JUMPDEST PUSH2 0x5CD DUP7 DUP3 DUP8 ADD PUSH2 0x500 JUMP JUMPDEST SWAP3 POP POP PUSH1 0x40 PUSH2 0x5DE DUP7 DUP3 DUP8 ADD PUSH2 0x54C JUMP JUMPDEST SWAP2 POP POP SWAP3 POP SWAP3 POP SWAP3 JUMP JUMPDEST PUSH2 0x5F1 DUP2 PUSH2 0x52D JUMP JUMPDEST DUP3 MSTORE POP POP JUMP JUMPDEST PUSH0 PUSH1 0x20 DUP3 ADD SWAP1 POP PUSH2 0x60A PUSH0 DUP4 ADD DUP5 PUSH2 0x5E8 JUMP JUMPDEST SWAP3 SWAP2 POP POP JUMP JUMPDEST PUSH0 PUSH1 0x60 DUP3 ADD SWAP1 POP DUP2 DUP2 SUB PUSH0 DUP4 ADD MSTORE PUSH2 0x628 DUP2 DUP7 PUSH2 0x398 JUMP JUMPDEST SWAP1 POP DUP2 DUP2 SUB PUSH1 0x20 DUP4 ADD MSTORE PUSH2 0x63C DUP2 DUP6 PUSH2 0x398 JUMP JUMPDEST SWAP1 POP PUSH2 0x64B PUSH1 0x40 DUP4 ADD DUP5 PUSH2 0x5E8 JUMP JUMPDEST SWAP5 SWAP4 POP POP POP POP JUMP JUMPDEST PUSH32 0x4E487B7100000000000000000000000000000000000000000000000000000000 PUSH0 MSTORE PUSH1 0x22 PUSH1 0x4 MSTORE PUSH1 0x24 PUSH0 REVERT JUMPDEST PUSH0 PUSH1 0x2 DUP3 DIV SWAP1 POP PUSH1 0x1 DUP3 AND DUP1 PUSH2 0x697 JUMPI PUSH1 0x7F DUP3 AND SWAP2 POP JUMPDEST PUSH1 0x20 DUP3 LT DUP2 SUB PUSH2 0x6AA JUMPI PUSH2 0x6A9 PUSH2 0x653 JUMP JUMPDEST JUMPDEST POP SWAP2 SWAP1 POP JUMP JUMPDEST PUSH0 DUP2 SWAP1 POP DUP2 PUSH0 MSTORE PUSH1 0x20 PUSH0 KECCAK256 SWAP1 POP SWAP2 SWAP1 POP JUMP JUMPDEST PUSH0 PUSH1 0x20 PUSH1 0x1F DUP4 ADD DIV SWAP1 POP SWAP2 SWAP1 POP JUMP JUMPDEST PUSH0 DUP3 DUP3 SHL SWAP1 POP SWAP3 SWAP2 POP POP JUMP JUMPDEST PUSH0 PUSH1 0x8 DUP4 MUL PUSH2 0x70C PUSH32 0xFFFFFFFFFFFFFFFFFFFFFFFFFFFFFFFFFFFFFFFFFFFFFFFFFFFFFFFFFFFFFFFF DUP3 PUSH2 0x6D1 JUMP JUMPDEST PUSH2 0x716 DUP7 DUP4 PUSH2 0x6D1 JUMP JUMPDEST SWAP6 POP DUP1 NOT DUP5 AND SWAP4 POP DUP1 DUP7 AND DUP5 OR SWAP3 POP POP POP SWAP4 SWAP3 POP POP POP JUMP JUMPDEST PUSH0 DUP2 SWAP1 POP SWAP2 SWAP1 POP JUMP JUMPDEST PUSH0 PUSH2 0x751 PUSH2 0x74C PUSH2 0x747 DUP5 PUSH2 0x52D JUMP JUMPDEST PUSH2 0x72E JUMP JUMPDEST PUSH2 0x52D JUMP JUMPDEST SWAP1 POP SWAP2 SWAP1 POP JUMP JUMPDEST PUSH0 DUP2 SWAP1 POP SWAP2 SWAP1 POP JUMP JUMPDEST PUSH2 0x76A DUP4 PUSH2 0x737 JUMP JUMPDEST PUSH2 0x77E PUSH2 0x776 DUP3 PUSH2 0x758 JUMP JUMPDEST DUP5 DUP5 SLOAD PUSH2 0x6DD JUMP JUMPDEST DUP3 SSTORE POP POP POP POP JUMP JUMPDEST PUSH0 SWAP1 JUMP JUMPDEST PUSH2 0x792 PUSH2 0x786 JUMP JUMPDEST PUSH2 0x79D DUP2 DUP5 DUP5 PUSH2 0x761 JUMP JUMPDEST POP POP POP JUMP JUMPDEST JUMPDEST DUP2 DUP2 LT ISZERO PUSH2 0x7C0 JUMPI PUSH2 0x7B5 PUSH0 DUP3 PUSH2 0x78A JUMP JUMPDEST PUSH1 0x1 DUP2 ADD SWAP1 POP PUSH2 0x7A3 JUMP JUMPDEST POP POP JUMP JUMPDEST PUSH1 0x1F DUP3 GT ISZERO PUSH2 0x805 JUMPI PUSH2 0x7D6 DUP2 PUSH2 0x6B0 JUMP JUMPDEST PUSH2 0x7DF DUP5 PUSH2 0x6C2 JUMP JUMPDEST DUP2 ADD PUSH1 0x20 DUP6 LT ISZERO PUSH2 0x7EE JUMPI DUP2 SWAP1 POP JUMPDEST PUSH2 0x802 PUSH2 0x7FA DUP6 PUSH2 0x6C2 JUMP JUMPDEST DUP4 ADD DUP3 PUSH2 0x7A2 JUMP JUMPDEST POP POP JUMPDEST POP POP POP JUMP JUMPDEST PUSH0 DUP3 DUP3 SHR SWAP1 POP SWAP3 SWAP2 POP POP JUMP JUMPDEST PUSH0 PUSH2 0x825 PUSH0 NOT DUP5 PUSH1 0x8 MUL PUSH2 0x80A JUMP JUMPDEST NOT DUP1 DUP4 AND SWAP2 POP POP SWAP3 SWAP2 POP POP JUMP JUMPDEST PUSH0 PUSH2 0x83D DUP4 DUP4 PUSH2 0x816 JUMP JUMPDEST SWAP2 POP DUP3 PUSH1 0x2 MUL DUP3 OR SWAP1 POP SWAP3 SWAP2 POP POP JUMP JUMPDEST PUSH2 0x856 DUP3 PUSH2 0x360 JUMP JUMPDEST PUSH8 0xFFFFFFFFFFFFFFFF DUP2 GT ISZERO PUSH2 0x86F JUMPI PUSH2 0x86E PUSH2 0x409 JUMP JUMPDEST JUMPDEST PUSH2 0x879 DUP3 SLOAD PUSH2 0x680 JUMP JUMPDEST PUSH2 0x884 DUP3 DUP3 DUP6 PUSH2 0x7C4 JUMP JUMPDEST PUSH0 PUSH1 0x20 SWAP1 POP PUSH1 0x1F DUP4 GT PUSH1 0x1 DUP2 EQ PUSH2 0x8B5 JUMPI PUSH0 DUP5 ISZERO PUSH2 0x8A3 JUMPI DUP3 DUP8 ADD MLOAD SWAP1 POP JUMPDEST PUSH2 0x8AD DUP6 DUP3 PUSH2 0x832 JUMP JUMPDEST DUP7 SSTORE POP PUSH2 0x914 JUMP JUMPDEST PUSH1 0x1F NOT DUP5 AND PUSH2 0x8C3 DUP7 PUSH2 0x6B0 JUMP JUMPDEST PUSH0 JUMPDEST DUP3 DUP2 LT ISZERO PUSH2 0x8EA JUMPI DUP5 DUP10 ADD MLOAD DUP3 SSTORE PUSH1 0x1 DUP3 ADD SWAP2 POP PUSH1 0x20 DUP6 ADD SWAP5 POP PUSH1 0x20 DUP2 ADD SWAP1 POP PUSH2 0x8C5 JUMP JUMPDEST DUP7 DUP4 LT ISZERO PUSH2 0x907 JUMPI DUP5 DUP10 ADD MLOAD PUSH2 0x903 PUSH1 0x1F DUP10 AND DUP3 PUSH2 0x816 JUMP JUMPDEST DUP4 SSTORE POP JUMPDEST PUSH1 0x1 PUSH1 0x2 DUP9 MUL ADD DUP9 SSTORE POP POP POP JUMPDEST POP POP POP POP POP POP JUMP INVALID LOG2 PUSH5 0x6970667358 0x22 SLT KECCAK256 REVERT AND PUSH26 0xED1069E42683CF577B0741251D49896CBA173FEB5D2BBCE2BE90 0xE6 PUSH30 0xD64736F6C634300081A0033000000000000000000000000000000000000 "
				},
				"gasEstimates": {
					"creation": {
						"codeDepositCost": "477200",
						"executionCost": "509",
						"totalCost": "477709"
					},
					"external": {
						"hostelLocation()": "infinite",
						"hostelName()": "infinite",
						"numberOfRooms()": "2447",
						"printHostelDetails()": "infinite",
						"setHostelDetails(string,string,uint256)": "infinite"
					}
				},
				"methodIdentifiers": {
					"hostelLocation()": "11ebae41",
					"hostelName()": "cb9cb0c2",
					"numberOfRooms()": "99d568b3",
					"printHostelDetails()": "f8fd1948",
					"setHostelDetails(string,string,uint256)": "2224b6a9"
				}
			},
			"storageLayout": {
				"storage": [
					{
						"astId": 14,
						"contract": "Day09/d9p1.sol:Hostel",
						"label": "hostelName",
						"offset": 0,
						"slot": "0",
						"type": "t_string_storage"
					},
					{
						"astId": 16,
						"contract": "Day09/d9p1.sol:Hostel",
						"label": "hostelLocation",
						"offset": 0,
						"slot": "1",
						"type": "t_string_storage"
					},
					{
						"astId": 18,
						"contract": "Day09/d9p1.sol:Hostel",
						"label": "numberOfRooms",
						"offset": 0,
						"slot": "2",
						"type": "t_uint256"
					}
				],
				"types": {
					"t_string_storage": {
						"encoding": "bytes",
						"label": "string",
						"numberOfBytes": "32"
					},
					"t_uint256": {
						"encoding": "inplace",
						"label": "uint256",
						"numberOfBytes": "32"
					}
				}
			},
			"userdoc": {
				"kind": "user",
				"methods": {},
				"version": 1
			}
		}
	}
}