{
	"Day04/D4P3.SOL": {
		"Lottery": {
			"abi": [
				{
					"inputs": [],
					"name": "firstPrize",
					"outputs": [
						{
							"internalType": "address",
							"name": "winner",
							"type": "address"
						},
						{
							"internalType": "uint256",
							"name": "prizeAmount",
							"type": "uint256"
						}
					],
					"stateMutability": "view",
					"type": "function"
				},
				{
					"inputs": [],
					"name": "generateLotteryNumber",
					"outputs": [
						{
							"internalType": "string",
							"name": "",
							"type": "string"
						}
					],
					"stateMutability": "nonpayable",
					"type": "function"
				},
				{
					"inputs": [],
					"name": "prize1Amount",
					"outputs": [
						{
							"internalType": "uint256",
							"name": "",
							"type": "uint256"
						}
					],
					"stateMutability": "view",
					"type": "function"
				},
				{
					"inputs": [],
					"name": "prize2Amount",
					"outputs": [
						{
							"internalType": "uint256",
							"name": "",
							"type": "uint256"
						}
					],
					"stateMutability": "view",
					"type": "function"
				},
				{
					"inputs": [],
					"name": "prize3Amount",
					"outputs": [
						{
							"internalType": "uint256",
							"name": "",
							"type": "uint256"
						}
					],
					"stateMutability": "view",
					"type": "function"
				},
				{
					"inputs": [],
					"name": "secondPrize",
					"outputs": [
						{
							"internalType": "address",
							"name": "winner",
							"type": "address"
						},
						{
							"internalType": "uint256",
							"name": "prizeAmount",
							"type": "uint256"
						}
					],
					"stateMutability": "view",
					"type": "function"
				},
				{
					"inputs": [],
					"name": "thirdPrize",
					"outputs": [
						{
							"internalType": "address",
							"name": "winner",
							"type": "address"
						},
						{
							"internalType": "uint256",
							"name": "prizeAmount",
							"type": "uint256"
						}
					],
					"stateMutability": "view",
					"type": "function"
				},
				{
					"inputs": [],
					"name": "viewPrizes",
					"outputs": [
						{
							"components": [
								{
									"internalType": "address",
									"name": "winner",
									"type": "address"
								},
								{
									"internalType": "uint256",
									"name": "prizeAmount",
									"type": "uint256"
								}
							],
							"internalType": "struct Lottery.Prize",
							"name": "",
							"type": "tuple"
						},
						{
							"components": [
								{
									"internalType": "address",
									"name": "winner",
									"type": "address"
								},
								{
									"internalType": "uint256",
									"name": "prizeAmount",
									"type": "uint256"
								}
							],
							"internalType": "struct Lottery.Prize",
							"name": "",
							"type": "tuple"
						},
						{
							"components": [
								{
									"internalType": "address",
									"name": "winner",
									"type": "address"
								},
								{
									"internalType": "uint256",
									"name": "prizeAmount",
									"type": "uint256"
								}
							],
							"internalType": "struct Lottery.Prize",
							"name": "",
							"type": "tuple"
						}
					],
					"stateMutability": "view",
					"type": "function"
				}
			],
			"devdoc": {
				"kind": "dev",
				"methods": {},
				"version": 1
			},
			"evm": {
				"assembly": "    /* \"Day04/D4P3.SOL\":68:1625  contract Lottery {... */\n  mstore(0x40, 0x80)\n    /* \"Day04/D4P3.SOL\":274:283  100 ether */\n  0x056bc75e2d63100000\n    /* \"Day04/D4P3.SOL\":244:283  uint256 public prize1Amount = 100 ether */\n  0x00\n  sstore\n    /* \"Day04/D4P3.SOL\":320:328  50 ether */\n  0x02b5e3af16b1880000\n    /* \"Day04/D4P3.SOL\":290:328  uint256 public prize2Amount = 50 ether */\n  0x01\n  sstore\n    /* \"Day04/D4P3.SOL\":365:373  25 ether */\n  0x015af1d78b58c40000\n    /* \"Day04/D4P3.SOL\":335:373  uint256 public prize3Amount = 25 ether */\n  0x02\n  sstore\n    /* \"Day04/D4P3.SOL\":68:1625  contract Lottery {... */\n  callvalue\n  dup1\n  iszero\n  tag_1\n  jumpi\n  0x00\n  dup1\n  revert\ntag_1:\n  pop\n  dataSize(sub_0)\n  dup1\n  dataOffset(sub_0)\n  0x00\n  codecopy\n  0x00\n  return\nstop\n\nsub_0: assembly {\n        /* \"Day04/D4P3.SOL\":68:1625  contract Lottery {... */\n      mstore(0x40, 0x80)\n      callvalue\n      dup1\n      iszero\n      tag_1\n      jumpi\n      0x00\n      dup1\n      revert\n    tag_1:\n      pop\n      jumpi(tag_2, lt(calldatasize, 0x04))\n      shr(0xe0, calldataload(0x00))\n      dup1\n      0x8f9868df\n      gt\n      tag_11\n      jumpi\n      dup1\n      0x8f9868df\n      eq\n      tag_7\n      jumpi\n      dup1\n      0x901540fc\n      eq\n      tag_8\n      jumpi\n      dup1\n      0xd74fa6ab\n      eq\n      tag_9\n      jumpi\n      dup1\n      0xfecf615d\n      eq\n      tag_10\n      jumpi\n      jump(tag_2)\n    tag_11:\n      dup1\n      0x2e98520c\n      eq\n      tag_3\n      jumpi\n      dup1\n      0x3d70bc52\n      eq\n      tag_4\n      jumpi\n      dup1\n      0x4a382514\n      eq\n      tag_5\n      jumpi\n      dup1\n      0x835a8ed3\n      eq\n      tag_6\n      jumpi\n    tag_2:\n      0x00\n      dup1\n      revert\n        /* \"Day04/D4P3.SOL\":382:405  Prize public firstPrize */\n    tag_3:\n      tag_12\n      tag_13\n      jump\t// in\n    tag_12:\n      mload(0x40)\n      tag_14\n      swap3\n      swap2\n      swap1\n      tag_15\n      jump\t// in\n    tag_14:\n      mload(0x40)\n      dup1\n      swap2\n      sub\n      swap1\n      return\n        /* \"Day04/D4P3.SOL\":412:436  Prize public secondPrize */\n    tag_4:\n      tag_16\n      tag_17\n      jump\t// in\n    tag_16:\n      mload(0x40)\n      tag_18\n      swap3\n      swap2\n      swap1\n      tag_15\n      jump\t// in\n    tag_18:\n      mload(0x40)\n      dup1\n      swap2\n      sub\n      swap1\n      return\n        /* \"Day04/D4P3.SOL\":290:328  uint256 public prize2Amount = 50 ether */\n    tag_5:\n      tag_19\n      tag_20\n      jump\t// in\n    tag_19:\n      mload(0x40)\n      tag_21\n      swap2\n      swap1\n      tag_22\n      jump\t// in\n    tag_21:\n      mload(0x40)\n      dup1\n      swap2\n      sub\n      swap1\n      return\n        /* \"Day04/D4P3.SOL\":443:466  Prize public thirdPrize */\n    tag_6:\n      tag_23\n      tag_24\n      jump\t// in\n    tag_23:\n      mload(0x40)\n      tag_25\n      swap3\n      swap2\n      swap1\n      tag_15\n      jump\t// in\n    tag_25:\n      mload(0x40)\n      dup1\n      swap2\n      sub\n      swap1\n      return\n        /* \"Day04/D4P3.SOL\":538:1430  function generateLotteryNumber() public returns (string memory) {... */\n    tag_7:\n      tag_26\n      tag_27\n      jump\t// in\n    tag_26:\n      mload(0x40)\n      tag_28\n      swap2\n      swap1\n      tag_29\n      jump\t// in\n    tag_28:\n      mload(0x40)\n      dup1\n      swap2\n      sub\n      swap1\n      return\n        /* \"Day04/D4P3.SOL\":1474:1622  function viewPrizes() public view returns (Prize memory, Prize memory, Prize memory) {... */\n    tag_8:\n      tag_30\n      tag_31\n      jump\t// in\n    tag_30:\n      mload(0x40)\n      tag_32\n      swap4\n      swap3\n      swap2\n      swap1\n      tag_33\n      jump\t// in\n    tag_32:\n      mload(0x40)\n      dup1\n      swap2\n      sub\n      swap1\n      return\n        /* \"Day04/D4P3.SOL\":244:283  uint256 public prize1Amount = 100 ether */\n    tag_9:\n      tag_34\n      tag_35\n      jump\t// in\n    tag_34:\n      mload(0x40)\n      tag_36\n      swap2\n      swap1\n      tag_22\n      jump\t// in\n    tag_36:\n      mload(0x40)\n      dup1\n      swap2\n      sub\n      swap1\n      return\n        /* \"Day04/D4P3.SOL\":335:373  uint256 public prize3Amount = 25 ether */\n    tag_10:\n      tag_37\n      tag_38\n      jump\t// in\n    tag_37:\n      mload(0x40)\n      tag_39\n      swap2\n      swap1\n      tag_22\n      jump\t// in\n    tag_39:\n      mload(0x40)\n      dup1\n      swap2\n      sub\n      swap1\n      return\n        /* \"Day04/D4P3.SOL\":382:405  Prize public firstPrize */\n    tag_13:\n      0x03\n      dup1\n      0x00\n      add\n      0x00\n      swap1\n      sload\n      swap1\n      0x0100\n      exp\n      swap1\n      div\n      0xffffffffffffffffffffffffffffffffffffffff\n      and\n      swap1\n      dup1\n      0x01\n      add\n      sload\n      swap1\n      pop\n      dup3\n      jump\t// out\n        /* \"Day04/D4P3.SOL\":412:436  Prize public secondPrize */\n    tag_17:\n      0x05\n      dup1\n      0x00\n      add\n      0x00\n      swap1\n      sload\n      swap1\n      0x0100\n      exp\n      swap1\n      div\n      0xffffffffffffffffffffffffffffffffffffffff\n      and\n      swap1\n      dup1\n      0x01\n      add\n      sload\n      swap1\n      pop\n      dup3\n      jump\t// out\n        /* \"Day04/D4P3.SOL\":290:328  uint256 public prize2Amount = 50 ether */\n    tag_20:\n      sload(0x01)\n      dup2\n      jump\t// out\n        /* \"Day04/D4P3.SOL\":443:466  Prize public thirdPrize */\n    tag_24:\n      0x07\n      dup1\n      0x00\n      add\n      0x00\n      swap1\n      sload\n      swap1\n      0x0100\n      exp\n      swap1\n      div\n      0xffffffffffffffffffffffffffffffffffffffff\n      and\n      swap1\n      dup1\n      0x01\n      add\n      sload\n      swap1\n      pop\n      dup3\n      jump\t// out\n        /* \"Day04/D4P3.SOL\":538:1430  function generateLotteryNumber() public returns (string memory) {... */\n    tag_27:\n        /* \"Day04/D4P3.SOL\":587:600  string memory */\n      0x60\n        /* \"Day04/D4P3.SOL\":613:634  uint256 lotteryNumber */\n      0x00\n        /* \"Day04/D4P3.SOL\":711:715  1000 */\n      0x03e8\n        /* \"Day04/D4P3.SOL\":672:687  block.timestamp */\n      timestamp\n        /* \"Day04/D4P3.SOL\":689:705  block.difficulty */\n      prevrandao\n        /* \"Day04/D4P3.SOL\":655:706  abi.encodePacked(block.timestamp, block.difficulty) */\n      add(0x20, mload(0x40))\n      tag_41\n      swap3\n      swap2\n      swap1\n      tag_42\n      jump\t// in\n    tag_41:\n      mload(0x40)\n      0x20\n      dup2\n      dup4\n      sub\n      sub\n      dup2\n      mstore\n      swap1\n      0x40\n      mstore\n        /* \"Day04/D4P3.SOL\":645:707  keccak256(abi.encodePacked(block.timestamp, block.difficulty)) */\n      dup1\n      mload\n      swap1\n      0x20\n      add\n      keccak256\n        /* \"Day04/D4P3.SOL\":637:708  uint256(keccak256(abi.encodePacked(block.timestamp, block.difficulty))) */\n      0x00\n      shr\n        /* \"Day04/D4P3.SOL\":637:715  uint256(keccak256(abi.encodePacked(block.timestamp, block.difficulty))) % 1000 */\n      tag_43\n      swap2\n      swap1\n      tag_44\n      jump\t// in\n    tag_43:\n        /* \"Day04/D4P3.SOL\":613:715  uint256 lotteryNumber = uint256(keccak256(abi.encodePacked(block.timestamp, block.difficulty))) % 1000 */\n      swap1\n      pop\n        /* \"Day04/D4P3.SOL\":753:754  0 */\n      0x00\n        /* \"Day04/D4P3.SOL\":748:749  3 */\n      0x03\n        /* \"Day04/D4P3.SOL\":732:745  lotteryNumber */\n      dup3\n        /* \"Day04/D4P3.SOL\":732:749  lotteryNumber % 3 */\n      tag_45\n      swap2\n      swap1\n      tag_44\n      jump\t// in\n    tag_45:\n        /* \"Day04/D4P3.SOL\":732:754  lotteryNumber % 3 == 0 */\n      eq\n        /* \"Day04/D4P3.SOL\":732:780  lotteryNumber % 3 == 0 && lotteryNumber % 5 == 0 */\n      dup1\n      iszero\n      tag_46\n      jumpi\n      pop\n        /* \"Day04/D4P3.SOL\":779:780  0 */\n      0x00\n        /* \"Day04/D4P3.SOL\":774:775  5 */\n      0x05\n        /* \"Day04/D4P3.SOL\":758:771  lotteryNumber */\n      dup3\n        /* \"Day04/D4P3.SOL\":758:775  lotteryNumber % 5 */\n      tag_47\n      swap2\n      swap1\n      tag_44\n      jump\t// in\n    tag_47:\n        /* \"Day04/D4P3.SOL\":758:780  lotteryNumber % 5 == 0 */\n      eq\n        /* \"Day04/D4P3.SOL\":732:780  lotteryNumber % 3 == 0 && lotteryNumber % 5 == 0 */\n    tag_46:\n        /* \"Day04/D4P3.SOL\":728:1383  if (lotteryNumber % 3 == 0 && lotteryNumber % 5 == 0) {... */\n      iszero\n      tag_48\n      jumpi\n        /* \"Day04/D4P3.SOL\":817:827  msg.sender */\n      caller\n        /* \"Day04/D4P3.SOL\":797:807  firstPrize */\n      0x03\n        /* \"Day04/D4P3.SOL\":797:814  firstPrize.winner */\n      0x00\n      add\n      0x00\n        /* \"Day04/D4P3.SOL\":797:827  firstPrize.winner = msg.sender */\n      0x0100\n      exp\n      dup2\n      sload\n      dup2\n      0xffffffffffffffffffffffffffffffffffffffff\n      mul\n      not\n      and\n      swap1\n      dup4\n      0xffffffffffffffffffffffffffffffffffffffff\n      and\n      mul\n      or\n      swap1\n      sstore\n      pop\n        /* \"Day04/D4P3.SOL\":867:879  prize1Amount */\n      sload(0x00)\n        /* \"Day04/D4P3.SOL\":842:852  firstPrize */\n      0x03\n        /* \"Day04/D4P3.SOL\":842:864  firstPrize.prizeAmount */\n      0x01\n      add\n        /* \"Day04/D4P3.SOL\":842:879  firstPrize.prizeAmount = prize1Amount */\n      dup2\n      swap1\n      sstore\n      pop\n        /* \"Day04/D4P3.SOL\":894:922  return \"First Prize Winner!\" */\n      mload(0x40)\n      dup1\n      0x40\n      add\n      0x40\n      mstore\n      dup1\n      0x13\n      dup2\n      mstore\n      0x20\n      add\n      0x4669727374205072697a652057696e6e65722100000000000000000000000000\n      dup2\n      mstore\n      pop\n      swap2\n      pop\n      pop\n      jump(tag_40)\n        /* \"Day04/D4P3.SOL\":728:1383  if (lotteryNumber % 3 == 0 && lotteryNumber % 5 == 0) {... */\n    tag_48:\n        /* \"Day04/D4P3.SOL\":975:976  0 */\n      0x00\n        /* \"Day04/D4P3.SOL\":970:971  7 */\n      0x07\n        /* \"Day04/D4P3.SOL\":954:967  lotteryNumber */\n      dup3\n        /* \"Day04/D4P3.SOL\":954:971  lotteryNumber % 7 */\n      tag_50\n      swap2\n      swap1\n      tag_44\n      jump\t// in\n    tag_50:\n        /* \"Day04/D4P3.SOL\":954:976  lotteryNumber % 7 == 0 */\n      eq\n        /* \"Day04/D4P3.SOL\":954:1003  lotteryNumber % 7 == 0 || lotteryNumber % 11 == 0 */\n      dup1\n      tag_51\n      jumpi\n      pop\n        /* \"Day04/D4P3.SOL\":1002:1003  0 */\n      0x00\n        /* \"Day04/D4P3.SOL\":996:998  11 */\n      0x0b\n        /* \"Day04/D4P3.SOL\":980:993  lotteryNumber */\n      dup3\n        /* \"Day04/D4P3.SOL\":980:998  lotteryNumber % 11 */\n      tag_52\n      swap2\n      swap1\n      tag_44\n      jump\t// in\n    tag_52:\n        /* \"Day04/D4P3.SOL\":980:1003  lotteryNumber % 11 == 0 */\n      eq\n        /* \"Day04/D4P3.SOL\":954:1003  lotteryNumber % 7 == 0 || lotteryNumber % 11 == 0 */\n    tag_51:\n        /* \"Day04/D4P3.SOL\":950:1383  if (lotteryNumber % 7 == 0 || lotteryNumber % 11 == 0) {... */\n      iszero\n      tag_53\n      jumpi\n        /* \"Day04/D4P3.SOL\":1041:1051  msg.sender */\n      caller\n        /* \"Day04/D4P3.SOL\":1020:1031  secondPrize */\n      0x05\n        /* \"Day04/D4P3.SOL\":1020:1038  secondPrize.winner */\n      0x00\n      add\n      0x00\n        /* \"Day04/D4P3.SOL\":1020:1051  secondPrize.winner = msg.sender */\n      0x0100\n      exp\n      dup2\n      sload\n      dup2\n      0xffffffffffffffffffffffffffffffffffffffff\n      mul\n      not\n      and\n      swap1\n      dup4\n      0xffffffffffffffffffffffffffffffffffffffff\n      and\n      mul\n      or\n      swap1\n      sstore\n      pop\n        /* \"Day04/D4P3.SOL\":1092:1104  prize2Amount */\n      sload(0x01)\n        /* \"Day04/D4P3.SOL\":1066:1077  secondPrize */\n      0x05\n        /* \"Day04/D4P3.SOL\":1066:1089  secondPrize.prizeAmount */\n      0x01\n      add\n        /* \"Day04/D4P3.SOL\":1066:1104  secondPrize.prizeAmount = prize2Amount */\n      dup2\n      swap1\n      sstore\n      pop\n        /* \"Day04/D4P3.SOL\":1119:1148  return \"Second Prize Winner!\" */\n      mload(0x40)\n      dup1\n      0x40\n      add\n      0x40\n      mstore\n      dup1\n      0x14\n      dup2\n      mstore\n      0x20\n      add\n      0x5365636f6e64205072697a652057696e6e657221000000000000000000000000\n      dup2\n      mstore\n      pop\n      swap2\n      pop\n      pop\n      jump(tag_40)\n        /* \"Day04/D4P3.SOL\":950:1383  if (lotteryNumber % 7 == 0 || lotteryNumber % 11 == 0) {... */\n    tag_53:\n        /* \"Day04/D4P3.SOL\":1201:1202  0 */\n      0x00\n        /* \"Day04/D4P3.SOL\":1196:1197  5 */\n      0x05\n        /* \"Day04/D4P3.SOL\":1180:1193  lotteryNumber */\n      dup3\n        /* \"Day04/D4P3.SOL\":1180:1197  lotteryNumber % 5 */\n      tag_55\n      swap2\n      swap1\n      tag_44\n      jump\t// in\n    tag_55:\n        /* \"Day04/D4P3.SOL\":1180:1202  lotteryNumber % 5 == 0 */\n      eq\n        /* \"Day04/D4P3.SOL\":1180:1229  lotteryNumber % 5 == 0 && lotteryNumber % 10 != 0 */\n      dup1\n      iszero\n      tag_56\n      jumpi\n      pop\n        /* \"Day04/D4P3.SOL\":1228:1229  0 */\n      0x00\n        /* \"Day04/D4P3.SOL\":1222:1224  10 */\n      0x0a\n        /* \"Day04/D4P3.SOL\":1206:1219  lotteryNumber */\n      dup3\n        /* \"Day04/D4P3.SOL\":1206:1224  lotteryNumber % 10 */\n      tag_57\n      swap2\n      swap1\n      tag_44\n      jump\t// in\n    tag_57:\n        /* \"Day04/D4P3.SOL\":1206:1229  lotteryNumber % 10 != 0 */\n      eq\n      iszero\n        /* \"Day04/D4P3.SOL\":1180:1229  lotteryNumber % 5 == 0 && lotteryNumber % 10 != 0 */\n    tag_56:\n        /* \"Day04/D4P3.SOL\":1176:1383  if (lotteryNumber % 5 == 0 && lotteryNumber % 10 != 0) {... */\n      iszero\n      tag_58\n      jumpi\n        /* \"Day04/D4P3.SOL\":1266:1276  msg.sender */\n      caller\n        /* \"Day04/D4P3.SOL\":1246:1256  thirdPrize */\n      0x07\n        /* \"Day04/D4P3.SOL\":1246:1263  thirdPrize.winner */\n      0x00\n      add\n      0x00\n        /* \"Day04/D4P3.SOL\":1246:1276  thirdPrize.winner = msg.sender */\n      0x0100\n      exp\n      dup2\n      sload\n      dup2\n      0xffffffffffffffffffffffffffffffffffffffff\n      mul\n      not\n      and\n      swap1\n      dup4\n      0xffffffffffffffffffffffffffffffffffffffff\n      and\n      mul\n      or\n      swap1\n      sstore\n      pop\n        /* \"Day04/D4P3.SOL\":1316:1328  prize3Amount */\n      sload(0x02)\n        /* \"Day04/D4P3.SOL\":1291:1301  thirdPrize */\n      0x07\n        /* \"Day04/D4P3.SOL\":1291:1313  thirdPrize.prizeAmount */\n      0x01\n      add\n        /* \"Day04/D4P3.SOL\":1291:1328  thirdPrize.prizeAmount = prize3Amount */\n      dup2\n      swap1\n      sstore\n      pop\n        /* \"Day04/D4P3.SOL\":1343:1371  return \"Third Prize Winner!\" */\n      mload(0x40)\n      dup1\n      0x40\n      add\n      0x40\n      mstore\n      dup1\n      0x13\n      dup2\n      mstore\n      0x20\n      add\n      0x5468697264205072697a652057696e6e65722100000000000000000000000000\n      dup2\n      mstore\n      pop\n      swap2\n      pop\n      pop\n      jump(tag_40)\n        /* \"Day04/D4P3.SOL\":1176:1383  if (lotteryNumber % 5 == 0 && lotteryNumber % 10 != 0) {... */\n    tag_58:\n        /* \"Day04/D4P3.SOL\":1404:1422  return \"No Prize!\" */\n      mload(0x40)\n      dup1\n      0x40\n      add\n      0x40\n      mstore\n      dup1\n      0x09\n      dup2\n      mstore\n      0x20\n      add\n      0x4e6f205072697a65210000000000000000000000000000000000000000000000\n      dup2\n      mstore\n      pop\n      swap2\n      pop\n      pop\n        /* \"Day04/D4P3.SOL\":538:1430  function generateLotteryNumber() public returns (string memory) {... */\n    tag_40:\n      swap1\n      jump\t// out\n        /* \"Day04/D4P3.SOL\":1474:1622  function viewPrizes() public view returns (Prize memory, Prize memory, Prize memory) {... */\n    tag_31:\n        /* \"Day04/D4P3.SOL\":1517:1529  Prize memory */\n      tag_59\n      tag_60\n      jump\t// in\n    tag_59:\n        /* \"Day04/D4P3.SOL\":1531:1543  Prize memory */\n      tag_61\n      tag_60\n      jump\t// in\n    tag_61:\n        /* \"Day04/D4P3.SOL\":1545:1557  Prize memory */\n      tag_62\n      tag_60\n      jump\t// in\n    tag_62:\n        /* \"Day04/D4P3.SOL\":1578:1588  firstPrize */\n      0x03\n        /* \"Day04/D4P3.SOL\":1590:1601  secondPrize */\n      0x05\n        /* \"Day04/D4P3.SOL\":1603:1613  thirdPrize */\n      0x07\n        /* \"Day04/D4P3.SOL\":1570:1614  return (firstPrize, secondPrize, thirdPrize) */\n      dup3\n      mload(0x40)\n      dup1\n      0x40\n      add\n      0x40\n      mstore\n      swap1\n      dup2\n      0x00\n      dup3\n      add\n      0x00\n      swap1\n      sload\n      swap1\n      0x0100\n      exp\n      swap1\n      div\n      0xffffffffffffffffffffffffffffffffffffffff\n      and\n      0xffffffffffffffffffffffffffffffffffffffff\n      and\n      0xffffffffffffffffffffffffffffffffffffffff\n      and\n      dup2\n      mstore\n      0x20\n      add\n      0x01\n      dup3\n      add\n      sload\n      dup2\n      mstore\n      pop\n      pop\n      swap3\n      pop\n      dup2\n      mload(0x40)\n      dup1\n      0x40\n      add\n      0x40\n      mstore\n      swap1\n      dup2\n      0x00\n      dup3\n      add\n      0x00\n      swap1\n      sload\n      swap1\n      0x0100\n      exp\n      swap1\n      div\n      0xffffffffffffffffffffffffffffffffffffffff\n      and\n      0xffffffffffffffffffffffffffffffffffffffff\n      and\n      0xffffffffffffffffffffffffffffffffffffffff\n      and\n      dup2\n      mstore\n      0x20\n      add\n      0x01\n      dup3\n      add\n      sload\n      dup2\n      mstore\n      pop\n      pop\n      swap2\n      pop\n      dup1\n      mload(0x40)\n      dup1\n      0x40\n      add\n      0x40\n      mstore\n      swap1\n      dup2\n      0x00\n      dup3\n      add\n      0x00\n      swap1\n      sload\n      swap1\n      0x0100\n      exp\n      swap1\n      div\n      0xffffffffffffffffffffffffffffffffffffffff\n      and\n      0xffffffffffffffffffffffffffffffffffffffff\n      and\n      0xffffffffffffffffffffffffffffffffffffffff\n      and\n      dup2\n      mstore\n      0x20\n      add\n      0x01\n      dup3\n      add\n      sload\n      dup2\n      mstore\n      pop\n      pop\n      swap1\n      pop\n      swap3\n      pop\n      swap3\n      pop\n      swap3\n      pop\n        /* \"Day04/D4P3.SOL\":1474:1622  function viewPrizes() public view returns (Prize memory, Prize memory, Prize memory) {... */\n      swap1\n      swap2\n      swap3\n      jump\t// out\n        /* \"Day04/D4P3.SOL\":244:283  uint256 public prize1Amount = 100 ether */\n    tag_35:\n      sload(0x00)\n      dup2\n      jump\t// out\n        /* \"Day04/D4P3.SOL\":335:373  uint256 public prize3Amount = 25 ether */\n    tag_38:\n      sload(0x02)\n      dup2\n      jump\t// out\n    tag_60:\n      mload(0x40)\n      dup1\n      0x40\n      add\n      0x40\n      mstore\n      dup1\n      and(0xffffffffffffffffffffffffffffffffffffffff, 0x00)\n      dup2\n      mstore\n      0x20\n      add\n      0x00\n      dup2\n      mstore\n      pop\n      swap1\n      jump\t// out\n        /* \"#utility.yul\":7:133   */\n    tag_64:\n        /* \"#utility.yul\":44:51   */\n      0x00\n        /* \"#utility.yul\":84:126   */\n      0xffffffffffffffffffffffffffffffffffffffff\n        /* \"#utility.yul\":77:82   */\n      dup3\n        /* \"#utility.yul\":73:127   */\n      and\n        /* \"#utility.yul\":62:127   */\n      swap1\n      pop\n        /* \"#utility.yul\":7:133   */\n      swap2\n      swap1\n      pop\n      jump\t// out\n        /* \"#utility.yul\":139:235   */\n    tag_65:\n        /* \"#utility.yul\":176:183   */\n      0x00\n        /* \"#utility.yul\":205:229   */\n      tag_83\n        /* \"#utility.yul\":223:228   */\n      dup3\n        /* \"#utility.yul\":205:229   */\n      tag_64\n      jump\t// in\n    tag_83:\n        /* \"#utility.yul\":194:229   */\n      swap1\n      pop\n        /* \"#utility.yul\":139:235   */\n      swap2\n      swap1\n      pop\n      jump\t// out\n        /* \"#utility.yul\":241:359   */\n    tag_66:\n        /* \"#utility.yul\":328:352   */\n      tag_85\n        /* \"#utility.yul\":346:351   */\n      dup2\n        /* \"#utility.yul\":328:352   */\n      tag_65\n      jump\t// in\n    tag_85:\n        /* \"#utility.yul\":323:326   */\n      dup3\n        /* \"#utility.yul\":316:353   */\n      mstore\n        /* \"#utility.yul\":241:359   */\n      pop\n      pop\n      jump\t// out\n        /* \"#utility.yul\":365:442   */\n    tag_67:\n        /* \"#utility.yul\":402:409   */\n      0x00\n        /* \"#utility.yul\":431:436   */\n      dup2\n        /* \"#utility.yul\":420:436   */\n      swap1\n      pop\n        /* \"#utility.yul\":365:442   */\n      swap2\n      swap1\n      pop\n      jump\t// out\n        /* \"#utility.yul\":448:566   */\n    tag_68:\n        /* \"#utility.yul\":535:559   */\n      tag_88\n        /* \"#utility.yul\":553:558   */\n      dup2\n        /* \"#utility.yul\":535:559   */\n      tag_67\n      jump\t// in\n    tag_88:\n        /* \"#utility.yul\":530:533   */\n      dup3\n        /* \"#utility.yul\":523:560   */\n      mstore\n        /* \"#utility.yul\":448:566   */\n      pop\n      pop\n      jump\t// out\n        /* \"#utility.yul\":572:904   */\n    tag_15:\n        /* \"#utility.yul\":693:697   */\n      0x00\n        /* \"#utility.yul\":731:733   */\n      0x40\n        /* \"#utility.yul\":720:729   */\n      dup3\n        /* \"#utility.yul\":716:734   */\n      add\n        /* \"#utility.yul\":708:734   */\n      swap1\n      pop\n        /* \"#utility.yul\":744:815   */\n      tag_90\n        /* \"#utility.yul\":812:813   */\n      0x00\n        /* \"#utility.yul\":801:810   */\n      dup4\n        /* \"#utility.yul\":797:814   */\n      add\n        /* \"#utility.yul\":788:794   */\n      dup6\n        /* \"#utility.yul\":744:815   */\n      tag_66\n      jump\t// in\n    tag_90:\n        /* \"#utility.yul\":825:897   */\n      tag_91\n        /* \"#utility.yul\":893:895   */\n      0x20\n        /* \"#utility.yul\":882:891   */\n      dup4\n        /* \"#utility.yul\":878:896   */\n      add\n        /* \"#utility.yul\":869:875   */\n      dup5\n        /* \"#utility.yul\":825:897   */\n      tag_68\n      jump\t// in\n    tag_91:\n        /* \"#utility.yul\":572:904   */\n      swap4\n      swap3\n      pop\n      pop\n      pop\n      jump\t// out\n        /* \"#utility.yul\":910:1132   */\n    tag_22:\n        /* \"#utility.yul\":1003:1007   */\n      0x00\n        /* \"#utility.yul\":1041:1043   */\n      0x20\n        /* \"#utility.yul\":1030:1039   */\n      dup3\n        /* \"#utility.yul\":1026:1044   */\n      add\n        /* \"#utility.yul\":1018:1044   */\n      swap1\n      pop\n        /* \"#utility.yul\":1054:1125   */\n      tag_93\n        /* \"#utility.yul\":1122:1123   */\n      0x00\n        /* \"#utility.yul\":1111:1120   */\n      dup4\n        /* \"#utility.yul\":1107:1124   */\n      add\n        /* \"#utility.yul\":1098:1104   */\n      dup5\n        /* \"#utility.yul\":1054:1125   */\n      tag_68\n      jump\t// in\n    tag_93:\n        /* \"#utility.yul\":910:1132   */\n      swap3\n      swap2\n      pop\n      pop\n      jump\t// out\n        /* \"#utility.yul\":1138:1237   */\n    tag_69:\n        /* \"#utility.yul\":1190:1196   */\n      0x00\n        /* \"#utility.yul\":1224:1229   */\n      dup2\n        /* \"#utility.yul\":1218:1230   */\n      mload\n        /* \"#utility.yul\":1208:1230   */\n      swap1\n      pop\n        /* \"#utility.yul\":1138:1237   */\n      swap2\n      swap1\n      pop\n      jump\t// out\n        /* \"#utility.yul\":1243:1412   */\n    tag_70:\n        /* \"#utility.yul\":1327:1338   */\n      0x00\n        /* \"#utility.yul\":1361:1367   */\n      dup3\n        /* \"#utility.yul\":1356:1359   */\n      dup3\n        /* \"#utility.yul\":1349:1368   */\n      mstore\n        /* \"#utility.yul\":1401:1405   */\n      0x20\n        /* \"#utility.yul\":1396:1399   */\n      dup3\n        /* \"#utility.yul\":1392:1406   */\n      add\n        /* \"#utility.yul\":1377:1406   */\n      swap1\n      pop\n        /* \"#utility.yul\":1243:1412   */\n      swap3\n      swap2\n      pop\n      pop\n      jump\t// out\n        /* \"#utility.yul\":1418:1557   */\n    tag_71:\n        /* \"#utility.yul\":1507:1513   */\n      dup3\n        /* \"#utility.yul\":1502:1505   */\n      dup2\n        /* \"#utility.yul\":1497:1500   */\n      dup4\n        /* \"#utility.yul\":1491:1514   */\n      mcopy\n        /* \"#utility.yul\":1548:1549   */\n      0x00\n        /* \"#utility.yul\":1539:1545   */\n      dup4\n        /* \"#utility.yul\":1534:1537   */\n      dup4\n        /* \"#utility.yul\":1530:1546   */\n      add\n        /* \"#utility.yul\":1523:1550   */\n      mstore\n        /* \"#utility.yul\":1418:1557   */\n      pop\n      pop\n      pop\n      jump\t// out\n        /* \"#utility.yul\":1563:1665   */\n    tag_72:\n        /* \"#utility.yul\":1604:1610   */\n      0x00\n        /* \"#utility.yul\":1655:1657   */\n      0x1f\n        /* \"#utility.yul\":1651:1658   */\n      not\n        /* \"#utility.yul\":1646:1648   */\n      0x1f\n        /* \"#utility.yul\":1639:1644   */\n      dup4\n        /* \"#utility.yul\":1635:1649   */\n      add\n        /* \"#utility.yul\":1631:1659   */\n      and\n        /* \"#utility.yul\":1621:1659   */\n      swap1\n      pop\n        /* \"#utility.yul\":1563:1665   */\n      swap2\n      swap1\n      pop\n      jump\t// out\n        /* \"#utility.yul\":1671:2048   */\n    tag_73:\n        /* \"#utility.yul\":1759:1762   */\n      0x00\n        /* \"#utility.yul\":1787:1826   */\n      tag_99\n        /* \"#utility.yul\":1820:1825   */\n      dup3\n        /* \"#utility.yul\":1787:1826   */\n      tag_69\n      jump\t// in\n    tag_99:\n        /* \"#utility.yul\":1842:1913   */\n      tag_100\n        /* \"#utility.yul\":1906:1912   */\n      dup2\n        /* \"#utility.yul\":1901:1904   */\n      dup6\n        /* \"#utility.yul\":1842:1913   */\n      tag_70\n      jump\t// in\n    tag_100:\n        /* \"#utility.yul\":1835:1913   */\n      swap4\n      pop\n        /* \"#utility.yul\":1922:1987   */\n      tag_101\n        /* \"#utility.yul\":1980:1986   */\n      dup2\n        /* \"#utility.yul\":1975:1978   */\n      dup6\n        /* \"#utility.yul\":1968:1972   */\n      0x20\n        /* \"#utility.yul\":1961:1966   */\n      dup7\n        /* \"#utility.yul\":1957:1973   */\n      add\n        /* \"#utility.yul\":1922:1987   */\n      tag_71\n      jump\t// in\n    tag_101:\n        /* \"#utility.yul\":2012:2041   */\n      tag_102\n        /* \"#utility.yul\":2034:2040   */\n      dup2\n        /* \"#utility.yul\":2012:2041   */\n      tag_72\n      jump\t// in\n    tag_102:\n        /* \"#utility.yul\":2007:2010   */\n      dup5\n        /* \"#utility.yul\":2003:2042   */\n      add\n        /* \"#utility.yul\":1996:2042   */\n      swap2\n      pop\n        /* \"#utility.yul\":1763:2048   */\n      pop\n        /* \"#utility.yul\":1671:2048   */\n      swap3\n      swap2\n      pop\n      pop\n      jump\t// out\n        /* \"#utility.yul\":2054:2367   */\n    tag_29:\n        /* \"#utility.yul\":2167:2171   */\n      0x00\n        /* \"#utility.yul\":2205:2207   */\n      0x20\n        /* \"#utility.yul\":2194:2203   */\n      dup3\n        /* \"#utility.yul\":2190:2208   */\n      add\n        /* \"#utility.yul\":2182:2208   */\n      swap1\n      pop\n        /* \"#utility.yul\":2254:2263   */\n      dup2\n        /* \"#utility.yul\":2248:2252   */\n      dup2\n        /* \"#utility.yul\":2244:2264   */\n      sub\n        /* \"#utility.yul\":2240:2241   */\n      0x00\n        /* \"#utility.yul\":2229:2238   */\n      dup4\n        /* \"#utility.yul\":2225:2242   */\n      add\n        /* \"#utility.yul\":2218:2265   */\n      mstore\n        /* \"#utility.yul\":2282:2360   */\n      tag_104\n        /* \"#utility.yul\":2355:2359   */\n      dup2\n        /* \"#utility.yul\":2346:2352   */\n      dup5\n        /* \"#utility.yul\":2282:2360   */\n      tag_73\n      jump\t// in\n    tag_104:\n        /* \"#utility.yul\":2274:2360   */\n      swap1\n      pop\n        /* \"#utility.yul\":2054:2367   */\n      swap3\n      swap2\n      pop\n      pop\n      jump\t// out\n        /* \"#utility.yul\":2373:2481   */\n    tag_74:\n        /* \"#utility.yul\":2450:2474   */\n      tag_106\n        /* \"#utility.yul\":2468:2473   */\n      dup2\n        /* \"#utility.yul\":2450:2474   */\n      tag_65\n      jump\t// in\n    tag_106:\n        /* \"#utility.yul\":2445:2448   */\n      dup3\n        /* \"#utility.yul\":2438:2475   */\n      mstore\n        /* \"#utility.yul\":2373:2481   */\n      pop\n      pop\n      jump\t// out\n        /* \"#utility.yul\":2487:2595   */\n    tag_75:\n        /* \"#utility.yul\":2564:2588   */\n      tag_108\n        /* \"#utility.yul\":2582:2587   */\n      dup2\n        /* \"#utility.yul\":2564:2588   */\n      tag_67\n      jump\t// in\n    tag_108:\n        /* \"#utility.yul\":2559:2562   */\n      dup3\n        /* \"#utility.yul\":2552:2589   */\n      mstore\n        /* \"#utility.yul\":2487:2595   */\n      pop\n      pop\n      jump\t// out\n        /* \"#utility.yul\":2653:3159   */\n    tag_76:\n        /* \"#utility.yul\":2790:2794   */\n      0x40\n        /* \"#utility.yul\":2785:2788   */\n      dup3\n        /* \"#utility.yul\":2781:2795   */\n      add\n        /* \"#utility.yul\":2879:2883   */\n      0x00\n        /* \"#utility.yul\":2872:2877   */\n      dup3\n        /* \"#utility.yul\":2868:2884   */\n      add\n        /* \"#utility.yul\":2862:2885   */\n      mload\n        /* \"#utility.yul\":2898:2961   */\n      tag_110\n        /* \"#utility.yul\":2955:2959   */\n      0x00\n        /* \"#utility.yul\":2950:2953   */\n      dup6\n        /* \"#utility.yul\":2946:2960   */\n      add\n        /* \"#utility.yul\":2932:2944   */\n      dup3\n        /* \"#utility.yul\":2898:2961   */\n      tag_74\n      jump\t// in\n    tag_110:\n        /* \"#utility.yul\":2805:2971   */\n      pop\n        /* \"#utility.yul\":3060:3064   */\n      0x20\n        /* \"#utility.yul\":3053:3058   */\n      dup3\n        /* \"#utility.yul\":3049:3065   */\n      add\n        /* \"#utility.yul\":3043:3066   */\n      mload\n        /* \"#utility.yul\":3079:3142   */\n      tag_111\n        /* \"#utility.yul\":3136:3140   */\n      0x20\n        /* \"#utility.yul\":3131:3134   */\n      dup6\n        /* \"#utility.yul\":3127:3141   */\n      add\n        /* \"#utility.yul\":3113:3125   */\n      dup3\n        /* \"#utility.yul\":3079:3142   */\n      tag_75\n      jump\t// in\n    tag_111:\n        /* \"#utility.yul\":2981:3152   */\n      pop\n        /* \"#utility.yul\":2759:3159   */\n      pop\n        /* \"#utility.yul\":2653:3159   */\n      pop\n      pop\n      jump\t// out\n        /* \"#utility.yul\":3165:3849   */\n    tag_33:\n        /* \"#utility.yul\":3434:3438   */\n      0x00\n        /* \"#utility.yul\":3472:3475   */\n      0xc0\n        /* \"#utility.yul\":3461:3470   */\n      dup3\n        /* \"#utility.yul\":3457:3476   */\n      add\n        /* \"#utility.yul\":3449:3476   */\n      swap1\n      pop\n        /* \"#utility.yul\":3486:3597   */\n      tag_113\n        /* \"#utility.yul\":3594:3595   */\n      0x00\n        /* \"#utility.yul\":3583:3592   */\n      dup4\n        /* \"#utility.yul\":3579:3596   */\n      add\n        /* \"#utility.yul\":3570:3576   */\n      dup7\n        /* \"#utility.yul\":3486:3597   */\n      tag_76\n      jump\t// in\n    tag_113:\n        /* \"#utility.yul\":3607:3719   */\n      tag_114\n        /* \"#utility.yul\":3715:3717   */\n      0x40\n        /* \"#utility.yul\":3704:3713   */\n      dup4\n        /* \"#utility.yul\":3700:3718   */\n      add\n        /* \"#utility.yul\":3691:3697   */\n      dup6\n        /* \"#utility.yul\":3607:3719   */\n      tag_76\n      jump\t// in\n    tag_114:\n        /* \"#utility.yul\":3729:3842   */\n      tag_115\n        /* \"#utility.yul\":3837:3840   */\n      0x80\n        /* \"#utility.yul\":3826:3835   */\n      dup4\n        /* \"#utility.yul\":3822:3841   */\n      add\n        /* \"#utility.yul\":3813:3819   */\n      dup5\n        /* \"#utility.yul\":3729:3842   */\n      tag_76\n      jump\t// in\n    tag_115:\n        /* \"#utility.yul\":3165:3849   */\n      swap5\n      swap4\n      pop\n      pop\n      pop\n      pop\n      jump\t// out\n        /* \"#utility.yul\":3855:3934   */\n    tag_77:\n        /* \"#utility.yul\":3894:3901   */\n      0x00\n        /* \"#utility.yul\":3923:3928   */\n      dup2\n        /* \"#utility.yul\":3912:3928   */\n      swap1\n      pop\n        /* \"#utility.yul\":3855:3934   */\n      swap2\n      swap1\n      pop\n      jump\t// out\n        /* \"#utility.yul\":3940:4097   */\n    tag_78:\n        /* \"#utility.yul\":4045:4090   */\n      tag_118\n        /* \"#utility.yul\":4065:4089   */\n      tag_119\n        /* \"#utility.yul\":4083:4088   */\n      dup3\n        /* \"#utility.yul\":4065:4089   */\n      tag_67\n      jump\t// in\n    tag_119:\n        /* \"#utility.yul\":4045:4090   */\n      tag_77\n      jump\t// in\n    tag_118:\n        /* \"#utility.yul\":4040:4043   */\n      dup3\n        /* \"#utility.yul\":4033:4091   */\n      mstore\n        /* \"#utility.yul\":3940:4097   */\n      pop\n      pop\n      jump\t// out\n        /* \"#utility.yul\":4103:4500   */\n    tag_42:\n        /* \"#utility.yul\":4243:4246   */\n      0x00\n        /* \"#utility.yul\":4258:4333   */\n      tag_121\n        /* \"#utility.yul\":4329:4332   */\n      dup3\n        /* \"#utility.yul\":4320:4326   */\n      dup6\n        /* \"#utility.yul\":4258:4333   */\n      tag_78\n      jump\t// in\n    tag_121:\n        /* \"#utility.yul\":4358:4360   */\n      0x20\n        /* \"#utility.yul\":4353:4356   */\n      dup3\n        /* \"#utility.yul\":4349:4361   */\n      add\n        /* \"#utility.yul\":4342:4361   */\n      swap2\n      pop\n        /* \"#utility.yul\":4371:4446   */\n      tag_122\n        /* \"#utility.yul\":4442:4445   */\n      dup3\n        /* \"#utility.yul\":4433:4439   */\n      dup5\n        /* \"#utility.yul\":4371:4446   */\n      tag_78\n      jump\t// in\n    tag_122:\n        /* \"#utility.yul\":4471:4473   */\n      0x20\n        /* \"#utility.yul\":4466:4469   */\n      dup3\n        /* \"#utility.yul\":4462:4474   */\n      add\n        /* \"#utility.yul\":4455:4474   */\n      swap2\n      pop\n        /* \"#utility.yul\":4491:4494   */\n      dup2\n        /* \"#utility.yul\":4484:4494   */\n      swap1\n      pop\n        /* \"#utility.yul\":4103:4500   */\n      swap4\n      swap3\n      pop\n      pop\n      pop\n      jump\t// out\n        /* \"#utility.yul\":4506:4686   */\n    tag_79:\n        /* \"#utility.yul\":4554:4631   */\n      0x4e487b7100000000000000000000000000000000000000000000000000000000\n        /* \"#utility.yul\":4551:4552   */\n      0x00\n        /* \"#utility.yul\":4544:4632   */\n      mstore\n        /* \"#utility.yul\":4651:4655   */\n      0x12\n        /* \"#utility.yul\":4648:4649   */\n      0x04\n        /* \"#utility.yul\":4641:4656   */\n      mstore\n        /* \"#utility.yul\":4675:4679   */\n      0x24\n        /* \"#utility.yul\":4672:4673   */\n      0x00\n        /* \"#utility.yul\":4665:4680   */\n      revert\n        /* \"#utility.yul\":4692:4868   */\n    tag_44:\n        /* \"#utility.yul\":4724:4725   */\n      0x00\n        /* \"#utility.yul\":4741:4761   */\n      tag_125\n        /* \"#utility.yul\":4759:4760   */\n      dup3\n        /* \"#utility.yul\":4741:4761   */\n      tag_67\n      jump\t// in\n    tag_125:\n        /* \"#utility.yul\":4736:4761   */\n      swap2\n      pop\n        /* \"#utility.yul\":4775:4795   */\n      tag_126\n        /* \"#utility.yul\":4793:4794   */\n      dup4\n        /* \"#utility.yul\":4775:4795   */\n      tag_67\n      jump\t// in\n    tag_126:\n        /* \"#utility.yul\":4770:4795   */\n      swap3\n      pop\n        /* \"#utility.yul\":4814:4815   */\n      dup3\n        /* \"#utility.yul\":4804:4839   */\n      tag_127\n      jumpi\n        /* \"#utility.yul\":4819:4837   */\n      tag_128\n      tag_79\n      jump\t// in\n    tag_128:\n        /* \"#utility.yul\":4804:4839   */\n    tag_127:\n        /* \"#utility.yul\":4860:4861   */\n      dup3\n        /* \"#utility.yul\":4857:4858   */\n      dup3\n        /* \"#utility.yul\":4853:4862   */\n      mod\n        /* \"#utility.yul\":4848:4862   */\n      swap1\n      pop\n        /* \"#utility.yul\":4692:4868   */\n      swap3\n      swap2\n      pop\n      pop\n      jump\t// out\n\n    auxdata: 0xa2646970667358221220f7af9a3fefd1ef4353f784e64005e6124e62311ffd33d7ec6921d1e52c3ff20d64736f6c634300081a0033\n}\n",
				"bytecode": {
					"linkReferences": {},
					"object": "608060405268056bc75e2d631000005f556802b5e3af16b188000060015568015af1d78b58c400006002553480156034575f80fd5b506108de806100425f395ff3fe608060405234801561000f575f80fd5b5060043610610086575f3560e01c80638f9868df116100595780638f9868df14610105578063901540fc14610123578063d74fa6ab14610143578063fecf615d1461016157610086565b80632e98520c1461008a5780633d70bc52146100a95780634a382514146100c8578063835a8ed3146100e6575b5f80fd5b61009261017f565b6040516100a09291906106b0565b60405180910390f35b6100b16101af565b6040516100bf9291906106b0565b60405180910390f35b6100d06101df565b6040516100dd91906106d7565b60405180910390f35b6100ee6101e5565b6040516100fc9291906106b0565b60405180910390f35b61010d610215565b60405161011a9190610760565b60405180910390f35b61012b6104b3565b60405161013a939291906107cb565b60405180910390f35b61014b610620565b60405161015891906106d7565b60405180910390f35b610169610625565b60405161017691906106d7565b60405180910390f35b6003805f015f9054906101000a900473ffffffffffffffffffffffffffffffffffffffff16908060010154905082565b6005805f015f9054906101000a900473ffffffffffffffffffffffffffffffffffffffff16908060010154905082565b60015481565b6007805f015f9054906101000a900473ffffffffffffffffffffffffffffffffffffffff16908060010154905082565b60605f6103e8424460405160200161022e929190610820565b604051602081830303815290604052805190602001205f1c6102509190610878565b90505f6003826102609190610878565b14801561027857505f6005826102769190610878565b145b15610308573360035f015f6101000a81548173ffffffffffffffffffffffffffffffffffffffff021916908373ffffffffffffffffffffffffffffffffffffffff1602179055505f546003600101819055506040518060400160405280601381526020017f4669727374205072697a652057696e6e657221000000000000000000000000008152509150506104b0565b5f6007826103169190610878565b148061032d57505f600b8261032b9190610878565b145b156103be573360055f015f6101000a81548173ffffffffffffffffffffffffffffffffffffffff021916908373ffffffffffffffffffffffffffffffffffffffff1602179055506001546005600101819055506040518060400160405280601481526020017f5365636f6e64205072697a652057696e6e6572210000000000000000000000008152509150506104b0565b5f6005826103cc9190610878565b1480156103e557505f600a826103e29190610878565b14155b15610476573360075f015f6101000a81548173ffffffffffffffffffffffffffffffffffffffff021916908373ffffffffffffffffffffffffffffffffffffffff1602179055506002546007600101819055506040518060400160405280601381526020017f5468697264205072697a652057696e6e657221000000000000000000000000008152509150506104b0565b6040518060400160405280600981526020017f4e6f205072697a652100000000000000000000000000000000000000000000008152509150505b90565b6104bb61062b565b6104c361062b565b6104cb61062b565b600360056007826040518060400160405290815f82015f9054906101000a900473ffffffffffffffffffffffffffffffffffffffff1673ffffffffffffffffffffffffffffffffffffffff1673ffffffffffffffffffffffffffffffffffffffff1681526020016001820154815250509250816040518060400160405290815f82015f9054906101000a900473ffffffffffffffffffffffffffffffffffffffff1673ffffffffffffffffffffffffffffffffffffffff1673ffffffffffffffffffffffffffffffffffffffff1681526020016001820154815250509150806040518060400160405290815f82015f9054906101000a900473ffffffffffffffffffffffffffffffffffffffff1673ffffffffffffffffffffffffffffffffffffffff1673ffffffffffffffffffffffffffffffffffffffff1681526020016001820154815250509050925092509250909192565b5f5481565b60025481565b60405180604001604052805f73ffffffffffffffffffffffffffffffffffffffff1681526020015f81525090565b5f73ffffffffffffffffffffffffffffffffffffffff82169050919050565b5f61068282610659565b9050919050565b61069281610678565b82525050565b5f819050919050565b6106aa81610698565b82525050565b5f6040820190506106c35f830185610689565b6106d060208301846106a1565b9392505050565b5f6020820190506106ea5f8301846106a1565b92915050565b5f81519050919050565b5f82825260208201905092915050565b8281835e5f83830152505050565b5f601f19601f8301169050919050565b5f610732826106f0565b61073c81856106fa565b935061074c81856020860161070a565b61075581610718565b840191505092915050565b5f6020820190508181035f8301526107788184610728565b905092915050565b61078981610678565b82525050565b61079881610698565b82525050565b604082015f8201516107b25f850182610780565b5060208201516107c5602085018261078f565b50505050565b5f60c0820190506107de5f83018661079e565b6107eb604083018561079e565b6107f8608083018461079e565b949350505050565b5f819050919050565b61081a61081582610698565b610800565b82525050565b5f61082b8285610809565b60208201915061083b8284610809565b6020820191508190509392505050565b7f4e487b71000000000000000000000000000000000000000000000000000000005f52601260045260245ffd5b5f61088282610698565b915061088d83610698565b92508261089d5761089c61084b565b5b82820690509291505056fea2646970667358221220f7af9a3fefd1ef4353f784e64005e6124e62311ffd33d7ec6921d1e52c3ff20d64736f6c634300081a0033",
					"opcodes": "PUSH1 0x80 PUSH1 0x40 MSTORE PUSH9 0x56BC75E2D63100000 PUSH0 SSTORE PUSH9 0x2B5E3AF16B1880000 PUSH1 0x1 SSTORE PUSH9 0x15AF1D78B58C40000 PUSH1 0x2 SSTORE CALLVALUE DUP1 ISZERO PUSH1 0x34 JUMPI PUSH0 DUP1 REVERT JUMPDEST POP PUSH2 0x8DE DUP1 PUSH2 0x42 PUSH0 CODECOPY PUSH0 RETURN INVALID PUSH1 0x80 PUSH1 0x40 MSTORE CALLVALUE DUP1 ISZERO PUSH2 0xF JUMPI PUSH0 DUP1 REVERT JUMPDEST POP PUSH1 0x4 CALLDATASIZE LT PUSH2 0x86 JUMPI PUSH0 CALLDATALOAD PUSH1 0xE0 SHR DUP1 PUSH4 0x8F9868DF GT PUSH2 0x59 JUMPI DUP1 PUSH4 0x8F9868DF EQ PUSH2 0x105 JUMPI DUP1 PUSH4 0x901540FC EQ PUSH2 0x123 JUMPI DUP1 PUSH4 0xD74FA6AB EQ PUSH2 0x143 JUMPI DUP1 PUSH4 0xFECF615D EQ PUSH2 0x161 JUMPI PUSH2 0x86 JUMP JUMPDEST DUP1 PUSH4 0x2E98520C EQ PUSH2 0x8A JUMPI DUP1 PUSH4 0x3D70BC52 EQ PUSH2 0xA9 JUMPI DUP1 PUSH4 0x4A382514 EQ PUSH2 0xC8 JUMPI DUP1 PUSH4 0x835A8ED3 EQ PUSH2 0xE6 JUMPI JUMPDEST PUSH0 DUP1 REVERT JUMPDEST PUSH2 0x92 PUSH2 0x17F JUMP JUMPDEST PUSH1 0x40 MLOAD PUSH2 0xA0 SWAP3 SWAP2 SWAP1 PUSH2 0x6B0 JUMP JUMPDEST PUSH1 0x40 MLOAD DUP1 SWAP2 SUB SWAP1 RETURN JUMPDEST PUSH2 0xB1 PUSH2 0x1AF JUMP JUMPDEST PUSH1 0x40 MLOAD PUSH2 0xBF SWAP3 SWAP2 SWAP1 PUSH2 0x6B0 JUMP JUMPDEST PUSH1 0x40 MLOAD DUP1 SWAP2 SUB SWAP1 RETURN JUMPDEST PUSH2 0xD0 PUSH2 0x1DF JUMP JUMPDEST PUSH1 0x40 MLOAD PUSH2 0xDD SWAP2 SWAP1 PUSH2 0x6D7 JUMP JUMPDEST PUSH1 0x40 MLOAD DUP1 SWAP2 SUB SWAP1 RETURN JUMPDEST PUSH2 0xEE PUSH2 0x1E5 JUMP JUMPDEST PUSH1 0x40 MLOAD PUSH2 0xFC SWAP3 SWAP2 SWAP1 PUSH2 0x6B0 JUMP JUMPDEST PUSH1 0x40 MLOAD DUP1 SWAP2 SUB SWAP1 RETURN JUMPDEST PUSH2 0x10D PUSH2 0x215 JUMP JUMPDEST PUSH1 0x40 MLOAD PUSH2 0x11A SWAP2 SWAP1 PUSH2 0x760 JUMP JUMPDEST PUSH1 0x40 MLOAD DUP1 SWAP2 SUB SWAP1 RETURN JUMPDEST PUSH2 0x12B PUSH2 0x4B3 JUMP JUMPDEST PUSH1 0x40 MLOAD PUSH2 0x13A SWAP4 SWAP3 SWAP2 SWAP1 PUSH2 0x7CB JUMP JUMPDEST PUSH1 0x40 MLOAD DUP1 SWAP2 SUB SWAP1 RETURN JUMPDEST PUSH2 0x14B PUSH2 0x620 JUMP JUMPDEST PUSH1 0x40 MLOAD PUSH2 0x158 SWAP2 SWAP1 PUSH2 0x6D7 JUMP JUMPDEST PUSH1 0x40 MLOAD DUP1 SWAP2 SUB SWAP1 RETURN JUMPDEST PUSH2 0x169 PUSH2 0x625 JUMP JUMPDEST PUSH1 0x40 MLOAD PUSH2 0x176 SWAP2 SWAP1 PUSH2 0x6D7 JUMP JUMPDEST PUSH1 0x40 MLOAD DUP1 SWAP2 SUB SWAP1 RETURN JUMPDEST PUSH1 0x3 DUP1 PUSH0 ADD PUSH0 SWAP1 SLOAD SWAP1 PUSH2 0x100 EXP SWAP1 DIV PUSH20 0xFFFFFFFFFFFFFFFFFFFFFFFFFFFFFFFFFFFFFFFF AND SWAP1 DUP1 PUSH1 0x1 ADD SLOAD SWAP1 POP DUP3 JUMP JUMPDEST PUSH1 0x5 DUP1 PUSH0 ADD PUSH0 SWAP1 SLOAD SWAP1 PUSH2 0x100 EXP SWAP1 DIV PUSH20 0xFFFFFFFFFFFFFFFFFFFFFFFFFFFFFFFFFFFFFFFF AND SWAP1 DUP1 PUSH1 0x1 ADD SLOAD SWAP1 POP DUP3 JUMP JUMPDEST PUSH1 0x1 SLOAD DUP2 JUMP JUMPDEST PUSH1 0x7 DUP1 PUSH0 ADD PUSH0 SWAP1 SLOAD SWAP1 PUSH2 0x100 EXP SWAP1 DIV PUSH20 0xFFFFFFFFFFFFFFFFFFFFFFFFFFFFFFFFFFFFFFFF AND SWAP1 DUP1 PUSH1 0x1 ADD SLOAD SWAP1 POP DUP3 JUMP JUMPDEST PUSH1 0x60 PUSH0 PUSH2 0x3E8 TIMESTAMP PREVRANDAO PUSH1 0x40 MLOAD PUSH1 0x20 ADD PUSH2 0x22E SWAP3 SWAP2 SWAP1 PUSH2 0x820 JUMP JUMPDEST PUSH1 0x40 MLOAD PUSH1 0x20 DUP2 DUP4 SUB SUB DUP2 MSTORE SWAP1 PUSH1 0x40 MSTORE DUP1 MLOAD SWAP1 PUSH1 0x20 ADD KECCAK256 PUSH0 SHR PUSH2 0x250 SWAP2 SWAP1 PUSH2 0x878 JUMP JUMPDEST SWAP1 POP PUSH0 PUSH1 0x3 DUP3 PUSH2 0x260 SWAP2 SWAP1 PUSH2 0x878 JUMP JUMPDEST EQ DUP1 ISZERO PUSH2 0x278 JUMPI POP PUSH0 PUSH1 0x5 DUP3 PUSH2 0x276 SWAP2 SWAP1 PUSH2 0x878 JUMP JUMPDEST EQ JUMPDEST ISZERO PUSH2 0x308 JUMPI CALLER PUSH1 0x3 PUSH0 ADD PUSH0 PUSH2 0x100 EXP DUP2 SLOAD DUP2 PUSH20 0xFFFFFFFFFFFFFFFFFFFFFFFFFFFFFFFFFFFFFFFF MUL NOT AND SWAP1 DUP4 PUSH20 0xFFFFFFFFFFFFFFFFFFFFFFFFFFFFFFFFFFFFFFFF AND MUL OR SWAP1 SSTORE POP PUSH0 SLOAD PUSH1 0x3 PUSH1 0x1 ADD DUP2 SWAP1 SSTORE POP PUSH1 0x40 MLOAD DUP1 PUSH1 0x40 ADD PUSH1 0x40 MSTORE DUP1 PUSH1 0x13 DUP2 MSTORE PUSH1 0x20 ADD PUSH32 0x4669727374205072697A652057696E6E65722100000000000000000000000000 DUP2 MSTORE POP SWAP2 POP POP PUSH2 0x4B0 JUMP JUMPDEST PUSH0 PUSH1 0x7 DUP3 PUSH2 0x316 SWAP2 SWAP1 PUSH2 0x878 JUMP JUMPDEST EQ DUP1 PUSH2 0x32D JUMPI POP PUSH0 PUSH1 0xB DUP3 PUSH2 0x32B SWAP2 SWAP1 PUSH2 0x878 JUMP JUMPDEST EQ JUMPDEST ISZERO PUSH2 0x3BE JUMPI CALLER PUSH1 0x5 PUSH0 ADD PUSH0 PUSH2 0x100 EXP DUP2 SLOAD DUP2 PUSH20 0xFFFFFFFFFFFFFFFFFFFFFFFFFFFFFFFFFFFFFFFF MUL NOT AND SWAP1 DUP4 PUSH20 0xFFFFFFFFFFFFFFFFFFFFFFFFFFFFFFFFFFFFFFFF AND MUL OR SWAP1 SSTORE POP PUSH1 0x1 SLOAD PUSH1 0x5 PUSH1 0x1 ADD DUP2 SWAP1 SSTORE POP PUSH1 0x40 MLOAD DUP1 PUSH1 0x40 ADD PUSH1 0x40 MSTORE DUP1 PUSH1 0x14 DUP2 MSTORE PUSH1 0x20 ADD PUSH32 0x5365636F6E64205072697A652057696E6E657221000000000000000000000000 DUP2 MSTORE POP SWAP2 POP POP PUSH2 0x4B0 JUMP JUMPDEST PUSH0 PUSH1 0x5 DUP3 PUSH2 0x3CC SWAP2 SWAP1 PUSH2 0x878 JUMP JUMPDEST EQ DUP1 ISZERO PUSH2 0x3E5 JUMPI POP PUSH0 PUSH1 0xA DUP3 PUSH2 0x3E2 SWAP2 SWAP1 PUSH2 0x878 JUMP JUMPDEST EQ ISZERO JUMPDEST ISZERO PUSH2 0x476 JUMPI CALLER PUSH1 0x7 PUSH0 ADD PUSH0 PUSH2 0x100 EXP DUP2 SLOAD DUP2 PUSH20 0xFFFFFFFFFFFFFFFFFFFFFFFFFFFFFFFFFFFFFFFF MUL NOT AND SWAP1 DUP4 PUSH20 0xFFFFFFFFFFFFFFFFFFFFFFFFFFFFFFFFFFFFFFFF AND MUL OR SWAP1 SSTORE POP PUSH1 0x2 SLOAD PUSH1 0x7 PUSH1 0x1 ADD DUP2 SWAP1 SSTORE POP PUSH1 0x40 MLOAD DUP1 PUSH1 0x40 ADD PUSH1 0x40 MSTORE DUP1 PUSH1 0x13 DUP2 MSTORE PUSH1 0x20 ADD PUSH32 0x5468697264205072697A652057696E6E65722100000000000000000000000000 DUP2 MSTORE POP SWAP2 POP POP PUSH2 0x4B0 JUMP JUMPDEST PUSH1 0x40 MLOAD DUP1 PUSH1 0x40 ADD PUSH1 0x40 MSTORE DUP1 PUSH1 0x9 DUP2 MSTORE PUSH1 0x20 ADD PUSH32 0x4E6F205072697A65210000000000000000000000000000000000000000000000 DUP2 MSTORE POP SWAP2 POP POP JUMPDEST SWAP1 JUMP JUMPDEST PUSH2 0x4BB PUSH2 0x62B JUMP JUMPDEST PUSH2 0x4C3 PUSH2 0x62B JUMP JUMPDEST PUSH2 0x4CB PUSH2 0x62B JUMP JUMPDEST PUSH1 0x3 PUSH1 0x5 PUSH1 0x7 DUP3 PUSH1 0x40 MLOAD DUP1 PUSH1 0x40 ADD PUSH1 0x40 MSTORE SWAP1 DUP2 PUSH0 DUP3 ADD PUSH0 SWAP1 SLOAD SWAP1 PUSH2 0x100 EXP SWAP1 DIV PUSH20 0xFFFFFFFFFFFFFFFFFFFFFFFFFFFFFFFFFFFFFFFF AND PUSH20 0xFFFFFFFFFFFFFFFFFFFFFFFFFFFFFFFFFFFFFFFF AND PUSH20 0xFFFFFFFFFFFFFFFFFFFFFFFFFFFFFFFFFFFFFFFF AND DUP2 MSTORE PUSH1 0x20 ADD PUSH1 0x1 DUP3 ADD SLOAD DUP2 MSTORE POP POP SWAP3 POP DUP2 PUSH1 0x40 MLOAD DUP1 PUSH1 0x40 ADD PUSH1 0x40 MSTORE SWAP1 DUP2 PUSH0 DUP3 ADD PUSH0 SWAP1 SLOAD SWAP1 PUSH2 0x100 EXP SWAP1 DIV PUSH20 0xFFFFFFFFFFFFFFFFFFFFFFFFFFFFFFFFFFFFFFFF AND PUSH20 0xFFFFFFFFFFFFFFFFFFFFFFFFFFFFFFFFFFFFFFFF AND PUSH20 0xFFFFFFFFFFFFFFFFFFFFFFFFFFFFFFFFFFFFFFFF AND DUP2 MSTORE PUSH1 0x20 ADD PUSH1 0x1 DUP3 ADD SLOAD DUP2 MSTORE POP POP SWAP2 POP DUP1 PUSH1 0x40 MLOAD DUP1 PUSH1 0x40 ADD PUSH1 0x40 MSTORE SWAP1 DUP2 PUSH0 DUP3 ADD PUSH0 SWAP1 SLOAD SWAP1 PUSH2 0x100 EXP SWAP1 DIV PUSH20 0xFFFFFFFFFFFFFFFFFFFFFFFFFFFFFFFFFFFFFFFF AND PUSH20 0xFFFFFFFFFFFFFFFFFFFFFFFFFFFFFFFFFFFFFFFF AND PUSH20 0xFFFFFFFFFFFFFFFFFFFFFFFFFFFFFFFFFFFFFFFF AND DUP2 MSTORE PUSH1 0x20 ADD PUSH1 0x1 DUP3 ADD SLOAD DUP2 MSTORE POP POP SWAP1 POP SWAP3 POP SWAP3 POP SWAP3 POP SWAP1 SWAP2 SWAP3 JUMP JUMPDEST PUSH0 SLOAD DUP2 JUMP JUMPDEST PUSH1 0x2 SLOAD DUP2 JUMP JUMPDEST PUSH1 0x40 MLOAD DUP1 PUSH1 0x40 ADD PUSH1 0x40 MSTORE DUP1 PUSH0 PUSH20 0xFFFFFFFFFFFFFFFFFFFFFFFFFFFFFFFFFFFFFFFF AND DUP2 MSTORE PUSH1 0x20 ADD PUSH0 DUP2 MSTORE POP SWAP1 JUMP JUMPDEST PUSH0 PUSH20 0xFFFFFFFFFFFFFFFFFFFFFFFFFFFFFFFFFFFFFFFF DUP3 AND SWAP1 POP SWAP2 SWAP1 POP JUMP JUMPDEST PUSH0 PUSH2 0x682 DUP3 PUSH2 0x659 JUMP JUMPDEST SWAP1 POP SWAP2 SWAP1 POP JUMP JUMPDEST PUSH2 0x692 DUP2 PUSH2 0x678 JUMP JUMPDEST DUP3 MSTORE POP POP JUMP JUMPDEST PUSH0 DUP2 SWAP1 POP SWAP2 SWAP1 POP JUMP JUMPDEST PUSH2 0x6AA DUP2 PUSH2 0x698 JUMP JUMPDEST DUP3 MSTORE POP POP JUMP JUMPDEST PUSH0 PUSH1 0x40 DUP3 ADD SWAP1 POP PUSH2 0x6C3 PUSH0 DUP4 ADD DUP6 PUSH2 0x689 JUMP JUMPDEST PUSH2 0x6D0 PUSH1 0x20 DUP4 ADD DUP5 PUSH2 0x6A1 JUMP JUMPDEST SWAP4 SWAP3 POP POP POP JUMP JUMPDEST PUSH0 PUSH1 0x20 DUP3 ADD SWAP1 POP PUSH2 0x6EA PUSH0 DUP4 ADD DUP5 PUSH2 0x6A1 JUMP JUMPDEST SWAP3 SWAP2 POP POP JUMP JUMPDEST PUSH0 DUP2 MLOAD SWAP1 POP SWAP2 SWAP1 POP JUMP JUMPDEST PUSH0 DUP3 DUP3 MSTORE PUSH1 0x20 DUP3 ADD SWAP1 POP SWAP3 SWAP2 POP POP JUMP JUMPDEST DUP3 DUP2 DUP4 MCOPY PUSH0 DUP4 DUP4 ADD MSTORE POP POP POP JUMP JUMPDEST PUSH0 PUSH1 0x1F NOT PUSH1 0x1F DUP4 ADD AND SWAP1 POP SWAP2 SWAP1 POP JUMP JUMPDEST PUSH0 PUSH2 0x732 DUP3 PUSH2 0x6F0 JUMP JUMPDEST PUSH2 0x73C DUP2 DUP6 PUSH2 0x6FA JUMP JUMPDEST SWAP4 POP PUSH2 0x74C DUP2 DUP6 PUSH1 0x20 DUP7 ADD PUSH2 0x70A JUMP JUMPDEST PUSH2 0x755 DUP2 PUSH2 0x718 JUMP JUMPDEST DUP5 ADD SWAP2 POP POP SWAP3 SWAP2 POP POP JUMP JUMPDEST PUSH0 PUSH1 0x20 DUP3 ADD SWAP1 POP DUP2 DUP2 SUB PUSH0 DUP4 ADD MSTORE PUSH2 0x778 DUP2 DUP5 PUSH2 0x728 JUMP JUMPDEST SWAP1 POP SWAP3 SWAP2 POP POP JUMP JUMPDEST PUSH2 0x789 DUP2 PUSH2 0x678 JUMP JUMPDEST DUP3 MSTORE POP POP JUMP JUMPDEST PUSH2 0x798 DUP2 PUSH2 0x698 JUMP JUMPDEST DUP3 MSTORE POP POP JUMP JUMPDEST PUSH1 0x40 DUP3 ADD PUSH0 DUP3 ADD MLOAD PUSH2 0x7B2 PUSH0 DUP6 ADD DUP3 PUSH2 0x780 JUMP JUMPDEST POP PUSH1 0x20 DUP3 ADD MLOAD PUSH2 0x7C5 PUSH1 0x20 DUP6 ADD DUP3 PUSH2 0x78F JUMP JUMPDEST POP POP POP POP JUMP JUMPDEST PUSH0 PUSH1 0xC0 DUP3 ADD SWAP1 POP PUSH2 0x7DE PUSH0 DUP4 ADD DUP7 PUSH2 0x79E JUMP JUMPDEST PUSH2 0x7EB PUSH1 0x40 DUP4 ADD DUP6 PUSH2 0x79E JUMP JUMPDEST PUSH2 0x7F8 PUSH1 0x80 DUP4 ADD DUP5 PUSH2 0x79E JUMP JUMPDEST SWAP5 SWAP4 POP POP POP POP JUMP JUMPDEST PUSH0 DUP2 SWAP1 POP SWAP2 SWAP1 POP JUMP JUMPDEST PUSH2 0x81A PUSH2 0x815 DUP3 PUSH2 0x698 JUMP JUMPDEST PUSH2 0x800 JUMP JUMPDEST DUP3 MSTORE POP POP JUMP JUMPDEST PUSH0 PUSH2 0x82B DUP3 DUP6 PUSH2 0x809 JUMP JUMPDEST PUSH1 0x20 DUP3 ADD SWAP2 POP PUSH2 0x83B DUP3 DUP5 PUSH2 0x809 JUMP JUMPDEST PUSH1 0x20 DUP3 ADD SWAP2 POP DUP2 SWAP1 POP SWAP4 SWAP3 POP POP POP JUMP JUMPDEST PUSH32 0x4E487B7100000000000000000000000000000000000000000000000000000000 PUSH0 MSTORE PUSH1 0x12 PUSH1 0x4 MSTORE PUSH1 0x24 PUSH0 REVERT JUMPDEST PUSH0 PUSH2 0x882 DUP3 PUSH2 0x698 JUMP JUMPDEST SWAP2 POP PUSH2 0x88D DUP4 PUSH2 0x698 JUMP JUMPDEST SWAP3 POP DUP3 PUSH2 0x89D JUMPI PUSH2 0x89C PUSH2 0x84B JUMP JUMPDEST JUMPDEST DUP3 DUP3 MOD SWAP1 POP SWAP3 SWAP2 POP POP JUMP INVALID LOG2 PUSH5 0x6970667358 0x22 SLT KECCAK256 0xF7 0xAF SWAP11 EXTCODEHASH 0xEF 0xD1 0xEF NUMBER MSTORE8 0xF7 DUP5 0xE6 BLOCKHASH SDIV 0xE6 SLT 0x4E PUSH3 0x311FFD CALLER 0xD7 0xEC PUSH10 0x21D1E52C3FF20D64736F PUSH13 0x634300081A0033000000000000 "
				},
				"gasEstimates": {
					"creation": {
						"codeDepositCost": "454000",
						"executionCost": "66801",
						"totalCost": "520801"
					},
					"external": {
						"firstPrize()": "4733",
						"generateLotteryNumber()": "infinite",
						"prize1Amount()": "2468",
						"prize2Amount()": "2470",
						"prize3Amount()": "2491",
						"secondPrize()": "4755",
						"thirdPrize()": "4799",
						"viewPrizes()": "infinite"
					}
				},
				"methodIdentifiers": {
					"firstPrize()": "2e98520c",
					"generateLotteryNumber()": "8f9868df",
					"prize1Amount()": "d74fa6ab",
					"prize2Amount()": "4a382514",
					"prize3Amount()": "fecf615d",
					"secondPrize()": "3d70bc52",
					"thirdPrize()": "835a8ed3",
					"viewPrizes()": "901540fc"
				}
			},
			"storageLayout": {
				"storage": [
					{
						"astId": 9,
						"contract": "Day04/D4P3.SOL:Lottery",
						"label": "prize1Amount",
						"offset": 0,
						"slot": "0",
						"type": "t_uint256"
					},
					{
						"astId": 12,
						"contract": "Day04/D4P3.SOL:Lottery",
						"label": "prize2Amount",
						"offset": 0,
						"slot": "1",
						"type": "t_uint256"
					},
					{
						"astId": 15,
						"contract": "Day04/D4P3.SOL:Lottery",
						"label": "prize3Amount",
						"offset": 0,
						"slot": "2",
						"type": "t_uint256"
					},
					{
						"astId": 18,
						"contract": "Day04/D4P3.SOL:Lottery",
						"label": "firstPrize",
						"offset": 0,
						"slot": "3",
						"type": "t_struct(Prize)6_storage"
					},
					{
						"astId": 21,
						"contract": "Day04/D4P3.SOL:Lottery",
						"label": "secondPrize",
						"offset": 0,
						"slot": "5",
						"type": "t_struct(Prize)6_storage"
					},
					{
						"astId": 24,
						"contract": "Day04/D4P3.SOL:Lottery",
						"label": "thirdPrize",
						"offset": 0,
						"slot": "7",
						"type": "t_struct(Prize)6_storage"
					}
				],
				"types": {
					"t_address": {
						"encoding": "inplace",
						"label": "address",
						"numberOfBytes": "20"
					},
					"t_struct(Prize)6_storage": {
						"encoding": "inplace",
						"label": "struct Lottery.Prize",
						"members": [
							{
								"astId": 3,
								"contract": "Day04/D4P3.SOL:Lottery",
								"label": "winner",
								"offset": 0,
								"slot": "0",
								"type": "t_address"
							},
							{
								"astId": 5,
								"contract": "Day04/D4P3.SOL:Lottery",
								"label": "prizeAmount",
								"offset": 0,
								"slot": "1",
								"type": "t_uint256"
							}
						],
						"numberOfBytes": "64"
					},
					"t_uint256": {
						"encoding": "inplace",
						"label": "uint256",
						"numberOfBytes": "32"
					}
				}
			},
			"userdoc": {
				"kind": "user",
				"methods": {},
				"version": 1
			}
		}
	}
}