{
	"Day04/d4p3.sol": {
		"Lottery": {
			"abi": [
				{
					"inputs": [],
					"name": "generateLotteryNumber",
					"outputs": [
						{
							"internalType": "string",
							"name": "",
							"type": "string"
						}
					],
					"stateMutability": "nonpayable",
					"type": "function"
				},
				{
					"inputs": [],
					"name": "prize1Amount",
					"outputs": [
						{
							"internalType": "uint256",
							"name": "",
							"type": "uint256"
						}
					],
					"stateMutability": "view",
					"type": "function"
				},
				{
					"inputs": [],
					"name": "prize2Amount",
					"outputs": [
						{
							"internalType": "uint256",
							"name": "",
							"type": "uint256"
						}
					],
					"stateMutability": "view",
					"type": "function"
				},
				{
					"inputs": [],
					"name": "prize3Amount",
					"outputs": [
						{
							"internalType": "uint256",
							"name": "",
							"type": "uint256"
						}
					],
					"stateMutability": "view",
					"type": "function"
				},
				{
					"inputs": [],
					"name": "viewPrizes",
					"outputs": [
						{
							"components": [
								{
									"internalType": "address",
									"name": "winner",
									"type": "address"
								},
								{
									"internalType": "uint256",
									"name": "prizeAmount",
									"type": "uint256"
								}
							],
							"internalType": "struct Lottery.Prize",
							"name": "",
							"type": "tuple"
						},
						{
							"components": [
								{
									"internalType": "address",
									"name": "winner",
									"type": "address"
								},
								{
									"internalType": "uint256",
									"name": "prizeAmount",
									"type": "uint256"
								}
							],
							"internalType": "struct Lottery.Prize",
							"name": "",
							"type": "tuple"
						},
						{
							"components": [
								{
									"internalType": "address",
									"name": "winner",
									"type": "address"
								},
								{
									"internalType": "uint256",
									"name": "prizeAmount",
									"type": "uint256"
								}
							],
							"internalType": "struct Lottery.Prize",
							"name": "",
							"type": "tuple"
						}
					],
					"stateMutability": "view",
					"type": "function"
				}
			],
			"devdoc": {
				"kind": "dev",
				"methods": {},
				"version": 1
			},
			"evm": {
				"assembly": "    /* \"Day04/d4p3.sol\":68:1628  contract Lottery {... */\n  mstore(0x40, 0x80)\n    /* \"Day04/d4p3.sol\":274:283  100 ether */\n  0x056bc75e2d63100000\n    /* \"Day04/d4p3.sol\":244:283  uint256 public prize1Amount = 100 ether */\n  0x00\n  sstore\n    /* \"Day04/d4p3.sol\":320:328  50 ether */\n  0x02b5e3af16b1880000\n    /* \"Day04/d4p3.sol\":290:328  uint256 public prize2Amount = 50 ether */\n  0x01\n  sstore\n    /* \"Day04/d4p3.sol\":365:373  25 ether */\n  0x015af1d78b58c40000\n    /* \"Day04/d4p3.sol\":335:373  uint256 public prize3Amount = 25 ether */\n  0x02\n  sstore\n    /* \"Day04/d4p3.sol\":68:1628  contract Lottery {... */\n  callvalue\n  dup1\n  iszero\n  tag_1\n  jumpi\n  0x00\n  dup1\n  revert\ntag_1:\n  pop\n  dataSize(sub_0)\n  dup1\n  dataOffset(sub_0)\n  0x00\n  codecopy\n  0x00\n  return\nstop\n\nsub_0: assembly {\n        /* \"Day04/d4p3.sol\":68:1628  contract Lottery {... */\n      mstore(0x40, 0x80)\n      callvalue\n      dup1\n      iszero\n      tag_1\n      jumpi\n      0x00\n      dup1\n      revert\n    tag_1:\n      pop\n      jumpi(tag_2, lt(calldatasize, 0x04))\n      shr(0xe0, calldataload(0x00))\n      dup1\n      0x4a382514\n      eq\n      tag_3\n      jumpi\n      dup1\n      0x8f9868df\n      eq\n      tag_4\n      jumpi\n      dup1\n      0x901540fc\n      eq\n      tag_5\n      jumpi\n      dup1\n      0xd74fa6ab\n      eq\n      tag_6\n      jumpi\n      dup1\n      0xfecf615d\n      eq\n      tag_7\n      jumpi\n    tag_2:\n      0x00\n      dup1\n      revert\n        /* \"Day04/d4p3.sol\":290:328  uint256 public prize2Amount = 50 ether */\n    tag_3:\n      tag_8\n      tag_9\n      jump\t// in\n    tag_8:\n      mload(0x40)\n      tag_10\n      swap2\n      swap1\n      tag_11\n      jump\t// in\n    tag_10:\n      mload(0x40)\n      dup1\n      swap2\n      sub\n      swap1\n      return\n        /* \"Day04/d4p3.sol\":541:1433  function generateLotteryNumber() public returns (string memory) {... */\n    tag_4:\n      tag_12\n      tag_13\n      jump\t// in\n    tag_12:\n      mload(0x40)\n      tag_14\n      swap2\n      swap1\n      tag_15\n      jump\t// in\n    tag_14:\n      mload(0x40)\n      dup1\n      swap2\n      sub\n      swap1\n      return\n        /* \"Day04/d4p3.sol\":1477:1625  function viewPrizes() public view returns (Prize memory, Prize memory, Prize memory) {... */\n    tag_5:\n      tag_16\n      tag_17\n      jump\t// in\n    tag_16:\n      mload(0x40)\n      tag_18\n      swap4\n      swap3\n      swap2\n      swap1\n      tag_19\n      jump\t// in\n    tag_18:\n      mload(0x40)\n      dup1\n      swap2\n      sub\n      swap1\n      return\n        /* \"Day04/d4p3.sol\":244:283  uint256 public prize1Amount = 100 ether */\n    tag_6:\n      tag_20\n      tag_21\n      jump\t// in\n    tag_20:\n      mload(0x40)\n      tag_22\n      swap2\n      swap1\n      tag_11\n      jump\t// in\n    tag_22:\n      mload(0x40)\n      dup1\n      swap2\n      sub\n      swap1\n      return\n        /* \"Day04/d4p3.sol\":335:373  uint256 public prize3Amount = 25 ether */\n    tag_7:\n      tag_23\n      tag_24\n      jump\t// in\n    tag_23:\n      mload(0x40)\n      tag_25\n      swap2\n      swap1\n      tag_11\n      jump\t// in\n    tag_25:\n      mload(0x40)\n      dup1\n      swap2\n      sub\n      swap1\n      return\n        /* \"Day04/d4p3.sol\":290:328  uint256 public prize2Amount = 50 ether */\n    tag_9:\n      sload(0x01)\n      dup2\n      jump\t// out\n        /* \"Day04/d4p3.sol\":541:1433  function generateLotteryNumber() public returns (string memory) {... */\n    tag_13:\n        /* \"Day04/d4p3.sol\":590:603  string memory */\n      0x60\n        /* \"Day04/d4p3.sol\":616:637  uint256 lotteryNumber */\n      0x00\n        /* \"Day04/d4p3.sol\":714:718  1000 */\n      0x03e8\n        /* \"Day04/d4p3.sol\":675:690  block.timestamp */\n      timestamp\n        /* \"Day04/d4p3.sol\":692:708  block.prevrandao */\n      prevrandao\n        /* \"Day04/d4p3.sol\":658:709  abi.encodePacked(block.timestamp, block.prevrandao) */\n      add(0x20, mload(0x40))\n      tag_27\n      swap3\n      swap2\n      swap1\n      tag_28\n      jump\t// in\n    tag_27:\n      mload(0x40)\n      0x20\n      dup2\n      dup4\n      sub\n      sub\n      dup2\n      mstore\n      swap1\n      0x40\n      mstore\n        /* \"Day04/d4p3.sol\":648:710  keccak256(abi.encodePacked(block.timestamp, block.prevrandao)) */\n      dup1\n      mload\n      swap1\n      0x20\n      add\n      keccak256\n        /* \"Day04/d4p3.sol\":640:711  uint256(keccak256(abi.encodePacked(block.timestamp, block.prevrandao))) */\n      0x00\n      shr\n        /* \"Day04/d4p3.sol\":640:718  uint256(keccak256(abi.encodePacked(block.timestamp, block.prevrandao))) % 1000 */\n      tag_29\n      swap2\n      swap1\n      tag_30\n      jump\t// in\n    tag_29:\n        /* \"Day04/d4p3.sol\":616:718  uint256 lotteryNumber = uint256(keccak256(abi.encodePacked(block.timestamp, block.prevrandao))) % 1000 */\n      swap1\n      pop\n        /* \"Day04/d4p3.sol\":756:757  0 */\n      0x00\n        /* \"Day04/d4p3.sol\":751:752  3 */\n      0x03\n        /* \"Day04/d4p3.sol\":735:748  lotteryNumber */\n      dup3\n        /* \"Day04/d4p3.sol\":735:752  lotteryNumber % 3 */\n      tag_31\n      swap2\n      swap1\n      tag_30\n      jump\t// in\n    tag_31:\n        /* \"Day04/d4p3.sol\":735:757  lotteryNumber % 3 == 0 */\n      eq\n        /* \"Day04/d4p3.sol\":735:783  lotteryNumber % 3 == 0 && lotteryNumber % 5 == 0 */\n      dup1\n      iszero\n      tag_32\n      jumpi\n      pop\n        /* \"Day04/d4p3.sol\":782:783  0 */\n      0x00\n        /* \"Day04/d4p3.sol\":777:778  5 */\n      0x05\n        /* \"Day04/d4p3.sol\":761:774  lotteryNumber */\n      dup3\n        /* \"Day04/d4p3.sol\":761:778  lotteryNumber % 5 */\n      tag_33\n      swap2\n      swap1\n      tag_30\n      jump\t// in\n    tag_33:\n        /* \"Day04/d4p3.sol\":761:783  lotteryNumber % 5 == 0 */\n      eq\n        /* \"Day04/d4p3.sol\":735:783  lotteryNumber % 3 == 0 && lotteryNumber % 5 == 0 */\n    tag_32:\n        /* \"Day04/d4p3.sol\":731:1386  if (lotteryNumber % 3 == 0 && lotteryNumber % 5 == 0) {... */\n      iszero\n      tag_34\n      jumpi\n        /* \"Day04/d4p3.sol\":820:830  msg.sender */\n      caller\n        /* \"Day04/d4p3.sol\":800:810  firstPrize */\n      0x03\n        /* \"Day04/d4p3.sol\":800:817  firstPrize.winner */\n      0x00\n      add\n      0x00\n        /* \"Day04/d4p3.sol\":800:830  firstPrize.winner = msg.sender */\n      0x0100\n      exp\n      dup2\n      sload\n      dup2\n      0xffffffffffffffffffffffffffffffffffffffff\n      mul\n      not\n      and\n      swap1\n      dup4\n      0xffffffffffffffffffffffffffffffffffffffff\n      and\n      mul\n      or\n      swap1\n      sstore\n      pop\n        /* \"Day04/d4p3.sol\":870:882  prize1Amount */\n      sload(0x00)\n        /* \"Day04/d4p3.sol\":845:855  firstPrize */\n      0x03\n        /* \"Day04/d4p3.sol\":845:867  firstPrize.prizeAmount */\n      0x01\n      add\n        /* \"Day04/d4p3.sol\":845:882  firstPrize.prizeAmount = prize1Amount */\n      dup2\n      swap1\n      sstore\n      pop\n        /* \"Day04/d4p3.sol\":897:925  return \"First Prize Winner!\" */\n      mload(0x40)\n      dup1\n      0x40\n      add\n      0x40\n      mstore\n      dup1\n      0x13\n      dup2\n      mstore\n      0x20\n      add\n      0x4669727374205072697a652057696e6e65722100000000000000000000000000\n      dup2\n      mstore\n      pop\n      swap2\n      pop\n      pop\n      jump(tag_26)\n        /* \"Day04/d4p3.sol\":731:1386  if (lotteryNumber % 3 == 0 && lotteryNumber % 5 == 0) {... */\n    tag_34:\n        /* \"Day04/d4p3.sol\":978:979  0 */\n      0x00\n        /* \"Day04/d4p3.sol\":973:974  7 */\n      0x07\n        /* \"Day04/d4p3.sol\":957:970  lotteryNumber */\n      dup3\n        /* \"Day04/d4p3.sol\":957:974  lotteryNumber % 7 */\n      tag_36\n      swap2\n      swap1\n      tag_30\n      jump\t// in\n    tag_36:\n        /* \"Day04/d4p3.sol\":957:979  lotteryNumber % 7 == 0 */\n      eq\n        /* \"Day04/d4p3.sol\":957:1006  lotteryNumber % 7 == 0 || lotteryNumber % 11 == 0 */\n      dup1\n      tag_37\n      jumpi\n      pop\n        /* \"Day04/d4p3.sol\":1005:1006  0 */\n      0x00\n        /* \"Day04/d4p3.sol\":999:1001  11 */\n      0x0b\n        /* \"Day04/d4p3.sol\":983:996  lotteryNumber */\n      dup3\n        /* \"Day04/d4p3.sol\":983:1001  lotteryNumber % 11 */\n      tag_38\n      swap2\n      swap1\n      tag_30\n      jump\t// in\n    tag_38:\n        /* \"Day04/d4p3.sol\":983:1006  lotteryNumber % 11 == 0 */\n      eq\n        /* \"Day04/d4p3.sol\":957:1006  lotteryNumber % 7 == 0 || lotteryNumber % 11 == 0 */\n    tag_37:\n        /* \"Day04/d4p3.sol\":953:1386  if (lotteryNumber % 7 == 0 || lotteryNumber % 11 == 0) {... */\n      iszero\n      tag_39\n      jumpi\n        /* \"Day04/d4p3.sol\":1044:1054  msg.sender */\n      caller\n        /* \"Day04/d4p3.sol\":1023:1034  secondPrize */\n      0x05\n        /* \"Day04/d4p3.sol\":1023:1041  secondPrize.winner */\n      0x00\n      add\n      0x00\n        /* \"Day04/d4p3.sol\":1023:1054  secondPrize.winner = msg.sender */\n      0x0100\n      exp\n      dup2\n      sload\n      dup2\n      0xffffffffffffffffffffffffffffffffffffffff\n      mul\n      not\n      and\n      swap1\n      dup4\n      0xffffffffffffffffffffffffffffffffffffffff\n      and\n      mul\n      or\n      swap1\n      sstore\n      pop\n        /* \"Day04/d4p3.sol\":1095:1107  prize2Amount */\n      sload(0x01)\n        /* \"Day04/d4p3.sol\":1069:1080  secondPrize */\n      0x05\n        /* \"Day04/d4p3.sol\":1069:1092  secondPrize.prizeAmount */\n      0x01\n      add\n        /* \"Day04/d4p3.sol\":1069:1107  secondPrize.prizeAmount = prize2Amount */\n      dup2\n      swap1\n      sstore\n      pop\n        /* \"Day04/d4p3.sol\":1122:1151  return \"Second Prize Winner!\" */\n      mload(0x40)\n      dup1\n      0x40\n      add\n      0x40\n      mstore\n      dup1\n      0x14\n      dup2\n      mstore\n      0x20\n      add\n      0x5365636f6e64205072697a652057696e6e657221000000000000000000000000\n      dup2\n      mstore\n      pop\n      swap2\n      pop\n      pop\n      jump(tag_26)\n        /* \"Day04/d4p3.sol\":953:1386  if (lotteryNumber % 7 == 0 || lotteryNumber % 11 == 0) {... */\n    tag_39:\n        /* \"Day04/d4p3.sol\":1204:1205  0 */\n      0x00\n        /* \"Day04/d4p3.sol\":1199:1200  5 */\n      0x05\n        /* \"Day04/d4p3.sol\":1183:1196  lotteryNumber */\n      dup3\n        /* \"Day04/d4p3.sol\":1183:1200  lotteryNumber % 5 */\n      tag_41\n      swap2\n      swap1\n      tag_30\n      jump\t// in\n    tag_41:\n        /* \"Day04/d4p3.sol\":1183:1205  lotteryNumber % 5 == 0 */\n      eq\n        /* \"Day04/d4p3.sol\":1183:1232  lotteryNumber % 5 == 0 && lotteryNumber % 10 != 0 */\n      dup1\n      iszero\n      tag_42\n      jumpi\n      pop\n        /* \"Day04/d4p3.sol\":1231:1232  0 */\n      0x00\n        /* \"Day04/d4p3.sol\":1225:1227  10 */\n      0x0a\n        /* \"Day04/d4p3.sol\":1209:1222  lotteryNumber */\n      dup3\n        /* \"Day04/d4p3.sol\":1209:1227  lotteryNumber % 10 */\n      tag_43\n      swap2\n      swap1\n      tag_30\n      jump\t// in\n    tag_43:\n        /* \"Day04/d4p3.sol\":1209:1232  lotteryNumber % 10 != 0 */\n      eq\n      iszero\n        /* \"Day04/d4p3.sol\":1183:1232  lotteryNumber % 5 == 0 && lotteryNumber % 10 != 0 */\n    tag_42:\n        /* \"Day04/d4p3.sol\":1179:1386  if (lotteryNumber % 5 == 0 && lotteryNumber % 10 != 0) {... */\n      iszero\n      tag_44\n      jumpi\n        /* \"Day04/d4p3.sol\":1269:1279  msg.sender */\n      caller\n        /* \"Day04/d4p3.sol\":1249:1259  thirdPrize */\n      0x07\n        /* \"Day04/d4p3.sol\":1249:1266  thirdPrize.winner */\n      0x00\n      add\n      0x00\n        /* \"Day04/d4p3.sol\":1249:1279  thirdPrize.winner = msg.sender */\n      0x0100\n      exp\n      dup2\n      sload\n      dup2\n      0xffffffffffffffffffffffffffffffffffffffff\n      mul\n      not\n      and\n      swap1\n      dup4\n      0xffffffffffffffffffffffffffffffffffffffff\n      and\n      mul\n      or\n      swap1\n      sstore\n      pop\n        /* \"Day04/d4p3.sol\":1319:1331  prize3Amount */\n      sload(0x02)\n        /* \"Day04/d4p3.sol\":1294:1304  thirdPrize */\n      0x07\n        /* \"Day04/d4p3.sol\":1294:1316  thirdPrize.prizeAmount */\n      0x01\n      add\n        /* \"Day04/d4p3.sol\":1294:1331  thirdPrize.prizeAmount = prize3Amount */\n      dup2\n      swap1\n      sstore\n      pop\n        /* \"Day04/d4p3.sol\":1346:1374  return \"Third Prize Winner!\" */\n      mload(0x40)\n      dup1\n      0x40\n      add\n      0x40\n      mstore\n      dup1\n      0x13\n      dup2\n      mstore\n      0x20\n      add\n      0x5468697264205072697a652057696e6e65722100000000000000000000000000\n      dup2\n      mstore\n      pop\n      swap2\n      pop\n      pop\n      jump(tag_26)\n        /* \"Day04/d4p3.sol\":1179:1386  if (lotteryNumber % 5 == 0 && lotteryNumber % 10 != 0) {... */\n    tag_44:\n        /* \"Day04/d4p3.sol\":1407:1425  return \"No Prize!\" */\n      mload(0x40)\n      dup1\n      0x40\n      add\n      0x40\n      mstore\n      dup1\n      0x09\n      dup2\n      mstore\n      0x20\n      add\n      0x4e6f205072697a65210000000000000000000000000000000000000000000000\n      dup2\n      mstore\n      pop\n      swap2\n      pop\n      pop\n        /* \"Day04/d4p3.sol\":541:1433  function generateLotteryNumber() public returns (string memory) {... */\n    tag_26:\n      swap1\n      jump\t// out\n        /* \"Day04/d4p3.sol\":1477:1625  function viewPrizes() public view returns (Prize memory, Prize memory, Prize memory) {... */\n    tag_17:\n        /* \"Day04/d4p3.sol\":1520:1532  Prize memory */\n      tag_45\n      tag_46\n      jump\t// in\n    tag_45:\n        /* \"Day04/d4p3.sol\":1534:1546  Prize memory */\n      tag_47\n      tag_46\n      jump\t// in\n    tag_47:\n        /* \"Day04/d4p3.sol\":1548:1560  Prize memory */\n      tag_48\n      tag_46\n      jump\t// in\n    tag_48:\n        /* \"Day04/d4p3.sol\":1581:1591  firstPrize */\n      0x03\n        /* \"Day04/d4p3.sol\":1593:1604  secondPrize */\n      0x05\n        /* \"Day04/d4p3.sol\":1606:1616  thirdPrize */\n      0x07\n        /* \"Day04/d4p3.sol\":1573:1617  return (firstPrize, secondPrize, thirdPrize) */\n      dup3\n      mload(0x40)\n      dup1\n      0x40\n      add\n      0x40\n      mstore\n      swap1\n      dup2\n      0x00\n      dup3\n      add\n      0x00\n      swap1\n      sload\n      swap1\n      0x0100\n      exp\n      swap1\n      div\n      0xffffffffffffffffffffffffffffffffffffffff\n      and\n      0xffffffffffffffffffffffffffffffffffffffff\n      and\n      0xffffffffffffffffffffffffffffffffffffffff\n      and\n      dup2\n      mstore\n      0x20\n      add\n      0x01\n      dup3\n      add\n      sload\n      dup2\n      mstore\n      pop\n      pop\n      swap3\n      pop\n      dup2\n      mload(0x40)\n      dup1\n      0x40\n      add\n      0x40\n      mstore\n      swap1\n      dup2\n      0x00\n      dup3\n      add\n      0x00\n      swap1\n      sload\n      swap1\n      0x0100\n      exp\n      swap1\n      div\n      0xffffffffffffffffffffffffffffffffffffffff\n      and\n      0xffffffffffffffffffffffffffffffffffffffff\n      and\n      0xffffffffffffffffffffffffffffffffffffffff\n      and\n      dup2\n      mstore\n      0x20\n      add\n      0x01\n      dup3\n      add\n      sload\n      dup2\n      mstore\n      pop\n      pop\n      swap2\n      pop\n      dup1\n      mload(0x40)\n      dup1\n      0x40\n      add\n      0x40\n      mstore\n      swap1\n      dup2\n      0x00\n      dup3\n      add\n      0x00\n      swap1\n      sload\n      swap1\n      0x0100\n      exp\n      swap1\n      div\n      0xffffffffffffffffffffffffffffffffffffffff\n      and\n      0xffffffffffffffffffffffffffffffffffffffff\n      and\n      0xffffffffffffffffffffffffffffffffffffffff\n      and\n      dup2\n      mstore\n      0x20\n      add\n      0x01\n      dup3\n      add\n      sload\n      dup2\n      mstore\n      pop\n      pop\n      swap1\n      pop\n      swap3\n      pop\n      swap3\n      pop\n      swap3\n      pop\n        /* \"Day04/d4p3.sol\":1477:1625  function viewPrizes() public view returns (Prize memory, Prize memory, Prize memory) {... */\n      swap1\n      swap2\n      swap3\n      jump\t// out\n        /* \"Day04/d4p3.sol\":244:283  uint256 public prize1Amount = 100 ether */\n    tag_21:\n      sload(0x00)\n      dup2\n      jump\t// out\n        /* \"Day04/d4p3.sol\":335:373  uint256 public prize3Amount = 25 ether */\n    tag_24:\n      sload(0x02)\n      dup2\n      jump\t// out\n    tag_46:\n      mload(0x40)\n      dup1\n      0x40\n      add\n      0x40\n      mstore\n      dup1\n      and(0xffffffffffffffffffffffffffffffffffffffff, 0x00)\n      dup2\n      mstore\n      0x20\n      add\n      0x00\n      dup2\n      mstore\n      pop\n      swap1\n      jump\t// out\n        /* \"#utility.yul\":7:84   */\n    tag_50:\n        /* \"#utility.yul\":44:51   */\n      0x00\n        /* \"#utility.yul\":73:78   */\n      dup2\n        /* \"#utility.yul\":62:78   */\n      swap1\n      pop\n        /* \"#utility.yul\":7:84   */\n      swap2\n      swap1\n      pop\n      jump\t// out\n        /* \"#utility.yul\":90:208   */\n    tag_51:\n        /* \"#utility.yul\":177:201   */\n      tag_68\n        /* \"#utility.yul\":195:200   */\n      dup2\n        /* \"#utility.yul\":177:201   */\n      tag_50\n      jump\t// in\n    tag_68:\n        /* \"#utility.yul\":172:175   */\n      dup3\n        /* \"#utility.yul\":165:202   */\n      mstore\n        /* \"#utility.yul\":90:208   */\n      pop\n      pop\n      jump\t// out\n        /* \"#utility.yul\":214:436   */\n    tag_11:\n        /* \"#utility.yul\":307:311   */\n      0x00\n        /* \"#utility.yul\":345:347   */\n      0x20\n        /* \"#utility.yul\":334:343   */\n      dup3\n        /* \"#utility.yul\":330:348   */\n      add\n        /* \"#utility.yul\":322:348   */\n      swap1\n      pop\n        /* \"#utility.yul\":358:429   */\n      tag_70\n        /* \"#utility.yul\":426:427   */\n      0x00\n        /* \"#utility.yul\":415:424   */\n      dup4\n        /* \"#utility.yul\":411:428   */\n      add\n        /* \"#utility.yul\":402:408   */\n      dup5\n        /* \"#utility.yul\":358:429   */\n      tag_51\n      jump\t// in\n    tag_70:\n        /* \"#utility.yul\":214:436   */\n      swap3\n      swap2\n      pop\n      pop\n      jump\t// out\n        /* \"#utility.yul\":442:541   */\n    tag_52:\n        /* \"#utility.yul\":494:500   */\n      0x00\n        /* \"#utility.yul\":528:533   */\n      dup2\n        /* \"#utility.yul\":522:534   */\n      mload\n        /* \"#utility.yul\":512:534   */\n      swap1\n      pop\n        /* \"#utility.yul\":442:541   */\n      swap2\n      swap1\n      pop\n      jump\t// out\n        /* \"#utility.yul\":547:716   */\n    tag_53:\n        /* \"#utility.yul\":631:642   */\n      0x00\n        /* \"#utility.yul\":665:671   */\n      dup3\n        /* \"#utility.yul\":660:663   */\n      dup3\n        /* \"#utility.yul\":653:672   */\n      mstore\n        /* \"#utility.yul\":705:709   */\n      0x20\n        /* \"#utility.yul\":700:703   */\n      dup3\n        /* \"#utility.yul\":696:710   */\n      add\n        /* \"#utility.yul\":681:710   */\n      swap1\n      pop\n        /* \"#utility.yul\":547:716   */\n      swap3\n      swap2\n      pop\n      pop\n      jump\t// out\n        /* \"#utility.yul\":722:861   */\n    tag_54:\n        /* \"#utility.yul\":811:817   */\n      dup3\n        /* \"#utility.yul\":806:809   */\n      dup2\n        /* \"#utility.yul\":801:804   */\n      dup4\n        /* \"#utility.yul\":795:818   */\n      mcopy\n        /* \"#utility.yul\":852:853   */\n      0x00\n        /* \"#utility.yul\":843:849   */\n      dup4\n        /* \"#utility.yul\":838:841   */\n      dup4\n        /* \"#utility.yul\":834:850   */\n      add\n        /* \"#utility.yul\":827:854   */\n      mstore\n        /* \"#utility.yul\":722:861   */\n      pop\n      pop\n      pop\n      jump\t// out\n        /* \"#utility.yul\":867:969   */\n    tag_55:\n        /* \"#utility.yul\":908:914   */\n      0x00\n        /* \"#utility.yul\":959:961   */\n      0x1f\n        /* \"#utility.yul\":955:962   */\n      not\n        /* \"#utility.yul\":950:952   */\n      0x1f\n        /* \"#utility.yul\":943:948   */\n      dup4\n        /* \"#utility.yul\":939:953   */\n      add\n        /* \"#utility.yul\":935:963   */\n      and\n        /* \"#utility.yul\":925:963   */\n      swap1\n      pop\n        /* \"#utility.yul\":867:969   */\n      swap2\n      swap1\n      pop\n      jump\t// out\n        /* \"#utility.yul\":975:1352   */\n    tag_56:\n        /* \"#utility.yul\":1063:1066   */\n      0x00\n        /* \"#utility.yul\":1091:1130   */\n      tag_76\n        /* \"#utility.yul\":1124:1129   */\n      dup3\n        /* \"#utility.yul\":1091:1130   */\n      tag_52\n      jump\t// in\n    tag_76:\n        /* \"#utility.yul\":1146:1217   */\n      tag_77\n        /* \"#utility.yul\":1210:1216   */\n      dup2\n        /* \"#utility.yul\":1205:1208   */\n      dup6\n        /* \"#utility.yul\":1146:1217   */\n      tag_53\n      jump\t// in\n    tag_77:\n        /* \"#utility.yul\":1139:1217   */\n      swap4\n      pop\n        /* \"#utility.yul\":1226:1291   */\n      tag_78\n        /* \"#utility.yul\":1284:1290   */\n      dup2\n        /* \"#utility.yul\":1279:1282   */\n      dup6\n        /* \"#utility.yul\":1272:1276   */\n      0x20\n        /* \"#utility.yul\":1265:1270   */\n      dup7\n        /* \"#utility.yul\":1261:1277   */\n      add\n        /* \"#utility.yul\":1226:1291   */\n      tag_54\n      jump\t// in\n    tag_78:\n        /* \"#utility.yul\":1316:1345   */\n      tag_79\n        /* \"#utility.yul\":1338:1344   */\n      dup2\n        /* \"#utility.yul\":1316:1345   */\n      tag_55\n      jump\t// in\n    tag_79:\n        /* \"#utility.yul\":1311:1314   */\n      dup5\n        /* \"#utility.yul\":1307:1346   */\n      add\n        /* \"#utility.yul\":1300:1346   */\n      swap2\n      pop\n        /* \"#utility.yul\":1067:1352   */\n      pop\n        /* \"#utility.yul\":975:1352   */\n      swap3\n      swap2\n      pop\n      pop\n      jump\t// out\n        /* \"#utility.yul\":1358:1671   */\n    tag_15:\n        /* \"#utility.yul\":1471:1475   */\n      0x00\n        /* \"#utility.yul\":1509:1511   */\n      0x20\n        /* \"#utility.yul\":1498:1507   */\n      dup3\n        /* \"#utility.yul\":1494:1512   */\n      add\n        /* \"#utility.yul\":1486:1512   */\n      swap1\n      pop\n        /* \"#utility.yul\":1558:1567   */\n      dup2\n        /* \"#utility.yul\":1552:1556   */\n      dup2\n        /* \"#utility.yul\":1548:1568   */\n      sub\n        /* \"#utility.yul\":1544:1545   */\n      0x00\n        /* \"#utility.yul\":1533:1542   */\n      dup4\n        /* \"#utility.yul\":1529:1546   */\n      add\n        /* \"#utility.yul\":1522:1569   */\n      mstore\n        /* \"#utility.yul\":1586:1664   */\n      tag_81\n        /* \"#utility.yul\":1659:1663   */\n      dup2\n        /* \"#utility.yul\":1650:1656   */\n      dup5\n        /* \"#utility.yul\":1586:1664   */\n      tag_56\n      jump\t// in\n    tag_81:\n        /* \"#utility.yul\":1578:1664   */\n      swap1\n      pop\n        /* \"#utility.yul\":1358:1671   */\n      swap3\n      swap2\n      pop\n      pop\n      jump\t// out\n        /* \"#utility.yul\":1677:1803   */\n    tag_57:\n        /* \"#utility.yul\":1714:1721   */\n      0x00\n        /* \"#utility.yul\":1754:1796   */\n      0xffffffffffffffffffffffffffffffffffffffff\n        /* \"#utility.yul\":1747:1752   */\n      dup3\n        /* \"#utility.yul\":1743:1797   */\n      and\n        /* \"#utility.yul\":1732:1797   */\n      swap1\n      pop\n        /* \"#utility.yul\":1677:1803   */\n      swap2\n      swap1\n      pop\n      jump\t// out\n        /* \"#utility.yul\":1809:1905   */\n    tag_58:\n        /* \"#utility.yul\":1846:1853   */\n      0x00\n        /* \"#utility.yul\":1875:1899   */\n      tag_84\n        /* \"#utility.yul\":1893:1898   */\n      dup3\n        /* \"#utility.yul\":1875:1899   */\n      tag_57\n      jump\t// in\n    tag_84:\n        /* \"#utility.yul\":1864:1899   */\n      swap1\n      pop\n        /* \"#utility.yul\":1809:1905   */\n      swap2\n      swap1\n      pop\n      jump\t// out\n        /* \"#utility.yul\":1911:2019   */\n    tag_59:\n        /* \"#utility.yul\":1988:2012   */\n      tag_86\n        /* \"#utility.yul\":2006:2011   */\n      dup2\n        /* \"#utility.yul\":1988:2012   */\n      tag_58\n      jump\t// in\n    tag_86:\n        /* \"#utility.yul\":1983:1986   */\n      dup3\n        /* \"#utility.yul\":1976:2013   */\n      mstore\n        /* \"#utility.yul\":1911:2019   */\n      pop\n      pop\n      jump\t// out\n        /* \"#utility.yul\":2025:2133   */\n    tag_60:\n        /* \"#utility.yul\":2102:2126   */\n      tag_88\n        /* \"#utility.yul\":2120:2125   */\n      dup2\n        /* \"#utility.yul\":2102:2126   */\n      tag_50\n      jump\t// in\n    tag_88:\n        /* \"#utility.yul\":2097:2100   */\n      dup3\n        /* \"#utility.yul\":2090:2127   */\n      mstore\n        /* \"#utility.yul\":2025:2133   */\n      pop\n      pop\n      jump\t// out\n        /* \"#utility.yul\":2191:2697   */\n    tag_61:\n        /* \"#utility.yul\":2328:2332   */\n      0x40\n        /* \"#utility.yul\":2323:2326   */\n      dup3\n        /* \"#utility.yul\":2319:2333   */\n      add\n        /* \"#utility.yul\":2417:2421   */\n      0x00\n        /* \"#utility.yul\":2410:2415   */\n      dup3\n        /* \"#utility.yul\":2406:2422   */\n      add\n        /* \"#utility.yul\":2400:2423   */\n      mload\n        /* \"#utility.yul\":2436:2499   */\n      tag_90\n        /* \"#utility.yul\":2493:2497   */\n      0x00\n        /* \"#utility.yul\":2488:2491   */\n      dup6\n        /* \"#utility.yul\":2484:2498   */\n      add\n        /* \"#utility.yul\":2470:2482   */\n      dup3\n        /* \"#utility.yul\":2436:2499   */\n      tag_59\n      jump\t// in\n    tag_90:\n        /* \"#utility.yul\":2343:2509   */\n      pop\n        /* \"#utility.yul\":2598:2602   */\n      0x20\n        /* \"#utility.yul\":2591:2596   */\n      dup3\n        /* \"#utility.yul\":2587:2603   */\n      add\n        /* \"#utility.yul\":2581:2604   */\n      mload\n        /* \"#utility.yul\":2617:2680   */\n      tag_91\n        /* \"#utility.yul\":2674:2678   */\n      0x20\n        /* \"#utility.yul\":2669:2672   */\n      dup6\n        /* \"#utility.yul\":2665:2679   */\n      add\n        /* \"#utility.yul\":2651:2663   */\n      dup3\n        /* \"#utility.yul\":2617:2680   */\n      tag_60\n      jump\t// in\n    tag_91:\n        /* \"#utility.yul\":2519:2690   */\n      pop\n        /* \"#utility.yul\":2297:2697   */\n      pop\n        /* \"#utility.yul\":2191:2697   */\n      pop\n      pop\n      jump\t// out\n        /* \"#utility.yul\":2703:3387   */\n    tag_19:\n        /* \"#utility.yul\":2972:2976   */\n      0x00\n        /* \"#utility.yul\":3010:3013   */\n      0xc0\n        /* \"#utility.yul\":2999:3008   */\n      dup3\n        /* \"#utility.yul\":2995:3014   */\n      add\n        /* \"#utility.yul\":2987:3014   */\n      swap1\n      pop\n        /* \"#utility.yul\":3024:3135   */\n      tag_93\n        /* \"#utility.yul\":3132:3133   */\n      0x00\n        /* \"#utility.yul\":3121:3130   */\n      dup4\n        /* \"#utility.yul\":3117:3134   */\n      add\n        /* \"#utility.yul\":3108:3114   */\n      dup7\n        /* \"#utility.yul\":3024:3135   */\n      tag_61\n      jump\t// in\n    tag_93:\n        /* \"#utility.yul\":3145:3257   */\n      tag_94\n        /* \"#utility.yul\":3253:3255   */\n      0x40\n        /* \"#utility.yul\":3242:3251   */\n      dup4\n        /* \"#utility.yul\":3238:3256   */\n      add\n        /* \"#utility.yul\":3229:3235   */\n      dup6\n        /* \"#utility.yul\":3145:3257   */\n      tag_61\n      jump\t// in\n    tag_94:\n        /* \"#utility.yul\":3267:3380   */\n      tag_95\n        /* \"#utility.yul\":3375:3378   */\n      0x80\n        /* \"#utility.yul\":3364:3373   */\n      dup4\n        /* \"#utility.yul\":3360:3379   */\n      add\n        /* \"#utility.yul\":3351:3357   */\n      dup5\n        /* \"#utility.yul\":3267:3380   */\n      tag_61\n      jump\t// in\n    tag_95:\n        /* \"#utility.yul\":2703:3387   */\n      swap5\n      swap4\n      pop\n      pop\n      pop\n      pop\n      jump\t// out\n        /* \"#utility.yul\":3393:3472   */\n    tag_62:\n        /* \"#utility.yul\":3432:3439   */\n      0x00\n        /* \"#utility.yul\":3461:3466   */\n      dup2\n        /* \"#utility.yul\":3450:3466   */\n      swap1\n      pop\n        /* \"#utility.yul\":3393:3472   */\n      swap2\n      swap1\n      pop\n      jump\t// out\n        /* \"#utility.yul\":3478:3635   */\n    tag_63:\n        /* \"#utility.yul\":3583:3628   */\n      tag_98\n        /* \"#utility.yul\":3603:3627   */\n      tag_99\n        /* \"#utility.yul\":3621:3626   */\n      dup3\n        /* \"#utility.yul\":3603:3627   */\n      tag_50\n      jump\t// in\n    tag_99:\n        /* \"#utility.yul\":3583:3628   */\n      tag_62\n      jump\t// in\n    tag_98:\n        /* \"#utility.yul\":3578:3581   */\n      dup3\n        /* \"#utility.yul\":3571:3629   */\n      mstore\n        /* \"#utility.yul\":3478:3635   */\n      pop\n      pop\n      jump\t// out\n        /* \"#utility.yul\":3641:4038   */\n    tag_28:\n        /* \"#utility.yul\":3781:3784   */\n      0x00\n        /* \"#utility.yul\":3796:3871   */\n      tag_101\n        /* \"#utility.yul\":3867:3870   */\n      dup3\n        /* \"#utility.yul\":3858:3864   */\n      dup6\n        /* \"#utility.yul\":3796:3871   */\n      tag_63\n      jump\t// in\n    tag_101:\n        /* \"#utility.yul\":3896:3898   */\n      0x20\n        /* \"#utility.yul\":3891:3894   */\n      dup3\n        /* \"#utility.yul\":3887:3899   */\n      add\n        /* \"#utility.yul\":3880:3899   */\n      swap2\n      pop\n        /* \"#utility.yul\":3909:3984   */\n      tag_102\n        /* \"#utility.yul\":3980:3983   */\n      dup3\n        /* \"#utility.yul\":3971:3977   */\n      dup5\n        /* \"#utility.yul\":3909:3984   */\n      tag_63\n      jump\t// in\n    tag_102:\n        /* \"#utility.yul\":4009:4011   */\n      0x20\n        /* \"#utility.yul\":4004:4007   */\n      dup3\n        /* \"#utility.yul\":4000:4012   */\n      add\n        /* \"#utility.yul\":3993:4012   */\n      swap2\n      pop\n        /* \"#utility.yul\":4029:4032   */\n      dup2\n        /* \"#utility.yul\":4022:4032   */\n      swap1\n      pop\n        /* \"#utility.yul\":3641:4038   */\n      swap4\n      swap3\n      pop\n      pop\n      pop\n      jump\t// out\n        /* \"#utility.yul\":4044:4224   */\n    tag_64:\n        /* \"#utility.yul\":4092:4169   */\n      0x4e487b7100000000000000000000000000000000000000000000000000000000\n        /* \"#utility.yul\":4089:4090   */\n      0x00\n        /* \"#utility.yul\":4082:4170   */\n      mstore\n        /* \"#utility.yul\":4189:4193   */\n      0x12\n        /* \"#utility.yul\":4186:4187   */\n      0x04\n        /* \"#utility.yul\":4179:4194   */\n      mstore\n        /* \"#utility.yul\":4213:4217   */\n      0x24\n        /* \"#utility.yul\":4210:4211   */\n      0x00\n        /* \"#utility.yul\":4203:4218   */\n      revert\n        /* \"#utility.yul\":4230:4406   */\n    tag_30:\n        /* \"#utility.yul\":4262:4263   */\n      0x00\n        /* \"#utility.yul\":4279:4299   */\n      tag_105\n        /* \"#utility.yul\":4297:4298   */\n      dup3\n        /* \"#utility.yul\":4279:4299   */\n      tag_50\n      jump\t// in\n    tag_105:\n        /* \"#utility.yul\":4274:4299   */\n      swap2\n      pop\n        /* \"#utility.yul\":4313:4333   */\n      tag_106\n        /* \"#utility.yul\":4331:4332   */\n      dup4\n        /* \"#utility.yul\":4313:4333   */\n      tag_50\n      jump\t// in\n    tag_106:\n        /* \"#utility.yul\":4308:4333   */\n      swap3\n      pop\n        /* \"#utility.yul\":4352:4353   */\n      dup3\n        /* \"#utility.yul\":4342:4377   */\n      tag_107\n      jumpi\n        /* \"#utility.yul\":4357:4375   */\n      tag_108\n      tag_64\n      jump\t// in\n    tag_108:\n        /* \"#utility.yul\":4342:4377   */\n    tag_107:\n        /* \"#utility.yul\":4398:4399   */\n      dup3\n        /* \"#utility.yul\":4395:4396   */\n      dup3\n        /* \"#utility.yul\":4391:4400   */\n      mod\n        /* \"#utility.yul\":4386:4400   */\n      swap1\n      pop\n        /* \"#utility.yul\":4230:4406   */\n      swap3\n      swap2\n      pop\n      pop\n      jump\t// out\n\n    auxdata: 0xa2646970667358221220e0646a70e4fe7e662cf7aa746e638ed6fcfe3f0c58baac062d4b2129060bf9e264736f6c634300081a0033\n}\n",
				"bytecode": {
					"linkReferences": {},
					"object": "608060405268056bc75e2d631000005f556802b5e3af16b188000060015568015af1d78b58c400006002553480156034575f80fd5b5061078a806100425f395ff3fe608060405234801561000f575f80fd5b5060043610610055575f3560e01c80634a382514146100595780638f9868df14610077578063901540fc14610095578063d74fa6ab146100b5578063fecf615d146100d3575b5f80fd5b6100616100f1565b60405161006e9190610553565b60405180910390f35b61007f6100f7565b60405161008c91906105dc565b60405180910390f35b61009d610395565b6040516100ac93929190610677565b60405180910390f35b6100bd610502565b6040516100ca9190610553565b60405180910390f35b6100db610507565b6040516100e89190610553565b60405180910390f35b60015481565b60605f6103e842446040516020016101109291906106cc565b604051602081830303815290604052805190602001205f1c6101329190610724565b90505f6003826101429190610724565b14801561015a57505f6005826101589190610724565b145b156101ea573360035f015f6101000a81548173ffffffffffffffffffffffffffffffffffffffff021916908373ffffffffffffffffffffffffffffffffffffffff1602179055505f546003600101819055506040518060400160405280601381526020017f4669727374205072697a652057696e6e65722100000000000000000000000000815250915050610392565b5f6007826101f89190610724565b148061020f57505f600b8261020d9190610724565b145b156102a0573360055f015f6101000a81548173ffffffffffffffffffffffffffffffffffffffff021916908373ffffffffffffffffffffffffffffffffffffffff1602179055506001546005600101819055506040518060400160405280601481526020017f5365636f6e64205072697a652057696e6e657221000000000000000000000000815250915050610392565b5f6005826102ae9190610724565b1480156102c757505f600a826102c49190610724565b14155b15610358573360075f015f6101000a81548173ffffffffffffffffffffffffffffffffffffffff021916908373ffffffffffffffffffffffffffffffffffffffff1602179055506002546007600101819055506040518060400160405280601381526020017f5468697264205072697a652057696e6e65722100000000000000000000000000815250915050610392565b6040518060400160405280600981526020017f4e6f205072697a652100000000000000000000000000000000000000000000008152509150505b90565b61039d61050d565b6103a561050d565b6103ad61050d565b600360056007826040518060400160405290815f82015f9054906101000a900473ffffffffffffffffffffffffffffffffffffffff1673ffffffffffffffffffffffffffffffffffffffff1673ffffffffffffffffffffffffffffffffffffffff1681526020016001820154815250509250816040518060400160405290815f82015f9054906101000a900473ffffffffffffffffffffffffffffffffffffffff1673ffffffffffffffffffffffffffffffffffffffff1673ffffffffffffffffffffffffffffffffffffffff1681526020016001820154815250509150806040518060400160405290815f82015f9054906101000a900473ffffffffffffffffffffffffffffffffffffffff1673ffffffffffffffffffffffffffffffffffffffff1673ffffffffffffffffffffffffffffffffffffffff1681526020016001820154815250509050925092509250909192565b5f5481565b60025481565b60405180604001604052805f73ffffffffffffffffffffffffffffffffffffffff1681526020015f81525090565b5f819050919050565b61054d8161053b565b82525050565b5f6020820190506105665f830184610544565b92915050565b5f81519050919050565b5f82825260208201905092915050565b8281835e5f83830152505050565b5f601f19601f8301169050919050565b5f6105ae8261056c565b6105b88185610576565b93506105c8818560208601610586565b6105d181610594565b840191505092915050565b5f6020820190508181035f8301526105f481846105a4565b905092915050565b5f73ffffffffffffffffffffffffffffffffffffffff82169050919050565b5f610625826105fc565b9050919050565b6106358161061b565b82525050565b6106448161053b565b82525050565b604082015f82015161065e5f85018261062c565b506020820151610671602085018261063b565b50505050565b5f60c08201905061068a5f83018661064a565b610697604083018561064a565b6106a4608083018461064a565b949350505050565b5f819050919050565b6106c66106c18261053b565b6106ac565b82525050565b5f6106d782856106b5565b6020820191506106e782846106b5565b6020820191508190509392505050565b7f4e487b71000000000000000000000000000000000000000000000000000000005f52601260045260245ffd5b5f61072e8261053b565b91506107398361053b565b925082610749576107486106f7565b5b82820690509291505056fea2646970667358221220e0646a70e4fe7e662cf7aa746e638ed6fcfe3f0c58baac062d4b2129060bf9e264736f6c634300081a0033",
					"opcodes": "PUSH1 0x80 PUSH1 0x40 MSTORE PUSH9 0x56BC75E2D63100000 PUSH0 SSTORE PUSH9 0x2B5E3AF16B1880000 PUSH1 0x1 SSTORE PUSH9 0x15AF1D78B58C40000 PUSH1 0x2 SSTORE CALLVALUE DUP1 ISZERO PUSH1 0x34 JUMPI PUSH0 DUP1 REVERT JUMPDEST POP PUSH2 0x78A DUP1 PUSH2 0x42 PUSH0 CODECOPY PUSH0 RETURN INVALID PUSH1 0x80 PUSH1 0x40 MSTORE CALLVALUE DUP1 ISZERO PUSH2 0xF JUMPI PUSH0 DUP1 REVERT JUMPDEST POP PUSH1 0x4 CALLDATASIZE LT PUSH2 0x55 JUMPI PUSH0 CALLDATALOAD PUSH1 0xE0 SHR DUP1 PUSH4 0x4A382514 EQ PUSH2 0x59 JUMPI DUP1 PUSH4 0x8F9868DF EQ PUSH2 0x77 JUMPI DUP1 PUSH4 0x901540FC EQ PUSH2 0x95 JUMPI DUP1 PUSH4 0xD74FA6AB EQ PUSH2 0xB5 JUMPI DUP1 PUSH4 0xFECF615D EQ PUSH2 0xD3 JUMPI JUMPDEST PUSH0 DUP1 REVERT JUMPDEST PUSH2 0x61 PUSH2 0xF1 JUMP JUMPDEST PUSH1 0x40 MLOAD PUSH2 0x6E SWAP2 SWAP1 PUSH2 0x553 JUMP JUMPDEST PUSH1 0x40 MLOAD DUP1 SWAP2 SUB SWAP1 RETURN JUMPDEST PUSH2 0x7F PUSH2 0xF7 JUMP JUMPDEST PUSH1 0x40 MLOAD PUSH2 0x8C SWAP2 SWAP1 PUSH2 0x5DC JUMP JUMPDEST PUSH1 0x40 MLOAD DUP1 SWAP2 SUB SWAP1 RETURN JUMPDEST PUSH2 0x9D PUSH2 0x395 JUMP JUMPDEST PUSH1 0x40 MLOAD PUSH2 0xAC SWAP4 SWAP3 SWAP2 SWAP1 PUSH2 0x677 JUMP JUMPDEST PUSH1 0x40 MLOAD DUP1 SWAP2 SUB SWAP1 RETURN JUMPDEST PUSH2 0xBD PUSH2 0x502 JUMP JUMPDEST PUSH1 0x40 MLOAD PUSH2 0xCA SWAP2 SWAP1 PUSH2 0x553 JUMP JUMPDEST PUSH1 0x40 MLOAD DUP1 SWAP2 SUB SWAP1 RETURN JUMPDEST PUSH2 0xDB PUSH2 0x507 JUMP JUMPDEST PUSH1 0x40 MLOAD PUSH2 0xE8 SWAP2 SWAP1 PUSH2 0x553 JUMP JUMPDEST PUSH1 0x40 MLOAD DUP1 SWAP2 SUB SWAP1 RETURN JUMPDEST PUSH1 0x1 SLOAD DUP2 JUMP JUMPDEST PUSH1 0x60 PUSH0 PUSH2 0x3E8 TIMESTAMP PREVRANDAO PUSH1 0x40 MLOAD PUSH1 0x20 ADD PUSH2 0x110 SWAP3 SWAP2 SWAP1 PUSH2 0x6CC JUMP JUMPDEST PUSH1 0x40 MLOAD PUSH1 0x20 DUP2 DUP4 SUB SUB DUP2 MSTORE SWAP1 PUSH1 0x40 MSTORE DUP1 MLOAD SWAP1 PUSH1 0x20 ADD KECCAK256 PUSH0 SHR PUSH2 0x132 SWAP2 SWAP1 PUSH2 0x724 JUMP JUMPDEST SWAP1 POP PUSH0 PUSH1 0x3 DUP3 PUSH2 0x142 SWAP2 SWAP1 PUSH2 0x724 JUMP JUMPDEST EQ DUP1 ISZERO PUSH2 0x15A JUMPI POP PUSH0 PUSH1 0x5 DUP3 PUSH2 0x158 SWAP2 SWAP1 PUSH2 0x724 JUMP JUMPDEST EQ JUMPDEST ISZERO PUSH2 0x1EA JUMPI CALLER PUSH1 0x3 PUSH0 ADD PUSH0 PUSH2 0x100 EXP DUP2 SLOAD DUP2 PUSH20 0xFFFFFFFFFFFFFFFFFFFFFFFFFFFFFFFFFFFFFFFF MUL NOT AND SWAP1 DUP4 PUSH20 0xFFFFFFFFFFFFFFFFFFFFFFFFFFFFFFFFFFFFFFFF AND MUL OR SWAP1 SSTORE POP PUSH0 SLOAD PUSH1 0x3 PUSH1 0x1 ADD DUP2 SWAP1 SSTORE POP PUSH1 0x40 MLOAD DUP1 PUSH1 0x40 ADD PUSH1 0x40 MSTORE DUP1 PUSH1 0x13 DUP2 MSTORE PUSH1 0x20 ADD PUSH32 0x4669727374205072697A652057696E6E65722100000000000000000000000000 DUP2 MSTORE POP SWAP2 POP POP PUSH2 0x392 JUMP JUMPDEST PUSH0 PUSH1 0x7 DUP3 PUSH2 0x1F8 SWAP2 SWAP1 PUSH2 0x724 JUMP JUMPDEST EQ DUP1 PUSH2 0x20F JUMPI POP PUSH0 PUSH1 0xB DUP3 PUSH2 0x20D SWAP2 SWAP1 PUSH2 0x724 JUMP JUMPDEST EQ JUMPDEST ISZERO PUSH2 0x2A0 JUMPI CALLER PUSH1 0x5 PUSH0 ADD PUSH0 PUSH2 0x100 EXP DUP2 SLOAD DUP2 PUSH20 0xFFFFFFFFFFFFFFFFFFFFFFFFFFFFFFFFFFFFFFFF MUL NOT AND SWAP1 DUP4 PUSH20 0xFFFFFFFFFFFFFFFFFFFFFFFFFFFFFFFFFFFFFFFF AND MUL OR SWAP1 SSTORE POP PUSH1 0x1 SLOAD PUSH1 0x5 PUSH1 0x1 ADD DUP2 SWAP1 SSTORE POP PUSH1 0x40 MLOAD DUP1 PUSH1 0x40 ADD PUSH1 0x40 MSTORE DUP1 PUSH1 0x14 DUP2 MSTORE PUSH1 0x20 ADD PUSH32 0x5365636F6E64205072697A652057696E6E657221000000000000000000000000 DUP2 MSTORE POP SWAP2 POP POP PUSH2 0x392 JUMP JUMPDEST PUSH0 PUSH1 0x5 DUP3 PUSH2 0x2AE SWAP2 SWAP1 PUSH2 0x724 JUMP JUMPDEST EQ DUP1 ISZERO PUSH2 0x2C7 JUMPI POP PUSH0 PUSH1 0xA DUP3 PUSH2 0x2C4 SWAP2 SWAP1 PUSH2 0x724 JUMP JUMPDEST EQ ISZERO JUMPDEST ISZERO PUSH2 0x358 JUMPI CALLER PUSH1 0x7 PUSH0 ADD PUSH0 PUSH2 0x100 EXP DUP2 SLOAD DUP2 PUSH20 0xFFFFFFFFFFFFFFFFFFFFFFFFFFFFFFFFFFFFFFFF MUL NOT AND SWAP1 DUP4 PUSH20 0xFFFFFFFFFFFFFFFFFFFFFFFFFFFFFFFFFFFFFFFF AND MUL OR SWAP1 SSTORE POP PUSH1 0x2 SLOAD PUSH1 0x7 PUSH1 0x1 ADD DUP2 SWAP1 SSTORE POP PUSH1 0x40 MLOAD DUP1 PUSH1 0x40 ADD PUSH1 0x40 MSTORE DUP1 PUSH1 0x13 DUP2 MSTORE PUSH1 0x20 ADD PUSH32 0x5468697264205072697A652057696E6E65722100000000000000000000000000 DUP2 MSTORE POP SWAP2 POP POP PUSH2 0x392 JUMP JUMPDEST PUSH1 0x40 MLOAD DUP1 PUSH1 0x40 ADD PUSH1 0x40 MSTORE DUP1 PUSH1 0x9 DUP2 MSTORE PUSH1 0x20 ADD PUSH32 0x4E6F205072697A65210000000000000000000000000000000000000000000000 DUP2 MSTORE POP SWAP2 POP POP JUMPDEST SWAP1 JUMP JUMPDEST PUSH2 0x39D PUSH2 0x50D JUMP JUMPDEST PUSH2 0x3A5 PUSH2 0x50D JUMP JUMPDEST PUSH2 0x3AD PUSH2 0x50D JUMP JUMPDEST PUSH1 0x3 PUSH1 0x5 PUSH1 0x7 DUP3 PUSH1 0x40 MLOAD DUP1 PUSH1 0x40 ADD PUSH1 0x40 MSTORE SWAP1 DUP2 PUSH0 DUP3 ADD PUSH0 SWAP1 SLOAD SWAP1 PUSH2 0x100 EXP SWAP1 DIV PUSH20 0xFFFFFFFFFFFFFFFFFFFFFFFFFFFFFFFFFFFFFFFF AND PUSH20 0xFFFFFFFFFFFFFFFFFFFFFFFFFFFFFFFFFFFFFFFF AND PUSH20 0xFFFFFFFFFFFFFFFFFFFFFFFFFFFFFFFFFFFFFFFF AND DUP2 MSTORE PUSH1 0x20 ADD PUSH1 0x1 DUP3 ADD SLOAD DUP2 MSTORE POP POP SWAP3 POP DUP2 PUSH1 0x40 MLOAD DUP1 PUSH1 0x40 ADD PUSH1 0x40 MSTORE SWAP1 DUP2 PUSH0 DUP3 ADD PUSH0 SWAP1 SLOAD SWAP1 PUSH2 0x100 EXP SWAP1 DIV PUSH20 0xFFFFFFFFFFFFFFFFFFFFFFFFFFFFFFFFFFFFFFFF AND PUSH20 0xFFFFFFFFFFFFFFFFFFFFFFFFFFFFFFFFFFFFFFFF AND PUSH20 0xFFFFFFFFFFFFFFFFFFFFFFFFFFFFFFFFFFFFFFFF AND DUP2 MSTORE PUSH1 0x20 ADD PUSH1 0x1 DUP3 ADD SLOAD DUP2 MSTORE POP POP SWAP2 POP DUP1 PUSH1 0x40 MLOAD DUP1 PUSH1 0x40 ADD PUSH1 0x40 MSTORE SWAP1 DUP2 PUSH0 DUP3 ADD PUSH0 SWAP1 SLOAD SWAP1 PUSH2 0x100 EXP SWAP1 DIV PUSH20 0xFFFFFFFFFFFFFFFFFFFFFFFFFFFFFFFFFFFFFFFF AND PUSH20 0xFFFFFFFFFFFFFFFFFFFFFFFFFFFFFFFFFFFFFFFF AND PUSH20 0xFFFFFFFFFFFFFFFFFFFFFFFFFFFFFFFFFFFFFFFF AND DUP2 MSTORE PUSH1 0x20 ADD PUSH1 0x1 DUP3 ADD SLOAD DUP2 MSTORE POP POP SWAP1 POP SWAP3 POP SWAP3 POP SWAP3 POP SWAP1 SWAP2 SWAP3 JUMP JUMPDEST PUSH0 SLOAD DUP2 JUMP JUMPDEST PUSH1 0x2 SLOAD DUP2 JUMP JUMPDEST PUSH1 0x40 MLOAD DUP1 PUSH1 0x40 ADD PUSH1 0x40 MSTORE DUP1 PUSH0 PUSH20 0xFFFFFFFFFFFFFFFFFFFFFFFFFFFFFFFFFFFFFFFF AND DUP2 MSTORE PUSH1 0x20 ADD PUSH0 DUP2 MSTORE POP SWAP1 JUMP JUMPDEST PUSH0 DUP2 SWAP1 POP SWAP2 SWAP1 POP JUMP JUMPDEST PUSH2 0x54D DUP2 PUSH2 0x53B JUMP JUMPDEST DUP3 MSTORE POP POP JUMP JUMPDEST PUSH0 PUSH1 0x20 DUP3 ADD SWAP1 POP PUSH2 0x566 PUSH0 DUP4 ADD DUP5 PUSH2 0x544 JUMP JUMPDEST SWAP3 SWAP2 POP POP JUMP JUMPDEST PUSH0 DUP2 MLOAD SWAP1 POP SWAP2 SWAP1 POP JUMP JUMPDEST PUSH0 DUP3 DUP3 MSTORE PUSH1 0x20 DUP3 ADD SWAP1 POP SWAP3 SWAP2 POP POP JUMP JUMPDEST DUP3 DUP2 DUP4 MCOPY PUSH0 DUP4 DUP4 ADD MSTORE POP POP POP JUMP JUMPDEST PUSH0 PUSH1 0x1F NOT PUSH1 0x1F DUP4 ADD AND SWAP1 POP SWAP2 SWAP1 POP JUMP JUMPDEST PUSH0 PUSH2 0x5AE DUP3 PUSH2 0x56C JUMP JUMPDEST PUSH2 0x5B8 DUP2 DUP6 PUSH2 0x576 JUMP JUMPDEST SWAP4 POP PUSH2 0x5C8 DUP2 DUP6 PUSH1 0x20 DUP7 ADD PUSH2 0x586 JUMP JUMPDEST PUSH2 0x5D1 DUP2 PUSH2 0x594 JUMP JUMPDEST DUP5 ADD SWAP2 POP POP SWAP3 SWAP2 POP POP JUMP JUMPDEST PUSH0 PUSH1 0x20 DUP3 ADD SWAP1 POP DUP2 DUP2 SUB PUSH0 DUP4 ADD MSTORE PUSH2 0x5F4 DUP2 DUP5 PUSH2 0x5A4 JUMP JUMPDEST SWAP1 POP SWAP3 SWAP2 POP POP JUMP JUMPDEST PUSH0 PUSH20 0xFFFFFFFFFFFFFFFFFFFFFFFFFFFFFFFFFFFFFFFF DUP3 AND SWAP1 POP SWAP2 SWAP1 POP JUMP JUMPDEST PUSH0 PUSH2 0x625 DUP3 PUSH2 0x5FC JUMP JUMPDEST SWAP1 POP SWAP2 SWAP1 POP JUMP JUMPDEST PUSH2 0x635 DUP2 PUSH2 0x61B JUMP JUMPDEST DUP3 MSTORE POP POP JUMP JUMPDEST PUSH2 0x644 DUP2 PUSH2 0x53B JUMP JUMPDEST DUP3 MSTORE POP POP JUMP JUMPDEST PUSH1 0x40 DUP3 ADD PUSH0 DUP3 ADD MLOAD PUSH2 0x65E PUSH0 DUP6 ADD DUP3 PUSH2 0x62C JUMP JUMPDEST POP PUSH1 0x20 DUP3 ADD MLOAD PUSH2 0x671 PUSH1 0x20 DUP6 ADD DUP3 PUSH2 0x63B JUMP JUMPDEST POP POP POP POP JUMP JUMPDEST PUSH0 PUSH1 0xC0 DUP3 ADD SWAP1 POP PUSH2 0x68A PUSH0 DUP4 ADD DUP7 PUSH2 0x64A JUMP JUMPDEST PUSH2 0x697 PUSH1 0x40 DUP4 ADD DUP6 PUSH2 0x64A JUMP JUMPDEST PUSH2 0x6A4 PUSH1 0x80 DUP4 ADD DUP5 PUSH2 0x64A JUMP JUMPDEST SWAP5 SWAP4 POP POP POP POP JUMP JUMPDEST PUSH0 DUP2 SWAP1 POP SWAP2 SWAP1 POP JUMP JUMPDEST PUSH2 0x6C6 PUSH2 0x6C1 DUP3 PUSH2 0x53B JUMP JUMPDEST PUSH2 0x6AC JUMP JUMPDEST DUP3 MSTORE POP POP JUMP JUMPDEST PUSH0 PUSH2 0x6D7 DUP3 DUP6 PUSH2 0x6B5 JUMP JUMPDEST PUSH1 0x20 DUP3 ADD SWAP2 POP PUSH2 0x6E7 DUP3 DUP5 PUSH2 0x6B5 JUMP JUMPDEST PUSH1 0x20 DUP3 ADD SWAP2 POP DUP2 SWAP1 POP SWAP4 SWAP3 POP POP POP JUMP JUMPDEST PUSH32 0x4E487B7100000000000000000000000000000000000000000000000000000000 PUSH0 MSTORE PUSH1 0x12 PUSH1 0x4 MSTORE PUSH1 0x24 PUSH0 REVERT JUMPDEST PUSH0 PUSH2 0x72E DUP3 PUSH2 0x53B JUMP JUMPDEST SWAP2 POP PUSH2 0x739 DUP4 PUSH2 0x53B JUMP JUMPDEST SWAP3 POP DUP3 PUSH2 0x749 JUMPI PUSH2 0x748 PUSH2 0x6F7 JUMP JUMPDEST JUMPDEST DUP3 DUP3 MOD SWAP1 POP SWAP3 SWAP2 POP POP JUMP INVALID LOG2 PUSH5 0x6970667358 0x22 SLT KECCAK256 0xE0 PUSH5 0x6A70E4FE7E PUSH7 0x2CF7AA746E638E 0xD6 0xFC INVALID EXTCODEHASH 0xC PC 0xBA 0xAC MOD 0x2D 0x4B 0x21 0x29 MOD SIGNEXTEND 0xF9 0xE2 PUSH5 0x736F6C6343 STOP ADDMOD BYTE STOP CALLER "
				},
				"gasEstimates": {
					"creation": {
						"codeDepositCost": "386000",
						"executionCost": "66739",
						"totalCost": "452739"
					},
					"external": {
						"generateLotteryNumber()": "infinite",
						"prize1Amount()": "2468",
						"prize2Amount()": "2403",
						"prize3Amount()": "2491",
						"viewPrizes()": "infinite"
					}
				},
				"methodIdentifiers": {
					"generateLotteryNumber()": "8f9868df",
					"prize1Amount()": "d74fa6ab",
					"prize2Amount()": "4a382514",
					"prize3Amount()": "fecf615d",
					"viewPrizes()": "901540fc"
				}
			},
			"storageLayout": {
				"storage": [
					{
						"astId": 9,
						"contract": "Day04/d4p3.sol:Lottery",
						"label": "prize1Amount",
						"offset": 0,
						"slot": "0",
						"type": "t_uint256"
					},
					{
						"astId": 12,
						"contract": "Day04/d4p3.sol:Lottery",
						"label": "prize2Amount",
						"offset": 0,
						"slot": "1",
						"type": "t_uint256"
					},
					{
						"astId": 15,
						"contract": "Day04/d4p3.sol:Lottery",
						"label": "prize3Amount",
						"offset": 0,
						"slot": "2",
						"type": "t_uint256"
					},
					{
						"astId": 18,
						"contract": "Day04/d4p3.sol:Lottery",
						"label": "firstPrize",
						"offset": 0,
						"slot": "3",
						"type": "t_struct(Prize)6_storage"
					},
					{
						"astId": 21,
						"contract": "Day04/d4p3.sol:Lottery",
						"label": "secondPrize",
						"offset": 0,
						"slot": "5",
						"type": "t_struct(Prize)6_storage"
					},
					{
						"astId": 24,
						"contract": "Day04/d4p3.sol:Lottery",
						"label": "thirdPrize",
						"offset": 0,
						"slot": "7",
						"type": "t_struct(Prize)6_storage"
					}
				],
				"types": {
					"t_address": {
						"encoding": "inplace",
						"label": "address",
						"numberOfBytes": "20"
					},
					"t_struct(Prize)6_storage": {
						"encoding": "inplace",
						"label": "struct Lottery.Prize",
						"members": [
							{
								"astId": 3,
								"contract": "Day04/d4p3.sol:Lottery",
								"label": "winner",
								"offset": 0,
								"slot": "0",
								"type": "t_address"
							},
							{
								"astId": 5,
								"contract": "Day04/d4p3.sol:Lottery",
								"label": "prizeAmount",
								"offset": 0,
								"slot": "1",
								"type": "t_uint256"
							}
						],
						"numberOfBytes": "64"
					},
					"t_uint256": {
						"encoding": "inplace",
						"label": "uint256",
						"numberOfBytes": "32"
					}
				}
			},
			"userdoc": {
				"kind": "user",
				"methods": {},
				"version": 1
			}
		}
	}
}