{
	"Day04/d4p1.sol": {
		"d4p1": {
			"abi": [
				{
					"inputs": [
						{
							"internalType": "uint256",
							"name": "_size",
							"type": "uint256"
						}
					],
					"stateMutability": "nonpayable",
					"type": "constructor"
				},
				{
					"inputs": [
						{
							"internalType": "string",
							"name": "ticketName",
							"type": "string"
						}
					],
					"name": "fillTickets",
					"outputs": [],
					"stateMutability": "nonpayable",
					"type": "function"
				},
				{
					"inputs": [],
					"name": "getTickets",
					"outputs": [
						{
							"components": [
								{
									"internalType": "uint256",
									"name": "index",
									"type": "uint256"
								},
								{
									"internalType": "string",
									"name": "name",
									"type": "string"
								}
							],
							"internalType": "struct d4p1.ticket[]",
							"name": "",
							"type": "tuple[]"
						}
					],
					"stateMutability": "view",
					"type": "function"
				},
				{
					"inputs": [],
					"name": "size",
					"outputs": [
						{
							"internalType": "uint256",
							"name": "",
							"type": "uint256"
						}
					],
					"stateMutability": "view",
					"type": "function"
				},
				{
					"inputs": [
						{
							"internalType": "uint256",
							"name": "",
							"type": "uint256"
						}
					],
					"name": "tickets",
					"outputs": [
						{
							"internalType": "uint256",
							"name": "index",
							"type": "uint256"
						},
						{
							"internalType": "string",
							"name": "name",
							"type": "string"
						}
					],
					"stateMutability": "view",
					"type": "function"
				}
			],
			"devdoc": {
				"kind": "dev",
				"methods": {},
				"version": 1
			},
			"evm": {
				"assembly": "    /* \"Day04/d4p1.sol\":68:594  contract d4p1{... */\n  mstore(0x40, 0x80)\n    /* \"Day04/d4p1.sol\":237:238  0 */\n  0x00\n    /* \"Day04/d4p1.sol\":218:238  uint ticketCount = 0 */\n  0x02\n  sstore\n    /* \"Day04/d4p1.sol\":247:302  constructor(uint _size) {... */\n  callvalue\n  dup1\n  iszero\n  tag_1\n  jumpi\n  0x00\n  dup1\n  revert\ntag_1:\n  pop\n  mload(0x40)\n  sub(codesize, bytecodeSize)\n  dup1\n  bytecodeSize\n  dup4\n  codecopy\n  dup2\n  dup2\n  add\n  0x40\n  mstore\n  dup2\n  add\n  swap1\n  tag_2\n  swap2\n  swap1\n  tag_3\n  jump\t// in\ntag_2:\n    /* \"Day04/d4p1.sol\":289:294  _size */\n  dup1\n    /* \"Day04/d4p1.sol\":282:286  size */\n  0x00\n    /* \"Day04/d4p1.sol\":282:294  size = _size */\n  dup2\n  swap1\n  sstore\n  pop\n    /* \"Day04/d4p1.sol\":247:302  constructor(uint _size) {... */\n  pop\n    /* \"Day04/d4p1.sol\":68:594  contract d4p1{... */\n  jump(tag_6)\n    /* \"#utility.yul\":88:205   */\ntag_8:\n    /* \"#utility.yul\":197:198   */\n  0x00\n    /* \"#utility.yul\":194:195   */\n  dup1\n    /* \"#utility.yul\":187:199   */\n  revert\n    /* \"#utility.yul\":334:411   */\ntag_10:\n    /* \"#utility.yul\":371:378   */\n  0x00\n    /* \"#utility.yul\":400:405   */\n  dup2\n    /* \"#utility.yul\":389:405   */\n  swap1\n  pop\n    /* \"#utility.yul\":334:411   */\n  swap2\n  swap1\n  pop\n  jump\t// out\n    /* \"#utility.yul\":417:539   */\ntag_11:\n    /* \"#utility.yul\":490:514   */\n  tag_19\n    /* \"#utility.yul\":508:513   */\n  dup2\n    /* \"#utility.yul\":490:514   */\n  tag_10\n  jump\t// in\ntag_19:\n    /* \"#utility.yul\":483:488   */\n  dup2\n    /* \"#utility.yul\":480:515   */\n  eq\n    /* \"#utility.yul\":470:533   */\n  tag_20\n  jumpi\n    /* \"#utility.yul\":529:530   */\n  0x00\n    /* \"#utility.yul\":526:527   */\n  dup1\n    /* \"#utility.yul\":519:531   */\n  revert\n    /* \"#utility.yul\":470:533   */\ntag_20:\n    /* \"#utility.yul\":417:539   */\n  pop\n  jump\t// out\n    /* \"#utility.yul\":545:688   */\ntag_12:\n    /* \"#utility.yul\":602:607   */\n  0x00\n    /* \"#utility.yul\":633:639   */\n  dup2\n    /* \"#utility.yul\":627:640   */\n  mload\n    /* \"#utility.yul\":618:640   */\n  swap1\n  pop\n    /* \"#utility.yul\":649:682   */\n  tag_22\n    /* \"#utility.yul\":676:681   */\n  dup2\n    /* \"#utility.yul\":649:682   */\n  tag_11\n  jump\t// in\ntag_22:\n    /* \"#utility.yul\":545:688   */\n  swap3\n  swap2\n  pop\n  pop\n  jump\t// out\n    /* \"#utility.yul\":694:1045   */\ntag_3:\n    /* \"#utility.yul\":764:770   */\n  0x00\n    /* \"#utility.yul\":813:815   */\n  0x20\n    /* \"#utility.yul\":801:810   */\n  dup3\n    /* \"#utility.yul\":792:799   */\n  dup5\n    /* \"#utility.yul\":788:811   */\n  sub\n    /* \"#utility.yul\":784:816   */\n  slt\n    /* \"#utility.yul\":781:900   */\n  iszero\n  tag_24\n  jumpi\n    /* \"#utility.yul\":819:898   */\n  tag_25\n  tag_8\n  jump\t// in\ntag_25:\n    /* \"#utility.yul\":781:900   */\ntag_24:\n    /* \"#utility.yul\":939:940   */\n  0x00\n    /* \"#utility.yul\":964:1028   */\n  tag_26\n    /* \"#utility.yul\":1020:1027   */\n  dup5\n    /* \"#utility.yul\":1011:1017   */\n  dup3\n    /* \"#utility.yul\":1000:1009   */\n  dup6\n    /* \"#utility.yul\":996:1018   */\n  add\n    /* \"#utility.yul\":964:1028   */\n  tag_12\n  jump\t// in\ntag_26:\n    /* \"#utility.yul\":954:1028   */\n  swap2\n  pop\n    /* \"#utility.yul\":910:1038   */\n  pop\n    /* \"#utility.yul\":694:1045   */\n  swap3\n  swap2\n  pop\n  pop\n  jump\t// out\n    /* \"Day04/d4p1.sol\":68:594  contract d4p1{... */\ntag_6:\n  dataSize(sub_0)\n  dup1\n  dataOffset(sub_0)\n  0x00\n  codecopy\n  0x00\n  return\nstop\n\nsub_0: assembly {\n        /* \"Day04/d4p1.sol\":68:594  contract d4p1{... */\n      mstore(0x40, 0x80)\n      callvalue\n      dup1\n      iszero\n      tag_1\n      jumpi\n      0x00\n      dup1\n      revert\n    tag_1:\n      pop\n      jumpi(tag_2, lt(calldatasize, 0x04))\n      shr(0xe0, calldataload(0x00))\n      dup1\n      0x37b1681e\n      eq\n      tag_3\n      jumpi\n      dup1\n      0x4ed02622\n      eq\n      tag_4\n      jumpi\n      dup1\n      0x50b44712\n      eq\n      tag_5\n      jumpi\n      dup1\n      0x949d225d\n      eq\n      tag_6\n      jumpi\n    tag_2:\n      0x00\n      dup1\n      revert\n        /* \"Day04/d4p1.sol\":310:490  function fillTickets(string memory ticketName) public {... */\n    tag_3:\n      tag_7\n      0x04\n      dup1\n      calldatasize\n      sub\n      dup2\n      add\n      swap1\n      tag_8\n      swap2\n      swap1\n      tag_9\n      jump\t// in\n    tag_8:\n      tag_10\n      jump\t// in\n    tag_7:\n      stop\n        /* \"Day04/d4p1.sol\":498:591  function getTickets() public view returns (ticket[] memory) {... */\n    tag_4:\n      tag_11\n      tag_12\n      jump\t// in\n    tag_11:\n      mload(0x40)\n      tag_13\n      swap2\n      swap1\n      tag_14\n      jump\t// in\n    tag_13:\n      mload(0x40)\n      dup1\n      swap2\n      sub\n      swap1\n      return\n        /* \"Day04/d4p1.sol\":188:211  ticket[] public tickets */\n    tag_5:\n      tag_15\n      0x04\n      dup1\n      calldatasize\n      sub\n      dup2\n      add\n      swap1\n      tag_16\n      swap2\n      swap1\n      tag_17\n      jump\t// in\n    tag_16:\n      tag_18\n      jump\t// in\n    tag_15:\n      mload(0x40)\n      tag_19\n      swap3\n      swap2\n      swap1\n      tag_20\n      jump\t// in\n    tag_19:\n      mload(0x40)\n      dup1\n      swap2\n      sub\n      swap1\n      return\n        /* \"Day04/d4p1.sol\":165:181  uint public size */\n    tag_6:\n      tag_21\n      tag_22\n      jump\t// in\n    tag_21:\n      mload(0x40)\n      tag_23\n      swap2\n      swap1\n      tag_24\n      jump\t// in\n    tag_23:\n      mload(0x40)\n      dup1\n      swap2\n      sub\n      swap1\n      return\n        /* \"Day04/d4p1.sol\":310:490  function fillTickets(string memory ticketName) public {... */\n    tag_10:\n        /* \"Day04/d4p1.sol\":397:401  size */\n      sload(0x00)\n        /* \"Day04/d4p1.sol\":383:394  ticketCount */\n      sload(0x02)\n        /* \"Day04/d4p1.sol\":383:401  ticketCount < size */\n      lt\n        /* \"Day04/d4p1.sol\":375:402  require(ticketCount < size) */\n      tag_26\n      jumpi\n      0x00\n      dup1\n      revert\n    tag_26:\n        /* \"Day04/d4p1.sol\":413:424  ticketCount */\n      0x02\n      0x00\n        /* \"Day04/d4p1.sol\":413:426  ticketCount++ */\n      dup2\n      sload\n      dup1\n      swap3\n      swap2\n      swap1\n      tag_27\n      swap1\n      tag_28\n      jump\t// in\n    tag_27:\n      swap2\n      swap1\n      pop\n      sstore\n      pop\n        /* \"Day04/d4p1.sol\":437:444  tickets */\n      0x01\n        /* \"Day04/d4p1.sol\":450:481  ticket(ticketCount, ticketName) */\n      mload(0x40)\n      dup1\n      0x40\n      add\n      0x40\n      mstore\n      dup1\n        /* \"Day04/d4p1.sol\":457:468  ticketCount */\n      sload(0x02)\n        /* \"Day04/d4p1.sol\":450:481  ticket(ticketCount, ticketName) */\n      dup2\n      mstore\n      0x20\n      add\n        /* \"Day04/d4p1.sol\":470:480  ticketName */\n      dup4\n        /* \"Day04/d4p1.sol\":450:481  ticket(ticketCount, ticketName) */\n      dup2\n      mstore\n      pop\n        /* \"Day04/d4p1.sol\":437:482  tickets.push(ticket(ticketCount, ticketName)) */\n      swap1\n      dup1\n      0x01\n      dup2\n      sload\n      add\n      dup1\n      dup3\n      sstore\n      dup1\n      swap2\n      pop\n      pop\n      0x01\n      swap1\n      sub\n      swap1\n      0x00\n      mstore\n      keccak256(0x00, 0x20)\n      swap1\n      0x02\n      mul\n      add\n      0x00\n      swap1\n      swap2\n      swap1\n      swap2\n      swap1\n      swap2\n      pop\n      0x00\n      dup3\n      add\n      mload\n      dup2\n      0x00\n      add\n      sstore\n      0x20\n      dup3\n      add\n      mload\n      dup2\n      0x01\n      add\n      swap1\n      dup2\n      tag_30\n      swap2\n      swap1\n      tag_31\n      jump\t// in\n    tag_30:\n      pop\n      pop\n      pop\n        /* \"Day04/d4p1.sol\":310:490  function fillTickets(string memory ticketName) public {... */\n      pop\n      jump\t// out\n        /* \"Day04/d4p1.sol\":498:591  function getTickets() public view returns (ticket[] memory) {... */\n    tag_12:\n        /* \"Day04/d4p1.sol\":541:556  ticket[] memory */\n      0x60\n        /* \"Day04/d4p1.sol\":576:583  tickets */\n      0x01\n        /* \"Day04/d4p1.sol\":569:583  return tickets */\n      dup1\n      sload\n      dup1\n      0x20\n      mul\n      0x20\n      add\n      mload(0x40)\n      swap1\n      dup2\n      add\n      0x40\n      mstore\n      dup1\n      swap3\n      swap2\n      swap1\n      dup2\n      dup2\n      mstore\n      0x20\n      add\n      0x00\n      swap1\n    tag_33:\n      dup3\n      dup3\n      lt\n      iszero\n      tag_34\n      jumpi\n      dup4\n      dup3\n      swap1\n      0x00\n      mstore\n      keccak256(0x00, 0x20)\n      swap1\n      0x02\n      mul\n      add\n      mload(0x40)\n      dup1\n      0x40\n      add\n      0x40\n      mstore\n      swap1\n      dup2\n      0x00\n      dup3\n      add\n      sload\n      dup2\n      mstore\n      0x20\n      add\n      0x01\n      dup3\n      add\n      dup1\n      sload\n      tag_36\n      swap1\n      tag_37\n      jump\t// in\n    tag_36:\n      dup1\n      0x1f\n      add\n      0x20\n      dup1\n      swap2\n      div\n      mul\n      0x20\n      add\n      mload(0x40)\n      swap1\n      dup2\n      add\n      0x40\n      mstore\n      dup1\n      swap3\n      swap2\n      swap1\n      dup2\n      dup2\n      mstore\n      0x20\n      add\n      dup3\n      dup1\n      sload\n      tag_38\n      swap1\n      tag_37\n      jump\t// in\n    tag_38:\n      dup1\n      iszero\n      tag_39\n      jumpi\n      dup1\n      0x1f\n      lt\n      tag_40\n      jumpi\n      0x0100\n      dup1\n      dup4\n      sload\n      div\n      mul\n      dup4\n      mstore\n      swap2\n      0x20\n      add\n      swap2\n      jump(tag_39)\n    tag_40:\n      dup3\n      add\n      swap2\n      swap1\n      0x00\n      mstore\n      keccak256(0x00, 0x20)\n      swap1\n    tag_41:\n      dup2\n      sload\n      dup2\n      mstore\n      swap1\n      0x01\n      add\n      swap1\n      0x20\n      add\n      dup1\n      dup4\n      gt\n      tag_41\n      jumpi\n      dup3\n      swap1\n      sub\n      0x1f\n      and\n      dup3\n      add\n      swap2\n    tag_39:\n      pop\n      pop\n      pop\n      pop\n      pop\n      dup2\n      mstore\n      pop\n      pop\n      dup2\n      mstore\n      0x20\n      add\n      swap1\n      0x01\n      add\n      swap1\n      jump(tag_33)\n    tag_34:\n      pop\n      pop\n      pop\n      pop\n      swap1\n      pop\n        /* \"Day04/d4p1.sol\":498:591  function getTickets() public view returns (ticket[] memory) {... */\n      swap1\n      jump\t// out\n        /* \"Day04/d4p1.sol\":188:211  ticket[] public tickets */\n    tag_18:\n      0x01\n      dup2\n      dup2\n      sload\n      dup2\n      lt\n      tag_42\n      jumpi\n      0x00\n      dup1\n      revert\n    tag_42:\n      swap1\n      0x00\n      mstore\n      keccak256(0x00, 0x20)\n      swap1\n      0x02\n      mul\n      add\n      0x00\n      swap2\n      pop\n      swap1\n      pop\n      dup1\n      0x00\n      add\n      sload\n      swap1\n      dup1\n      0x01\n      add\n      dup1\n      sload\n      tag_44\n      swap1\n      tag_37\n      jump\t// in\n    tag_44:\n      dup1\n      0x1f\n      add\n      0x20\n      dup1\n      swap2\n      div\n      mul\n      0x20\n      add\n      mload(0x40)\n      swap1\n      dup2\n      add\n      0x40\n      mstore\n      dup1\n      swap3\n      swap2\n      swap1\n      dup2\n      dup2\n      mstore\n      0x20\n      add\n      dup3\n      dup1\n      sload\n      tag_45\n      swap1\n      tag_37\n      jump\t// in\n    tag_45:\n      dup1\n      iszero\n      tag_46\n      jumpi\n      dup1\n      0x1f\n      lt\n      tag_47\n      jumpi\n      0x0100\n      dup1\n      dup4\n      sload\n      div\n      mul\n      dup4\n      mstore\n      swap2\n      0x20\n      add\n      swap2\n      jump(tag_46)\n    tag_47:\n      dup3\n      add\n      swap2\n      swap1\n      0x00\n      mstore\n      keccak256(0x00, 0x20)\n      swap1\n    tag_48:\n      dup2\n      sload\n      dup2\n      mstore\n      swap1\n      0x01\n      add\n      swap1\n      0x20\n      add\n      dup1\n      dup4\n      gt\n      tag_48\n      jumpi\n      dup3\n      swap1\n      sub\n      0x1f\n      and\n      dup3\n      add\n      swap2\n    tag_46:\n      pop\n      pop\n      pop\n      pop\n      pop\n      swap1\n      pop\n      dup3\n      jump\t// out\n        /* \"Day04/d4p1.sol\":165:181  uint public size */\n    tag_22:\n      sload(0x00)\n      dup2\n      jump\t// out\n        /* \"#utility.yul\":7:82   */\n    tag_49:\n        /* \"#utility.yul\":40:46   */\n      0x00\n        /* \"#utility.yul\":73:75   */\n      0x40\n        /* \"#utility.yul\":67:76   */\n      mload\n        /* \"#utility.yul\":57:76   */\n      swap1\n      pop\n        /* \"#utility.yul\":7:82   */\n      swap1\n      jump\t// out\n        /* \"#utility.yul\":88:205   */\n    tag_50:\n        /* \"#utility.yul\":197:198   */\n      0x00\n        /* \"#utility.yul\":194:195   */\n      dup1\n        /* \"#utility.yul\":187:199   */\n      revert\n        /* \"#utility.yul\":211:328   */\n    tag_51:\n        /* \"#utility.yul\":320:321   */\n      0x00\n        /* \"#utility.yul\":317:318   */\n      dup1\n        /* \"#utility.yul\":310:322   */\n      revert\n        /* \"#utility.yul\":334:451   */\n    tag_52:\n        /* \"#utility.yul\":443:444   */\n      0x00\n        /* \"#utility.yul\":440:441   */\n      dup1\n        /* \"#utility.yul\":433:445   */\n      revert\n        /* \"#utility.yul\":457:574   */\n    tag_53:\n        /* \"#utility.yul\":566:567   */\n      0x00\n        /* \"#utility.yul\":563:564   */\n      dup1\n        /* \"#utility.yul\":556:568   */\n      revert\n        /* \"#utility.yul\":580:682   */\n    tag_54:\n        /* \"#utility.yul\":621:627   */\n      0x00\n        /* \"#utility.yul\":672:674   */\n      0x1f\n        /* \"#utility.yul\":668:675   */\n      not\n        /* \"#utility.yul\":663:665   */\n      0x1f\n        /* \"#utility.yul\":656:661   */\n      dup4\n        /* \"#utility.yul\":652:666   */\n      add\n        /* \"#utility.yul\":648:676   */\n      and\n        /* \"#utility.yul\":638:676   */\n      swap1\n      pop\n        /* \"#utility.yul\":580:682   */\n      swap2\n      swap1\n      pop\n      jump\t// out\n        /* \"#utility.yul\":688:868   */\n    tag_55:\n        /* \"#utility.yul\":736:813   */\n      0x4e487b7100000000000000000000000000000000000000000000000000000000\n        /* \"#utility.yul\":733:734   */\n      0x00\n        /* \"#utility.yul\":726:814   */\n      mstore\n        /* \"#utility.yul\":833:837   */\n      0x41\n        /* \"#utility.yul\":830:831   */\n      0x04\n        /* \"#utility.yul\":823:838   */\n      mstore\n        /* \"#utility.yul\":857:861   */\n      0x24\n        /* \"#utility.yul\":854:855   */\n      0x00\n        /* \"#utility.yul\":847:862   */\n      revert\n        /* \"#utility.yul\":874:1155   */\n    tag_56:\n        /* \"#utility.yul\":957:984   */\n      tag_106\n        /* \"#utility.yul\":979:983   */\n      dup3\n        /* \"#utility.yul\":957:984   */\n      tag_54\n      jump\t// in\n    tag_106:\n        /* \"#utility.yul\":949:955   */\n      dup2\n        /* \"#utility.yul\":945:985   */\n      add\n        /* \"#utility.yul\":1087:1093   */\n      dup2\n        /* \"#utility.yul\":1075:1085   */\n      dup2\n        /* \"#utility.yul\":1072:1094   */\n      lt\n        /* \"#utility.yul\":1051:1069   */\n      0xffffffffffffffff\n        /* \"#utility.yul\":1039:1049   */\n      dup3\n        /* \"#utility.yul\":1036:1070   */\n      gt\n        /* \"#utility.yul\":1033:1095   */\n      or\n        /* \"#utility.yul\":1030:1118   */\n      iszero\n      tag_107\n      jumpi\n        /* \"#utility.yul\":1098:1116   */\n      tag_108\n      tag_55\n      jump\t// in\n    tag_108:\n        /* \"#utility.yul\":1030:1118   */\n    tag_107:\n        /* \"#utility.yul\":1138:1148   */\n      dup1\n        /* \"#utility.yul\":1134:1136   */\n      0x40\n        /* \"#utility.yul\":1127:1149   */\n      mstore\n        /* \"#utility.yul\":917:1155   */\n      pop\n        /* \"#utility.yul\":874:1155   */\n      pop\n      pop\n      jump\t// out\n        /* \"#utility.yul\":1161:1290   */\n    tag_57:\n        /* \"#utility.yul\":1195:1201   */\n      0x00\n        /* \"#utility.yul\":1222:1242   */\n      tag_110\n      tag_49\n      jump\t// in\n    tag_110:\n        /* \"#utility.yul\":1212:1242   */\n      swap1\n      pop\n        /* \"#utility.yul\":1251:1284   */\n      tag_111\n        /* \"#utility.yul\":1279:1283   */\n      dup3\n        /* \"#utility.yul\":1271:1277   */\n      dup3\n        /* \"#utility.yul\":1251:1284   */\n      tag_56\n      jump\t// in\n    tag_111:\n        /* \"#utility.yul\":1161:1290   */\n      swap2\n      swap1\n      pop\n      jump\t// out\n        /* \"#utility.yul\":1296:1604   */\n    tag_58:\n        /* \"#utility.yul\":1358:1362   */\n      0x00\n        /* \"#utility.yul\":1448:1466   */\n      0xffffffffffffffff\n        /* \"#utility.yul\":1440:1446   */\n      dup3\n        /* \"#utility.yul\":1437:1467   */\n      gt\n        /* \"#utility.yul\":1434:1490   */\n      iszero\n      tag_113\n      jumpi\n        /* \"#utility.yul\":1470:1488   */\n      tag_114\n      tag_55\n      jump\t// in\n    tag_114:\n        /* \"#utility.yul\":1434:1490   */\n    tag_113:\n        /* \"#utility.yul\":1508:1537   */\n      tag_115\n        /* \"#utility.yul\":1530:1536   */\n      dup3\n        /* \"#utility.yul\":1508:1537   */\n      tag_54\n      jump\t// in\n    tag_115:\n        /* \"#utility.yul\":1500:1537   */\n      swap1\n      pop\n        /* \"#utility.yul\":1592:1596   */\n      0x20\n        /* \"#utility.yul\":1586:1590   */\n      dup2\n        /* \"#utility.yul\":1582:1597   */\n      add\n        /* \"#utility.yul\":1574:1597   */\n      swap1\n      pop\n        /* \"#utility.yul\":1296:1604   */\n      swap2\n      swap1\n      pop\n      jump\t// out\n        /* \"#utility.yul\":1610:1758   */\n    tag_59:\n        /* \"#utility.yul\":1708:1714   */\n      dup3\n        /* \"#utility.yul\":1703:1706   */\n      dup2\n        /* \"#utility.yul\":1698:1701   */\n      dup4\n        /* \"#utility.yul\":1685:1715   */\n      calldatacopy\n        /* \"#utility.yul\":1749:1750   */\n      0x00\n        /* \"#utility.yul\":1740:1746   */\n      dup4\n        /* \"#utility.yul\":1735:1738   */\n      dup4\n        /* \"#utility.yul\":1731:1747   */\n      add\n        /* \"#utility.yul\":1724:1751   */\n      mstore\n        /* \"#utility.yul\":1610:1758   */\n      pop\n      pop\n      pop\n      jump\t// out\n        /* \"#utility.yul\":1764:2189   */\n    tag_60:\n        /* \"#utility.yul\":1842:1847   */\n      0x00\n        /* \"#utility.yul\":1867:1933   */\n      tag_118\n        /* \"#utility.yul\":1883:1932   */\n      tag_119\n        /* \"#utility.yul\":1925:1931   */\n      dup5\n        /* \"#utility.yul\":1883:1932   */\n      tag_58\n      jump\t// in\n    tag_119:\n        /* \"#utility.yul\":1867:1933   */\n      tag_57\n      jump\t// in\n    tag_118:\n        /* \"#utility.yul\":1858:1933   */\n      swap1\n      pop\n        /* \"#utility.yul\":1956:1962   */\n      dup3\n        /* \"#utility.yul\":1949:1954   */\n      dup2\n        /* \"#utility.yul\":1942:1963   */\n      mstore\n        /* \"#utility.yul\":1994:1998   */\n      0x20\n        /* \"#utility.yul\":1987:1992   */\n      dup2\n        /* \"#utility.yul\":1983:1999   */\n      add\n        /* \"#utility.yul\":2032:2035   */\n      dup5\n        /* \"#utility.yul\":2023:2029   */\n      dup5\n        /* \"#utility.yul\":2018:2021   */\n      dup5\n        /* \"#utility.yul\":2014:2030   */\n      add\n        /* \"#utility.yul\":2011:2036   */\n      gt\n        /* \"#utility.yul\":2008:2120   */\n      iszero\n      tag_120\n      jumpi\n        /* \"#utility.yul\":2039:2118   */\n      tag_121\n      tag_53\n      jump\t// in\n    tag_121:\n        /* \"#utility.yul\":2008:2120   */\n    tag_120:\n        /* \"#utility.yul\":2129:2183   */\n      tag_122\n        /* \"#utility.yul\":2176:2182   */\n      dup5\n        /* \"#utility.yul\":2171:2174   */\n      dup3\n        /* \"#utility.yul\":2166:2169   */\n      dup6\n        /* \"#utility.yul\":2129:2183   */\n      tag_59\n      jump\t// in\n    tag_122:\n        /* \"#utility.yul\":1848:2189   */\n      pop\n        /* \"#utility.yul\":1764:2189   */\n      swap4\n      swap3\n      pop\n      pop\n      pop\n      jump\t// out\n        /* \"#utility.yul\":2209:2549   */\n    tag_61:\n        /* \"#utility.yul\":2265:2270   */\n      0x00\n        /* \"#utility.yul\":2314:2317   */\n      dup3\n        /* \"#utility.yul\":2307:2311   */\n      0x1f\n        /* \"#utility.yul\":2299:2305   */\n      dup4\n        /* \"#utility.yul\":2295:2312   */\n      add\n        /* \"#utility.yul\":2291:2318   */\n      slt\n        /* \"#utility.yul\":2281:2403   */\n      tag_124\n      jumpi\n        /* \"#utility.yul\":2322:2401   */\n      tag_125\n      tag_52\n      jump\t// in\n    tag_125:\n        /* \"#utility.yul\":2281:2403   */\n    tag_124:\n        /* \"#utility.yul\":2439:2445   */\n      dup2\n        /* \"#utility.yul\":2426:2446   */\n      calldataload\n        /* \"#utility.yul\":2464:2543   */\n      tag_126\n        /* \"#utility.yul\":2539:2542   */\n      dup5\n        /* \"#utility.yul\":2531:2537   */\n      dup3\n        /* \"#utility.yul\":2524:2528   */\n      0x20\n        /* \"#utility.yul\":2516:2522   */\n      dup7\n        /* \"#utility.yul\":2512:2529   */\n      add\n        /* \"#utility.yul\":2464:2543   */\n      tag_60\n      jump\t// in\n    tag_126:\n        /* \"#utility.yul\":2455:2543   */\n      swap2\n      pop\n        /* \"#utility.yul\":2271:2549   */\n      pop\n        /* \"#utility.yul\":2209:2549   */\n      swap3\n      swap2\n      pop\n      pop\n      jump\t// out\n        /* \"#utility.yul\":2555:3064   */\n    tag_9:\n        /* \"#utility.yul\":2624:2630   */\n      0x00\n        /* \"#utility.yul\":2673:2675   */\n      0x20\n        /* \"#utility.yul\":2661:2670   */\n      dup3\n        /* \"#utility.yul\":2652:2659   */\n      dup5\n        /* \"#utility.yul\":2648:2671   */\n      sub\n        /* \"#utility.yul\":2644:2676   */\n      slt\n        /* \"#utility.yul\":2641:2760   */\n      iszero\n      tag_128\n      jumpi\n        /* \"#utility.yul\":2679:2758   */\n      tag_129\n      tag_50\n      jump\t// in\n    tag_129:\n        /* \"#utility.yul\":2641:2760   */\n    tag_128:\n        /* \"#utility.yul\":2827:2828   */\n      0x00\n        /* \"#utility.yul\":2816:2825   */\n      dup3\n        /* \"#utility.yul\":2812:2829   */\n      add\n        /* \"#utility.yul\":2799:2830   */\n      calldataload\n        /* \"#utility.yul\":2857:2875   */\n      0xffffffffffffffff\n        /* \"#utility.yul\":2849:2855   */\n      dup2\n        /* \"#utility.yul\":2846:2876   */\n      gt\n        /* \"#utility.yul\":2843:2960   */\n      iszero\n      tag_130\n      jumpi\n        /* \"#utility.yul\":2879:2958   */\n      tag_131\n      tag_51\n      jump\t// in\n    tag_131:\n        /* \"#utility.yul\":2843:2960   */\n    tag_130:\n        /* \"#utility.yul\":2984:3047   */\n      tag_132\n        /* \"#utility.yul\":3039:3046   */\n      dup5\n        /* \"#utility.yul\":3030:3036   */\n      dup3\n        /* \"#utility.yul\":3019:3028   */\n      dup6\n        /* \"#utility.yul\":3015:3037   */\n      add\n        /* \"#utility.yul\":2984:3047   */\n      tag_61\n      jump\t// in\n    tag_132:\n        /* \"#utility.yul\":2974:3047   */\n      swap2\n      pop\n        /* \"#utility.yul\":2770:3057   */\n      pop\n        /* \"#utility.yul\":2555:3064   */\n      swap3\n      swap2\n      pop\n      pop\n      jump\t// out\n        /* \"#utility.yul\":3070:3205   */\n    tag_62:\n        /* \"#utility.yul\":3158:3164   */\n      0x00\n        /* \"#utility.yul\":3192:3197   */\n      dup2\n        /* \"#utility.yul\":3186:3198   */\n      mload\n        /* \"#utility.yul\":3176:3198   */\n      swap1\n      pop\n        /* \"#utility.yul\":3070:3205   */\n      swap2\n      swap1\n      pop\n      jump\t// out\n        /* \"#utility.yul\":3211:3416   */\n    tag_63:\n        /* \"#utility.yul\":3331:3342   */\n      0x00\n        /* \"#utility.yul\":3365:3371   */\n      dup3\n        /* \"#utility.yul\":3360:3363   */\n      dup3\n        /* \"#utility.yul\":3353:3372   */\n      mstore\n        /* \"#utility.yul\":3405:3409   */\n      0x20\n        /* \"#utility.yul\":3400:3403   */\n      dup3\n        /* \"#utility.yul\":3396:3410   */\n      add\n        /* \"#utility.yul\":3381:3410   */\n      swap1\n      pop\n        /* \"#utility.yul\":3211:3416   */\n      swap3\n      swap2\n      pop\n      pop\n      jump\t// out\n        /* \"#utility.yul\":3422:3575   */\n    tag_64:\n        /* \"#utility.yul\":3510:3514   */\n      0x00\n        /* \"#utility.yul\":3533:3536   */\n      dup2\n        /* \"#utility.yul\":3525:3536   */\n      swap1\n      pop\n        /* \"#utility.yul\":3563:3567   */\n      0x20\n        /* \"#utility.yul\":3558:3561   */\n      dup3\n        /* \"#utility.yul\":3554:3568   */\n      add\n        /* \"#utility.yul\":3546:3568   */\n      swap1\n      pop\n        /* \"#utility.yul\":3422:3575   */\n      swap2\n      swap1\n      pop\n      jump\t// out\n        /* \"#utility.yul\":3581:3658   */\n    tag_65:\n        /* \"#utility.yul\":3618:3625   */\n      0x00\n        /* \"#utility.yul\":3647:3652   */\n      dup2\n        /* \"#utility.yul\":3636:3652   */\n      swap1\n      pop\n        /* \"#utility.yul\":3581:3658   */\n      swap2\n      swap1\n      pop\n      jump\t// out\n        /* \"#utility.yul\":3664:3772   */\n    tag_66:\n        /* \"#utility.yul\":3741:3765   */\n      tag_138\n        /* \"#utility.yul\":3759:3764   */\n      dup2\n        /* \"#utility.yul\":3741:3765   */\n      tag_65\n      jump\t// in\n    tag_138:\n        /* \"#utility.yul\":3736:3739   */\n      dup3\n        /* \"#utility.yul\":3729:3766   */\n      mstore\n        /* \"#utility.yul\":3664:3772   */\n      pop\n      pop\n      jump\t// out\n        /* \"#utility.yul\":3778:3877   */\n    tag_67:\n        /* \"#utility.yul\":3830:3836   */\n      0x00\n        /* \"#utility.yul\":3864:3869   */\n      dup2\n        /* \"#utility.yul\":3858:3870   */\n      mload\n        /* \"#utility.yul\":3848:3870   */\n      swap1\n      pop\n        /* \"#utility.yul\":3778:3877   */\n      swap2\n      swap1\n      pop\n      jump\t// out\n        /* \"#utility.yul\":3883:4042   */\n    tag_68:\n        /* \"#utility.yul\":3957:3968   */\n      0x00\n        /* \"#utility.yul\":3991:3997   */\n      dup3\n        /* \"#utility.yul\":3986:3989   */\n      dup3\n        /* \"#utility.yul\":3979:3998   */\n      mstore\n        /* \"#utility.yul\":4031:4035   */\n      0x20\n        /* \"#utility.yul\":4026:4029   */\n      dup3\n        /* \"#utility.yul\":4022:4036   */\n      add\n        /* \"#utility.yul\":4007:4036   */\n      swap1\n      pop\n        /* \"#utility.yul\":3883:4042   */\n      swap3\n      swap2\n      pop\n      pop\n      jump\t// out\n        /* \"#utility.yul\":4048:4187   */\n    tag_69:\n        /* \"#utility.yul\":4137:4143   */\n      dup3\n        /* \"#utility.yul\":4132:4135   */\n      dup2\n        /* \"#utility.yul\":4127:4130   */\n      dup4\n        /* \"#utility.yul\":4121:4144   */\n      mcopy\n        /* \"#utility.yul\":4178:4179   */\n      0x00\n        /* \"#utility.yul\":4169:4175   */\n      dup4\n        /* \"#utility.yul\":4164:4167   */\n      dup4\n        /* \"#utility.yul\":4160:4176   */\n      add\n        /* \"#utility.yul\":4153:4180   */\n      mstore\n        /* \"#utility.yul\":4048:4187   */\n      pop\n      pop\n      pop\n      jump\t// out\n        /* \"#utility.yul\":4193:4550   */\n    tag_70:\n        /* \"#utility.yul\":4271:4274   */\n      0x00\n        /* \"#utility.yul\":4299:4338   */\n      tag_143\n        /* \"#utility.yul\":4332:4337   */\n      dup3\n        /* \"#utility.yul\":4299:4338   */\n      tag_67\n      jump\t// in\n    tag_143:\n        /* \"#utility.yul\":4354:4415   */\n      tag_144\n        /* \"#utility.yul\":4408:4414   */\n      dup2\n        /* \"#utility.yul\":4403:4406   */\n      dup6\n        /* \"#utility.yul\":4354:4415   */\n      tag_68\n      jump\t// in\n    tag_144:\n        /* \"#utility.yul\":4347:4415   */\n      swap4\n      pop\n        /* \"#utility.yul\":4424:4489   */\n      tag_145\n        /* \"#utility.yul\":4482:4488   */\n      dup2\n        /* \"#utility.yul\":4477:4480   */\n      dup6\n        /* \"#utility.yul\":4470:4474   */\n      0x20\n        /* \"#utility.yul\":4463:4468   */\n      dup7\n        /* \"#utility.yul\":4459:4475   */\n      add\n        /* \"#utility.yul\":4424:4489   */\n      tag_69\n      jump\t// in\n    tag_145:\n        /* \"#utility.yul\":4514:4543   */\n      tag_146\n        /* \"#utility.yul\":4536:4542   */\n      dup2\n        /* \"#utility.yul\":4514:4543   */\n      tag_54\n      jump\t// in\n    tag_146:\n        /* \"#utility.yul\":4509:4512   */\n      dup5\n        /* \"#utility.yul\":4505:4544   */\n      add\n        /* \"#utility.yul\":4498:4544   */\n      swap2\n      pop\n        /* \"#utility.yul\":4275:4550   */\n      pop\n        /* \"#utility.yul\":4193:4550   */\n      swap3\n      swap2\n      pop\n      pop\n      jump\t// out\n        /* \"#utility.yul\":4604:5193   */\n    tag_71:\n        /* \"#utility.yul\":4705:4708   */\n      0x00\n        /* \"#utility.yul\":4741:4745   */\n      0x40\n        /* \"#utility.yul\":4736:4739   */\n      dup4\n        /* \"#utility.yul\":4732:4746   */\n      add\n        /* \"#utility.yul\":4829:4833   */\n      0x00\n        /* \"#utility.yul\":4822:4827   */\n      dup4\n        /* \"#utility.yul\":4818:4834   */\n      add\n        /* \"#utility.yul\":4812:4835   */\n      mload\n        /* \"#utility.yul\":4848:4911   */\n      tag_148\n        /* \"#utility.yul\":4905:4909   */\n      0x00\n        /* \"#utility.yul\":4900:4903   */\n      dup7\n        /* \"#utility.yul\":4896:4910   */\n      add\n        /* \"#utility.yul\":4882:4894   */\n      dup3\n        /* \"#utility.yul\":4848:4911   */\n      tag_66\n      jump\t// in\n    tag_148:\n        /* \"#utility.yul\":4756:4921   */\n      pop\n        /* \"#utility.yul\":5003:5007   */\n      0x20\n        /* \"#utility.yul\":4996:5001   */\n      dup4\n        /* \"#utility.yul\":4992:5008   */\n      add\n        /* \"#utility.yul\":4986:5009   */\n      mload\n        /* \"#utility.yul\":5056:5059   */\n      dup5\n        /* \"#utility.yul\":5050:5054   */\n      dup3\n        /* \"#utility.yul\":5046:5060   */\n      sub\n        /* \"#utility.yul\":5039:5043   */\n      0x20\n        /* \"#utility.yul\":5034:5037   */\n      dup7\n        /* \"#utility.yul\":5030:5044   */\n      add\n        /* \"#utility.yul\":5023:5061   */\n      mstore\n        /* \"#utility.yul\":5082:5155   */\n      tag_149\n        /* \"#utility.yul\":5150:5154   */\n      dup3\n        /* \"#utility.yul\":5136:5148   */\n      dup3\n        /* \"#utility.yul\":5082:5155   */\n      tag_70\n      jump\t// in\n    tag_149:\n        /* \"#utility.yul\":5074:5155   */\n      swap2\n      pop\n        /* \"#utility.yul\":4931:5166   */\n      pop\n        /* \"#utility.yul\":5183:5187   */\n      dup1\n        /* \"#utility.yul\":5176:5187   */\n      swap2\n      pop\n        /* \"#utility.yul\":4710:5193   */\n      pop\n        /* \"#utility.yul\":4604:5193   */\n      swap3\n      swap2\n      pop\n      pop\n      jump\t// out\n        /* \"#utility.yul\":5199:5439   */\n    tag_72:\n        /* \"#utility.yul\":5310:5320   */\n      0x00\n        /* \"#utility.yul\":5345:5433   */\n      tag_151\n        /* \"#utility.yul\":5429:5432   */\n      dup4\n        /* \"#utility.yul\":5421:5427   */\n      dup4\n        /* \"#utility.yul\":5345:5433   */\n      tag_71\n      jump\t// in\n    tag_151:\n        /* \"#utility.yul\":5331:5433   */\n      swap1\n      pop\n        /* \"#utility.yul\":5199:5439   */\n      swap3\n      swap2\n      pop\n      pop\n      jump\t// out\n        /* \"#utility.yul\":5445:5579   */\n    tag_73:\n        /* \"#utility.yul\":5536:5540   */\n      0x00\n        /* \"#utility.yul\":5568:5572   */\n      0x20\n        /* \"#utility.yul\":5563:5566   */\n      dup3\n        /* \"#utility.yul\":5559:5573   */\n      add\n        /* \"#utility.yul\":5551:5573   */\n      swap1\n      pop\n        /* \"#utility.yul\":5445:5579   */\n      swap2\n      swap1\n      pop\n      jump\t// out\n        /* \"#utility.yul\":5637:6716   */\n    tag_74:\n        /* \"#utility.yul\":5798:5801   */\n      0x00\n        /* \"#utility.yul\":5827:5902   */\n      tag_154\n        /* \"#utility.yul\":5896:5901   */\n      dup3\n        /* \"#utility.yul\":5827:5902   */\n      tag_62\n      jump\t// in\n    tag_154:\n        /* \"#utility.yul\":5918:6025   */\n      tag_155\n        /* \"#utility.yul\":6018:6024   */\n      dup2\n        /* \"#utility.yul\":6013:6016   */\n      dup6\n        /* \"#utility.yul\":5918:6025   */\n      tag_63\n      jump\t// in\n    tag_155:\n        /* \"#utility.yul\":5911:6025   */\n      swap4\n      pop\n        /* \"#utility.yul\":6051:6054   */\n      dup4\n        /* \"#utility.yul\":6096:6100   */\n      0x20\n        /* \"#utility.yul\":6088:6094   */\n      dup3\n        /* \"#utility.yul\":6084:6101   */\n      mul\n        /* \"#utility.yul\":6079:6082   */\n      dup6\n        /* \"#utility.yul\":6075:6102   */\n      add\n        /* \"#utility.yul\":6126:6203   */\n      tag_156\n        /* \"#utility.yul\":6197:6202   */\n      dup6\n        /* \"#utility.yul\":6126:6203   */\n      tag_64\n      jump\t// in\n    tag_156:\n        /* \"#utility.yul\":6226:6233   */\n      dup1\n        /* \"#utility.yul\":6257:6258   */\n      0x00\n        /* \"#utility.yul\":6242:6671   */\n    tag_157:\n        /* \"#utility.yul\":6267:6273   */\n      dup6\n        /* \"#utility.yul\":6264:6265   */\n      dup2\n        /* \"#utility.yul\":6261:6274   */\n      lt\n        /* \"#utility.yul\":6242:6671   */\n      iszero\n      tag_159\n      jumpi\n        /* \"#utility.yul\":6338:6347   */\n      dup5\n        /* \"#utility.yul\":6332:6336   */\n      dup5\n        /* \"#utility.yul\":6328:6348   */\n      sub\n        /* \"#utility.yul\":6323:6326   */\n      dup10\n        /* \"#utility.yul\":6316:6349   */\n      mstore\n        /* \"#utility.yul\":6389:6395   */\n      dup2\n        /* \"#utility.yul\":6383:6396   */\n      mload\n        /* \"#utility.yul\":6417:6523   */\n      tag_160\n        /* \"#utility.yul\":6518:6522   */\n      dup6\n        /* \"#utility.yul\":6503:6516   */\n      dup3\n        /* \"#utility.yul\":6417:6523   */\n      tag_72\n      jump\t// in\n    tag_160:\n        /* \"#utility.yul\":6409:6523   */\n      swap5\n      pop\n        /* \"#utility.yul\":6546:6627   */\n      tag_161\n        /* \"#utility.yul\":6620:6626   */\n      dup4\n        /* \"#utility.yul\":6546:6627   */\n      tag_73\n      jump\t// in\n    tag_161:\n        /* \"#utility.yul\":6536:6627   */\n      swap3\n      pop\n        /* \"#utility.yul\":6656:6660   */\n      0x20\n        /* \"#utility.yul\":6651:6654   */\n      dup11\n        /* \"#utility.yul\":6647:6661   */\n      add\n        /* \"#utility.yul\":6640:6661   */\n      swap10\n      pop\n        /* \"#utility.yul\":6302:6671   */\n      pop\n        /* \"#utility.yul\":6289:6290   */\n      0x01\n        /* \"#utility.yul\":6286:6287   */\n      dup2\n        /* \"#utility.yul\":6282:6291   */\n      add\n        /* \"#utility.yul\":6277:6291   */\n      swap1\n      pop\n        /* \"#utility.yul\":6242:6671   */\n      jump(tag_157)\n    tag_159:\n        /* \"#utility.yul\":6246:6260   */\n      pop\n        /* \"#utility.yul\":6687:6691   */\n      dup3\n        /* \"#utility.yul\":6680:6691   */\n      swap8\n      pop\n        /* \"#utility.yul\":6707:6710   */\n      dup8\n        /* \"#utility.yul\":6700:6710   */\n      swap6\n      pop\n        /* \"#utility.yul\":5803:6716   */\n      pop\n      pop\n      pop\n      pop\n      pop\n        /* \"#utility.yul\":5637:6716   */\n      swap3\n      swap2\n      pop\n      pop\n      jump\t// out\n        /* \"#utility.yul\":6722:7179   */\n    tag_14:\n        /* \"#utility.yul\":6907:6911   */\n      0x00\n        /* \"#utility.yul\":6945:6947   */\n      0x20\n        /* \"#utility.yul\":6934:6943   */\n      dup3\n        /* \"#utility.yul\":6930:6948   */\n      add\n        /* \"#utility.yul\":6922:6948   */\n      swap1\n      pop\n        /* \"#utility.yul\":6994:7003   */\n      dup2\n        /* \"#utility.yul\":6988:6992   */\n      dup2\n        /* \"#utility.yul\":6984:7004   */\n      sub\n        /* \"#utility.yul\":6980:6981   */\n      0x00\n        /* \"#utility.yul\":6969:6978   */\n      dup4\n        /* \"#utility.yul\":6965:6982   */\n      add\n        /* \"#utility.yul\":6958:7005   */\n      mstore\n        /* \"#utility.yul\":7022:7172   */\n      tag_163\n        /* \"#utility.yul\":7167:7171   */\n      dup2\n        /* \"#utility.yul\":7158:7164   */\n      dup5\n        /* \"#utility.yul\":7022:7172   */\n      tag_74\n      jump\t// in\n    tag_163:\n        /* \"#utility.yul\":7014:7172   */\n      swap1\n      pop\n        /* \"#utility.yul\":6722:7179   */\n      swap3\n      swap2\n      pop\n      pop\n      jump\t// out\n        /* \"#utility.yul\":7185:7307   */\n    tag_75:\n        /* \"#utility.yul\":7258:7282   */\n      tag_165\n        /* \"#utility.yul\":7276:7281   */\n      dup2\n        /* \"#utility.yul\":7258:7282   */\n      tag_65\n      jump\t// in\n    tag_165:\n        /* \"#utility.yul\":7251:7256   */\n      dup2\n        /* \"#utility.yul\":7248:7283   */\n      eq\n        /* \"#utility.yul\":7238:7301   */\n      tag_166\n      jumpi\n        /* \"#utility.yul\":7297:7298   */\n      0x00\n        /* \"#utility.yul\":7294:7295   */\n      dup1\n        /* \"#utility.yul\":7287:7299   */\n      revert\n        /* \"#utility.yul\":7238:7301   */\n    tag_166:\n        /* \"#utility.yul\":7185:7307   */\n      pop\n      jump\t// out\n        /* \"#utility.yul\":7313:7452   */\n    tag_76:\n        /* \"#utility.yul\":7359:7364   */\n      0x00\n        /* \"#utility.yul\":7397:7403   */\n      dup2\n        /* \"#utility.yul\":7384:7404   */\n      calldataload\n        /* \"#utility.yul\":7375:7404   */\n      swap1\n      pop\n        /* \"#utility.yul\":7413:7446   */\n      tag_168\n        /* \"#utility.yul\":7440:7445   */\n      dup2\n        /* \"#utility.yul\":7413:7446   */\n      tag_75\n      jump\t// in\n    tag_168:\n        /* \"#utility.yul\":7313:7452   */\n      swap3\n      swap2\n      pop\n      pop\n      jump\t// out\n        /* \"#utility.yul\":7458:7787   */\n    tag_17:\n        /* \"#utility.yul\":7517:7523   */\n      0x00\n        /* \"#utility.yul\":7566:7568   */\n      0x20\n        /* \"#utility.yul\":7554:7563   */\n      dup3\n        /* \"#utility.yul\":7545:7552   */\n      dup5\n        /* \"#utility.yul\":7541:7564   */\n      sub\n        /* \"#utility.yul\":7537:7569   */\n      slt\n        /* \"#utility.yul\":7534:7653   */\n      iszero\n      tag_170\n      jumpi\n        /* \"#utility.yul\":7572:7651   */\n      tag_171\n      tag_50\n      jump\t// in\n    tag_171:\n        /* \"#utility.yul\":7534:7653   */\n    tag_170:\n        /* \"#utility.yul\":7692:7693   */\n      0x00\n        /* \"#utility.yul\":7717:7770   */\n      tag_172\n        /* \"#utility.yul\":7762:7769   */\n      dup5\n        /* \"#utility.yul\":7753:7759   */\n      dup3\n        /* \"#utility.yul\":7742:7751   */\n      dup6\n        /* \"#utility.yul\":7738:7760   */\n      add\n        /* \"#utility.yul\":7717:7770   */\n      tag_76\n      jump\t// in\n    tag_172:\n        /* \"#utility.yul\":7707:7770   */\n      swap2\n      pop\n        /* \"#utility.yul\":7663:7780   */\n      pop\n        /* \"#utility.yul\":7458:7787   */\n      swap3\n      swap2\n      pop\n      pop\n      jump\t// out\n        /* \"#utility.yul\":7793:7911   */\n    tag_77:\n        /* \"#utility.yul\":7880:7904   */\n      tag_174\n        /* \"#utility.yul\":7898:7903   */\n      dup2\n        /* \"#utility.yul\":7880:7904   */\n      tag_65\n      jump\t// in\n    tag_174:\n        /* \"#utility.yul\":7875:7878   */\n      dup3\n        /* \"#utility.yul\":7868:7905   */\n      mstore\n        /* \"#utility.yul\":7793:7911   */\n      pop\n      pop\n      jump\t// out\n        /* \"#utility.yul\":7917:8086   */\n    tag_78:\n        /* \"#utility.yul\":8001:8012   */\n      0x00\n        /* \"#utility.yul\":8035:8041   */\n      dup3\n        /* \"#utility.yul\":8030:8033   */\n      dup3\n        /* \"#utility.yul\":8023:8042   */\n      mstore\n        /* \"#utility.yul\":8075:8079   */\n      0x20\n        /* \"#utility.yul\":8070:8073   */\n      dup3\n        /* \"#utility.yul\":8066:8080   */\n      add\n        /* \"#utility.yul\":8051:8080   */\n      swap1\n      pop\n        /* \"#utility.yul\":7917:8086   */\n      swap3\n      swap2\n      pop\n      pop\n      jump\t// out\n        /* \"#utility.yul\":8092:8469   */\n    tag_79:\n        /* \"#utility.yul\":8180:8183   */\n      0x00\n        /* \"#utility.yul\":8208:8247   */\n      tag_177\n        /* \"#utility.yul\":8241:8246   */\n      dup3\n        /* \"#utility.yul\":8208:8247   */\n      tag_67\n      jump\t// in\n    tag_177:\n        /* \"#utility.yul\":8263:8334   */\n      tag_178\n        /* \"#utility.yul\":8327:8333   */\n      dup2\n        /* \"#utility.yul\":8322:8325   */\n      dup6\n        /* \"#utility.yul\":8263:8334   */\n      tag_78\n      jump\t// in\n    tag_178:\n        /* \"#utility.yul\":8256:8334   */\n      swap4\n      pop\n        /* \"#utility.yul\":8343:8408   */\n      tag_179\n        /* \"#utility.yul\":8401:8407   */\n      dup2\n        /* \"#utility.yul\":8396:8399   */\n      dup6\n        /* \"#utility.yul\":8389:8393   */\n      0x20\n        /* \"#utility.yul\":8382:8387   */\n      dup7\n        /* \"#utility.yul\":8378:8394   */\n      add\n        /* \"#utility.yul\":8343:8408   */\n      tag_69\n      jump\t// in\n    tag_179:\n        /* \"#utility.yul\":8433:8462   */\n      tag_180\n        /* \"#utility.yul\":8455:8461   */\n      dup2\n        /* \"#utility.yul\":8433:8462   */\n      tag_54\n      jump\t// in\n    tag_180:\n        /* \"#utility.yul\":8428:8431   */\n      dup5\n        /* \"#utility.yul\":8424:8463   */\n      add\n        /* \"#utility.yul\":8417:8463   */\n      swap2\n      pop\n        /* \"#utility.yul\":8184:8469   */\n      pop\n        /* \"#utility.yul\":8092:8469   */\n      swap3\n      swap2\n      pop\n      pop\n      jump\t// out\n        /* \"#utility.yul\":8475:8898   */\n    tag_20:\n        /* \"#utility.yul\":8616:8620   */\n      0x00\n        /* \"#utility.yul\":8654:8656   */\n      0x40\n        /* \"#utility.yul\":8643:8652   */\n      dup3\n        /* \"#utility.yul\":8639:8657   */\n      add\n        /* \"#utility.yul\":8631:8657   */\n      swap1\n      pop\n        /* \"#utility.yul\":8667:8738   */\n      tag_182\n        /* \"#utility.yul\":8735:8736   */\n      0x00\n        /* \"#utility.yul\":8724:8733   */\n      dup4\n        /* \"#utility.yul\":8720:8737   */\n      add\n        /* \"#utility.yul\":8711:8717   */\n      dup6\n        /* \"#utility.yul\":8667:8738   */\n      tag_77\n      jump\t// in\n    tag_182:\n        /* \"#utility.yul\":8785:8794   */\n      dup2\n        /* \"#utility.yul\":8779:8783   */\n      dup2\n        /* \"#utility.yul\":8775:8795   */\n      sub\n        /* \"#utility.yul\":8770:8772   */\n      0x20\n        /* \"#utility.yul\":8759:8768   */\n      dup4\n        /* \"#utility.yul\":8755:8773   */\n      add\n        /* \"#utility.yul\":8748:8796   */\n      mstore\n        /* \"#utility.yul\":8813:8891   */\n      tag_183\n        /* \"#utility.yul\":8886:8890   */\n      dup2\n        /* \"#utility.yul\":8877:8883   */\n      dup5\n        /* \"#utility.yul\":8813:8891   */\n      tag_79\n      jump\t// in\n    tag_183:\n        /* \"#utility.yul\":8805:8891   */\n      swap1\n      pop\n        /* \"#utility.yul\":8475:8898   */\n      swap4\n      swap3\n      pop\n      pop\n      pop\n      jump\t// out\n        /* \"#utility.yul\":8904:9126   */\n    tag_24:\n        /* \"#utility.yul\":8997:9001   */\n      0x00\n        /* \"#utility.yul\":9035:9037   */\n      0x20\n        /* \"#utility.yul\":9024:9033   */\n      dup3\n        /* \"#utility.yul\":9020:9038   */\n      add\n        /* \"#utility.yul\":9012:9038   */\n      swap1\n      pop\n        /* \"#utility.yul\":9048:9119   */\n      tag_185\n        /* \"#utility.yul\":9116:9117   */\n      0x00\n        /* \"#utility.yul\":9105:9114   */\n      dup4\n        /* \"#utility.yul\":9101:9118   */\n      add\n        /* \"#utility.yul\":9092:9098   */\n      dup5\n        /* \"#utility.yul\":9048:9119   */\n      tag_77\n      jump\t// in\n    tag_185:\n        /* \"#utility.yul\":8904:9126   */\n      swap3\n      swap2\n      pop\n      pop\n      jump\t// out\n        /* \"#utility.yul\":9132:9312   */\n    tag_80:\n        /* \"#utility.yul\":9180:9257   */\n      0x4e487b7100000000000000000000000000000000000000000000000000000000\n        /* \"#utility.yul\":9177:9178   */\n      0x00\n        /* \"#utility.yul\":9170:9258   */\n      mstore\n        /* \"#utility.yul\":9277:9281   */\n      0x11\n        /* \"#utility.yul\":9274:9275   */\n      0x04\n        /* \"#utility.yul\":9267:9282   */\n      mstore\n        /* \"#utility.yul\":9301:9305   */\n      0x24\n        /* \"#utility.yul\":9298:9299   */\n      0x00\n        /* \"#utility.yul\":9291:9306   */\n      revert\n        /* \"#utility.yul\":9318:9551   */\n    tag_28:\n        /* \"#utility.yul\":9357:9360   */\n      0x00\n        /* \"#utility.yul\":9380:9404   */\n      tag_188\n        /* \"#utility.yul\":9398:9403   */\n      dup3\n        /* \"#utility.yul\":9380:9404   */\n      tag_65\n      jump\t// in\n    tag_188:\n        /* \"#utility.yul\":9371:9404   */\n      swap2\n      pop\n        /* \"#utility.yul\":9426:9492   */\n      0xffffffffffffffffffffffffffffffffffffffffffffffffffffffffffffffff\n        /* \"#utility.yul\":9419:9424   */\n      dup3\n        /* \"#utility.yul\":9416:9493   */\n      sub\n        /* \"#utility.yul\":9413:9516   */\n      tag_189\n      jumpi\n        /* \"#utility.yul\":9496:9514   */\n      tag_190\n      tag_80\n      jump\t// in\n    tag_190:\n        /* \"#utility.yul\":9413:9516   */\n    tag_189:\n        /* \"#utility.yul\":9543:9544   */\n      0x01\n        /* \"#utility.yul\":9536:9541   */\n      dup3\n        /* \"#utility.yul\":9532:9545   */\n      add\n        /* \"#utility.yul\":9525:9545   */\n      swap1\n      pop\n        /* \"#utility.yul\":9318:9551   */\n      swap2\n      swap1\n      pop\n      jump\t// out\n        /* \"#utility.yul\":9557:9737   */\n    tag_81:\n        /* \"#utility.yul\":9605:9682   */\n      0x4e487b7100000000000000000000000000000000000000000000000000000000\n        /* \"#utility.yul\":9602:9603   */\n      0x00\n        /* \"#utility.yul\":9595:9683   */\n      mstore\n        /* \"#utility.yul\":9702:9706   */\n      0x22\n        /* \"#utility.yul\":9699:9700   */\n      0x04\n        /* \"#utility.yul\":9692:9707   */\n      mstore\n        /* \"#utility.yul\":9726:9730   */\n      0x24\n        /* \"#utility.yul\":9723:9724   */\n      0x00\n        /* \"#utility.yul\":9716:9731   */\n      revert\n        /* \"#utility.yul\":9743:10063   */\n    tag_37:\n        /* \"#utility.yul\":9787:9793   */\n      0x00\n        /* \"#utility.yul\":9824:9825   */\n      0x02\n        /* \"#utility.yul\":9818:9822   */\n      dup3\n        /* \"#utility.yul\":9814:9826   */\n      div\n        /* \"#utility.yul\":9804:9826   */\n      swap1\n      pop\n        /* \"#utility.yul\":9871:9872   */\n      0x01\n        /* \"#utility.yul\":9865:9869   */\n      dup3\n        /* \"#utility.yul\":9861:9873   */\n      and\n        /* \"#utility.yul\":9892:9910   */\n      dup1\n        /* \"#utility.yul\":9882:9963   */\n      tag_193\n      jumpi\n        /* \"#utility.yul\":9948:9952   */\n      0x7f\n        /* \"#utility.yul\":9940:9946   */\n      dup3\n        /* \"#utility.yul\":9936:9953   */\n      and\n        /* \"#utility.yul\":9926:9953   */\n      swap2\n      pop\n        /* \"#utility.yul\":9882:9963   */\n    tag_193:\n        /* \"#utility.yul\":10010:10012   */\n      0x20\n        /* \"#utility.yul\":10002:10008   */\n      dup3\n        /* \"#utility.yul\":9999:10013   */\n      lt\n        /* \"#utility.yul\":9979:9997   */\n      dup2\n        /* \"#utility.yul\":9976:10014   */\n      sub\n        /* \"#utility.yul\":9973:10057   */\n      tag_194\n      jumpi\n        /* \"#utility.yul\":10029:10047   */\n      tag_195\n      tag_81\n      jump\t// in\n    tag_195:\n        /* \"#utility.yul\":9973:10057   */\n    tag_194:\n        /* \"#utility.yul\":9794:10063   */\n      pop\n        /* \"#utility.yul\":9743:10063   */\n      swap2\n      swap1\n      pop\n      jump\t// out\n        /* \"#utility.yul\":10069:10210   */\n    tag_82:\n        /* \"#utility.yul\":10118:10122   */\n      0x00\n        /* \"#utility.yul\":10141:10144   */\n      dup2\n        /* \"#utility.yul\":10133:10144   */\n      swap1\n      pop\n        /* \"#utility.yul\":10164:10167   */\n      dup2\n        /* \"#utility.yul\":10161:10162   */\n      0x00\n        /* \"#utility.yul\":10154:10168   */\n      mstore\n        /* \"#utility.yul\":10198:10202   */\n      0x20\n        /* \"#utility.yul\":10195:10196   */\n      0x00\n        /* \"#utility.yul\":10185:10203   */\n      keccak256\n        /* \"#utility.yul\":10177:10203   */\n      swap1\n      pop\n        /* \"#utility.yul\":10069:10210   */\n      swap2\n      swap1\n      pop\n      jump\t// out\n        /* \"#utility.yul\":10216:10309   */\n    tag_83:\n        /* \"#utility.yul\":10253:10259   */\n      0x00\n        /* \"#utility.yul\":10300:10302   */\n      0x20\n        /* \"#utility.yul\":10295:10297   */\n      0x1f\n        /* \"#utility.yul\":10288:10293   */\n      dup4\n        /* \"#utility.yul\":10284:10298   */\n      add\n        /* \"#utility.yul\":10280:10303   */\n      div\n        /* \"#utility.yul\":10270:10303   */\n      swap1\n      pop\n        /* \"#utility.yul\":10216:10309   */\n      swap2\n      swap1\n      pop\n      jump\t// out\n        /* \"#utility.yul\":10315:10422   */\n    tag_84:\n        /* \"#utility.yul\":10359:10367   */\n      0x00\n        /* \"#utility.yul\":10409:10414   */\n      dup3\n        /* \"#utility.yul\":10403:10407   */\n      dup3\n        /* \"#utility.yul\":10399:10415   */\n      shl\n        /* \"#utility.yul\":10378:10415   */\n      swap1\n      pop\n        /* \"#utility.yul\":10315:10422   */\n      swap3\n      swap2\n      pop\n      pop\n      jump\t// out\n        /* \"#utility.yul\":10428:10821   */\n    tag_85:\n        /* \"#utility.yul\":10497:10503   */\n      0x00\n        /* \"#utility.yul\":10547:10548   */\n      0x08\n        /* \"#utility.yul\":10535:10545   */\n      dup4\n        /* \"#utility.yul\":10531:10549   */\n      mul\n        /* \"#utility.yul\":10570:10667   */\n      tag_200\n        /* \"#utility.yul\":10600:10666   */\n      0xffffffffffffffffffffffffffffffffffffffffffffffffffffffffffffffff\n        /* \"#utility.yul\":10589:10598   */\n      dup3\n        /* \"#utility.yul\":10570:10667   */\n      tag_84\n      jump\t// in\n    tag_200:\n        /* \"#utility.yul\":10688:10727   */\n      tag_201\n        /* \"#utility.yul\":10718:10726   */\n      dup7\n        /* \"#utility.yul\":10707:10716   */\n      dup4\n        /* \"#utility.yul\":10688:10727   */\n      tag_84\n      jump\t// in\n    tag_201:\n        /* \"#utility.yul\":10676:10727   */\n      swap6\n      pop\n        /* \"#utility.yul\":10760:10764   */\n      dup1\n        /* \"#utility.yul\":10756:10765   */\n      not\n        /* \"#utility.yul\":10749:10754   */\n      dup5\n        /* \"#utility.yul\":10745:10766   */\n      and\n        /* \"#utility.yul\":10736:10766   */\n      swap4\n      pop\n        /* \"#utility.yul\":10809:10813   */\n      dup1\n        /* \"#utility.yul\":10799:10807   */\n      dup7\n        /* \"#utility.yul\":10795:10814   */\n      and\n        /* \"#utility.yul\":10788:10793   */\n      dup5\n        /* \"#utility.yul\":10785:10815   */\n      or\n        /* \"#utility.yul\":10775:10815   */\n      swap3\n      pop\n        /* \"#utility.yul\":10504:10821   */\n      pop\n      pop\n        /* \"#utility.yul\":10428:10821   */\n      swap4\n      swap3\n      pop\n      pop\n      pop\n      jump\t// out\n        /* \"#utility.yul\":10827:10887   */\n    tag_86:\n        /* \"#utility.yul\":10855:10858   */\n      0x00\n        /* \"#utility.yul\":10876:10881   */\n      dup2\n        /* \"#utility.yul\":10869:10881   */\n      swap1\n      pop\n        /* \"#utility.yul\":10827:10887   */\n      swap2\n      swap1\n      pop\n      jump\t// out\n        /* \"#utility.yul\":10893:11035   */\n    tag_87:\n        /* \"#utility.yul\":10943:10952   */\n      0x00\n        /* \"#utility.yul\":10976:11029   */\n      tag_204\n        /* \"#utility.yul\":10994:11028   */\n      tag_205\n        /* \"#utility.yul\":11003:11027   */\n      tag_206\n        /* \"#utility.yul\":11021:11026   */\n      dup5\n        /* \"#utility.yul\":11003:11027   */\n      tag_65\n      jump\t// in\n    tag_206:\n        /* \"#utility.yul\":10994:11028   */\n      tag_86\n      jump\t// in\n    tag_205:\n        /* \"#utility.yul\":10976:11029   */\n      tag_65\n      jump\t// in\n    tag_204:\n        /* \"#utility.yul\":10963:11029   */\n      swap1\n      pop\n        /* \"#utility.yul\":10893:11035   */\n      swap2\n      swap1\n      pop\n      jump\t// out\n        /* \"#utility.yul\":11041:11116   */\n    tag_88:\n        /* \"#utility.yul\":11084:11087   */\n      0x00\n        /* \"#utility.yul\":11105:11110   */\n      dup2\n        /* \"#utility.yul\":11098:11110   */\n      swap1\n      pop\n        /* \"#utility.yul\":11041:11116   */\n      swap2\n      swap1\n      pop\n      jump\t// out\n        /* \"#utility.yul\":11122:11391   */\n    tag_89:\n        /* \"#utility.yul\":11232:11271   */\n      tag_209\n        /* \"#utility.yul\":11263:11270   */\n      dup4\n        /* \"#utility.yul\":11232:11271   */\n      tag_87\n      jump\t// in\n    tag_209:\n        /* \"#utility.yul\":11293:11384   */\n      tag_210\n        /* \"#utility.yul\":11342:11383   */\n      tag_211\n        /* \"#utility.yul\":11366:11382   */\n      dup3\n        /* \"#utility.yul\":11342:11383   */\n      tag_88\n      jump\t// in\n    tag_211:\n        /* \"#utility.yul\":11334:11340   */\n      dup5\n        /* \"#utility.yul\":11327:11331   */\n      dup5\n        /* \"#utility.yul\":11321:11332   */\n      sload\n        /* \"#utility.yul\":11293:11384   */\n      tag_85\n      jump\t// in\n    tag_210:\n        /* \"#utility.yul\":11287:11291   */\n      dup3\n        /* \"#utility.yul\":11280:11385   */\n      sstore\n        /* \"#utility.yul\":11198:11391   */\n      pop\n        /* \"#utility.yul\":11122:11391   */\n      pop\n      pop\n      pop\n      jump\t// out\n        /* \"#utility.yul\":11397:11470   */\n    tag_90:\n        /* \"#utility.yul\":11442:11445   */\n      0x00\n        /* \"#utility.yul\":11397:11470   */\n      swap1\n      jump\t// out\n        /* \"#utility.yul\":11476:11665   */\n    tag_91:\n        /* \"#utility.yul\":11553:11585   */\n      tag_214\n      tag_90\n      jump\t// in\n    tag_214:\n        /* \"#utility.yul\":11594:11659   */\n      tag_215\n        /* \"#utility.yul\":11652:11658   */\n      dup2\n        /* \"#utility.yul\":11644:11650   */\n      dup5\n        /* \"#utility.yul\":11638:11642   */\n      dup5\n        /* \"#utility.yul\":11594:11659   */\n      tag_89\n      jump\t// in\n    tag_215:\n        /* \"#utility.yul\":11529:11665   */\n      pop\n        /* \"#utility.yul\":11476:11665   */\n      pop\n      pop\n      jump\t// out\n        /* \"#utility.yul\":11671:11857   */\n    tag_92:\n        /* \"#utility.yul\":11731:11851   */\n    tag_217:\n        /* \"#utility.yul\":11748:11751   */\n      dup2\n        /* \"#utility.yul\":11741:11746   */\n      dup2\n        /* \"#utility.yul\":11738:11752   */\n      lt\n        /* \"#utility.yul\":11731:11851   */\n      iszero\n      tag_219\n      jumpi\n        /* \"#utility.yul\":11802:11841   */\n      tag_220\n        /* \"#utility.yul\":11839:11840   */\n      0x00\n        /* \"#utility.yul\":11832:11837   */\n      dup3\n        /* \"#utility.yul\":11802:11841   */\n      tag_91\n      jump\t// in\n    tag_220:\n        /* \"#utility.yul\":11775:11776   */\n      0x01\n        /* \"#utility.yul\":11768:11773   */\n      dup2\n        /* \"#utility.yul\":11764:11777   */\n      add\n        /* \"#utility.yul\":11755:11777   */\n      swap1\n      pop\n        /* \"#utility.yul\":11731:11851   */\n      jump(tag_217)\n    tag_219:\n        /* \"#utility.yul\":11671:11857   */\n      pop\n      pop\n      jump\t// out\n        /* \"#utility.yul\":11863:12406   */\n    tag_93:\n        /* \"#utility.yul\":11964:11966   */\n      0x1f\n        /* \"#utility.yul\":11959:11962   */\n      dup3\n        /* \"#utility.yul\":11956:11967   */\n      gt\n        /* \"#utility.yul\":11953:12399   */\n      iszero\n      tag_222\n      jumpi\n        /* \"#utility.yul\":11998:12036   */\n      tag_223\n        /* \"#utility.yul\":12030:12035   */\n      dup2\n        /* \"#utility.yul\":11998:12036   */\n      tag_82\n      jump\t// in\n    tag_223:\n        /* \"#utility.yul\":12082:12111   */\n      tag_224\n        /* \"#utility.yul\":12100:12110   */\n      dup5\n        /* \"#utility.yul\":12082:12111   */\n      tag_83\n      jump\t// in\n    tag_224:\n        /* \"#utility.yul\":12072:12080   */\n      dup2\n        /* \"#utility.yul\":12068:12112   */\n      add\n        /* \"#utility.yul\":12265:12267   */\n      0x20\n        /* \"#utility.yul\":12253:12263   */\n      dup6\n        /* \"#utility.yul\":12250:12268   */\n      lt\n        /* \"#utility.yul\":12247:12296   */\n      iszero\n      tag_225\n      jumpi\n        /* \"#utility.yul\":12286:12294   */\n      dup2\n        /* \"#utility.yul\":12271:12294   */\n      swap1\n      pop\n        /* \"#utility.yul\":12247:12296   */\n    tag_225:\n        /* \"#utility.yul\":12309:12389   */\n      tag_226\n        /* \"#utility.yul\":12365:12387   */\n      tag_227\n        /* \"#utility.yul\":12383:12386   */\n      dup6\n        /* \"#utility.yul\":12365:12387   */\n      tag_83\n      jump\t// in\n    tag_227:\n        /* \"#utility.yul\":12355:12363   */\n      dup4\n        /* \"#utility.yul\":12351:12388   */\n      add\n        /* \"#utility.yul\":12338:12349   */\n      dup3\n        /* \"#utility.yul\":12309:12389   */\n      tag_92\n      jump\t// in\n    tag_226:\n        /* \"#utility.yul\":11968:12399   */\n      pop\n      pop\n        /* \"#utility.yul\":11953:12399   */\n    tag_222:\n        /* \"#utility.yul\":11863:12406   */\n      pop\n      pop\n      pop\n      jump\t// out\n        /* \"#utility.yul\":12412:12529   */\n    tag_94:\n        /* \"#utility.yul\":12466:12474   */\n      0x00\n        /* \"#utility.yul\":12516:12521   */\n      dup3\n        /* \"#utility.yul\":12510:12514   */\n      dup3\n        /* \"#utility.yul\":12506:12522   */\n      shr\n        /* \"#utility.yul\":12485:12522   */\n      swap1\n      pop\n        /* \"#utility.yul\":12412:12529   */\n      swap3\n      swap2\n      pop\n      pop\n      jump\t// out\n        /* \"#utility.yul\":12535:12704   */\n    tag_95:\n        /* \"#utility.yul\":12579:12585   */\n      0x00\n        /* \"#utility.yul\":12612:12663   */\n      tag_230\n        /* \"#utility.yul\":12660:12661   */\n      0x00\n        /* \"#utility.yul\":12656:12662   */\n      not\n        /* \"#utility.yul\":12648:12653   */\n      dup5\n        /* \"#utility.yul\":12645:12646   */\n      0x08\n        /* \"#utility.yul\":12641:12654   */\n      mul\n        /* \"#utility.yul\":12612:12663   */\n      tag_94\n      jump\t// in\n    tag_230:\n        /* \"#utility.yul\":12608:12664   */\n      not\n        /* \"#utility.yul\":12693:12697   */\n      dup1\n        /* \"#utility.yul\":12687:12691   */\n      dup4\n        /* \"#utility.yul\":12683:12698   */\n      and\n        /* \"#utility.yul\":12673:12698   */\n      swap2\n      pop\n        /* \"#utility.yul\":12586:12704   */\n      pop\n        /* \"#utility.yul\":12535:12704   */\n      swap3\n      swap2\n      pop\n      pop\n      jump\t// out\n        /* \"#utility.yul\":12709:13004   */\n    tag_96:\n        /* \"#utility.yul\":12785:12789   */\n      0x00\n        /* \"#utility.yul\":12931:12960   */\n      tag_232\n        /* \"#utility.yul\":12956:12959   */\n      dup4\n        /* \"#utility.yul\":12950:12954   */\n      dup4\n        /* \"#utility.yul\":12931:12960   */\n      tag_95\n      jump\t// in\n    tag_232:\n        /* \"#utility.yul\":12923:12960   */\n      swap2\n      pop\n        /* \"#utility.yul\":12993:12996   */\n      dup3\n        /* \"#utility.yul\":12990:12991   */\n      0x02\n        /* \"#utility.yul\":12986:12997   */\n      mul\n        /* \"#utility.yul\":12980:12984   */\n      dup3\n        /* \"#utility.yul\":12977:12998   */\n      or\n        /* \"#utility.yul\":12969:12998   */\n      swap1\n      pop\n        /* \"#utility.yul\":12709:13004   */\n      swap3\n      swap2\n      pop\n      pop\n      jump\t// out\n        /* \"#utility.yul\":13009:14404   */\n    tag_31:\n        /* \"#utility.yul\":13126:13163   */\n      tag_234\n        /* \"#utility.yul\":13159:13162   */\n      dup3\n        /* \"#utility.yul\":13126:13163   */\n      tag_67\n      jump\t// in\n    tag_234:\n        /* \"#utility.yul\":13228:13246   */\n      0xffffffffffffffff\n        /* \"#utility.yul\":13220:13226   */\n      dup2\n        /* \"#utility.yul\":13217:13247   */\n      gt\n        /* \"#utility.yul\":13214:13270   */\n      iszero\n      tag_235\n      jumpi\n        /* \"#utility.yul\":13250:13268   */\n      tag_236\n      tag_55\n      jump\t// in\n    tag_236:\n        /* \"#utility.yul\":13214:13270   */\n    tag_235:\n        /* \"#utility.yul\":13294:13332   */\n      tag_237\n        /* \"#utility.yul\":13326:13330   */\n      dup3\n        /* \"#utility.yul\":13320:13331   */\n      sload\n        /* \"#utility.yul\":13294:13332   */\n      tag_37\n      jump\t// in\n    tag_237:\n        /* \"#utility.yul\":13379:13446   */\n      tag_238\n        /* \"#utility.yul\":13439:13445   */\n      dup3\n        /* \"#utility.yul\":13431:13437   */\n      dup3\n        /* \"#utility.yul\":13425:13429   */\n      dup6\n        /* \"#utility.yul\":13379:13446   */\n      tag_93\n      jump\t// in\n    tag_238:\n        /* \"#utility.yul\":13473:13474   */\n      0x00\n        /* \"#utility.yul\":13497:13501   */\n      0x20\n        /* \"#utility.yul\":13484:13501   */\n      swap1\n      pop\n        /* \"#utility.yul\":13529:13531   */\n      0x1f\n        /* \"#utility.yul\":13521:13527   */\n      dup4\n        /* \"#utility.yul\":13518:13532   */\n      gt\n        /* \"#utility.yul\":13546:13547   */\n      0x01\n        /* \"#utility.yul\":13541:14159   */\n      dup2\n      eq\n      tag_240\n      jumpi\n        /* \"#utility.yul\":14203:14204   */\n      0x00\n        /* \"#utility.yul\":14220:14226   */\n      dup5\n        /* \"#utility.yul\":14217:14294   */\n      iszero\n      tag_241\n      jumpi\n        /* \"#utility.yul\":14269:14278   */\n      dup3\n        /* \"#utility.yul\":14264:14267   */\n      dup8\n        /* \"#utility.yul\":14260:14279   */\n      add\n        /* \"#utility.yul\":14254:14280   */\n      mload\n        /* \"#utility.yul\":14245:14280   */\n      swap1\n      pop\n        /* \"#utility.yul\":14217:14294   */\n    tag_241:\n        /* \"#utility.yul\":14320:14387   */\n      tag_242\n        /* \"#utility.yul\":14380:14386   */\n      dup6\n        /* \"#utility.yul\":14373:14378   */\n      dup3\n        /* \"#utility.yul\":14320:14387   */\n      tag_96\n      jump\t// in\n    tag_242:\n        /* \"#utility.yul\":14314:14318   */\n      dup7\n        /* \"#utility.yul\":14307:14388   */\n      sstore\n        /* \"#utility.yul\":14176:14398   */\n      pop\n        /* \"#utility.yul\":13511:14398   */\n      jump(tag_239)\n        /* \"#utility.yul\":13541:14159   */\n    tag_240:\n        /* \"#utility.yul\":13593:13597   */\n      0x1f\n        /* \"#utility.yul\":13589:13598   */\n      not\n        /* \"#utility.yul\":13581:13587   */\n      dup5\n        /* \"#utility.yul\":13577:13599   */\n      and\n        /* \"#utility.yul\":13627:13664   */\n      tag_243\n        /* \"#utility.yul\":13659:13663   */\n      dup7\n        /* \"#utility.yul\":13627:13664   */\n      tag_82\n      jump\t// in\n    tag_243:\n        /* \"#utility.yul\":13686:13687   */\n      0x00\n        /* \"#utility.yul\":13700:13908   */\n    tag_244:\n        /* \"#utility.yul\":13714:13721   */\n      dup3\n        /* \"#utility.yul\":13711:13712   */\n      dup2\n        /* \"#utility.yul\":13708:13722   */\n      lt\n        /* \"#utility.yul\":13700:13908   */\n      iszero\n      tag_246\n      jumpi\n        /* \"#utility.yul\":13793:13802   */\n      dup5\n        /* \"#utility.yul\":13788:13791   */\n      dup10\n        /* \"#utility.yul\":13784:13803   */\n      add\n        /* \"#utility.yul\":13778:13804   */\n      mload\n        /* \"#utility.yul\":13770:13776   */\n      dup3\n        /* \"#utility.yul\":13763:13805   */\n      sstore\n        /* \"#utility.yul\":13844:13845   */\n      0x01\n        /* \"#utility.yul\":13836:13842   */\n      dup3\n        /* \"#utility.yul\":13832:13846   */\n      add\n        /* \"#utility.yul\":13822:13846   */\n      swap2\n      pop\n        /* \"#utility.yul\":13891:13893   */\n      0x20\n        /* \"#utility.yul\":13880:13889   */\n      dup6\n        /* \"#utility.yul\":13876:13894   */\n      add\n        /* \"#utility.yul\":13863:13894   */\n      swap5\n      pop\n        /* \"#utility.yul\":13737:13741   */\n      0x20\n        /* \"#utility.yul\":13734:13735   */\n      dup2\n        /* \"#utility.yul\":13730:13742   */\n      add\n        /* \"#utility.yul\":13725:13742   */\n      swap1\n      pop\n        /* \"#utility.yul\":13700:13908   */\n      jump(tag_244)\n    tag_246:\n        /* \"#utility.yul\":13936:13942   */\n      dup7\n        /* \"#utility.yul\":13927:13934   */\n      dup4\n        /* \"#utility.yul\":13924:13943   */\n      lt\n        /* \"#utility.yul\":13921:14100   */\n      iszero\n      tag_247\n      jumpi\n        /* \"#utility.yul\":13994:14003   */\n      dup5\n        /* \"#utility.yul\":13989:13992   */\n      dup10\n        /* \"#utility.yul\":13985:14004   */\n      add\n        /* \"#utility.yul\":13979:14005   */\n      mload\n        /* \"#utility.yul\":14037:14085   */\n      tag_248\n        /* \"#utility.yul\":14079:14083   */\n      0x1f\n        /* \"#utility.yul\":14071:14077   */\n      dup10\n        /* \"#utility.yul\":14067:14084   */\n      and\n        /* \"#utility.yul\":14056:14065   */\n      dup3\n        /* \"#utility.yul\":14037:14085   */\n      tag_95\n      jump\t// in\n    tag_248:\n        /* \"#utility.yul\":14029:14035   */\n      dup4\n        /* \"#utility.yul\":14022:14086   */\n      sstore\n        /* \"#utility.yul\":13944:14100   */\n      pop\n        /* \"#utility.yul\":13921:14100   */\n    tag_247:\n        /* \"#utility.yul\":14146:14147   */\n      0x01\n        /* \"#utility.yul\":14142:14143   */\n      0x02\n        /* \"#utility.yul\":14134:14140   */\n      dup9\n        /* \"#utility.yul\":14130:14144   */\n      mul\n        /* \"#utility.yul\":14126:14148   */\n      add\n        /* \"#utility.yul\":14120:14124   */\n      dup9\n        /* \"#utility.yul\":14113:14149   */\n      sstore\n        /* \"#utility.yul\":13548:14159   */\n      pop\n      pop\n      pop\n        /* \"#utility.yul\":13511:14398   */\n    tag_239:\n      pop\n        /* \"#utility.yul\":13101:14404   */\n      pop\n      pop\n      pop\n        /* \"#utility.yul\":13009:14404   */\n      pop\n      pop\n      jump\t// out\n\n    auxdata: 0xa26469706673582212208741f4d5e08e0c3a21d42774103eea959e005b5d232fd352c4e85eb86c9df48064736f6c634300081a0033\n}\n",
				"bytecode": {
					"linkReferences": {},
					"object": "60806040525f6002553480156012575f80fd5b50604051610b36380380610b36833981810160405281019060329190606f565b805f81905550506095565b5f80fd5b5f819050919050565b6051816041565b8114605a575f80fd5b50565b5f81519050606981604a565b92915050565b5f602082840312156081576080603d565b5b5f608c84828501605d565b91505092915050565b610a94806100a25f395ff3fe608060405234801561000f575f80fd5b506004361061004a575f3560e01c806337b1681e1461004e5780634ed026221461006a57806350b4471214610088578063949d225d146100b9575b5f80fd5b6100686004803603810190610063919061045a565b6100d7565b005b61007261015e565b60405161007f919061060e565b60405180910390f35b6100a2600480360381019061009d9190610658565b610253565b6040516100b09291906106da565b60405180910390f35b6100c1610308565b6040516100ce9190610708565b60405180910390f35b5f54600254106100e5575f80fd5b60025f8154809291906100f79061074e565b919050555060016040518060400160405280600254815260200183815250908060018154018082558091505060019003905f5260205f2090600202015f909190919091505f820151815f01556020820151816001019081610158919061098f565b50505050565b60606001805480602002602001604051908101604052809291908181526020015f905b8282101561024a578382905f5260205f2090600202016040518060400160405290815f82015481526020016001820180546101bb906107c2565b80601f01602080910402602001604051908101604052809291908181526020018280546101e7906107c2565b80156102325780601f1061020957610100808354040283529160200191610232565b820191905f5260205f20905b81548152906001019060200180831161021557829003601f168201915b50505050508152505081526020019060010190610181565b50505050905090565b60018181548110610262575f80fd5b905f5260205f2090600202015f91509050805f015490806001018054610287906107c2565b80601f01602080910402602001604051908101604052809291908181526020018280546102b3906107c2565b80156102fe5780601f106102d5576101008083540402835291602001916102fe565b820191905f5260205f20905b8154815290600101906020018083116102e157829003601f168201915b5050505050905082565b5f5481565b5f604051905090565b5f80fd5b5f80fd5b5f80fd5b5f80fd5b5f601f19601f8301169050919050565b7f4e487b71000000000000000000000000000000000000000000000000000000005f52604160045260245ffd5b61036c82610326565b810181811067ffffffffffffffff8211171561038b5761038a610336565b5b80604052505050565b5f61039d61030d565b90506103a98282610363565b919050565b5f67ffffffffffffffff8211156103c8576103c7610336565b5b6103d182610326565b9050602081019050919050565b828183375f83830152505050565b5f6103fe6103f9846103ae565b610394565b90508281526020810184848401111561041a57610419610322565b5b6104258482856103de565b509392505050565b5f82601f8301126104415761044061031e565b5b81356104518482602086016103ec565b91505092915050565b5f6020828403121561046f5761046e610316565b5b5f82013567ffffffffffffffff81111561048c5761048b61031a565b5b6104988482850161042d565b91505092915050565b5f81519050919050565b5f82825260208201905092915050565b5f819050602082019050919050565b5f819050919050565b6104dc816104ca565b82525050565b5f81519050919050565b5f82825260208201905092915050565b8281835e5f83830152505050565b5f610514826104e2565b61051e81856104ec565b935061052e8185602086016104fc565b61053781610326565b840191505092915050565b5f604083015f8301516105575f8601826104d3565b506020830151848203602086015261056f828261050a565b9150508091505092915050565b5f6105878383610542565b905092915050565b5f602082019050919050565b5f6105a5826104a1565b6105af81856104ab565b9350836020820285016105c1856104bb565b805f5b858110156105fc57848403895281516105dd858261057c565b94506105e88361058f565b925060208a019950506001810190506105c4565b50829750879550505050505092915050565b5f6020820190508181035f830152610626818461059b565b905092915050565b610637816104ca565b8114610641575f80fd5b50565b5f813590506106528161062e565b92915050565b5f6020828403121561066d5761066c610316565b5b5f61067a84828501610644565b91505092915050565b61068c816104ca565b82525050565b5f82825260208201905092915050565b5f6106ac826104e2565b6106b68185610692565b93506106c68185602086016104fc565b6106cf81610326565b840191505092915050565b5f6040820190506106ed5f830185610683565b81810360208301526106ff81846106a2565b90509392505050565b5f60208201905061071b5f830184610683565b92915050565b7f4e487b71000000000000000000000000000000000000000000000000000000005f52601160045260245ffd5b5f610758826104ca565b91507fffffffffffffffffffffffffffffffffffffffffffffffffffffffffffffffff820361078a57610789610721565b5b600182019050919050565b7f4e487b71000000000000000000000000000000000000000000000000000000005f52602260045260245ffd5b5f60028204905060018216806107d957607f821691505b6020821081036107ec576107eb610795565b5b50919050565b5f819050815f5260205f209050919050565b5f6020601f8301049050919050565b5f82821b905092915050565b5f6008830261084e7fffffffffffffffffffffffffffffffffffffffffffffffffffffffffffffffff82610813565b6108588683610813565b95508019841693508086168417925050509392505050565b5f819050919050565b5f61089361088e610889846104ca565b610870565b6104ca565b9050919050565b5f819050919050565b6108ac83610879565b6108c06108b88261089a565b84845461081f565b825550505050565b5f90565b6108d46108c8565b6108df8184846108a3565b505050565b5b81811015610902576108f75f826108cc565b6001810190506108e5565b5050565b601f82111561094757610918816107f2565b61092184610804565b81016020851015610930578190505b61094461093c85610804565b8301826108e4565b50505b505050565b5f82821c905092915050565b5f6109675f198460080261094c565b1980831691505092915050565b5f61097f8383610958565b9150826002028217905092915050565b610998826104e2565b67ffffffffffffffff8111156109b1576109b0610336565b5b6109bb82546107c2565b6109c6828285610906565b5f60209050601f8311600181146109f7575f84156109e5578287015190505b6109ef8582610974565b865550610a56565b601f198416610a05866107f2565b5f5b82811015610a2c57848901518255600182019150602085019450602081019050610a07565b86831015610a495784890151610a45601f891682610958565b8355505b6001600288020188555050505b50505050505056fea26469706673582212208741f4d5e08e0c3a21d42774103eea959e005b5d232fd352c4e85eb86c9df48064736f6c634300081a0033",
					"opcodes": "PUSH1 0x80 PUSH1 0x40 MSTORE PUSH0 PUSH1 0x2 SSTORE CALLVALUE DUP1 ISZERO PUSH1 0x12 JUMPI PUSH0 DUP1 REVERT JUMPDEST POP PUSH1 0x40 MLOAD PUSH2 0xB36 CODESIZE SUB DUP1 PUSH2 0xB36 DUP4 CODECOPY DUP2 DUP2 ADD PUSH1 0x40 MSTORE DUP2 ADD SWAP1 PUSH1 0x32 SWAP2 SWAP1 PUSH1 0x6F JUMP JUMPDEST DUP1 PUSH0 DUP2 SWAP1 SSTORE POP POP PUSH1 0x95 JUMP JUMPDEST PUSH0 DUP1 REVERT JUMPDEST PUSH0 DUP2 SWAP1 POP SWAP2 SWAP1 POP JUMP JUMPDEST PUSH1 0x51 DUP2 PUSH1 0x41 JUMP JUMPDEST DUP2 EQ PUSH1 0x5A JUMPI PUSH0 DUP1 REVERT JUMPDEST POP JUMP JUMPDEST PUSH0 DUP2 MLOAD SWAP1 POP PUSH1 0x69 DUP2 PUSH1 0x4A JUMP JUMPDEST SWAP3 SWAP2 POP POP JUMP JUMPDEST PUSH0 PUSH1 0x20 DUP3 DUP5 SUB SLT ISZERO PUSH1 0x81 JUMPI PUSH1 0x80 PUSH1 0x3D JUMP JUMPDEST JUMPDEST PUSH0 PUSH1 0x8C DUP5 DUP3 DUP6 ADD PUSH1 0x5D JUMP JUMPDEST SWAP2 POP POP SWAP3 SWAP2 POP POP JUMP JUMPDEST PUSH2 0xA94 DUP1 PUSH2 0xA2 PUSH0 CODECOPY PUSH0 RETURN INVALID PUSH1 0x80 PUSH1 0x40 MSTORE CALLVALUE DUP1 ISZERO PUSH2 0xF JUMPI PUSH0 DUP1 REVERT JUMPDEST POP PUSH1 0x4 CALLDATASIZE LT PUSH2 0x4A JUMPI PUSH0 CALLDATALOAD PUSH1 0xE0 SHR DUP1 PUSH4 0x37B1681E EQ PUSH2 0x4E JUMPI DUP1 PUSH4 0x4ED02622 EQ PUSH2 0x6A JUMPI DUP1 PUSH4 0x50B44712 EQ PUSH2 0x88 JUMPI DUP1 PUSH4 0x949D225D EQ PUSH2 0xB9 JUMPI JUMPDEST PUSH0 DUP1 REVERT JUMPDEST PUSH2 0x68 PUSH1 0x4 DUP1 CALLDATASIZE SUB DUP2 ADD SWAP1 PUSH2 0x63 SWAP2 SWAP1 PUSH2 0x45A JUMP JUMPDEST PUSH2 0xD7 JUMP JUMPDEST STOP JUMPDEST PUSH2 0x72 PUSH2 0x15E JUMP JUMPDEST PUSH1 0x40 MLOAD PUSH2 0x7F SWAP2 SWAP1 PUSH2 0x60E JUMP JUMPDEST PUSH1 0x40 MLOAD DUP1 SWAP2 SUB SWAP1 RETURN JUMPDEST PUSH2 0xA2 PUSH1 0x4 DUP1 CALLDATASIZE SUB DUP2 ADD SWAP1 PUSH2 0x9D SWAP2 SWAP1 PUSH2 0x658 JUMP JUMPDEST PUSH2 0x253 JUMP JUMPDEST PUSH1 0x40 MLOAD PUSH2 0xB0 SWAP3 SWAP2 SWAP1 PUSH2 0x6DA JUMP JUMPDEST PUSH1 0x40 MLOAD DUP1 SWAP2 SUB SWAP1 RETURN JUMPDEST PUSH2 0xC1 PUSH2 0x308 JUMP JUMPDEST PUSH1 0x40 MLOAD PUSH2 0xCE SWAP2 SWAP1 PUSH2 0x708 JUMP JUMPDEST PUSH1 0x40 MLOAD DUP1 SWAP2 SUB SWAP1 RETURN JUMPDEST PUSH0 SLOAD PUSH1 0x2 SLOAD LT PUSH2 0xE5 JUMPI PUSH0 DUP1 REVERT JUMPDEST PUSH1 0x2 PUSH0 DUP2 SLOAD DUP1 SWAP3 SWAP2 SWAP1 PUSH2 0xF7 SWAP1 PUSH2 0x74E JUMP JUMPDEST SWAP2 SWAP1 POP SSTORE POP PUSH1 0x1 PUSH1 0x40 MLOAD DUP1 PUSH1 0x40 ADD PUSH1 0x40 MSTORE DUP1 PUSH1 0x2 SLOAD DUP2 MSTORE PUSH1 0x20 ADD DUP4 DUP2 MSTORE POP SWAP1 DUP1 PUSH1 0x1 DUP2 SLOAD ADD DUP1 DUP3 SSTORE DUP1 SWAP2 POP POP PUSH1 0x1 SWAP1 SUB SWAP1 PUSH0 MSTORE PUSH1 0x20 PUSH0 KECCAK256 SWAP1 PUSH1 0x2 MUL ADD PUSH0 SWAP1 SWAP2 SWAP1 SWAP2 SWAP1 SWAP2 POP PUSH0 DUP3 ADD MLOAD DUP2 PUSH0 ADD SSTORE PUSH1 0x20 DUP3 ADD MLOAD DUP2 PUSH1 0x1 ADD SWAP1 DUP2 PUSH2 0x158 SWAP2 SWAP1 PUSH2 0x98F JUMP JUMPDEST POP POP POP POP JUMP JUMPDEST PUSH1 0x60 PUSH1 0x1 DUP1 SLOAD DUP1 PUSH1 0x20 MUL PUSH1 0x20 ADD PUSH1 0x40 MLOAD SWAP1 DUP2 ADD PUSH1 0x40 MSTORE DUP1 SWAP3 SWAP2 SWAP1 DUP2 DUP2 MSTORE PUSH1 0x20 ADD PUSH0 SWAP1 JUMPDEST DUP3 DUP3 LT ISZERO PUSH2 0x24A JUMPI DUP4 DUP3 SWAP1 PUSH0 MSTORE PUSH1 0x20 PUSH0 KECCAK256 SWAP1 PUSH1 0x2 MUL ADD PUSH1 0x40 MLOAD DUP1 PUSH1 0x40 ADD PUSH1 0x40 MSTORE SWAP1 DUP2 PUSH0 DUP3 ADD SLOAD DUP2 MSTORE PUSH1 0x20 ADD PUSH1 0x1 DUP3 ADD DUP1 SLOAD PUSH2 0x1BB SWAP1 PUSH2 0x7C2 JUMP JUMPDEST DUP1 PUSH1 0x1F ADD PUSH1 0x20 DUP1 SWAP2 DIV MUL PUSH1 0x20 ADD PUSH1 0x40 MLOAD SWAP1 DUP2 ADD PUSH1 0x40 MSTORE DUP1 SWAP3 SWAP2 SWAP1 DUP2 DUP2 MSTORE PUSH1 0x20 ADD DUP3 DUP1 SLOAD PUSH2 0x1E7 SWAP1 PUSH2 0x7C2 JUMP JUMPDEST DUP1 ISZERO PUSH2 0x232 JUMPI DUP1 PUSH1 0x1F LT PUSH2 0x209 JUMPI PUSH2 0x100 DUP1 DUP4 SLOAD DIV MUL DUP4 MSTORE SWAP2 PUSH1 0x20 ADD SWAP2 PUSH2 0x232 JUMP JUMPDEST DUP3 ADD SWAP2 SWAP1 PUSH0 MSTORE PUSH1 0x20 PUSH0 KECCAK256 SWAP1 JUMPDEST DUP2 SLOAD DUP2 MSTORE SWAP1 PUSH1 0x1 ADD SWAP1 PUSH1 0x20 ADD DUP1 DUP4 GT PUSH2 0x215 JUMPI DUP3 SWAP1 SUB PUSH1 0x1F AND DUP3 ADD SWAP2 JUMPDEST POP POP POP POP POP DUP2 MSTORE POP POP DUP2 MSTORE PUSH1 0x20 ADD SWAP1 PUSH1 0x1 ADD SWAP1 PUSH2 0x181 JUMP JUMPDEST POP POP POP POP SWAP1 POP SWAP1 JUMP JUMPDEST PUSH1 0x1 DUP2 DUP2 SLOAD DUP2 LT PUSH2 0x262 JUMPI PUSH0 DUP1 REVERT JUMPDEST SWAP1 PUSH0 MSTORE PUSH1 0x20 PUSH0 KECCAK256 SWAP1 PUSH1 0x2 MUL ADD PUSH0 SWAP2 POP SWAP1 POP DUP1 PUSH0 ADD SLOAD SWAP1 DUP1 PUSH1 0x1 ADD DUP1 SLOAD PUSH2 0x287 SWAP1 PUSH2 0x7C2 JUMP JUMPDEST DUP1 PUSH1 0x1F ADD PUSH1 0x20 DUP1 SWAP2 DIV MUL PUSH1 0x20 ADD PUSH1 0x40 MLOAD SWAP1 DUP2 ADD PUSH1 0x40 MSTORE DUP1 SWAP3 SWAP2 SWAP1 DUP2 DUP2 MSTORE PUSH1 0x20 ADD DUP3 DUP1 SLOAD PUSH2 0x2B3 SWAP1 PUSH2 0x7C2 JUMP JUMPDEST DUP1 ISZERO PUSH2 0x2FE JUMPI DUP1 PUSH1 0x1F LT PUSH2 0x2D5 JUMPI PUSH2 0x100 DUP1 DUP4 SLOAD DIV MUL DUP4 MSTORE SWAP2 PUSH1 0x20 ADD SWAP2 PUSH2 0x2FE JUMP JUMPDEST DUP3 ADD SWAP2 SWAP1 PUSH0 MSTORE PUSH1 0x20 PUSH0 KECCAK256 SWAP1 JUMPDEST DUP2 SLOAD DUP2 MSTORE SWAP1 PUSH1 0x1 ADD SWAP1 PUSH1 0x20 ADD DUP1 DUP4 GT PUSH2 0x2E1 JUMPI DUP3 SWAP1 SUB PUSH1 0x1F AND DUP3 ADD SWAP2 JUMPDEST POP POP POP POP POP SWAP1 POP DUP3 JUMP JUMPDEST PUSH0 SLOAD DUP2 JUMP JUMPDEST PUSH0 PUSH1 0x40 MLOAD SWAP1 POP SWAP1 JUMP JUMPDEST PUSH0 DUP1 REVERT JUMPDEST PUSH0 DUP1 REVERT JUMPDEST PUSH0 DUP1 REVERT JUMPDEST PUSH0 DUP1 REVERT JUMPDEST PUSH0 PUSH1 0x1F NOT PUSH1 0x1F DUP4 ADD AND SWAP1 POP SWAP2 SWAP1 POP JUMP JUMPDEST PUSH32 0x4E487B7100000000000000000000000000000000000000000000000000000000 PUSH0 MSTORE PUSH1 0x41 PUSH1 0x4 MSTORE PUSH1 0x24 PUSH0 REVERT JUMPDEST PUSH2 0x36C DUP3 PUSH2 0x326 JUMP JUMPDEST DUP2 ADD DUP2 DUP2 LT PUSH8 0xFFFFFFFFFFFFFFFF DUP3 GT OR ISZERO PUSH2 0x38B JUMPI PUSH2 0x38A PUSH2 0x336 JUMP JUMPDEST JUMPDEST DUP1 PUSH1 0x40 MSTORE POP POP POP JUMP JUMPDEST PUSH0 PUSH2 0x39D PUSH2 0x30D JUMP JUMPDEST SWAP1 POP PUSH2 0x3A9 DUP3 DUP3 PUSH2 0x363 JUMP JUMPDEST SWAP2 SWAP1 POP JUMP JUMPDEST PUSH0 PUSH8 0xFFFFFFFFFFFFFFFF DUP3 GT ISZERO PUSH2 0x3C8 JUMPI PUSH2 0x3C7 PUSH2 0x336 JUMP JUMPDEST JUMPDEST PUSH2 0x3D1 DUP3 PUSH2 0x326 JUMP JUMPDEST SWAP1 POP PUSH1 0x20 DUP2 ADD SWAP1 POP SWAP2 SWAP1 POP JUMP JUMPDEST DUP3 DUP2 DUP4 CALLDATACOPY PUSH0 DUP4 DUP4 ADD MSTORE POP POP POP JUMP JUMPDEST PUSH0 PUSH2 0x3FE PUSH2 0x3F9 DUP5 PUSH2 0x3AE JUMP JUMPDEST PUSH2 0x394 JUMP JUMPDEST SWAP1 POP DUP3 DUP2 MSTORE PUSH1 0x20 DUP2 ADD DUP5 DUP5 DUP5 ADD GT ISZERO PUSH2 0x41A JUMPI PUSH2 0x419 PUSH2 0x322 JUMP JUMPDEST JUMPDEST PUSH2 0x425 DUP5 DUP3 DUP6 PUSH2 0x3DE JUMP JUMPDEST POP SWAP4 SWAP3 POP POP POP JUMP JUMPDEST PUSH0 DUP3 PUSH1 0x1F DUP4 ADD SLT PUSH2 0x441 JUMPI PUSH2 0x440 PUSH2 0x31E JUMP JUMPDEST JUMPDEST DUP2 CALLDATALOAD PUSH2 0x451 DUP5 DUP3 PUSH1 0x20 DUP7 ADD PUSH2 0x3EC JUMP JUMPDEST SWAP2 POP POP SWAP3 SWAP2 POP POP JUMP JUMPDEST PUSH0 PUSH1 0x20 DUP3 DUP5 SUB SLT ISZERO PUSH2 0x46F JUMPI PUSH2 0x46E PUSH2 0x316 JUMP JUMPDEST JUMPDEST PUSH0 DUP3 ADD CALLDATALOAD PUSH8 0xFFFFFFFFFFFFFFFF DUP2 GT ISZERO PUSH2 0x48C JUMPI PUSH2 0x48B PUSH2 0x31A JUMP JUMPDEST JUMPDEST PUSH2 0x498 DUP5 DUP3 DUP6 ADD PUSH2 0x42D JUMP JUMPDEST SWAP2 POP POP SWAP3 SWAP2 POP POP JUMP JUMPDEST PUSH0 DUP2 MLOAD SWAP1 POP SWAP2 SWAP1 POP JUMP JUMPDEST PUSH0 DUP3 DUP3 MSTORE PUSH1 0x20 DUP3 ADD SWAP1 POP SWAP3 SWAP2 POP POP JUMP JUMPDEST PUSH0 DUP2 SWAP1 POP PUSH1 0x20 DUP3 ADD SWAP1 POP SWAP2 SWAP1 POP JUMP JUMPDEST PUSH0 DUP2 SWAP1 POP SWAP2 SWAP1 POP JUMP JUMPDEST PUSH2 0x4DC DUP2 PUSH2 0x4CA JUMP JUMPDEST DUP3 MSTORE POP POP JUMP JUMPDEST PUSH0 DUP2 MLOAD SWAP1 POP SWAP2 SWAP1 POP JUMP JUMPDEST PUSH0 DUP3 DUP3 MSTORE PUSH1 0x20 DUP3 ADD SWAP1 POP SWAP3 SWAP2 POP POP JUMP JUMPDEST DUP3 DUP2 DUP4 MCOPY PUSH0 DUP4 DUP4 ADD MSTORE POP POP POP JUMP JUMPDEST PUSH0 PUSH2 0x514 DUP3 PUSH2 0x4E2 JUMP JUMPDEST PUSH2 0x51E DUP2 DUP6 PUSH2 0x4EC JUMP JUMPDEST SWAP4 POP PUSH2 0x52E DUP2 DUP6 PUSH1 0x20 DUP7 ADD PUSH2 0x4FC JUMP JUMPDEST PUSH2 0x537 DUP2 PUSH2 0x326 JUMP JUMPDEST DUP5 ADD SWAP2 POP POP SWAP3 SWAP2 POP POP JUMP JUMPDEST PUSH0 PUSH1 0x40 DUP4 ADD PUSH0 DUP4 ADD MLOAD PUSH2 0x557 PUSH0 DUP7 ADD DUP3 PUSH2 0x4D3 JUMP JUMPDEST POP PUSH1 0x20 DUP4 ADD MLOAD DUP5 DUP3 SUB PUSH1 0x20 DUP7 ADD MSTORE PUSH2 0x56F DUP3 DUP3 PUSH2 0x50A JUMP JUMPDEST SWAP2 POP POP DUP1 SWAP2 POP POP SWAP3 SWAP2 POP POP JUMP JUMPDEST PUSH0 PUSH2 0x587 DUP4 DUP4 PUSH2 0x542 JUMP JUMPDEST SWAP1 POP SWAP3 SWAP2 POP POP JUMP JUMPDEST PUSH0 PUSH1 0x20 DUP3 ADD SWAP1 POP SWAP2 SWAP1 POP JUMP JUMPDEST PUSH0 PUSH2 0x5A5 DUP3 PUSH2 0x4A1 JUMP JUMPDEST PUSH2 0x5AF DUP2 DUP6 PUSH2 0x4AB JUMP JUMPDEST SWAP4 POP DUP4 PUSH1 0x20 DUP3 MUL DUP6 ADD PUSH2 0x5C1 DUP6 PUSH2 0x4BB JUMP JUMPDEST DUP1 PUSH0 JUMPDEST DUP6 DUP2 LT ISZERO PUSH2 0x5FC JUMPI DUP5 DUP5 SUB DUP10 MSTORE DUP2 MLOAD PUSH2 0x5DD DUP6 DUP3 PUSH2 0x57C JUMP JUMPDEST SWAP5 POP PUSH2 0x5E8 DUP4 PUSH2 0x58F JUMP JUMPDEST SWAP3 POP PUSH1 0x20 DUP11 ADD SWAP10 POP POP PUSH1 0x1 DUP2 ADD SWAP1 POP PUSH2 0x5C4 JUMP JUMPDEST POP DUP3 SWAP8 POP DUP8 SWAP6 POP POP POP POP POP POP SWAP3 SWAP2 POP POP JUMP JUMPDEST PUSH0 PUSH1 0x20 DUP3 ADD SWAP1 POP DUP2 DUP2 SUB PUSH0 DUP4 ADD MSTORE PUSH2 0x626 DUP2 DUP5 PUSH2 0x59B JUMP JUMPDEST SWAP1 POP SWAP3 SWAP2 POP POP JUMP JUMPDEST PUSH2 0x637 DUP2 PUSH2 0x4CA JUMP JUMPDEST DUP2 EQ PUSH2 0x641 JUMPI PUSH0 DUP1 REVERT JUMPDEST POP JUMP JUMPDEST PUSH0 DUP2 CALLDATALOAD SWAP1 POP PUSH2 0x652 DUP2 PUSH2 0x62E JUMP JUMPDEST SWAP3 SWAP2 POP POP JUMP JUMPDEST PUSH0 PUSH1 0x20 DUP3 DUP5 SUB SLT ISZERO PUSH2 0x66D JUMPI PUSH2 0x66C PUSH2 0x316 JUMP JUMPDEST JUMPDEST PUSH0 PUSH2 0x67A DUP5 DUP3 DUP6 ADD PUSH2 0x644 JUMP JUMPDEST SWAP2 POP POP SWAP3 SWAP2 POP POP JUMP JUMPDEST PUSH2 0x68C DUP2 PUSH2 0x4CA JUMP JUMPDEST DUP3 MSTORE POP POP JUMP JUMPDEST PUSH0 DUP3 DUP3 MSTORE PUSH1 0x20 DUP3 ADD SWAP1 POP SWAP3 SWAP2 POP POP JUMP JUMPDEST PUSH0 PUSH2 0x6AC DUP3 PUSH2 0x4E2 JUMP JUMPDEST PUSH2 0x6B6 DUP2 DUP6 PUSH2 0x692 JUMP JUMPDEST SWAP4 POP PUSH2 0x6C6 DUP2 DUP6 PUSH1 0x20 DUP7 ADD PUSH2 0x4FC JUMP JUMPDEST PUSH2 0x6CF DUP2 PUSH2 0x326 JUMP JUMPDEST DUP5 ADD SWAP2 POP POP SWAP3 SWAP2 POP POP JUMP JUMPDEST PUSH0 PUSH1 0x40 DUP3 ADD SWAP1 POP PUSH2 0x6ED PUSH0 DUP4 ADD DUP6 PUSH2 0x683 JUMP JUMPDEST DUP2 DUP2 SUB PUSH1 0x20 DUP4 ADD MSTORE PUSH2 0x6FF DUP2 DUP5 PUSH2 0x6A2 JUMP JUMPDEST SWAP1 POP SWAP4 SWAP3 POP POP POP JUMP JUMPDEST PUSH0 PUSH1 0x20 DUP3 ADD SWAP1 POP PUSH2 0x71B PUSH0 DUP4 ADD DUP5 PUSH2 0x683 JUMP JUMPDEST SWAP3 SWAP2 POP POP JUMP JUMPDEST PUSH32 0x4E487B7100000000000000000000000000000000000000000000000000000000 PUSH0 MSTORE PUSH1 0x11 PUSH1 0x4 MSTORE PUSH1 0x24 PUSH0 REVERT JUMPDEST PUSH0 PUSH2 0x758 DUP3 PUSH2 0x4CA JUMP JUMPDEST SWAP2 POP PUSH32 0xFFFFFFFFFFFFFFFFFFFFFFFFFFFFFFFFFFFFFFFFFFFFFFFFFFFFFFFFFFFFFFFF DUP3 SUB PUSH2 0x78A JUMPI PUSH2 0x789 PUSH2 0x721 JUMP JUMPDEST JUMPDEST PUSH1 0x1 DUP3 ADD SWAP1 POP SWAP2 SWAP1 POP JUMP JUMPDEST PUSH32 0x4E487B7100000000000000000000000000000000000000000000000000000000 PUSH0 MSTORE PUSH1 0x22 PUSH1 0x4 MSTORE PUSH1 0x24 PUSH0 REVERT JUMPDEST PUSH0 PUSH1 0x2 DUP3 DIV SWAP1 POP PUSH1 0x1 DUP3 AND DUP1 PUSH2 0x7D9 JUMPI PUSH1 0x7F DUP3 AND SWAP2 POP JUMPDEST PUSH1 0x20 DUP3 LT DUP2 SUB PUSH2 0x7EC JUMPI PUSH2 0x7EB PUSH2 0x795 JUMP JUMPDEST JUMPDEST POP SWAP2 SWAP1 POP JUMP JUMPDEST PUSH0 DUP2 SWAP1 POP DUP2 PUSH0 MSTORE PUSH1 0x20 PUSH0 KECCAK256 SWAP1 POP SWAP2 SWAP1 POP JUMP JUMPDEST PUSH0 PUSH1 0x20 PUSH1 0x1F DUP4 ADD DIV SWAP1 POP SWAP2 SWAP1 POP JUMP JUMPDEST PUSH0 DUP3 DUP3 SHL SWAP1 POP SWAP3 SWAP2 POP POP JUMP JUMPDEST PUSH0 PUSH1 0x8 DUP4 MUL PUSH2 0x84E PUSH32 0xFFFFFFFFFFFFFFFFFFFFFFFFFFFFFFFFFFFFFFFFFFFFFFFFFFFFFFFFFFFFFFFF DUP3 PUSH2 0x813 JUMP JUMPDEST PUSH2 0x858 DUP7 DUP4 PUSH2 0x813 JUMP JUMPDEST SWAP6 POP DUP1 NOT DUP5 AND SWAP4 POP DUP1 DUP7 AND DUP5 OR SWAP3 POP POP POP SWAP4 SWAP3 POP POP POP JUMP JUMPDEST PUSH0 DUP2 SWAP1 POP SWAP2 SWAP1 POP JUMP JUMPDEST PUSH0 PUSH2 0x893 PUSH2 0x88E PUSH2 0x889 DUP5 PUSH2 0x4CA JUMP JUMPDEST PUSH2 0x870 JUMP JUMPDEST PUSH2 0x4CA JUMP JUMPDEST SWAP1 POP SWAP2 SWAP1 POP JUMP JUMPDEST PUSH0 DUP2 SWAP1 POP SWAP2 SWAP1 POP JUMP JUMPDEST PUSH2 0x8AC DUP4 PUSH2 0x879 JUMP JUMPDEST PUSH2 0x8C0 PUSH2 0x8B8 DUP3 PUSH2 0x89A JUMP JUMPDEST DUP5 DUP5 SLOAD PUSH2 0x81F JUMP JUMPDEST DUP3 SSTORE POP POP POP POP JUMP JUMPDEST PUSH0 SWAP1 JUMP JUMPDEST PUSH2 0x8D4 PUSH2 0x8C8 JUMP JUMPDEST PUSH2 0x8DF DUP2 DUP5 DUP5 PUSH2 0x8A3 JUMP JUMPDEST POP POP POP JUMP JUMPDEST JUMPDEST DUP2 DUP2 LT ISZERO PUSH2 0x902 JUMPI PUSH2 0x8F7 PUSH0 DUP3 PUSH2 0x8CC JUMP JUMPDEST PUSH1 0x1 DUP2 ADD SWAP1 POP PUSH2 0x8E5 JUMP JUMPDEST POP POP JUMP JUMPDEST PUSH1 0x1F DUP3 GT ISZERO PUSH2 0x947 JUMPI PUSH2 0x918 DUP2 PUSH2 0x7F2 JUMP JUMPDEST PUSH2 0x921 DUP5 PUSH2 0x804 JUMP JUMPDEST DUP2 ADD PUSH1 0x20 DUP6 LT ISZERO PUSH2 0x930 JUMPI DUP2 SWAP1 POP JUMPDEST PUSH2 0x944 PUSH2 0x93C DUP6 PUSH2 0x804 JUMP JUMPDEST DUP4 ADD DUP3 PUSH2 0x8E4 JUMP JUMPDEST POP POP JUMPDEST POP POP POP JUMP JUMPDEST PUSH0 DUP3 DUP3 SHR SWAP1 POP SWAP3 SWAP2 POP POP JUMP JUMPDEST PUSH0 PUSH2 0x967 PUSH0 NOT DUP5 PUSH1 0x8 MUL PUSH2 0x94C JUMP JUMPDEST NOT DUP1 DUP4 AND SWAP2 POP POP SWAP3 SWAP2 POP POP JUMP JUMPDEST PUSH0 PUSH2 0x97F DUP4 DUP4 PUSH2 0x958 JUMP JUMPDEST SWAP2 POP DUP3 PUSH1 0x2 MUL DUP3 OR SWAP1 POP SWAP3 SWAP2 POP POP JUMP JUMPDEST PUSH2 0x998 DUP3 PUSH2 0x4E2 JUMP JUMPDEST PUSH8 0xFFFFFFFFFFFFFFFF DUP2 GT ISZERO PUSH2 0x9B1 JUMPI PUSH2 0x9B0 PUSH2 0x336 JUMP JUMPDEST JUMPDEST PUSH2 0x9BB DUP3 SLOAD PUSH2 0x7C2 JUMP JUMPDEST PUSH2 0x9C6 DUP3 DUP3 DUP6 PUSH2 0x906 JUMP JUMPDEST PUSH0 PUSH1 0x20 SWAP1 POP PUSH1 0x1F DUP4 GT PUSH1 0x1 DUP2 EQ PUSH2 0x9F7 JUMPI PUSH0 DUP5 ISZERO PUSH2 0x9E5 JUMPI DUP3 DUP8 ADD MLOAD SWAP1 POP JUMPDEST PUSH2 0x9EF DUP6 DUP3 PUSH2 0x974 JUMP JUMPDEST DUP7 SSTORE POP PUSH2 0xA56 JUMP JUMPDEST PUSH1 0x1F NOT DUP5 AND PUSH2 0xA05 DUP7 PUSH2 0x7F2 JUMP JUMPDEST PUSH0 JUMPDEST DUP3 DUP2 LT ISZERO PUSH2 0xA2C JUMPI DUP5 DUP10 ADD MLOAD DUP3 SSTORE PUSH1 0x1 DUP3 ADD SWAP2 POP PUSH1 0x20 DUP6 ADD SWAP5 POP PUSH1 0x20 DUP2 ADD SWAP1 POP PUSH2 0xA07 JUMP JUMPDEST DUP7 DUP4 LT ISZERO PUSH2 0xA49 JUMPI DUP5 DUP10 ADD MLOAD PUSH2 0xA45 PUSH1 0x1F DUP10 AND DUP3 PUSH2 0x958 JUMP JUMPDEST DUP4 SSTORE POP JUMPDEST PUSH1 0x1 PUSH1 0x2 DUP9 MUL ADD DUP9 SSTORE POP POP POP JUMPDEST POP POP POP POP POP POP JUMP INVALID LOG2 PUSH5 0x6970667358 0x22 SLT KECCAK256 DUP8 COINBASE DELEGATECALL 0xD5 0xE0 DUP15 0xC GASPRICE 0x21 0xD4 0x27 PUSH21 0x103EEA959E005B5D232FD352C4E85EB86C9DF48064 PUSH20 0x6F6C634300081A00330000000000000000000000 "
				},
				"gasEstimates": {
					"creation": {
						"codeDepositCost": "541600",
						"executionCost": "infinite",
						"totalCost": "infinite"
					},
					"external": {
						"fillTickets(string)": "infinite",
						"getTickets()": "infinite",
						"size()": "2468",
						"tickets(uint256)": "infinite"
					}
				},
				"methodIdentifiers": {
					"fillTickets(string)": "37b1681e",
					"getTickets()": "4ed02622",
					"size()": "949d225d",
					"tickets(uint256)": "50b44712"
				}
			},
			"storageLayout": {
				"storage": [
					{
						"astId": 8,
						"contract": "Day04/d4p1.sol:d4p1",
						"label": "size",
						"offset": 0,
						"slot": "0",
						"type": "t_uint256"
					},
					{
						"astId": 12,
						"contract": "Day04/d4p1.sol:d4p1",
						"label": "tickets",
						"offset": 0,
						"slot": "1",
						"type": "t_array(t_struct(ticket)6_storage)dyn_storage"
					},
					{
						"astId": 15,
						"contract": "Day04/d4p1.sol:d4p1",
						"label": "ticketCount",
						"offset": 0,
						"slot": "2",
						"type": "t_uint256"
					}
				],
				"types": {
					"t_array(t_struct(ticket)6_storage)dyn_storage": {
						"base": "t_struct(ticket)6_storage",
						"encoding": "dynamic_array",
						"label": "struct d4p1.ticket[]",
						"numberOfBytes": "32"
					},
					"t_string_storage": {
						"encoding": "bytes",
						"label": "string",
						"numberOfBytes": "32"
					},
					"t_struct(ticket)6_storage": {
						"encoding": "inplace",
						"label": "struct d4p1.ticket",
						"members": [
							{
								"astId": 3,
								"contract": "Day04/d4p1.sol:d4p1",
								"label": "index",
								"offset": 0,
								"slot": "0",
								"type": "t_uint256"
							},
							{
								"astId": 5,
								"contract": "Day04/d4p1.sol:d4p1",
								"label": "name",
								"offset": 0,
								"slot": "1",
								"type": "t_string_storage"
							}
						],
						"numberOfBytes": "64"
					},
					"t_uint256": {
						"encoding": "inplace",
						"label": "uint256",
						"numberOfBytes": "32"
					}
				}
			},
			"userdoc": {
				"kind": "user",
				"methods": {},
				"version": 1
			}
		}
	}
}