{
	"Day03/d3p2.sol": {
		"MaxMinCalculator": {
			"abi": [
				{
					"inputs": [
						{
							"internalType": "int256",
							"name": "num1",
							"type": "int256"
						},
						{
							"internalType": "int256",
							"name": "num2",
							"type": "int256"
						},
						{
							"internalType": "int256",
							"name": "num3",
							"type": "int256"
						}
					],
					"name": "findMax",
					"outputs": [
						{
							"internalType": "int256",
							"name": "",
							"type": "int256"
						}
					],
					"stateMutability": "pure",
					"type": "function"
				},
				{
					"inputs": [
						{
							"internalType": "int256",
							"name": "num1",
							"type": "int256"
						},
						{
							"internalType": "int256",
							"name": "num2",
							"type": "int256"
						},
						{
							"internalType": "int256",
							"name": "num3",
							"type": "int256"
						}
					],
					"name": "findMin",
					"outputs": [
						{
							"internalType": "int256",
							"name": "",
							"type": "int256"
						}
					],
					"stateMutability": "pure",
					"type": "function"
				}
			],
			"devdoc": {
				"kind": "dev",
				"methods": {},
				"version": 1
			},
			"evm": {
				"assembly": "    /* \"Day03/d3p2.sol\":71:791  contract MaxMinCalculator {... */\n  mstore(0x40, 0x80)\n  callvalue\n  dup1\n  iszero\n  tag_1\n  jumpi\n  0x00\n  dup1\n  revert\ntag_1:\n  pop\n  dataSize(sub_0)\n  dup1\n  dataOffset(sub_0)\n  0x00\n  codecopy\n  0x00\n  return\nstop\n\nsub_0: assembly {\n        /* \"Day03/d3p2.sol\":71:791  contract MaxMinCalculator {... */\n      mstore(0x40, 0x80)\n      callvalue\n      dup1\n      iszero\n      tag_1\n      jumpi\n      0x00\n      dup1\n      revert\n    tag_1:\n      pop\n      jumpi(tag_2, lt(calldatasize, 0x04))\n      shr(0xe0, calldataload(0x00))\n      dup1\n      0xac908c25\n      eq\n      tag_3\n      jumpi\n      dup1\n      0xc3dfec32\n      eq\n      tag_4\n      jumpi\n    tag_2:\n      0x00\n      dup1\n      revert\n        /* \"Day03/d3p2.sol\":510:788  function findMin(int256 num1, int256 num2, int256 num3) public pure returns (int256) {... */\n    tag_3:\n      tag_5\n      0x04\n      dup1\n      calldatasize\n      sub\n      dup2\n      add\n      swap1\n      tag_6\n      swap2\n      swap1\n      tag_7\n      jump\t// in\n    tag_6:\n      tag_8\n      jump\t// in\n    tag_5:\n      mload(0x40)\n      tag_9\n      swap2\n      swap1\n      tag_10\n      jump\t// in\n    tag_9:\n      mload(0x40)\n      dup1\n      swap2\n      sub\n      swap1\n      return\n        /* \"Day03/d3p2.sol\":160:448  function findMax(int256 num1, int256 num2, int256 num3) public pure returns (int256) {... */\n    tag_4:\n      tag_11\n      0x04\n      dup1\n      calldatasize\n      sub\n      dup2\n      add\n      swap1\n      tag_12\n      swap2\n      swap1\n      tag_7\n      jump\t// in\n    tag_12:\n      tag_13\n      jump\t// in\n    tag_11:\n      mload(0x40)\n      tag_14\n      swap2\n      swap1\n      tag_10\n      jump\t// in\n    tag_14:\n      mload(0x40)\n      dup1\n      swap2\n      sub\n      swap1\n      return\n        /* \"Day03/d3p2.sol\":510:788  function findMin(int256 num1, int256 num2, int256 num3) public pure returns (int256) {... */\n    tag_8:\n        /* \"Day03/d3p2.sol\":587:593  int256 */\n      0x00\n        /* \"Day03/d3p2.sol\":606:616  int256 min */\n      dup1\n        /* \"Day03/d3p2.sol\":619:623  num1 */\n      dup5\n        /* \"Day03/d3p2.sol\":606:623  int256 min = num1 */\n      swap1\n      pop\n        /* \"Day03/d3p2.sol\":655:658  min */\n      dup1\n        /* \"Day03/d3p2.sol\":648:652  num2 */\n      dup5\n        /* \"Day03/d3p2.sol\":648:658  num2 < min */\n      slt\n        /* \"Day03/d3p2.sol\":644:697  if (num2 < min) {... */\n      iszero\n      tag_16\n      jumpi\n        /* \"Day03/d3p2.sol\":681:685  num2 */\n      dup4\n        /* \"Day03/d3p2.sol\":675:685  min = num2 */\n      swap1\n      pop\n        /* \"Day03/d3p2.sol\":644:697  if (num2 < min) {... */\n    tag_16:\n        /* \"Day03/d3p2.sol\":718:721  min */\n      dup1\n        /* \"Day03/d3p2.sol\":711:715  num3 */\n      dup4\n        /* \"Day03/d3p2.sol\":711:721  num3 < min */\n      slt\n        /* \"Day03/d3p2.sol\":707:760  if (num3 < min) {... */\n      iszero\n      tag_17\n      jumpi\n        /* \"Day03/d3p2.sol\":744:748  num3 */\n      dup3\n        /* \"Day03/d3p2.sol\":738:748  min = num3 */\n      swap1\n      pop\n        /* \"Day03/d3p2.sol\":707:760  if (num3 < min) {... */\n    tag_17:\n        /* \"Day03/d3p2.sol\":777:780  min */\n      dup1\n        /* \"Day03/d3p2.sol\":770:780  return min */\n      swap2\n      pop\n      pop\n        /* \"Day03/d3p2.sol\":510:788  function findMin(int256 num1, int256 num2, int256 num3) public pure returns (int256) {... */\n      swap4\n      swap3\n      pop\n      pop\n      pop\n      jump\t// out\n        /* \"Day03/d3p2.sol\":160:448  function findMax(int256 num1, int256 num2, int256 num3) public pure returns (int256) {... */\n    tag_13:\n        /* \"Day03/d3p2.sol\":237:243  int256 */\n      0x00\n        /* \"Day03/d3p2.sol\":256:266  int256 max */\n      dup1\n        /* \"Day03/d3p2.sol\":269:273  num1 */\n      dup5\n        /* \"Day03/d3p2.sol\":256:273  int256 max = num1 */\n      swap1\n      pop\n        /* \"Day03/d3p2.sol\":305:308  max */\n      dup1\n        /* \"Day03/d3p2.sol\":298:302  num2 */\n      dup5\n        /* \"Day03/d3p2.sol\":298:308  num2 > max */\n      sgt\n        /* \"Day03/d3p2.sol\":294:347  if (num2 > max) {... */\n      iszero\n      tag_19\n      jumpi\n        /* \"Day03/d3p2.sol\":331:335  num2 */\n      dup4\n        /* \"Day03/d3p2.sol\":325:335  max = num2 */\n      swap1\n      pop\n        /* \"Day03/d3p2.sol\":294:347  if (num2 > max) {... */\n    tag_19:\n        /* \"Day03/d3p2.sol\":368:371  max */\n      dup1\n        /* \"Day03/d3p2.sol\":361:365  num3 */\n      dup4\n        /* \"Day03/d3p2.sol\":361:371  num3 > max */\n      sgt\n        /* \"Day03/d3p2.sol\":357:410  if (num3 > max) {... */\n      iszero\n      tag_20\n      jumpi\n        /* \"Day03/d3p2.sol\":394:398  num3 */\n      dup3\n        /* \"Day03/d3p2.sol\":388:398  max = num3 */\n      swap1\n      pop\n        /* \"Day03/d3p2.sol\":357:410  if (num3 > max) {... */\n    tag_20:\n        /* \"Day03/d3p2.sol\":437:440  max */\n      dup1\n        /* \"Day03/d3p2.sol\":430:440  return max */\n      swap2\n      pop\n      pop\n        /* \"Day03/d3p2.sol\":160:448  function findMax(int256 num1, int256 num2, int256 num3) public pure returns (int256) {... */\n      swap4\n      swap3\n      pop\n      pop\n      pop\n      jump\t// out\n        /* \"#utility.yul\":88:205   */\n    tag_22:\n        /* \"#utility.yul\":197:198   */\n      0x00\n        /* \"#utility.yul\":194:195   */\n      dup1\n        /* \"#utility.yul\":187:199   */\n      revert\n        /* \"#utility.yul\":334:410   */\n    tag_24:\n        /* \"#utility.yul\":370:377   */\n      0x00\n        /* \"#utility.yul\":399:404   */\n      dup2\n        /* \"#utility.yul\":388:404   */\n      swap1\n      pop\n        /* \"#utility.yul\":334:410   */\n      swap2\n      swap1\n      pop\n      jump\t// out\n        /* \"#utility.yul\":416:536   */\n    tag_25:\n        /* \"#utility.yul\":488:511   */\n      tag_34\n        /* \"#utility.yul\":505:510   */\n      dup2\n        /* \"#utility.yul\":488:511   */\n      tag_24\n      jump\t// in\n    tag_34:\n        /* \"#utility.yul\":481:486   */\n      dup2\n        /* \"#utility.yul\":478:512   */\n      eq\n        /* \"#utility.yul\":468:530   */\n      tag_35\n      jumpi\n        /* \"#utility.yul\":526:527   */\n      0x00\n        /* \"#utility.yul\":523:524   */\n      dup1\n        /* \"#utility.yul\":516:528   */\n      revert\n        /* \"#utility.yul\":468:530   */\n    tag_35:\n        /* \"#utility.yul\":416:536   */\n      pop\n      jump\t// out\n        /* \"#utility.yul\":542:679   */\n    tag_26:\n        /* \"#utility.yul\":587:592   */\n      0x00\n        /* \"#utility.yul\":625:631   */\n      dup2\n        /* \"#utility.yul\":612:632   */\n      calldataload\n        /* \"#utility.yul\":603:632   */\n      swap1\n      pop\n        /* \"#utility.yul\":641:673   */\n      tag_37\n        /* \"#utility.yul\":667:672   */\n      dup2\n        /* \"#utility.yul\":641:673   */\n      tag_25\n      jump\t// in\n    tag_37:\n        /* \"#utility.yul\":542:679   */\n      swap3\n      swap2\n      pop\n      pop\n      jump\t// out\n        /* \"#utility.yul\":685:1298   */\n    tag_7:\n        /* \"#utility.yul\":759:765   */\n      0x00\n        /* \"#utility.yul\":767:773   */\n      dup1\n        /* \"#utility.yul\":775:781   */\n      0x00\n        /* \"#utility.yul\":824:826   */\n      0x60\n        /* \"#utility.yul\":812:821   */\n      dup5\n        /* \"#utility.yul\":803:810   */\n      dup7\n        /* \"#utility.yul\":799:822   */\n      sub\n        /* \"#utility.yul\":795:827   */\n      slt\n        /* \"#utility.yul\":792:911   */\n      iszero\n      tag_39\n      jumpi\n        /* \"#utility.yul\":830:909   */\n      tag_40\n      tag_22\n      jump\t// in\n    tag_40:\n        /* \"#utility.yul\":792:911   */\n    tag_39:\n        /* \"#utility.yul\":950:951   */\n      0x00\n        /* \"#utility.yul\":975:1027   */\n      tag_41\n        /* \"#utility.yul\":1019:1026   */\n      dup7\n        /* \"#utility.yul\":1010:1016   */\n      dup3\n        /* \"#utility.yul\":999:1008   */\n      dup8\n        /* \"#utility.yul\":995:1017   */\n      add\n        /* \"#utility.yul\":975:1027   */\n      tag_26\n      jump\t// in\n    tag_41:\n        /* \"#utility.yul\":965:1027   */\n      swap4\n      pop\n        /* \"#utility.yul\":921:1037   */\n      pop\n        /* \"#utility.yul\":1076:1078   */\n      0x20\n        /* \"#utility.yul\":1102:1154   */\n      tag_42\n        /* \"#utility.yul\":1146:1153   */\n      dup7\n        /* \"#utility.yul\":1137:1143   */\n      dup3\n        /* \"#utility.yul\":1126:1135   */\n      dup8\n        /* \"#utility.yul\":1122:1144   */\n      add\n        /* \"#utility.yul\":1102:1154   */\n      tag_26\n      jump\t// in\n    tag_42:\n        /* \"#utility.yul\":1092:1154   */\n      swap3\n      pop\n        /* \"#utility.yul\":1047:1164   */\n      pop\n        /* \"#utility.yul\":1203:1205   */\n      0x40\n        /* \"#utility.yul\":1229:1281   */\n      tag_43\n        /* \"#utility.yul\":1273:1280   */\n      dup7\n        /* \"#utility.yul\":1264:1270   */\n      dup3\n        /* \"#utility.yul\":1253:1262   */\n      dup8\n        /* \"#utility.yul\":1249:1271   */\n      add\n        /* \"#utility.yul\":1229:1281   */\n      tag_26\n      jump\t// in\n    tag_43:\n        /* \"#utility.yul\":1219:1281   */\n      swap2\n      pop\n        /* \"#utility.yul\":1174:1291   */\n      pop\n        /* \"#utility.yul\":685:1298   */\n      swap3\n      pop\n      swap3\n      pop\n      swap3\n      jump\t// out\n        /* \"#utility.yul\":1304:1419   */\n    tag_27:\n        /* \"#utility.yul\":1389:1412   */\n      tag_45\n        /* \"#utility.yul\":1406:1411   */\n      dup2\n        /* \"#utility.yul\":1389:1412   */\n      tag_24\n      jump\t// in\n    tag_45:\n        /* \"#utility.yul\":1384:1387   */\n      dup3\n        /* \"#utility.yul\":1377:1413   */\n      mstore\n        /* \"#utility.yul\":1304:1419   */\n      pop\n      pop\n      jump\t// out\n        /* \"#utility.yul\":1425:1643   */\n    tag_10:\n        /* \"#utility.yul\":1516:1520   */\n      0x00\n        /* \"#utility.yul\":1554:1556   */\n      0x20\n        /* \"#utility.yul\":1543:1552   */\n      dup3\n        /* \"#utility.yul\":1539:1557   */\n      add\n        /* \"#utility.yul\":1531:1557   */\n      swap1\n      pop\n        /* \"#utility.yul\":1567:1636   */\n      tag_47\n        /* \"#utility.yul\":1633:1634   */\n      0x00\n        /* \"#utility.yul\":1622:1631   */\n      dup4\n        /* \"#utility.yul\":1618:1635   */\n      add\n        /* \"#utility.yul\":1609:1615   */\n      dup5\n        /* \"#utility.yul\":1567:1636   */\n      tag_27\n      jump\t// in\n    tag_47:\n        /* \"#utility.yul\":1425:1643   */\n      swap3\n      swap2\n      pop\n      pop\n      jump\t// out\n\n    auxdata: 0xa26469706673582212205478d45a96ee52dc62812870d4fdf6e765ad6c825a2dc7c5748edcac5c4b4b2a64736f6c634300081a0033\n}\n",
				"bytecode": {
					"linkReferences": {},
					"object": "6080604052348015600e575f80fd5b506101cd8061001c5f395ff3fe608060405234801561000f575f80fd5b5060043610610034575f3560e01c8063ac908c2514610038578063c3dfec3214610068575b5f80fd5b610052600480360381019061004d919061011f565b610098565b60405161005f919061017e565b60405180910390f35b610082600480360381019061007d919061011f565b6100c0565b60405161008f919061017e565b60405180910390f35b5f80849050808412156100a9578390505b808312156100b5578290505b809150509392505050565b5f80849050808413156100d1578390505b808313156100dd578290505b809150509392505050565b5f80fd5b5f819050919050565b6100fe816100ec565b8114610108575f80fd5b50565b5f81359050610119816100f5565b92915050565b5f805f60608486031215610136576101356100e8565b5b5f6101438682870161010b565b93505060206101548682870161010b565b92505060406101658682870161010b565b9150509250925092565b610178816100ec565b82525050565b5f6020820190506101915f83018461016f565b9291505056fea26469706673582212205478d45a96ee52dc62812870d4fdf6e765ad6c825a2dc7c5748edcac5c4b4b2a64736f6c634300081a0033",
					"opcodes": "PUSH1 0x80 PUSH1 0x40 MSTORE CALLVALUE DUP1 ISZERO PUSH1 0xE JUMPI PUSH0 DUP1 REVERT JUMPDEST POP PUSH2 0x1CD DUP1 PUSH2 0x1C PUSH0 CODECOPY PUSH0 RETURN INVALID PUSH1 0x80 PUSH1 0x40 MSTORE CALLVALUE DUP1 ISZERO PUSH2 0xF JUMPI PUSH0 DUP1 REVERT JUMPDEST POP PUSH1 0x4 CALLDATASIZE LT PUSH2 0x34 JUMPI PUSH0 CALLDATALOAD PUSH1 0xE0 SHR DUP1 PUSH4 0xAC908C25 EQ PUSH2 0x38 JUMPI DUP1 PUSH4 0xC3DFEC32 EQ PUSH2 0x68 JUMPI JUMPDEST PUSH0 DUP1 REVERT JUMPDEST PUSH2 0x52 PUSH1 0x4 DUP1 CALLDATASIZE SUB DUP2 ADD SWAP1 PUSH2 0x4D SWAP2 SWAP1 PUSH2 0x11F JUMP JUMPDEST PUSH2 0x98 JUMP JUMPDEST PUSH1 0x40 MLOAD PUSH2 0x5F SWAP2 SWAP1 PUSH2 0x17E JUMP JUMPDEST PUSH1 0x40 MLOAD DUP1 SWAP2 SUB SWAP1 RETURN JUMPDEST PUSH2 0x82 PUSH1 0x4 DUP1 CALLDATASIZE SUB DUP2 ADD SWAP1 PUSH2 0x7D SWAP2 SWAP1 PUSH2 0x11F JUMP JUMPDEST PUSH2 0xC0 JUMP JUMPDEST PUSH1 0x40 MLOAD PUSH2 0x8F SWAP2 SWAP1 PUSH2 0x17E JUMP JUMPDEST PUSH1 0x40 MLOAD DUP1 SWAP2 SUB SWAP1 RETURN JUMPDEST PUSH0 DUP1 DUP5 SWAP1 POP DUP1 DUP5 SLT ISZERO PUSH2 0xA9 JUMPI DUP4 SWAP1 POP JUMPDEST DUP1 DUP4 SLT ISZERO PUSH2 0xB5 JUMPI DUP3 SWAP1 POP JUMPDEST DUP1 SWAP2 POP POP SWAP4 SWAP3 POP POP POP JUMP JUMPDEST PUSH0 DUP1 DUP5 SWAP1 POP DUP1 DUP5 SGT ISZERO PUSH2 0xD1 JUMPI DUP4 SWAP1 POP JUMPDEST DUP1 DUP4 SGT ISZERO PUSH2 0xDD JUMPI DUP3 SWAP1 POP JUMPDEST DUP1 SWAP2 POP POP SWAP4 SWAP3 POP POP POP JUMP JUMPDEST PUSH0 DUP1 REVERT JUMPDEST PUSH0 DUP2 SWAP1 POP SWAP2 SWAP1 POP JUMP JUMPDEST PUSH2 0xFE DUP2 PUSH2 0xEC JUMP JUMPDEST DUP2 EQ PUSH2 0x108 JUMPI PUSH0 DUP1 REVERT JUMPDEST POP JUMP JUMPDEST PUSH0 DUP2 CALLDATALOAD SWAP1 POP PUSH2 0x119 DUP2 PUSH2 0xF5 JUMP JUMPDEST SWAP3 SWAP2 POP POP JUMP JUMPDEST PUSH0 DUP1 PUSH0 PUSH1 0x60 DUP5 DUP7 SUB SLT ISZERO PUSH2 0x136 JUMPI PUSH2 0x135 PUSH2 0xE8 JUMP JUMPDEST JUMPDEST PUSH0 PUSH2 0x143 DUP7 DUP3 DUP8 ADD PUSH2 0x10B JUMP JUMPDEST SWAP4 POP POP PUSH1 0x20 PUSH2 0x154 DUP7 DUP3 DUP8 ADD PUSH2 0x10B JUMP JUMPDEST SWAP3 POP POP PUSH1 0x40 PUSH2 0x165 DUP7 DUP3 DUP8 ADD PUSH2 0x10B JUMP JUMPDEST SWAP2 POP POP SWAP3 POP SWAP3 POP SWAP3 JUMP JUMPDEST PUSH2 0x178 DUP2 PUSH2 0xEC JUMP JUMPDEST DUP3 MSTORE POP POP JUMP JUMPDEST PUSH0 PUSH1 0x20 DUP3 ADD SWAP1 POP PUSH2 0x191 PUSH0 DUP4 ADD DUP5 PUSH2 0x16F JUMP JUMPDEST SWAP3 SWAP2 POP POP JUMP INVALID LOG2 PUSH5 0x6970667358 0x22 SLT KECCAK256 SLOAD PUSH25 0xD45A96EE52DC62812870D4FDF6E765AD6C825A2DC7C5748EDC 0xAC TLOAD 0x4B 0x4B 0x2A PUSH5 0x736F6C6343 STOP ADDMOD BYTE STOP CALLER "
				},
				"gasEstimates": {
					"creation": {
						"codeDepositCost": "92200",
						"executionCost": "139",
						"totalCost": "92339"
					},
					"external": {
						"findMax(int256,int256,int256)": "infinite",
						"findMin(int256,int256,int256)": "infinite"
					}
				},
				"methodIdentifiers": {
					"findMax(int256,int256,int256)": "c3dfec32",
					"findMin(int256,int256,int256)": "ac908c25"
				}
			},
			"storageLayout": {
				"storage": [],
				"types": null
			},
			"userdoc": {
				"kind": "user",
				"methods": {},
				"version": 1
			}
		}
	}
}