{
	"Day03/d3p4.sol": {
		"QuadraticRoots": {
			"abi": [
				{
					"inputs": [
						{
							"internalType": "int256",
							"name": "a",
							"type": "int256"
						},
						{
							"internalType": "int256",
							"name": "b",
							"type": "int256"
						},
						{
							"internalType": "int256",
							"name": "c",
							"type": "int256"
						}
					],
					"name": "checkRoots",
					"outputs": [
						{
							"internalType": "string",
							"name": "",
							"type": "string"
						}
					],
					"stateMutability": "pure",
					"type": "function"
				}
			],
			"devdoc": {
				"kind": "dev",
				"methods": {},
				"version": 1
			},
			"evm": {
				"assembly": "    /* \"Day03/d3p4.sol\":69:507  contract QuadraticRoots {... */\n  mstore(0x40, 0x80)\n  callvalue\n  dup1\n  iszero\n  tag_1\n  jumpi\n  0x00\n  dup1\n  revert\ntag_1:\n  pop\n  dataSize(sub_0)\n  dup1\n  dataOffset(sub_0)\n  0x00\n  codecopy\n  0x00\n  return\nstop\n\nsub_0: assembly {\n        /* \"Day03/d3p4.sol\":69:507  contract QuadraticRoots {... */\n      mstore(0x40, 0x80)\n      callvalue\n      dup1\n      iszero\n      tag_1\n      jumpi\n      0x00\n      dup1\n      revert\n    tag_1:\n      pop\n      jumpi(tag_2, lt(calldatasize, 0x04))\n      shr(0xe0, calldataload(0x00))\n      dup1\n      0x0576bf5c\n      eq\n      tag_3\n      jumpi\n    tag_2:\n      0x00\n      dup1\n      revert\n        /* \"Day03/d3p4.sol\":100:504  function checkRoots(int256 a, int256 b, int256 c) public pure returns (string memory) {... */\n    tag_3:\n      tag_4\n      0x04\n      dup1\n      calldatasize\n      sub\n      dup2\n      add\n      swap1\n      tag_5\n      swap2\n      swap1\n      tag_6\n      jump\t// in\n    tag_5:\n      tag_7\n      jump\t// in\n    tag_4:\n      mload(0x40)\n      tag_8\n      swap2\n      swap1\n      tag_9\n      jump\t// in\n    tag_8:\n      mload(0x40)\n      dup1\n      swap2\n      sub\n      swap1\n      return\n    tag_7:\n        /* \"Day03/d3p4.sol\":171:184  string memory */\n      0x60\n        /* \"Day03/d3p4.sol\":197:216  int256 discriminant */\n      0x00\n        /* \"Day03/d3p4.sol\":235:236  c */\n      dup3\n        /* \"Day03/d3p4.sol\":231:232  a */\n      dup6\n        /* \"Day03/d3p4.sol\":227:228  4 */\n      0x04\n        /* \"Day03/d3p4.sol\":227:232  4 * a */\n      tag_11\n      swap2\n      swap1\n      tag_12\n      jump\t// in\n    tag_11:\n        /* \"Day03/d3p4.sol\":227:236  4 * a * c */\n      tag_13\n      swap2\n      swap1\n      tag_12\n      jump\t// in\n    tag_13:\n        /* \"Day03/d3p4.sol\":223:224  b */\n      dup5\n        /* \"Day03/d3p4.sol\":219:220  b */\n      dup6\n        /* \"Day03/d3p4.sol\":219:224  b * b */\n      tag_14\n      swap2\n      swap1\n      tag_12\n      jump\t// in\n    tag_14:\n        /* \"Day03/d3p4.sol\":219:236  b * b - 4 * a * c */\n      tag_15\n      swap2\n      swap1\n      tag_16\n      jump\t// in\n    tag_15:\n        /* \"Day03/d3p4.sol\":197:236  int256 discriminant = b * b - 4 * a * c */\n      swap1\n      pop\n        /* \"Day03/d3p4.sol\":266:267  0 */\n      0x00\n        /* \"Day03/d3p4.sol\":251:263  discriminant */\n      dup2\n        /* \"Day03/d3p4.sol\":251:267  discriminant > 0 */\n      sgt\n        /* \"Day03/d3p4.sol\":247:497  if (discriminant > 0) {... */\n      iszero\n      tag_17\n      jumpi\n        /* \"Day03/d3p4.sol\":284:325  return \"The roots are real and distinct.\" */\n      mload(0x40)\n      dup1\n      0x40\n      add\n      0x40\n      mstore\n      dup1\n      0x20\n      dup2\n      mstore\n      0x20\n      add\n      0x54686520726f6f747320617265207265616c20616e642064697374696e63742e\n      dup2\n      mstore\n      pop\n      swap2\n      pop\n      pop\n      jump(tag_10)\n        /* \"Day03/d3p4.sol\":247:497  if (discriminant > 0) {... */\n    tag_17:\n        /* \"Day03/d3p4.sol\":363:364  0 */\n      0x00\n        /* \"Day03/d3p4.sol\":347:359  discriminant */\n      dup2\n        /* \"Day03/d3p4.sol\":347:364  discriminant == 0 */\n      sub\n        /* \"Day03/d3p4.sol\":343:497  if (discriminant == 0) {... */\n      tag_19\n      jumpi\n        /* \"Day03/d3p4.sol\":381:419  return \"The roots are real and equal.\" */\n      mload(0x40)\n      dup1\n      0x40\n      add\n      0x40\n      mstore\n      dup1\n      0x1d\n      dup2\n      mstore\n      0x20\n      add\n      0x54686520726f6f747320617265207265616c20616e6420657175616c2e000000\n      dup2\n      mstore\n      pop\n      swap2\n      pop\n      pop\n      jump(tag_10)\n        /* \"Day03/d3p4.sol\":343:497  if (discriminant == 0) {... */\n    tag_19:\n        /* \"Day03/d3p4.sol\":452:485  return \"The roots are imaginary.\" */\n      mload(0x40)\n      dup1\n      0x40\n      add\n      0x40\n      mstore\n      dup1\n      0x18\n      dup2\n      mstore\n      0x20\n      add\n      0x54686520726f6f74732061726520696d6167696e6172792e0000000000000000\n      dup2\n      mstore\n      pop\n      swap2\n      pop\n      pop\n        /* \"Day03/d3p4.sol\":100:504  function checkRoots(int256 a, int256 b, int256 c) public pure returns (string memory) {... */\n    tag_10:\n      swap4\n      swap3\n      pop\n      pop\n      pop\n      jump\t// out\n        /* \"#utility.yul\":88:205   */\n    tag_22:\n        /* \"#utility.yul\":197:198   */\n      0x00\n        /* \"#utility.yul\":194:195   */\n      dup1\n        /* \"#utility.yul\":187:199   */\n      revert\n        /* \"#utility.yul\":334:410   */\n    tag_24:\n        /* \"#utility.yul\":370:377   */\n      0x00\n        /* \"#utility.yul\":399:404   */\n      dup2\n        /* \"#utility.yul\":388:404   */\n      swap1\n      pop\n        /* \"#utility.yul\":334:410   */\n      swap2\n      swap1\n      pop\n      jump\t// out\n        /* \"#utility.yul\":416:536   */\n    tag_25:\n        /* \"#utility.yul\":488:511   */\n      tag_39\n        /* \"#utility.yul\":505:510   */\n      dup2\n        /* \"#utility.yul\":488:511   */\n      tag_24\n      jump\t// in\n    tag_39:\n        /* \"#utility.yul\":481:486   */\n      dup2\n        /* \"#utility.yul\":478:512   */\n      eq\n        /* \"#utility.yul\":468:530   */\n      tag_40\n      jumpi\n        /* \"#utility.yul\":526:527   */\n      0x00\n        /* \"#utility.yul\":523:524   */\n      dup1\n        /* \"#utility.yul\":516:528   */\n      revert\n        /* \"#utility.yul\":468:530   */\n    tag_40:\n        /* \"#utility.yul\":416:536   */\n      pop\n      jump\t// out\n        /* \"#utility.yul\":542:679   */\n    tag_26:\n        /* \"#utility.yul\":587:592   */\n      0x00\n        /* \"#utility.yul\":625:631   */\n      dup2\n        /* \"#utility.yul\":612:632   */\n      calldataload\n        /* \"#utility.yul\":603:632   */\n      swap1\n      pop\n        /* \"#utility.yul\":641:673   */\n      tag_42\n        /* \"#utility.yul\":667:672   */\n      dup2\n        /* \"#utility.yul\":641:673   */\n      tag_25\n      jump\t// in\n    tag_42:\n        /* \"#utility.yul\":542:679   */\n      swap3\n      swap2\n      pop\n      pop\n      jump\t// out\n        /* \"#utility.yul\":685:1298   */\n    tag_6:\n        /* \"#utility.yul\":759:765   */\n      0x00\n        /* \"#utility.yul\":767:773   */\n      dup1\n        /* \"#utility.yul\":775:781   */\n      0x00\n        /* \"#utility.yul\":824:826   */\n      0x60\n        /* \"#utility.yul\":812:821   */\n      dup5\n        /* \"#utility.yul\":803:810   */\n      dup7\n        /* \"#utility.yul\":799:822   */\n      sub\n        /* \"#utility.yul\":795:827   */\n      slt\n        /* \"#utility.yul\":792:911   */\n      iszero\n      tag_44\n      jumpi\n        /* \"#utility.yul\":830:909   */\n      tag_45\n      tag_22\n      jump\t// in\n    tag_45:\n        /* \"#utility.yul\":792:911   */\n    tag_44:\n        /* \"#utility.yul\":950:951   */\n      0x00\n        /* \"#utility.yul\":975:1027   */\n      tag_46\n        /* \"#utility.yul\":1019:1026   */\n      dup7\n        /* \"#utility.yul\":1010:1016   */\n      dup3\n        /* \"#utility.yul\":999:1008   */\n      dup8\n        /* \"#utility.yul\":995:1017   */\n      add\n        /* \"#utility.yul\":975:1027   */\n      tag_26\n      jump\t// in\n    tag_46:\n        /* \"#utility.yul\":965:1027   */\n      swap4\n      pop\n        /* \"#utility.yul\":921:1037   */\n      pop\n        /* \"#utility.yul\":1076:1078   */\n      0x20\n        /* \"#utility.yul\":1102:1154   */\n      tag_47\n        /* \"#utility.yul\":1146:1153   */\n      dup7\n        /* \"#utility.yul\":1137:1143   */\n      dup3\n        /* \"#utility.yul\":1126:1135   */\n      dup8\n        /* \"#utility.yul\":1122:1144   */\n      add\n        /* \"#utility.yul\":1102:1154   */\n      tag_26\n      jump\t// in\n    tag_47:\n        /* \"#utility.yul\":1092:1154   */\n      swap3\n      pop\n        /* \"#utility.yul\":1047:1164   */\n      pop\n        /* \"#utility.yul\":1203:1205   */\n      0x40\n        /* \"#utility.yul\":1229:1281   */\n      tag_48\n        /* \"#utility.yul\":1273:1280   */\n      dup7\n        /* \"#utility.yul\":1264:1270   */\n      dup3\n        /* \"#utility.yul\":1253:1262   */\n      dup8\n        /* \"#utility.yul\":1249:1271   */\n      add\n        /* \"#utility.yul\":1229:1281   */\n      tag_26\n      jump\t// in\n    tag_48:\n        /* \"#utility.yul\":1219:1281   */\n      swap2\n      pop\n        /* \"#utility.yul\":1174:1291   */\n      pop\n        /* \"#utility.yul\":685:1298   */\n      swap3\n      pop\n      swap3\n      pop\n      swap3\n      jump\t// out\n        /* \"#utility.yul\":1304:1403   */\n    tag_27:\n        /* \"#utility.yul\":1356:1362   */\n      0x00\n        /* \"#utility.yul\":1390:1395   */\n      dup2\n        /* \"#utility.yul\":1384:1396   */\n      mload\n        /* \"#utility.yul\":1374:1396   */\n      swap1\n      pop\n        /* \"#utility.yul\":1304:1403   */\n      swap2\n      swap1\n      pop\n      jump\t// out\n        /* \"#utility.yul\":1409:1578   */\n    tag_28:\n        /* \"#utility.yul\":1493:1504   */\n      0x00\n        /* \"#utility.yul\":1527:1533   */\n      dup3\n        /* \"#utility.yul\":1522:1525   */\n      dup3\n        /* \"#utility.yul\":1515:1534   */\n      mstore\n        /* \"#utility.yul\":1567:1571   */\n      0x20\n        /* \"#utility.yul\":1562:1565   */\n      dup3\n        /* \"#utility.yul\":1558:1572   */\n      add\n        /* \"#utility.yul\":1543:1572   */\n      swap1\n      pop\n        /* \"#utility.yul\":1409:1578   */\n      swap3\n      swap2\n      pop\n      pop\n      jump\t// out\n        /* \"#utility.yul\":1584:1723   */\n    tag_29:\n        /* \"#utility.yul\":1673:1679   */\n      dup3\n        /* \"#utility.yul\":1668:1671   */\n      dup2\n        /* \"#utility.yul\":1663:1666   */\n      dup4\n        /* \"#utility.yul\":1657:1680   */\n      mcopy\n        /* \"#utility.yul\":1714:1715   */\n      0x00\n        /* \"#utility.yul\":1705:1711   */\n      dup4\n        /* \"#utility.yul\":1700:1703   */\n      dup4\n        /* \"#utility.yul\":1696:1712   */\n      add\n        /* \"#utility.yul\":1689:1716   */\n      mstore\n        /* \"#utility.yul\":1584:1723   */\n      pop\n      pop\n      pop\n      jump\t// out\n        /* \"#utility.yul\":1729:1831   */\n    tag_30:\n        /* \"#utility.yul\":1770:1776   */\n      0x00\n        /* \"#utility.yul\":1821:1823   */\n      0x1f\n        /* \"#utility.yul\":1817:1824   */\n      not\n        /* \"#utility.yul\":1812:1814   */\n      0x1f\n        /* \"#utility.yul\":1805:1810   */\n      dup4\n        /* \"#utility.yul\":1801:1815   */\n      add\n        /* \"#utility.yul\":1797:1825   */\n      and\n        /* \"#utility.yul\":1787:1825   */\n      swap1\n      pop\n        /* \"#utility.yul\":1729:1831   */\n      swap2\n      swap1\n      pop\n      jump\t// out\n        /* \"#utility.yul\":1837:2214   */\n    tag_31:\n        /* \"#utility.yul\":1925:1928   */\n      0x00\n        /* \"#utility.yul\":1953:1992   */\n      tag_54\n        /* \"#utility.yul\":1986:1991   */\n      dup3\n        /* \"#utility.yul\":1953:1992   */\n      tag_27\n      jump\t// in\n    tag_54:\n        /* \"#utility.yul\":2008:2079   */\n      tag_55\n        /* \"#utility.yul\":2072:2078   */\n      dup2\n        /* \"#utility.yul\":2067:2070   */\n      dup6\n        /* \"#utility.yul\":2008:2079   */\n      tag_28\n      jump\t// in\n    tag_55:\n        /* \"#utility.yul\":2001:2079   */\n      swap4\n      pop\n        /* \"#utility.yul\":2088:2153   */\n      tag_56\n        /* \"#utility.yul\":2146:2152   */\n      dup2\n        /* \"#utility.yul\":2141:2144   */\n      dup6\n        /* \"#utility.yul\":2134:2138   */\n      0x20\n        /* \"#utility.yul\":2127:2132   */\n      dup7\n        /* \"#utility.yul\":2123:2139   */\n      add\n        /* \"#utility.yul\":2088:2153   */\n      tag_29\n      jump\t// in\n    tag_56:\n        /* \"#utility.yul\":2178:2207   */\n      tag_57\n        /* \"#utility.yul\":2200:2206   */\n      dup2\n        /* \"#utility.yul\":2178:2207   */\n      tag_30\n      jump\t// in\n    tag_57:\n        /* \"#utility.yul\":2173:2176   */\n      dup5\n        /* \"#utility.yul\":2169:2208   */\n      add\n        /* \"#utility.yul\":2162:2208   */\n      swap2\n      pop\n        /* \"#utility.yul\":1929:2214   */\n      pop\n        /* \"#utility.yul\":1837:2214   */\n      swap3\n      swap2\n      pop\n      pop\n      jump\t// out\n        /* \"#utility.yul\":2220:2533   */\n    tag_9:\n        /* \"#utility.yul\":2333:2337   */\n      0x00\n        /* \"#utility.yul\":2371:2373   */\n      0x20\n        /* \"#utility.yul\":2360:2369   */\n      dup3\n        /* \"#utility.yul\":2356:2374   */\n      add\n        /* \"#utility.yul\":2348:2374   */\n      swap1\n      pop\n        /* \"#utility.yul\":2420:2429   */\n      dup2\n        /* \"#utility.yul\":2414:2418   */\n      dup2\n        /* \"#utility.yul\":2410:2430   */\n      sub\n        /* \"#utility.yul\":2406:2407   */\n      0x00\n        /* \"#utility.yul\":2395:2404   */\n      dup4\n        /* \"#utility.yul\":2391:2408   */\n      add\n        /* \"#utility.yul\":2384:2431   */\n      mstore\n        /* \"#utility.yul\":2448:2526   */\n      tag_59\n        /* \"#utility.yul\":2521:2525   */\n      dup2\n        /* \"#utility.yul\":2512:2518   */\n      dup5\n        /* \"#utility.yul\":2448:2526   */\n      tag_31\n      jump\t// in\n    tag_59:\n        /* \"#utility.yul\":2440:2526   */\n      swap1\n      pop\n        /* \"#utility.yul\":2220:2533   */\n      swap3\n      swap2\n      pop\n      pop\n      jump\t// out\n        /* \"#utility.yul\":2539:2719   */\n    tag_32:\n        /* \"#utility.yul\":2587:2664   */\n      0x4e487b7100000000000000000000000000000000000000000000000000000000\n        /* \"#utility.yul\":2584:2585   */\n      0x00\n        /* \"#utility.yul\":2577:2665   */\n      mstore\n        /* \"#utility.yul\":2684:2688   */\n      0x11\n        /* \"#utility.yul\":2681:2682   */\n      0x04\n        /* \"#utility.yul\":2674:2689   */\n      mstore\n        /* \"#utility.yul\":2708:2712   */\n      0x24\n        /* \"#utility.yul\":2705:2706   */\n      0x00\n        /* \"#utility.yul\":2698:2713   */\n      revert\n        /* \"#utility.yul\":2725:3281   */\n    tag_12:\n        /* \"#utility.yul\":2764:2771   */\n      0x00\n        /* \"#utility.yul\":2787:2806   */\n      tag_62\n        /* \"#utility.yul\":2804:2805   */\n      dup3\n        /* \"#utility.yul\":2787:2806   */\n      tag_24\n      jump\t// in\n    tag_62:\n        /* \"#utility.yul\":2782:2806   */\n      swap2\n      pop\n        /* \"#utility.yul\":2820:2839   */\n      tag_63\n        /* \"#utility.yul\":2837:2838   */\n      dup4\n        /* \"#utility.yul\":2820:2839   */\n      tag_24\n      jump\t// in\n    tag_63:\n        /* \"#utility.yul\":2815:2839   */\n      swap3\n      pop\n        /* \"#utility.yul\":2874:2875   */\n      dup3\n        /* \"#utility.yul\":2871:2872   */\n      dup3\n        /* \"#utility.yul\":2867:2876   */\n      mul\n        /* \"#utility.yul\":2896:2925   */\n      tag_64\n        /* \"#utility.yul\":2913:2924   */\n      dup2\n        /* \"#utility.yul\":2896:2925   */\n      tag_24\n      jump\t// in\n    tag_64:\n        /* \"#utility.yul\":2885:2925   */\n      swap2\n      pop\n        /* \"#utility.yul\":2983:3049   */\n      0x8000000000000000000000000000000000000000000000000000000000000000\n        /* \"#utility.yul\":2980:2981   */\n      dup5\n        /* \"#utility.yul\":2977:3050   */\n      eq\n        /* \"#utility.yul\":2973:2974   */\n      0x00\n        /* \"#utility.yul\":2970:2971   */\n      dup5\n        /* \"#utility.yul\":2966:2975   */\n      slt\n        /* \"#utility.yul\":2962:3051   */\n      and\n        /* \"#utility.yul\":2959:3074   */\n      iszero\n      tag_65\n      jumpi\n        /* \"#utility.yul\":3054:3072   */\n      tag_66\n      tag_32\n      jump\t// in\n    tag_66:\n        /* \"#utility.yul\":2959:3074   */\n    tag_65:\n        /* \"#utility.yul\":3224:3225   */\n      dup3\n        /* \"#utility.yul\":3215:3222   */\n      dup3\n        /* \"#utility.yul\":3210:3226   */\n      sdiv\n        /* \"#utility.yul\":3207:3208   */\n      dup5\n        /* \"#utility.yul\":3204:3227   */\n      eq\n        /* \"#utility.yul\":3184:3185   */\n      dup4\n        /* \"#utility.yul\":3177:3186   */\n      iszero\n        /* \"#utility.yul\":3157:3241   */\n      or\n        /* \"#utility.yul\":3134:3274   */\n      tag_67\n      jumpi\n        /* \"#utility.yul\":3254:3272   */\n      tag_68\n      tag_32\n      jump\t// in\n    tag_68:\n        /* \"#utility.yul\":3134:3274   */\n    tag_67:\n        /* \"#utility.yul\":2772:3281   */\n      pop\n        /* \"#utility.yul\":2725:3281   */\n      swap3\n      swap2\n      pop\n      pop\n      jump\t// out\n        /* \"#utility.yul\":3287:3659   */\n    tag_16:\n        /* \"#utility.yul\":3326:3330   */\n      0x00\n        /* \"#utility.yul\":3346:3365   */\n      tag_70\n        /* \"#utility.yul\":3363:3364   */\n      dup3\n        /* \"#utility.yul\":3346:3365   */\n      tag_24\n      jump\t// in\n    tag_70:\n        /* \"#utility.yul\":3341:3365   */\n      swap2\n      pop\n        /* \"#utility.yul\":3379:3398   */\n      tag_71\n        /* \"#utility.yul\":3396:3397   */\n      dup4\n        /* \"#utility.yul\":3379:3398   */\n      tag_24\n      jump\t// in\n    tag_71:\n        /* \"#utility.yul\":3374:3398   */\n      swap3\n      pop\n        /* \"#utility.yul\":3422:3423   */\n      dup3\n        /* \"#utility.yul\":3419:3420   */\n      dup3\n        /* \"#utility.yul\":3415:3424   */\n      sub\n        /* \"#utility.yul\":3407:3424   */\n      swap1\n      pop\n        /* \"#utility.yul\":3616:3617   */\n      dup2\n        /* \"#utility.yul\":3610:3614   */\n      dup2\n        /* \"#utility.yul\":3606:3618   */\n      slt\n        /* \"#utility.yul\":3602:3603   */\n      0x00\n        /* \"#utility.yul\":3599:3600   */\n      dup5\n        /* \"#utility.yul\":3595:3604   */\n      slt\n        /* \"#utility.yul\":3591:3619   */\n      and\n        /* \"#utility.yul\":3574:3575   */\n      dup3\n        /* \"#utility.yul\":3568:3572   */\n      dup3\n        /* \"#utility.yul\":3564:3576   */\n      sgt\n        /* \"#utility.yul\":3559:3560   */\n      0x00\n        /* \"#utility.yul\":3556:3557   */\n      dup6\n        /* \"#utility.yul\":3552:3561   */\n      slt\n        /* \"#utility.yul\":3545:3562   */\n      iszero\n        /* \"#utility.yul\":3541:3577   */\n      and\n        /* \"#utility.yul\":3525:3629   */\n      or\n        /* \"#utility.yul\":3522:3652   */\n      iszero\n      tag_72\n      jumpi\n        /* \"#utility.yul\":3632:3650   */\n      tag_73\n      tag_32\n      jump\t// in\n    tag_73:\n        /* \"#utility.yul\":3522:3652   */\n    tag_72:\n        /* \"#utility.yul\":3287:3659   */\n      swap3\n      swap2\n      pop\n      pop\n      jump\t// out\n\n    auxdata: 0xa26469706673582212202fff147435d302b9af45c31f965cfd90bbcc60c9b2ded54df05eaabd1f0f870b64736f6c634300081a0033\n}\n",
				"bytecode": {
					"linkReferences": {},
					"object": "6080604052348015600e575f80fd5b5061038c8061001c5f395ff3fe608060405234801561000f575f80fd5b5060043610610029575f3560e01c80630576bf5c1461002d575b5f80fd5b61004760048036038101906100429190610193565b61005d565b6040516100549190610253565b60405180910390f35b60605f8285600461006e91906102a0565b61007891906102a0565b848561008491906102a0565b61008e9190610316565b90505f8113156100d6576040518060400160405280602081526020017f54686520726f6f747320617265207265616c20616e642064697374696e63742e815250915050610155565b5f810361011b576040518060400160405280601d81526020017f54686520726f6f747320617265207265616c20616e6420657175616c2e000000815250915050610155565b6040518060400160405280601881526020017f54686520726f6f74732061726520696d6167696e6172792e00000000000000008152509150505b9392505050565b5f80fd5b5f819050919050565b61017281610160565b811461017c575f80fd5b50565b5f8135905061018d81610169565b92915050565b5f805f606084860312156101aa576101a961015c565b5b5f6101b78682870161017f565b93505060206101c88682870161017f565b92505060406101d98682870161017f565b9150509250925092565b5f81519050919050565b5f82825260208201905092915050565b8281835e5f83830152505050565b5f601f19601f8301169050919050565b5f610225826101e3565b61022f81856101ed565b935061023f8185602086016101fd565b6102488161020b565b840191505092915050565b5f6020820190508181035f83015261026b818461021b565b905092915050565b7f4e487b71000000000000000000000000000000000000000000000000000000005f52601160045260245ffd5b5f6102aa82610160565b91506102b583610160565b92508282026102c381610160565b91507f800000000000000000000000000000000000000000000000000000000000000084145f841216156102fa576102f9610273565b5b828205841483151761030f5761030e610273565b5b5092915050565b5f61032082610160565b915061032b83610160565b925082820390508181125f8412168282135f8512151617156103505761034f610273565b5b9291505056fea26469706673582212202fff147435d302b9af45c31f965cfd90bbcc60c9b2ded54df05eaabd1f0f870b64736f6c634300081a0033",
					"opcodes": "PUSH1 0x80 PUSH1 0x40 MSTORE CALLVALUE DUP1 ISZERO PUSH1 0xE JUMPI PUSH0 DUP1 REVERT JUMPDEST POP PUSH2 0x38C DUP1 PUSH2 0x1C PUSH0 CODECOPY PUSH0 RETURN INVALID PUSH1 0x80 PUSH1 0x40 MSTORE CALLVALUE DUP1 ISZERO PUSH2 0xF JUMPI PUSH0 DUP1 REVERT JUMPDEST POP PUSH1 0x4 CALLDATASIZE LT PUSH2 0x29 JUMPI PUSH0 CALLDATALOAD PUSH1 0xE0 SHR DUP1 PUSH4 0x576BF5C EQ PUSH2 0x2D JUMPI JUMPDEST PUSH0 DUP1 REVERT JUMPDEST PUSH2 0x47 PUSH1 0x4 DUP1 CALLDATASIZE SUB DUP2 ADD SWAP1 PUSH2 0x42 SWAP2 SWAP1 PUSH2 0x193 JUMP JUMPDEST PUSH2 0x5D JUMP JUMPDEST PUSH1 0x40 MLOAD PUSH2 0x54 SWAP2 SWAP1 PUSH2 0x253 JUMP JUMPDEST PUSH1 0x40 MLOAD DUP1 SWAP2 SUB SWAP1 RETURN JUMPDEST PUSH1 0x60 PUSH0 DUP3 DUP6 PUSH1 0x4 PUSH2 0x6E SWAP2 SWAP1 PUSH2 0x2A0 JUMP JUMPDEST PUSH2 0x78 SWAP2 SWAP1 PUSH2 0x2A0 JUMP JUMPDEST DUP5 DUP6 PUSH2 0x84 SWAP2 SWAP1 PUSH2 0x2A0 JUMP JUMPDEST PUSH2 0x8E SWAP2 SWAP1 PUSH2 0x316 JUMP JUMPDEST SWAP1 POP PUSH0 DUP2 SGT ISZERO PUSH2 0xD6 JUMPI PUSH1 0x40 MLOAD DUP1 PUSH1 0x40 ADD PUSH1 0x40 MSTORE DUP1 PUSH1 0x20 DUP2 MSTORE PUSH1 0x20 ADD PUSH32 0x54686520726F6F747320617265207265616C20616E642064697374696E63742E DUP2 MSTORE POP SWAP2 POP POP PUSH2 0x155 JUMP JUMPDEST PUSH0 DUP2 SUB PUSH2 0x11B JUMPI PUSH1 0x40 MLOAD DUP1 PUSH1 0x40 ADD PUSH1 0x40 MSTORE DUP1 PUSH1 0x1D DUP2 MSTORE PUSH1 0x20 ADD PUSH32 0x54686520726F6F747320617265207265616C20616E6420657175616C2E000000 DUP2 MSTORE POP SWAP2 POP POP PUSH2 0x155 JUMP JUMPDEST PUSH1 0x40 MLOAD DUP1 PUSH1 0x40 ADD PUSH1 0x40 MSTORE DUP1 PUSH1 0x18 DUP2 MSTORE PUSH1 0x20 ADD PUSH32 0x54686520726F6F74732061726520696D6167696E6172792E0000000000000000 DUP2 MSTORE POP SWAP2 POP POP JUMPDEST SWAP4 SWAP3 POP POP POP JUMP JUMPDEST PUSH0 DUP1 REVERT JUMPDEST PUSH0 DUP2 SWAP1 POP SWAP2 SWAP1 POP JUMP JUMPDEST PUSH2 0x172 DUP2 PUSH2 0x160 JUMP JUMPDEST DUP2 EQ PUSH2 0x17C JUMPI PUSH0 DUP1 REVERT JUMPDEST POP JUMP JUMPDEST PUSH0 DUP2 CALLDATALOAD SWAP1 POP PUSH2 0x18D DUP2 PUSH2 0x169 JUMP JUMPDEST SWAP3 SWAP2 POP POP JUMP JUMPDEST PUSH0 DUP1 PUSH0 PUSH1 0x60 DUP5 DUP7 SUB SLT ISZERO PUSH2 0x1AA JUMPI PUSH2 0x1A9 PUSH2 0x15C JUMP JUMPDEST JUMPDEST PUSH0 PUSH2 0x1B7 DUP7 DUP3 DUP8 ADD PUSH2 0x17F JUMP JUMPDEST SWAP4 POP POP PUSH1 0x20 PUSH2 0x1C8 DUP7 DUP3 DUP8 ADD PUSH2 0x17F JUMP JUMPDEST SWAP3 POP POP PUSH1 0x40 PUSH2 0x1D9 DUP7 DUP3 DUP8 ADD PUSH2 0x17F JUMP JUMPDEST SWAP2 POP POP SWAP3 POP SWAP3 POP SWAP3 JUMP JUMPDEST PUSH0 DUP2 MLOAD SWAP1 POP SWAP2 SWAP1 POP JUMP JUMPDEST PUSH0 DUP3 DUP3 MSTORE PUSH1 0x20 DUP3 ADD SWAP1 POP SWAP3 SWAP2 POP POP JUMP JUMPDEST DUP3 DUP2 DUP4 MCOPY PUSH0 DUP4 DUP4 ADD MSTORE POP POP POP JUMP JUMPDEST PUSH0 PUSH1 0x1F NOT PUSH1 0x1F DUP4 ADD AND SWAP1 POP SWAP2 SWAP1 POP JUMP JUMPDEST PUSH0 PUSH2 0x225 DUP3 PUSH2 0x1E3 JUMP JUMPDEST PUSH2 0x22F DUP2 DUP6 PUSH2 0x1ED JUMP JUMPDEST SWAP4 POP PUSH2 0x23F DUP2 DUP6 PUSH1 0x20 DUP7 ADD PUSH2 0x1FD JUMP JUMPDEST PUSH2 0x248 DUP2 PUSH2 0x20B JUMP JUMPDEST DUP5 ADD SWAP2 POP POP SWAP3 SWAP2 POP POP JUMP JUMPDEST PUSH0 PUSH1 0x20 DUP3 ADD SWAP1 POP DUP2 DUP2 SUB PUSH0 DUP4 ADD MSTORE PUSH2 0x26B DUP2 DUP5 PUSH2 0x21B JUMP JUMPDEST SWAP1 POP SWAP3 SWAP2 POP POP JUMP JUMPDEST PUSH32 0x4E487B7100000000000000000000000000000000000000000000000000000000 PUSH0 MSTORE PUSH1 0x11 PUSH1 0x4 MSTORE PUSH1 0x24 PUSH0 REVERT JUMPDEST PUSH0 PUSH2 0x2AA DUP3 PUSH2 0x160 JUMP JUMPDEST SWAP2 POP PUSH2 0x2B5 DUP4 PUSH2 0x160 JUMP JUMPDEST SWAP3 POP DUP3 DUP3 MUL PUSH2 0x2C3 DUP2 PUSH2 0x160 JUMP JUMPDEST SWAP2 POP PUSH32 0x8000000000000000000000000000000000000000000000000000000000000000 DUP5 EQ PUSH0 DUP5 SLT AND ISZERO PUSH2 0x2FA JUMPI PUSH2 0x2F9 PUSH2 0x273 JUMP JUMPDEST JUMPDEST DUP3 DUP3 SDIV DUP5 EQ DUP4 ISZERO OR PUSH2 0x30F JUMPI PUSH2 0x30E PUSH2 0x273 JUMP JUMPDEST JUMPDEST POP SWAP3 SWAP2 POP POP JUMP JUMPDEST PUSH0 PUSH2 0x320 DUP3 PUSH2 0x160 JUMP JUMPDEST SWAP2 POP PUSH2 0x32B DUP4 PUSH2 0x160 JUMP JUMPDEST SWAP3 POP DUP3 DUP3 SUB SWAP1 POP DUP2 DUP2 SLT PUSH0 DUP5 SLT AND DUP3 DUP3 SGT PUSH0 DUP6 SLT ISZERO AND OR ISZERO PUSH2 0x350 JUMPI PUSH2 0x34F PUSH2 0x273 JUMP JUMPDEST JUMPDEST SWAP3 SWAP2 POP POP JUMP INVALID LOG2 PUSH5 0x6970667358 0x22 SLT KECCAK256 0x2F SELFDESTRUCT EQ PUSH21 0x35D302B9AF45C31F965CFD90BBCC60C9B2DED54DF0 MCOPY 0xAA 0xBD 0x1F 0xF DUP8 SIGNEXTEND PUSH5 0x736F6C6343 STOP ADDMOD BYTE STOP CALLER "
				},
				"gasEstimates": {
					"creation": {
						"codeDepositCost": "181600",
						"executionCost": "224",
						"totalCost": "181824"
					},
					"external": {
						"checkRoots(int256,int256,int256)": "infinite"
					}
				},
				"methodIdentifiers": {
					"checkRoots(int256,int256,int256)": "0576bf5c"
				}
			},
			"storageLayout": {
				"storage": [],
				"types": null
			},
			"userdoc": {
				"kind": "user",
				"methods": {},
				"version": 1
			}
		}
	}
}