{
	"data": {
		"bytecode": {
			"linkReferences": {},
			"object": "6080604052348015600e575f80fd5b506125558061001c5f395ff3fe608060405234801561000f575f80fd5b506004361061004a575f3560e01c8063281f5dfc1461004e5780637df221e91461006a57806386dae4ec1461009a578063e8f3f53b146100b6575b5f80fd5b61006860048036038101906100639190610938565b6100ec565b005b610084600480360381019061007f9190610ac0565b6102be565b6040516100919190610b65565b60405180910390f35b6100b460048036038101906100af9190610b7e565b6102f8565b005b6100d060048036038101906100cb9190610bf4565b6104b5565b6040516100e39796959493929190610caa565b60405180910390f35b5f6040516100f9906107ab565b604051809103905ff080158015610112573d5f803e3d5ffd5b5090508073ffffffffffffffffffffffffffffffffffffffff1663735f5aec87876040518363ffffffff1660e01b8152600401610150929190610d3a565b5f604051808303815f87803b158015610167575f80fd5b505af1158015610179573d5f803e3d5ffd5b505050508073ffffffffffffffffffffffffffffffffffffffff1663eeddb4f28b8b8b8b6040518563ffffffff1660e01b81526004016101bc9493929190610d6f565b5f604051808303815f87803b1580156101d3575f80fd5b505af11580156101e5573d5f803e3d5ffd5b505050508073ffffffffffffffffffffffffffffffffffffffff16632224b6a98585856040518463ffffffff1660e01b815260040161022693929190610dc7565b5f604051808303815f87803b15801561023d575f80fd5b505af115801561024f573d5f803e3d5ffd5b505050505f81908060018154018082558091505060019003905f5260205f20015f9091909190916101000a81548173ffffffffffffffffffffffffffffffffffffffff021916908373ffffffffffffffffffffffffffffffffffffffff16021790555050505050505050505050565b5f81815481106102cc575f80fd5b905f5260205f20015f915054906101000a900473ffffffffffffffffffffffffffffffffffffffff1681565b5f5b5f805490508110156104b057826040516020016103179190610e44565b604051602081830303815290604052805190602001205f82815481106103405761033f610e5a565b5b905f5260205f20015f9054906101000a900473ffffffffffffffffffffffffffffffffffffffff1673ffffffffffffffffffffffffffffffffffffffff16638d1d2d906040518163ffffffff1660e01b81526004015f60405180830381865afa1580156103af573d5f803e3d5ffd5b505050506040513d5f823e3d601f19601f820116820180604052508101906103d79190610ef5565b6040516020016103e79190610e44565b60405160208183030381529060405280519060200120036104a3575f818154811061041557610414610e5a565b5b905f5260205f20015f9054906101000a900473ffffffffffffffffffffffffffffffffffffffff1673ffffffffffffffffffffffffffffffffffffffff166365410701836040518263ffffffff1660e01b81526004016104759190610f3c565b5f604051808303815f87803b15801561048c575f80fd5b505af115801561049e573d5f803e3d5ffd5b505050505b80806001019150506102fa565b505050565b60608060605f6060805f805f90505b5f8054905081101561076457886040516020016104e19190610e44565b604051602081830303815290604052805190602001205f828154811061050a57610509610e5a565b5b905f5260205f20015f9054906101000a900473ffffffffffffffffffffffffffffffffffffffff1673ffffffffffffffffffffffffffffffffffffffff16638d1d2d906040518163ffffffff1660e01b81526004015f60405180830381865afa158015610579573d5f803e3d5ffd5b505050506040513d5f823e3d601f19601f820116820180604052508101906105a19190610ef5565b6040516020016105b19190610e44565b6040516020818303038152906040528051906020012003610757575f805f805f85815481106105e3576105e2610e5a565b5b905f5260205f20015f9054906101000a900473ffffffffffffffffffffffffffffffffffffffff1673ffffffffffffffffffffffffffffffffffffffff16634128eda06040518163ffffffff1660e01b81526004015f60405180830381865afa158015610652573d5f803e3d5ffd5b505050506040513d5f823e3d601f19601f8201168201806040525081019061067a9190610f70565b93509350935093505f805f80888154811061069857610697610e5a565b5b905f5260205f20015f9054906101000a900473ffffffffffffffffffffffffffffffffffffffff1673ffffffffffffffffffffffffffffffffffffffff1663f8fd19486040518163ffffffff1660e01b81526004015f60405180830381865afa158015610707573d5f803e3d5ffd5b505050506040513d5f823e3d601f19601f8201168201806040525081019061072f9190611028565b925092509250868686868686869e509e509e509e509e509e509e5050505050505050506107a0565b80806001019150506104c4565b506040517f08c379a0000000000000000000000000000000000000000000000000000000008152600401610797906110fa565b60405180910390fd5b919395979092949650565b6114078061111983390190565b5f604051905090565b5f80fd5b5f80fd5b5f80fd5b5f80fd5b5f601f19601f8301169050919050565b7f4e487b71000000000000000000000000000000000000000000000000000000005f52604160045260245ffd5b610817826107d1565b810181811067ffffffffffffffff82111715610836576108356107e1565b5b80604052505050565b5f6108486107b8565b9050610854828261080e565b919050565b5f67ffffffffffffffff821115610873576108726107e1565b5b61087c826107d1565b9050602081019050919050565b828183375f83830152505050565b5f6108a96108a484610859565b61083f565b9050828152602081018484840111156108c5576108c46107cd565b5b6108d0848285610889565b509392505050565b5f82601f8301126108ec576108eb6107c9565b5b81356108fc848260208601610897565b91505092915050565b5f819050919050565b61091781610905565b8114610921575f80fd5b50565b5f813590506109328161090e565b92915050565b5f805f805f805f805f6101208a8c031215610956576109556107c1565b5b5f8a013567ffffffffffffffff811115610973576109726107c5565b5b61097f8c828d016108d8565b99505060208a013567ffffffffffffffff8111156109a05761099f6107c5565b5b6109ac8c828d016108d8565b98505060408a013567ffffffffffffffff8111156109cd576109cc6107c5565b5b6109d98c828d016108d8565b97505060606109ea8c828d01610924565b96505060808a013567ffffffffffffffff811115610a0b57610a0a6107c5565b5b610a178c828d016108d8565b95505060a08a013567ffffffffffffffff811115610a3857610a376107c5565b5b610a448c828d016108d8565b94505060c08a013567ffffffffffffffff811115610a6557610a646107c5565b5b610a718c828d016108d8565b93505060e08a013567ffffffffffffffff811115610a9257610a916107c5565b5b610a9e8c828d016108d8565b925050610100610ab08c828d01610924565b9150509295985092959850929598565b5f60208284031215610ad557610ad46107c1565b5b5f610ae284828501610924565b91505092915050565b5f73ffffffffffffffffffffffffffffffffffffffff82169050919050565b5f819050919050565b5f610b2d610b28610b2384610aeb565b610b0a565b610aeb565b9050919050565b5f610b3e82610b13565b9050919050565b5f610b4f82610b34565b9050919050565b610b5f81610b45565b82525050565b5f602082019050610b785f830184610b56565b92915050565b5f8060408385031215610b9457610b936107c1565b5b5f83013567ffffffffffffffff811115610bb157610bb06107c5565b5b610bbd858286016108d8565b925050602083013567ffffffffffffffff811115610bde57610bdd6107c5565b5b610bea858286016108d8565b9150509250929050565b5f60208284031215610c0957610c086107c1565b5b5f82013567ffffffffffffffff811115610c2657610c256107c5565b5b610c32848285016108d8565b91505092915050565b5f81519050919050565b5f82825260208201905092915050565b8281835e5f83830152505050565b5f610c6d82610c3b565b610c778185610c45565b9350610c87818560208601610c55565b610c90816107d1565b840191505092915050565b610ca481610905565b82525050565b5f60e0820190508181035f830152610cc2818a610c63565b90508181036020830152610cd68189610c63565b90508181036040830152610cea8188610c63565b9050610cf96060830187610c9b565b8181036080830152610d0b8186610c63565b905081810360a0830152610d1f8185610c63565b9050610d2e60c0830184610c9b565b98975050505050505050565b5f6040820190508181035f830152610d528185610c63565b90508181036020830152610d668184610c63565b90509392505050565b5f6080820190508181035f830152610d878187610c63565b90508181036020830152610d9b8186610c63565b90508181036040830152610daf8185610c63565b9050610dbe6060830184610c9b565b95945050505050565b5f6060820190508181035f830152610ddf8186610c63565b90508181036020830152610df38185610c63565b9050610e026040830184610c9b565b949350505050565b5f81905092915050565b5f610e1e82610c3b565b610e288185610e0a565b9350610e38818560208601610c55565b80840191505092915050565b5f610e4f8284610e14565b915081905092915050565b7f4e487b71000000000000000000000000000000000000000000000000000000005f52603260045260245ffd5b5f610e99610e9484610859565b61083f565b905082815260208101848484011115610eb557610eb46107cd565b5b610ec0848285610c55565b509392505050565b5f82601f830112610edc57610edb6107c9565b5b8151610eec848260208601610e87565b91505092915050565b5f60208284031215610f0a57610f096107c1565b5b5f82015167ffffffffffffffff811115610f2757610f266107c5565b5b610f3384828501610ec8565b91505092915050565b5f6020820190508181035f830152610f548184610c63565b905092915050565b5f81519050610f6a8161090e565b92915050565b5f805f8060808587031215610f8857610f876107c1565b5b5f85015167ffffffffffffffff811115610fa557610fa46107c5565b5b610fb187828801610ec8565b945050602085015167ffffffffffffffff811115610fd257610fd16107c5565b5b610fde87828801610ec8565b935050604085015167ffffffffffffffff811115610fff57610ffe6107c5565b5b61100b87828801610ec8565b925050606061101c87828801610f5c565b91505092959194509250565b5f805f6060848603121561103f5761103e6107c1565b5b5f84015167ffffffffffffffff81111561105c5761105b6107c5565b5b61106886828701610ec8565b935050602084015167ffffffffffffffff811115611089576110886107c5565b5b61109586828701610ec8565b92505060406110a686828701610f5c565b9150509250925092565b7f53747564656e74206e6f7420666f756e642e00000000000000000000000000005f82015250565b5f6110e4601283610c45565b91506110ef826110b0565b602082019050919050565b5f6020820190508181035f830152611111816110d8565b905091905056fe6080604052348015600e575f80fd5b506113eb8061001c5f395ff3fe608060405234801561000f575f80fd5b5060043610610109575f3560e01c8063b508ba31116100a0578063cb9cb0c21161006f578063cb9cb0c214610270578063d57831f51461028e578063eb96548f146102ac578063eeddb4f2146102ca578063f8fd1948146102e657610109565b8063b508ba31146101e6578063b975abb314610204578063c607ba4d14610222578063c7ef6bfb1461024057610109565b806365410701116100dc5780636541070114610172578063735f5aec1461018e5780638d1d2d90146101aa57806399d568b3146101c857610109565b806311ebae411461010d5780632224b6a91461012b5780634128eda0146101475780634cc4ce5d14610168575b5f80fd5b610115610306565b6040516101229190610b5c565b60405180910390f35b61014560048036038101906101409190610cec565b610392565b005b61014f6103bd565b60405161015f9493929190610d83565b60405180910390f35b610170610578565b005b61018c60048036038101906101879190610ddb565b6105b5565b005b6101a860048036038101906101a39190610e22565b6105c7565b005b6101b26105eb565b6040516101bf9190610b5c565b60405180910390f35b6101d0610677565b6040516101dd9190610e98565b60405180910390f35b6101ee61067d565b6040516101fb9190610b5c565b60405180910390f35b61020c610709565b6040516102199190610b5c565b60405180910390f35b61022a610795565b6040516102379190610b5c565b60405180910390f35b61025a60048036038101906102559190610ddb565b610821565b6040516102679190610f2b565b60405180910390f35b610278610869565b6040516102859190610b5c565b60405180910390f35b6102966108f4565b6040516102a39190610e98565b60405180910390f35b6102b46108fa565b6040516102c19190610b5c565b60405180910390f35b6102e460048036038101906102df9190610f44565b610986565b005b6102ee6109c3565b6040516102fd93929190610ffc565b60405180910390f35b600180546103139061106c565b80601f016020809104026020016040519081016040528092919081815260200182805461033f9061106c565b801561038a5780601f106103615761010080835404028352916020019161038a565b820191905f5260205f20905b81548152906001019060200180831161036d57829003601f168201915b505050505081565b825f90816103a09190611230565b5081600190816103b09190611230565b5080600281905550505050565b60608060605f6003600460056006548380546103d89061106c565b80601f01602080910402602001604051908101604052809291908181526020018280546104049061106c565b801561044f5780601f106104265761010080835404028352916020019161044f565b820191905f5260205f20905b81548152906001019060200180831161043257829003601f168201915b505050505093508280546104629061106c565b80601f016020809104026020016040519081016040528092919081815260200182805461048e9061106c565b80156104d95780601f106104b0576101008083540402835291602001916104d9565b820191905f5260205f20905b8154815290600101906020018083116104bc57829003601f168201915b505050505092508180546104ec9061106c565b80601f01602080910402602001604051908101604052809291908181526020018280546105189061106c565b80156105635780601f1061053a57610100808354040283529160200191610563565b820191905f5260205f20905b81548152906001019060200180831161054657829003601f168201915b50505050509150935093509350935090919293565b7f9cc1c5ef53a12bf07302ebb89540f7eac20fa8e6318d66a4149931ec0aeba09e600760086040516105ab929190611380565b60405180910390a1565b805f90816105c39190611230565b5050565b81600790816105d69190611230565b5080600890816105e69190611230565b505050565b600480546105f89061106c565b80601f01602080910402602001604051908101604052809291908181526020018280546106249061106c565b801561066f5780601f106106465761010080835404028352916020019161066f565b820191905f5260205f20905b81548152906001019060200180831161065257829003601f168201915b505050505081565b60025481565b6003805461068a9061106c565b80601f01602080910402602001604051908101604052809291908181526020018280546106b69061106c565b80156107015780601f106106d857610100808354040283529160200191610701565b820191905f5260205f20905b8154815290600101906020018083116106e457829003601f168201915b505050505081565b600780546107169061106c565b80601f01602080910402602001604051908101604052809291908181526020018280546107429061106c565b801561078d5780601f106107645761010080835404028352916020019161078d565b820191905f5260205f20905b81548152906001019060200180831161077057829003601f168201915b505050505081565b600580546107a29061106c565b80601f01602080910402602001604051908101604052809291908181526020018280546107ce9061106c565b80156108195780601f106107f057610100808354040283529160200191610819565b820191905f5260205f20905b8154815290600101906020018083116107fc57829003601f168201915b505050505081565b6009818051602081018201805184825260208301602085012081835280955050505050505f915054906101000a900473ffffffffffffffffffffffffffffffffffffffff1681565b5f80546108759061106c565b80601f01602080910402602001604051908101604052809291908181526020018280546108a19061106c565b80156108ec5780601f106108c3576101008083540402835291602001916108ec565b820191905f5260205f20905b8154815290600101906020018083116108cf57829003601f168201915b505050505081565b60065481565b600880546109079061106c565b80601f01602080910402602001604051908101604052809291908181526020018280546109339061106c565b801561097e5780601f106109555761010080835404028352916020019161097e565b820191905f5260205f20905b81548152906001019060200180831161096157829003601f168201915b505050505081565b83600390816109959190611230565b5082600490816109a59190611230565b5081600590816109b59190611230565b508060068190555050505050565b6060805f8060016002548280546109d99061106c565b80601f0160208091040260200160405190810160405280929190818152602001828054610a059061106c565b8015610a505780601f10610a2757610100808354040283529160200191610a50565b820191905f5260205f20905b815481529060010190602001808311610a3357829003601f168201915b50505050509250818054610a639061106c565b80601f0160208091040260200160405190810160405280929190818152602001828054610a8f9061106c565b8015610ada5780601f10610ab157610100808354040283529160200191610ada565b820191905f5260205f20905b815481529060010190602001808311610abd57829003601f168201915b50505050509150925092509250909192565b5f81519050919050565b5f82825260208201905092915050565b8281835e5f83830152505050565b5f601f19601f8301169050919050565b5f610b2e82610aec565b610b388185610af6565b9350610b48818560208601610b06565b610b5181610b14565b840191505092915050565b5f6020820190508181035f830152610b748184610b24565b905092915050565b5f604051905090565b5f80fd5b5f80fd5b5f80fd5b5f80fd5b7f4e487b71000000000000000000000000000000000000000000000000000000005f52604160045260245ffd5b610bcb82610b14565b810181811067ffffffffffffffff82111715610bea57610be9610b95565b5b80604052505050565b5f610bfc610b7c565b9050610c088282610bc2565b919050565b5f67ffffffffffffffff821115610c2757610c26610b95565b5b610c3082610b14565b9050602081019050919050565b828183375f83830152505050565b5f610c5d610c5884610c0d565b610bf3565b905082815260208101848484011115610c7957610c78610b91565b5b610c84848285610c3d565b509392505050565b5f82601f830112610ca057610c9f610b8d565b5b8135610cb0848260208601610c4b565b91505092915050565b5f819050919050565b610ccb81610cb9565b8114610cd5575f80fd5b50565b5f81359050610ce681610cc2565b92915050565b5f805f60608486031215610d0357610d02610b85565b5b5f84013567ffffffffffffffff811115610d2057610d1f610b89565b5b610d2c86828701610c8c565b935050602084013567ffffffffffffffff811115610d4d57610d4c610b89565b5b610d5986828701610c8c565b9250506040610d6a86828701610cd8565b9150509250925092565b610d7d81610cb9565b82525050565b5f6080820190508181035f830152610d9b8187610b24565b90508181036020830152610daf8186610b24565b90508181036040830152610dc38185610b24565b9050610dd26060830184610d74565b95945050505050565b5f60208284031215610df057610def610b85565b5b5f82013567ffffffffffffffff811115610e0d57610e0c610b89565b5b610e1984828501610c8c565b91505092915050565b5f8060408385031215610e3857610e37610b85565b5b5f83013567ffffffffffffffff811115610e5557610e54610b89565b5b610e6185828601610c8c565b925050602083013567ffffffffffffffff811115610e8257610e81610b89565b5b610e8e85828601610c8c565b9150509250929050565b5f602082019050610eab5f830184610d74565b92915050565b5f73ffffffffffffffffffffffffffffffffffffffff82169050919050565b5f819050919050565b5f610ef3610eee610ee984610eb1565b610ed0565b610eb1565b9050919050565b5f610f0482610ed9565b9050919050565b5f610f1582610efa565b9050919050565b610f2581610f0b565b82525050565b5f602082019050610f3e5f830184610f1c565b92915050565b5f805f8060808587031215610f5c57610f5b610b85565b5b5f85013567ffffffffffffffff811115610f7957610f78610b89565b5b610f8587828801610c8c565b945050602085013567ffffffffffffffff811115610fa657610fa5610b89565b5b610fb287828801610c8c565b935050604085013567ffffffffffffffff811115610fd357610fd2610b89565b5b610fdf87828801610c8c565b9250506060610ff087828801610cd8565b91505092959194509250565b5f6060820190508181035f8301526110148186610b24565b905081810360208301526110288185610b24565b90506110376040830184610d74565b949350505050565b7f4e487b71000000000000000000000000000000000000000000000000000000005f52602260045260245ffd5b5f600282049050600182168061108357607f821691505b6020821081036110965761109561103f565b5b50919050565b5f819050815f5260205f209050919050565b5f6020601f8301049050919050565b5f82821b905092915050565b5f600883026110f87fffffffffffffffffffffffffffffffffffffffffffffffffffffffffffffffff826110bd565b61110286836110bd565b95508019841693508086168417925050509392505050565b5f61113461112f61112a84610cb9565b610ed0565b610cb9565b9050919050565b5f819050919050565b61114d8361111a565b6111616111598261113b565b8484546110c9565b825550505050565b5f90565b611175611169565b611180818484611144565b505050565b5b818110156111a3576111985f8261116d565b600181019050611186565b5050565b601f8211156111e8576111b98161109c565b6111c2846110ae565b810160208510156111d1578190505b6111e56111dd856110ae565b830182611185565b50505b505050565b5f82821c905092915050565b5f6112085f19846008026111ed565b1980831691505092915050565b5f61122083836111f9565b9150826002028217905092915050565b61123982610aec565b67ffffffffffffffff81111561125257611251610b95565b5b61125c825461106c565b6112678282856111a7565b5f60209050601f831160018114611298575f8415611286578287015190505b6112908582611215565b8655506112f7565b601f1984166112a68661109c565b5f5b828110156112cd578489015182556001820191506020850194506020810190506112a8565b868310156112ea57848901516112e6601f8916826111f9565b8355505b6001600288020188555050505b505050505050565b5f815461130b8161106c565b6113158186610af6565b9450600182165f811461132f576001811461134557611377565b60ff198316865281151560200286019350611377565b61134e8561109c565b5f5b8381101561136f57815481890152600182019150602081019050611350565b808801955050505b50505092915050565b5f6040820190508181035f83015261139881856112ff565b905081810360208301526113ac81846112ff565b9050939250505056fea2646970667358221220d76f4c5c94a49052d6ead0e1676eedcd941726707b3f2eb8c2e664ca9df58b2c64736f6c634300081a0033a26469706673582212204f47449981e2efd1a4b311a33daa409833f59135bec2dfe862b12a914e515dda64736f6c634300081a0033",
			"opcodes": "PUSH1 0x80 PUSH1 0x40 MSTORE CALLVALUE DUP1 ISZERO PUSH1 0xE JUMPI PUSH0 DUP1 REVERT JUMPDEST POP PUSH2 0x2555 DUP1 PUSH2 0x1C PUSH0 CODECOPY PUSH0 RETURN INVALID PUSH1 0x80 PUSH1 0x40 MSTORE CALLVALUE DUP1 ISZERO PUSH2 0xF JUMPI PUSH0 DUP1 REVERT JUMPDEST POP PUSH1 0x4 CALLDATASIZE LT PUSH2 0x4A JUMPI PUSH0 CALLDATALOAD PUSH1 0xE0 SHR DUP1 PUSH4 0x281F5DFC EQ PUSH2 0x4E JUMPI DUP1 PUSH4 0x7DF221E9 EQ PUSH2 0x6A JUMPI DUP1 PUSH4 0x86DAE4EC EQ PUSH2 0x9A JUMPI DUP1 PUSH4 0xE8F3F53B EQ PUSH2 0xB6 JUMPI JUMPDEST PUSH0 DUP1 REVERT JUMPDEST PUSH2 0x68 PUSH1 0x4 DUP1 CALLDATASIZE SUB DUP2 ADD SWAP1 PUSH2 0x63 SWAP2 SWAP1 PUSH2 0x938 JUMP JUMPDEST PUSH2 0xEC JUMP JUMPDEST STOP JUMPDEST PUSH2 0x84 PUSH1 0x4 DUP1 CALLDATASIZE SUB DUP2 ADD SWAP1 PUSH2 0x7F SWAP2 SWAP1 PUSH2 0xAC0 JUMP JUMPDEST PUSH2 0x2BE JUMP JUMPDEST PUSH1 0x40 MLOAD PUSH2 0x91 SWAP2 SWAP1 PUSH2 0xB65 JUMP JUMPDEST PUSH1 0x40 MLOAD DUP1 SWAP2 SUB SWAP1 RETURN JUMPDEST PUSH2 0xB4 PUSH1 0x4 DUP1 CALLDATASIZE SUB DUP2 ADD SWAP1 PUSH2 0xAF SWAP2 SWAP1 PUSH2 0xB7E JUMP JUMPDEST PUSH2 0x2F8 JUMP JUMPDEST STOP JUMPDEST PUSH2 0xD0 PUSH1 0x4 DUP1 CALLDATASIZE SUB DUP2 ADD SWAP1 PUSH2 0xCB SWAP2 SWAP1 PUSH2 0xBF4 JUMP JUMPDEST PUSH2 0x4B5 JUMP JUMPDEST PUSH1 0x40 MLOAD PUSH2 0xE3 SWAP8 SWAP7 SWAP6 SWAP5 SWAP4 SWAP3 SWAP2 SWAP1 PUSH2 0xCAA JUMP JUMPDEST PUSH1 0x40 MLOAD DUP1 SWAP2 SUB SWAP1 RETURN JUMPDEST PUSH0 PUSH1 0x40 MLOAD PUSH2 0xF9 SWAP1 PUSH2 0x7AB JUMP JUMPDEST PUSH1 0x40 MLOAD DUP1 SWAP2 SUB SWAP1 PUSH0 CREATE DUP1 ISZERO DUP1 ISZERO PUSH2 0x112 JUMPI RETURNDATASIZE PUSH0 DUP1 RETURNDATACOPY RETURNDATASIZE PUSH0 REVERT JUMPDEST POP SWAP1 POP DUP1 PUSH20 0xFFFFFFFFFFFFFFFFFFFFFFFFFFFFFFFFFFFFFFFF AND PUSH4 0x735F5AEC DUP8 DUP8 PUSH1 0x40 MLOAD DUP4 PUSH4 0xFFFFFFFF AND PUSH1 0xE0 SHL DUP2 MSTORE PUSH1 0x4 ADD PUSH2 0x150 SWAP3 SWAP2 SWAP1 PUSH2 0xD3A JUMP JUMPDEST PUSH0 PUSH1 0x40 MLOAD DUP1 DUP4 SUB DUP2 PUSH0 DUP8 DUP1 EXTCODESIZE ISZERO DUP1 ISZERO PUSH2 0x167 JUMPI PUSH0 DUP1 REVERT JUMPDEST POP GAS CALL ISZERO DUP1 ISZERO PUSH2 0x179 JUMPI RETURNDATASIZE PUSH0 DUP1 RETURNDATACOPY RETURNDATASIZE PUSH0 REVERT JUMPDEST POP POP POP POP DUP1 PUSH20 0xFFFFFFFFFFFFFFFFFFFFFFFFFFFFFFFFFFFFFFFF AND PUSH4 0xEEDDB4F2 DUP12 DUP12 DUP12 DUP12 PUSH1 0x40 MLOAD DUP6 PUSH4 0xFFFFFFFF AND PUSH1 0xE0 SHL DUP2 MSTORE PUSH1 0x4 ADD PUSH2 0x1BC SWAP5 SWAP4 SWAP3 SWAP2 SWAP1 PUSH2 0xD6F JUMP JUMPDEST PUSH0 PUSH1 0x40 MLOAD DUP1 DUP4 SUB DUP2 PUSH0 DUP8 DUP1 EXTCODESIZE ISZERO DUP1 ISZERO PUSH2 0x1D3 JUMPI PUSH0 DUP1 REVERT JUMPDEST POP GAS CALL ISZERO DUP1 ISZERO PUSH2 0x1E5 JUMPI RETURNDATASIZE PUSH0 DUP1 RETURNDATACOPY RETURNDATASIZE PUSH0 REVERT JUMPDEST POP POP POP POP DUP1 PUSH20 0xFFFFFFFFFFFFFFFFFFFFFFFFFFFFFFFFFFFFFFFF AND PUSH4 0x2224B6A9 DUP6 DUP6 DUP6 PUSH1 0x40 MLOAD DUP5 PUSH4 0xFFFFFFFF AND PUSH1 0xE0 SHL DUP2 MSTORE PUSH1 0x4 ADD PUSH2 0x226 SWAP4 SWAP3 SWAP2 SWAP1 PUSH2 0xDC7 JUMP JUMPDEST PUSH0 PUSH1 0x40 MLOAD DUP1 DUP4 SUB DUP2 PUSH0 DUP8 DUP1 EXTCODESIZE ISZERO DUP1 ISZERO PUSH2 0x23D JUMPI PUSH0 DUP1 REVERT JUMPDEST POP GAS CALL ISZERO DUP1 ISZERO PUSH2 0x24F JUMPI RETURNDATASIZE PUSH0 DUP1 RETURNDATACOPY RETURNDATASIZE PUSH0 REVERT JUMPDEST POP POP POP POP PUSH0 DUP2 SWAP1 DUP1 PUSH1 0x1 DUP2 SLOAD ADD DUP1 DUP3 SSTORE DUP1 SWAP2 POP POP PUSH1 0x1 SWAP1 SUB SWAP1 PUSH0 MSTORE PUSH1 0x20 PUSH0 KECCAK256 ADD PUSH0 SWAP1 SWAP2 SWAP1 SWAP2 SWAP1 SWAP2 PUSH2 0x100 EXP DUP2 SLOAD DUP2 PUSH20 0xFFFFFFFFFFFFFFFFFFFFFFFFFFFFFFFFFFFFFFFF MUL NOT AND SWAP1 DUP4 PUSH20 0xFFFFFFFFFFFFFFFFFFFFFFFFFFFFFFFFFFFFFFFF AND MUL OR SWAP1 SSTORE POP POP POP POP POP POP POP POP POP POP POP JUMP JUMPDEST PUSH0 DUP2 DUP2 SLOAD DUP2 LT PUSH2 0x2CC JUMPI PUSH0 DUP1 REVERT JUMPDEST SWAP1 PUSH0 MSTORE PUSH1 0x20 PUSH0 KECCAK256 ADD PUSH0 SWAP2 POP SLOAD SWAP1 PUSH2 0x100 EXP SWAP1 DIV PUSH20 0xFFFFFFFFFFFFFFFFFFFFFFFFFFFFFFFFFFFFFFFF AND DUP2 JUMP JUMPDEST PUSH0 JUMPDEST PUSH0 DUP1 SLOAD SWAP1 POP DUP2 LT ISZERO PUSH2 0x4B0 JUMPI DUP3 PUSH1 0x40 MLOAD PUSH1 0x20 ADD PUSH2 0x317 SWAP2 SWAP1 PUSH2 0xE44 JUMP JUMPDEST PUSH1 0x40 MLOAD PUSH1 0x20 DUP2 DUP4 SUB SUB DUP2 MSTORE SWAP1 PUSH1 0x40 MSTORE DUP1 MLOAD SWAP1 PUSH1 0x20 ADD KECCAK256 PUSH0 DUP3 DUP2 SLOAD DUP2 LT PUSH2 0x340 JUMPI PUSH2 0x33F PUSH2 0xE5A JUMP JUMPDEST JUMPDEST SWAP1 PUSH0 MSTORE PUSH1 0x20 PUSH0 KECCAK256 ADD PUSH0 SWAP1 SLOAD SWAP1 PUSH2 0x100 EXP SWAP1 DIV PUSH20 0xFFFFFFFFFFFFFFFFFFFFFFFFFFFFFFFFFFFFFFFF AND PUSH20 0xFFFFFFFFFFFFFFFFFFFFFFFFFFFFFFFFFFFFFFFF AND PUSH4 0x8D1D2D90 PUSH1 0x40 MLOAD DUP2 PUSH4 0xFFFFFFFF AND PUSH1 0xE0 SHL DUP2 MSTORE PUSH1 0x4 ADD PUSH0 PUSH1 0x40 MLOAD DUP1 DUP4 SUB DUP2 DUP7 GAS STATICCALL ISZERO DUP1 ISZERO PUSH2 0x3AF JUMPI RETURNDATASIZE PUSH0 DUP1 RETURNDATACOPY RETURNDATASIZE PUSH0 REVERT JUMPDEST POP POP POP POP PUSH1 0x40 MLOAD RETURNDATASIZE PUSH0 DUP3 RETURNDATACOPY RETURNDATASIZE PUSH1 0x1F NOT PUSH1 0x1F DUP3 ADD AND DUP3 ADD DUP1 PUSH1 0x40 MSTORE POP DUP2 ADD SWAP1 PUSH2 0x3D7 SWAP2 SWAP1 PUSH2 0xEF5 JUMP JUMPDEST PUSH1 0x40 MLOAD PUSH1 0x20 ADD PUSH2 0x3E7 SWAP2 SWAP1 PUSH2 0xE44 JUMP JUMPDEST PUSH1 0x40 MLOAD PUSH1 0x20 DUP2 DUP4 SUB SUB DUP2 MSTORE SWAP1 PUSH1 0x40 MSTORE DUP1 MLOAD SWAP1 PUSH1 0x20 ADD KECCAK256 SUB PUSH2 0x4A3 JUMPI PUSH0 DUP2 DUP2 SLOAD DUP2 LT PUSH2 0x415 JUMPI PUSH2 0x414 PUSH2 0xE5A JUMP JUMPDEST JUMPDEST SWAP1 PUSH0 MSTORE PUSH1 0x20 PUSH0 KECCAK256 ADD PUSH0 SWAP1 SLOAD SWAP1 PUSH2 0x100 EXP SWAP1 DIV PUSH20 0xFFFFFFFFFFFFFFFFFFFFFFFFFFFFFFFFFFFFFFFF AND PUSH20 0xFFFFFFFFFFFFFFFFFFFFFFFFFFFFFFFFFFFFFFFF AND PUSH4 0x65410701 DUP4 PUSH1 0x40 MLOAD DUP3 PUSH4 0xFFFFFFFF AND PUSH1 0xE0 SHL DUP2 MSTORE PUSH1 0x4 ADD PUSH2 0x475 SWAP2 SWAP1 PUSH2 0xF3C JUMP JUMPDEST PUSH0 PUSH1 0x40 MLOAD DUP1 DUP4 SUB DUP2 PUSH0 DUP8 DUP1 EXTCODESIZE ISZERO DUP1 ISZERO PUSH2 0x48C JUMPI PUSH0 DUP1 REVERT JUMPDEST POP GAS CALL ISZERO DUP1 ISZERO PUSH2 0x49E JUMPI RETURNDATASIZE PUSH0 DUP1 RETURNDATACOPY RETURNDATASIZE PUSH0 REVERT JUMPDEST POP POP POP POP JUMPDEST DUP1 DUP1 PUSH1 0x1 ADD SWAP2 POP POP PUSH2 0x2FA JUMP JUMPDEST POP POP POP JUMP JUMPDEST PUSH1 0x60 DUP1 PUSH1 0x60 PUSH0 PUSH1 0x60 DUP1 PUSH0 DUP1 PUSH0 SWAP1 POP JUMPDEST PUSH0 DUP1 SLOAD SWAP1 POP DUP2 LT ISZERO PUSH2 0x764 JUMPI DUP9 PUSH1 0x40 MLOAD PUSH1 0x20 ADD PUSH2 0x4E1 SWAP2 SWAP1 PUSH2 0xE44 JUMP JUMPDEST PUSH1 0x40 MLOAD PUSH1 0x20 DUP2 DUP4 SUB SUB DUP2 MSTORE SWAP1 PUSH1 0x40 MSTORE DUP1 MLOAD SWAP1 PUSH1 0x20 ADD KECCAK256 PUSH0 DUP3 DUP2 SLOAD DUP2 LT PUSH2 0x50A JUMPI PUSH2 0x509 PUSH2 0xE5A JUMP JUMPDEST JUMPDEST SWAP1 PUSH0 MSTORE PUSH1 0x20 PUSH0 KECCAK256 ADD PUSH0 SWAP1 SLOAD SWAP1 PUSH2 0x100 EXP SWAP1 DIV PUSH20 0xFFFFFFFFFFFFFFFFFFFFFFFFFFFFFFFFFFFFFFFF AND PUSH20 0xFFFFFFFFFFFFFFFFFFFFFFFFFFFFFFFFFFFFFFFF AND PUSH4 0x8D1D2D90 PUSH1 0x40 MLOAD DUP2 PUSH4 0xFFFFFFFF AND PUSH1 0xE0 SHL DUP2 MSTORE PUSH1 0x4 ADD PUSH0 PUSH1 0x40 MLOAD DUP1 DUP4 SUB DUP2 DUP7 GAS STATICCALL ISZERO DUP1 ISZERO PUSH2 0x579 JUMPI RETURNDATASIZE PUSH0 DUP1 RETURNDATACOPY RETURNDATASIZE PUSH0 REVERT JUMPDEST POP POP POP POP PUSH1 0x40 MLOAD RETURNDATASIZE PUSH0 DUP3 RETURNDATACOPY RETURNDATASIZE PUSH1 0x1F NOT PUSH1 0x1F DUP3 ADD AND DUP3 ADD DUP1 PUSH1 0x40 MSTORE POP DUP2 ADD SWAP1 PUSH2 0x5A1 SWAP2 SWAP1 PUSH2 0xEF5 JUMP JUMPDEST PUSH1 0x40 MLOAD PUSH1 0x20 ADD PUSH2 0x5B1 SWAP2 SWAP1 PUSH2 0xE44 JUMP JUMPDEST PUSH1 0x40 MLOAD PUSH1 0x20 DUP2 DUP4 SUB SUB DUP2 MSTORE SWAP1 PUSH1 0x40 MSTORE DUP1 MLOAD SWAP1 PUSH1 0x20 ADD KECCAK256 SUB PUSH2 0x757 JUMPI PUSH0 DUP1 PUSH0 DUP1 PUSH0 DUP6 DUP2 SLOAD DUP2 LT PUSH2 0x5E3 JUMPI PUSH2 0x5E2 PUSH2 0xE5A JUMP JUMPDEST JUMPDEST SWAP1 PUSH0 MSTORE PUSH1 0x20 PUSH0 KECCAK256 ADD PUSH0 SWAP1 SLOAD SWAP1 PUSH2 0x100 EXP SWAP1 DIV PUSH20 0xFFFFFFFFFFFFFFFFFFFFFFFFFFFFFFFFFFFFFFFF AND PUSH20 0xFFFFFFFFFFFFFFFFFFFFFFFFFFFFFFFFFFFFFFFF AND PUSH4 0x4128EDA0 PUSH1 0x40 MLOAD DUP2 PUSH4 0xFFFFFFFF AND PUSH1 0xE0 SHL DUP2 MSTORE PUSH1 0x4 ADD PUSH0 PUSH1 0x40 MLOAD DUP1 DUP4 SUB DUP2 DUP7 GAS STATICCALL ISZERO DUP1 ISZERO PUSH2 0x652 JUMPI RETURNDATASIZE PUSH0 DUP1 RETURNDATACOPY RETURNDATASIZE PUSH0 REVERT JUMPDEST POP POP POP POP PUSH1 0x40 MLOAD RETURNDATASIZE PUSH0 DUP3 RETURNDATACOPY RETURNDATASIZE PUSH1 0x1F NOT PUSH1 0x1F DUP3 ADD AND DUP3 ADD DUP1 PUSH1 0x40 MSTORE POP DUP2 ADD SWAP1 PUSH2 0x67A SWAP2 SWAP1 PUSH2 0xF70 JUMP JUMPDEST SWAP4 POP SWAP4 POP SWAP4 POP SWAP4 POP PUSH0 DUP1 PUSH0 DUP1 DUP9 DUP2 SLOAD DUP2 LT PUSH2 0x698 JUMPI PUSH2 0x697 PUSH2 0xE5A JUMP JUMPDEST JUMPDEST SWAP1 PUSH0 MSTORE PUSH1 0x20 PUSH0 KECCAK256 ADD PUSH0 SWAP1 SLOAD SWAP1 PUSH2 0x100 EXP SWAP1 DIV PUSH20 0xFFFFFFFFFFFFFFFFFFFFFFFFFFFFFFFFFFFFFFFF AND PUSH20 0xFFFFFFFFFFFFFFFFFFFFFFFFFFFFFFFFFFFFFFFF AND PUSH4 0xF8FD1948 PUSH1 0x40 MLOAD DUP2 PUSH4 0xFFFFFFFF AND PUSH1 0xE0 SHL DUP2 MSTORE PUSH1 0x4 ADD PUSH0 PUSH1 0x40 MLOAD DUP1 DUP4 SUB DUP2 DUP7 GAS STATICCALL ISZERO DUP1 ISZERO PUSH2 0x707 JUMPI RETURNDATASIZE PUSH0 DUP1 RETURNDATACOPY RETURNDATASIZE PUSH0 REVERT JUMPDEST POP POP POP POP PUSH1 0x40 MLOAD RETURNDATASIZE PUSH0 DUP3 RETURNDATACOPY RETURNDATASIZE PUSH1 0x1F NOT PUSH1 0x1F DUP3 ADD AND DUP3 ADD DUP1 PUSH1 0x40 MSTORE POP DUP2 ADD SWAP1 PUSH2 0x72F SWAP2 SWAP1 PUSH2 0x1028 JUMP JUMPDEST SWAP3 POP SWAP3 POP SWAP3 POP DUP7 DUP7 DUP7 DUP7 DUP7 DUP7 DUP7 SWAP15 POP SWAP15 POP SWAP15 POP SWAP15 POP SWAP15 POP SWAP15 POP SWAP15 POP POP POP POP POP POP POP POP POP PUSH2 0x7A0 JUMP JUMPDEST DUP1 DUP1 PUSH1 0x1 ADD SWAP2 POP POP PUSH2 0x4C4 JUMP JUMPDEST POP PUSH1 0x40 MLOAD PUSH32 0x8C379A000000000000000000000000000000000000000000000000000000000 DUP2 MSTORE PUSH1 0x4 ADD PUSH2 0x797 SWAP1 PUSH2 0x10FA JUMP JUMPDEST PUSH1 0x40 MLOAD DUP1 SWAP2 SUB SWAP1 REVERT JUMPDEST SWAP2 SWAP4 SWAP6 SWAP8 SWAP1 SWAP3 SWAP5 SWAP7 POP JUMP JUMPDEST PUSH2 0x1407 DUP1 PUSH2 0x1119 DUP4 CODECOPY ADD SWAP1 JUMP JUMPDEST PUSH0 PUSH1 0x40 MLOAD SWAP1 POP SWAP1 JUMP JUMPDEST PUSH0 DUP1 REVERT JUMPDEST PUSH0 DUP1 REVERT JUMPDEST PUSH0 DUP1 REVERT JUMPDEST PUSH0 DUP1 REVERT JUMPDEST PUSH0 PUSH1 0x1F NOT PUSH1 0x1F DUP4 ADD AND SWAP1 POP SWAP2 SWAP1 POP JUMP JUMPDEST PUSH32 0x4E487B7100000000000000000000000000000000000000000000000000000000 PUSH0 MSTORE PUSH1 0x41 PUSH1 0x4 MSTORE PUSH1 0x24 PUSH0 REVERT JUMPDEST PUSH2 0x817 DUP3 PUSH2 0x7D1 JUMP JUMPDEST DUP2 ADD DUP2 DUP2 LT PUSH8 0xFFFFFFFFFFFFFFFF DUP3 GT OR ISZERO PUSH2 0x836 JUMPI PUSH2 0x835 PUSH2 0x7E1 JUMP JUMPDEST JUMPDEST DUP1 PUSH1 0x40 MSTORE POP POP POP JUMP JUMPDEST PUSH0 PUSH2 0x848 PUSH2 0x7B8 JUMP JUMPDEST SWAP1 POP PUSH2 0x854 DUP3 DUP3 PUSH2 0x80E JUMP JUMPDEST SWAP2 SWAP1 POP JUMP JUMPDEST PUSH0 PUSH8 0xFFFFFFFFFFFFFFFF DUP3 GT ISZERO PUSH2 0x873 JUMPI PUSH2 0x872 PUSH2 0x7E1 JUMP JUMPDEST JUMPDEST PUSH2 0x87C DUP3 PUSH2 0x7D1 JUMP JUMPDEST SWAP1 POP PUSH1 0x20 DUP2 ADD SWAP1 POP SWAP2 SWAP1 POP JUMP JUMPDEST DUP3 DUP2 DUP4 CALLDATACOPY PUSH0 DUP4 DUP4 ADD MSTORE POP POP POP JUMP JUMPDEST PUSH0 PUSH2 0x8A9 PUSH2 0x8A4 DUP5 PUSH2 0x859 JUMP JUMPDEST PUSH2 0x83F JUMP JUMPDEST SWAP1 POP DUP3 DUP2 MSTORE PUSH1 0x20 DUP2 ADD DUP5 DUP5 DUP5 ADD GT ISZERO PUSH2 0x8C5 JUMPI PUSH2 0x8C4 PUSH2 0x7CD JUMP JUMPDEST JUMPDEST PUSH2 0x8D0 DUP5 DUP3 DUP6 PUSH2 0x889 JUMP JUMPDEST POP SWAP4 SWAP3 POP POP POP JUMP JUMPDEST PUSH0 DUP3 PUSH1 0x1F DUP4 ADD SLT PUSH2 0x8EC JUMPI PUSH2 0x8EB PUSH2 0x7C9 JUMP JUMPDEST JUMPDEST DUP2 CALLDATALOAD PUSH2 0x8FC DUP5 DUP3 PUSH1 0x20 DUP7 ADD PUSH2 0x897 JUMP JUMPDEST SWAP2 POP POP SWAP3 SWAP2 POP POP JUMP JUMPDEST PUSH0 DUP2 SWAP1 POP SWAP2 SWAP1 POP JUMP JUMPDEST PUSH2 0x917 DUP2 PUSH2 0x905 JUMP JUMPDEST DUP2 EQ PUSH2 0x921 JUMPI PUSH0 DUP1 REVERT JUMPDEST POP JUMP JUMPDEST PUSH0 DUP2 CALLDATALOAD SWAP1 POP PUSH2 0x932 DUP2 PUSH2 0x90E JUMP JUMPDEST SWAP3 SWAP2 POP POP JUMP JUMPDEST PUSH0 DUP1 PUSH0 DUP1 PUSH0 DUP1 PUSH0 DUP1 PUSH0 PUSH2 0x120 DUP11 DUP13 SUB SLT ISZERO PUSH2 0x956 JUMPI PUSH2 0x955 PUSH2 0x7C1 JUMP JUMPDEST JUMPDEST PUSH0 DUP11 ADD CALLDATALOAD PUSH8 0xFFFFFFFFFFFFFFFF DUP2 GT ISZERO PUSH2 0x973 JUMPI PUSH2 0x972 PUSH2 0x7C5 JUMP JUMPDEST JUMPDEST PUSH2 0x97F DUP13 DUP3 DUP14 ADD PUSH2 0x8D8 JUMP JUMPDEST SWAP10 POP POP PUSH1 0x20 DUP11 ADD CALLDATALOAD PUSH8 0xFFFFFFFFFFFFFFFF DUP2 GT ISZERO PUSH2 0x9A0 JUMPI PUSH2 0x99F PUSH2 0x7C5 JUMP JUMPDEST JUMPDEST PUSH2 0x9AC DUP13 DUP3 DUP14 ADD PUSH2 0x8D8 JUMP JUMPDEST SWAP9 POP POP PUSH1 0x40 DUP11 ADD CALLDATALOAD PUSH8 0xFFFFFFFFFFFFFFFF DUP2 GT ISZERO PUSH2 0x9CD JUMPI PUSH2 0x9CC PUSH2 0x7C5 JUMP JUMPDEST JUMPDEST PUSH2 0x9D9 DUP13 DUP3 DUP14 ADD PUSH2 0x8D8 JUMP JUMPDEST SWAP8 POP POP PUSH1 0x60 PUSH2 0x9EA DUP13 DUP3 DUP14 ADD PUSH2 0x924 JUMP JUMPDEST SWAP7 POP POP PUSH1 0x80 DUP11 ADD CALLDATALOAD PUSH8 0xFFFFFFFFFFFFFFFF DUP2 GT ISZERO PUSH2 0xA0B JUMPI PUSH2 0xA0A PUSH2 0x7C5 JUMP JUMPDEST JUMPDEST PUSH2 0xA17 DUP13 DUP3 DUP14 ADD PUSH2 0x8D8 JUMP JUMPDEST SWAP6 POP POP PUSH1 0xA0 DUP11 ADD CALLDATALOAD PUSH8 0xFFFFFFFFFFFFFFFF DUP2 GT ISZERO PUSH2 0xA38 JUMPI PUSH2 0xA37 PUSH2 0x7C5 JUMP JUMPDEST JUMPDEST PUSH2 0xA44 DUP13 DUP3 DUP14 ADD PUSH2 0x8D8 JUMP JUMPDEST SWAP5 POP POP PUSH1 0xC0 DUP11 ADD CALLDATALOAD PUSH8 0xFFFFFFFFFFFFFFFF DUP2 GT ISZERO PUSH2 0xA65 JUMPI PUSH2 0xA64 PUSH2 0x7C5 JUMP JUMPDEST JUMPDEST PUSH2 0xA71 DUP13 DUP3 DUP14 ADD PUSH2 0x8D8 JUMP JUMPDEST SWAP4 POP POP PUSH1 0xE0 DUP11 ADD CALLDATALOAD PUSH8 0xFFFFFFFFFFFFFFFF DUP2 GT ISZERO PUSH2 0xA92 JUMPI PUSH2 0xA91 PUSH2 0x7C5 JUMP JUMPDEST JUMPDEST PUSH2 0xA9E DUP13 DUP3 DUP14 ADD PUSH2 0x8D8 JUMP JUMPDEST SWAP3 POP POP PUSH2 0x100 PUSH2 0xAB0 DUP13 DUP3 DUP14 ADD PUSH2 0x924 JUMP JUMPDEST SWAP2 POP POP SWAP3 SWAP6 SWAP9 POP SWAP3 SWAP6 SWAP9 POP SWAP3 SWAP6 SWAP9 JUMP JUMPDEST PUSH0 PUSH1 0x20 DUP3 DUP5 SUB SLT ISZERO PUSH2 0xAD5 JUMPI PUSH2 0xAD4 PUSH2 0x7C1 JUMP JUMPDEST JUMPDEST PUSH0 PUSH2 0xAE2 DUP5 DUP3 DUP6 ADD PUSH2 0x924 JUMP JUMPDEST SWAP2 POP POP SWAP3 SWAP2 POP POP JUMP JUMPDEST PUSH0 PUSH20 0xFFFFFFFFFFFFFFFFFFFFFFFFFFFFFFFFFFFFFFFF DUP3 AND SWAP1 POP SWAP2 SWAP1 POP JUMP JUMPDEST PUSH0 DUP2 SWAP1 POP SWAP2 SWAP1 POP JUMP JUMPDEST PUSH0 PUSH2 0xB2D PUSH2 0xB28 PUSH2 0xB23 DUP5 PUSH2 0xAEB JUMP JUMPDEST PUSH2 0xB0A JUMP JUMPDEST PUSH2 0xAEB JUMP JUMPDEST SWAP1 POP SWAP2 SWAP1 POP JUMP JUMPDEST PUSH0 PUSH2 0xB3E DUP3 PUSH2 0xB13 JUMP JUMPDEST SWAP1 POP SWAP2 SWAP1 POP JUMP JUMPDEST PUSH0 PUSH2 0xB4F DUP3 PUSH2 0xB34 JUMP JUMPDEST SWAP1 POP SWAP2 SWAP1 POP JUMP JUMPDEST PUSH2 0xB5F DUP2 PUSH2 0xB45 JUMP JUMPDEST DUP3 MSTORE POP POP JUMP JUMPDEST PUSH0 PUSH1 0x20 DUP3 ADD SWAP1 POP PUSH2 0xB78 PUSH0 DUP4 ADD DUP5 PUSH2 0xB56 JUMP JUMPDEST SWAP3 SWAP2 POP POP JUMP JUMPDEST PUSH0 DUP1 PUSH1 0x40 DUP4 DUP6 SUB SLT ISZERO PUSH2 0xB94 JUMPI PUSH2 0xB93 PUSH2 0x7C1 JUMP JUMPDEST JUMPDEST PUSH0 DUP4 ADD CALLDATALOAD PUSH8 0xFFFFFFFFFFFFFFFF DUP2 GT ISZERO PUSH2 0xBB1 JUMPI PUSH2 0xBB0 PUSH2 0x7C5 JUMP JUMPDEST JUMPDEST PUSH2 0xBBD DUP6 DUP3 DUP7 ADD PUSH2 0x8D8 JUMP JUMPDEST SWAP3 POP POP PUSH1 0x20 DUP4 ADD CALLDATALOAD PUSH8 0xFFFFFFFFFFFFFFFF DUP2 GT ISZERO PUSH2 0xBDE JUMPI PUSH2 0xBDD PUSH2 0x7C5 JUMP JUMPDEST JUMPDEST PUSH2 0xBEA DUP6 DUP3 DUP7 ADD PUSH2 0x8D8 JUMP JUMPDEST SWAP2 POP POP SWAP3 POP SWAP3 SWAP1 POP JUMP JUMPDEST PUSH0 PUSH1 0x20 DUP3 DUP5 SUB SLT ISZERO PUSH2 0xC09 JUMPI PUSH2 0xC08 PUSH2 0x7C1 JUMP JUMPDEST JUMPDEST PUSH0 DUP3 ADD CALLDATALOAD PUSH8 0xFFFFFFFFFFFFFFFF DUP2 GT ISZERO PUSH2 0xC26 JUMPI PUSH2 0xC25 PUSH2 0x7C5 JUMP JUMPDEST JUMPDEST PUSH2 0xC32 DUP5 DUP3 DUP6 ADD PUSH2 0x8D8 JUMP JUMPDEST SWAP2 POP POP SWAP3 SWAP2 POP POP JUMP JUMPDEST PUSH0 DUP2 MLOAD SWAP1 POP SWAP2 SWAP1 POP JUMP JUMPDEST PUSH0 DUP3 DUP3 MSTORE PUSH1 0x20 DUP3 ADD SWAP1 POP SWAP3 SWAP2 POP POP JUMP JUMPDEST DUP3 DUP2 DUP4 MCOPY PUSH0 DUP4 DUP4 ADD MSTORE POP POP POP JUMP JUMPDEST PUSH0 PUSH2 0xC6D DUP3 PUSH2 0xC3B JUMP JUMPDEST PUSH2 0xC77 DUP2 DUP6 PUSH2 0xC45 JUMP JUMPDEST SWAP4 POP PUSH2 0xC87 DUP2 DUP6 PUSH1 0x20 DUP7 ADD PUSH2 0xC55 JUMP JUMPDEST PUSH2 0xC90 DUP2 PUSH2 0x7D1 JUMP JUMPDEST DUP5 ADD SWAP2 POP POP SWAP3 SWAP2 POP POP JUMP JUMPDEST PUSH2 0xCA4 DUP2 PUSH2 0x905 JUMP JUMPDEST DUP3 MSTORE POP POP JUMP JUMPDEST PUSH0 PUSH1 0xE0 DUP3 ADD SWAP1 POP DUP2 DUP2 SUB PUSH0 DUP4 ADD MSTORE PUSH2 0xCC2 DUP2 DUP11 PUSH2 0xC63 JUMP JUMPDEST SWAP1 POP DUP2 DUP2 SUB PUSH1 0x20 DUP4 ADD MSTORE PUSH2 0xCD6 DUP2 DUP10 PUSH2 0xC63 JUMP JUMPDEST SWAP1 POP DUP2 DUP2 SUB PUSH1 0x40 DUP4 ADD MSTORE PUSH2 0xCEA DUP2 DUP9 PUSH2 0xC63 JUMP JUMPDEST SWAP1 POP PUSH2 0xCF9 PUSH1 0x60 DUP4 ADD DUP8 PUSH2 0xC9B JUMP JUMPDEST DUP2 DUP2 SUB PUSH1 0x80 DUP4 ADD MSTORE PUSH2 0xD0B DUP2 DUP7 PUSH2 0xC63 JUMP JUMPDEST SWAP1 POP DUP2 DUP2 SUB PUSH1 0xA0 DUP4 ADD MSTORE PUSH2 0xD1F DUP2 DUP6 PUSH2 0xC63 JUMP JUMPDEST SWAP1 POP PUSH2 0xD2E PUSH1 0xC0 DUP4 ADD DUP5 PUSH2 0xC9B JUMP JUMPDEST SWAP9 SWAP8 POP POP POP POP POP POP POP POP JUMP JUMPDEST PUSH0 PUSH1 0x40 DUP3 ADD SWAP1 POP DUP2 DUP2 SUB PUSH0 DUP4 ADD MSTORE PUSH2 0xD52 DUP2 DUP6 PUSH2 0xC63 JUMP JUMPDEST SWAP1 POP DUP2 DUP2 SUB PUSH1 0x20 DUP4 ADD MSTORE PUSH2 0xD66 DUP2 DUP5 PUSH2 0xC63 JUMP JUMPDEST SWAP1 POP SWAP4 SWAP3 POP POP POP JUMP JUMPDEST PUSH0 PUSH1 0x80 DUP3 ADD SWAP1 POP DUP2 DUP2 SUB PUSH0 DUP4 ADD MSTORE PUSH2 0xD87 DUP2 DUP8 PUSH2 0xC63 JUMP JUMPDEST SWAP1 POP DUP2 DUP2 SUB PUSH1 0x20 DUP4 ADD MSTORE PUSH2 0xD9B DUP2 DUP7 PUSH2 0xC63 JUMP JUMPDEST SWAP1 POP DUP2 DUP2 SUB PUSH1 0x40 DUP4 ADD MSTORE PUSH2 0xDAF DUP2 DUP6 PUSH2 0xC63 JUMP JUMPDEST SWAP1 POP PUSH2 0xDBE PUSH1 0x60 DUP4 ADD DUP5 PUSH2 0xC9B JUMP JUMPDEST SWAP6 SWAP5 POP POP POP POP POP JUMP JUMPDEST PUSH0 PUSH1 0x60 DUP3 ADD SWAP1 POP DUP2 DUP2 SUB PUSH0 DUP4 ADD MSTORE PUSH2 0xDDF DUP2 DUP7 PUSH2 0xC63 JUMP JUMPDEST SWAP1 POP DUP2 DUP2 SUB PUSH1 0x20 DUP4 ADD MSTORE PUSH2 0xDF3 DUP2 DUP6 PUSH2 0xC63 JUMP JUMPDEST SWAP1 POP PUSH2 0xE02 PUSH1 0x40 DUP4 ADD DUP5 PUSH2 0xC9B JUMP JUMPDEST SWAP5 SWAP4 POP POP POP POP JUMP JUMPDEST PUSH0 DUP2 SWAP1 POP SWAP3 SWAP2 POP POP JUMP JUMPDEST PUSH0 PUSH2 0xE1E DUP3 PUSH2 0xC3B JUMP JUMPDEST PUSH2 0xE28 DUP2 DUP6 PUSH2 0xE0A JUMP JUMPDEST SWAP4 POP PUSH2 0xE38 DUP2 DUP6 PUSH1 0x20 DUP7 ADD PUSH2 0xC55 JUMP JUMPDEST DUP1 DUP5 ADD SWAP2 POP POP SWAP3 SWAP2 POP POP JUMP JUMPDEST PUSH0 PUSH2 0xE4F DUP3 DUP5 PUSH2 0xE14 JUMP JUMPDEST SWAP2 POP DUP2 SWAP1 POP SWAP3 SWAP2 POP POP JUMP JUMPDEST PUSH32 0x4E487B7100000000000000000000000000000000000000000000000000000000 PUSH0 MSTORE PUSH1 0x32 PUSH1 0x4 MSTORE PUSH1 0x24 PUSH0 REVERT JUMPDEST PUSH0 PUSH2 0xE99 PUSH2 0xE94 DUP5 PUSH2 0x859 JUMP JUMPDEST PUSH2 0x83F JUMP JUMPDEST SWAP1 POP DUP3 DUP2 MSTORE PUSH1 0x20 DUP2 ADD DUP5 DUP5 DUP5 ADD GT ISZERO PUSH2 0xEB5 JUMPI PUSH2 0xEB4 PUSH2 0x7CD JUMP JUMPDEST JUMPDEST PUSH2 0xEC0 DUP5 DUP3 DUP6 PUSH2 0xC55 JUMP JUMPDEST POP SWAP4 SWAP3 POP POP POP JUMP JUMPDEST PUSH0 DUP3 PUSH1 0x1F DUP4 ADD SLT PUSH2 0xEDC JUMPI PUSH2 0xEDB PUSH2 0x7C9 JUMP JUMPDEST JUMPDEST DUP2 MLOAD PUSH2 0xEEC DUP5 DUP3 PUSH1 0x20 DUP7 ADD PUSH2 0xE87 JUMP JUMPDEST SWAP2 POP POP SWAP3 SWAP2 POP POP JUMP JUMPDEST PUSH0 PUSH1 0x20 DUP3 DUP5 SUB SLT ISZERO PUSH2 0xF0A JUMPI PUSH2 0xF09 PUSH2 0x7C1 JUMP JUMPDEST JUMPDEST PUSH0 DUP3 ADD MLOAD PUSH8 0xFFFFFFFFFFFFFFFF DUP2 GT ISZERO PUSH2 0xF27 JUMPI PUSH2 0xF26 PUSH2 0x7C5 JUMP JUMPDEST JUMPDEST PUSH2 0xF33 DUP5 DUP3 DUP6 ADD PUSH2 0xEC8 JUMP JUMPDEST SWAP2 POP POP SWAP3 SWAP2 POP POP JUMP JUMPDEST PUSH0 PUSH1 0x20 DUP3 ADD SWAP1 POP DUP2 DUP2 SUB PUSH0 DUP4 ADD MSTORE PUSH2 0xF54 DUP2 DUP5 PUSH2 0xC63 JUMP JUMPDEST SWAP1 POP SWAP3 SWAP2 POP POP JUMP JUMPDEST PUSH0 DUP2 MLOAD SWAP1 POP PUSH2 0xF6A DUP2 PUSH2 0x90E JUMP JUMPDEST SWAP3 SWAP2 POP POP JUMP JUMPDEST PUSH0 DUP1 PUSH0 DUP1 PUSH1 0x80 DUP6 DUP8 SUB SLT ISZERO PUSH2 0xF88 JUMPI PUSH2 0xF87 PUSH2 0x7C1 JUMP JUMPDEST JUMPDEST PUSH0 DUP6 ADD MLOAD PUSH8 0xFFFFFFFFFFFFFFFF DUP2 GT ISZERO PUSH2 0xFA5 JUMPI PUSH2 0xFA4 PUSH2 0x7C5 JUMP JUMPDEST JUMPDEST PUSH2 0xFB1 DUP8 DUP3 DUP9 ADD PUSH2 0xEC8 JUMP JUMPDEST SWAP5 POP POP PUSH1 0x20 DUP6 ADD MLOAD PUSH8 0xFFFFFFFFFFFFFFFF DUP2 GT ISZERO PUSH2 0xFD2 JUMPI PUSH2 0xFD1 PUSH2 0x7C5 JUMP JUMPDEST JUMPDEST PUSH2 0xFDE DUP8 DUP3 DUP9 ADD PUSH2 0xEC8 JUMP JUMPDEST SWAP4 POP POP PUSH1 0x40 DUP6 ADD MLOAD PUSH8 0xFFFFFFFFFFFFFFFF DUP2 GT ISZERO PUSH2 0xFFF JUMPI PUSH2 0xFFE PUSH2 0x7C5 JUMP JUMPDEST JUMPDEST PUSH2 0x100B DUP8 DUP3 DUP9 ADD PUSH2 0xEC8 JUMP JUMPDEST SWAP3 POP POP PUSH1 0x60 PUSH2 0x101C DUP8 DUP3 DUP9 ADD PUSH2 0xF5C JUMP JUMPDEST SWAP2 POP POP SWAP3 SWAP6 SWAP2 SWAP5 POP SWAP3 POP JUMP JUMPDEST PUSH0 DUP1 PUSH0 PUSH1 0x60 DUP5 DUP7 SUB SLT ISZERO PUSH2 0x103F JUMPI PUSH2 0x103E PUSH2 0x7C1 JUMP JUMPDEST JUMPDEST PUSH0 DUP5 ADD MLOAD PUSH8 0xFFFFFFFFFFFFFFFF DUP2 GT ISZERO PUSH2 0x105C JUMPI PUSH2 0x105B PUSH2 0x7C5 JUMP JUMPDEST JUMPDEST PUSH2 0x1068 DUP7 DUP3 DUP8 ADD PUSH2 0xEC8 JUMP JUMPDEST SWAP4 POP POP PUSH1 0x20 DUP5 ADD MLOAD PUSH8 0xFFFFFFFFFFFFFFFF DUP2 GT ISZERO PUSH2 0x1089 JUMPI PUSH2 0x1088 PUSH2 0x7C5 JUMP JUMPDEST JUMPDEST PUSH2 0x1095 DUP7 DUP3 DUP8 ADD PUSH2 0xEC8 JUMP JUMPDEST SWAP3 POP POP PUSH1 0x40 PUSH2 0x10A6 DUP7 DUP3 DUP8 ADD PUSH2 0xF5C JUMP JUMPDEST SWAP2 POP POP SWAP3 POP SWAP3 POP SWAP3 JUMP JUMPDEST PUSH32 0x53747564656E74206E6F7420666F756E642E0000000000000000000000000000 PUSH0 DUP3 ADD MSTORE POP JUMP JUMPDEST PUSH0 PUSH2 0x10E4 PUSH1 0x12 DUP4 PUSH2 0xC45 JUMP JUMPDEST SWAP2 POP PUSH2 0x10EF DUP3 PUSH2 0x10B0 JUMP JUMPDEST PUSH1 0x20 DUP3 ADD SWAP1 POP SWAP2 SWAP1 POP JUMP JUMPDEST PUSH0 PUSH1 0x20 DUP3 ADD SWAP1 POP DUP2 DUP2 SUB PUSH0 DUP4 ADD MSTORE PUSH2 0x1111 DUP2 PUSH2 0x10D8 JUMP JUMPDEST SWAP1 POP SWAP2 SWAP1 POP JUMP INVALID PUSH1 0x80 PUSH1 0x40 MSTORE CALLVALUE DUP1 ISZERO PUSH1 0xE JUMPI PUSH0 DUP1 REVERT JUMPDEST POP PUSH2 0x13EB DUP1 PUSH2 0x1C PUSH0 CODECOPY PUSH0 RETURN INVALID PUSH1 0x80 PUSH1 0x40 MSTORE CALLVALUE DUP1 ISZERO PUSH2 0xF JUMPI PUSH0 DUP1 REVERT JUMPDEST POP PUSH1 0x4 CALLDATASIZE LT PUSH2 0x109 JUMPI PUSH0 CALLDATALOAD PUSH1 0xE0 SHR DUP1 PUSH4 0xB508BA31 GT PUSH2 0xA0 JUMPI DUP1 PUSH4 0xCB9CB0C2 GT PUSH2 0x6F JUMPI DUP1 PUSH4 0xCB9CB0C2 EQ PUSH2 0x270 JUMPI DUP1 PUSH4 0xD57831F5 EQ PUSH2 0x28E JUMPI DUP1 PUSH4 0xEB96548F EQ PUSH2 0x2AC JUMPI DUP1 PUSH4 0xEEDDB4F2 EQ PUSH2 0x2CA JUMPI DUP1 PUSH4 0xF8FD1948 EQ PUSH2 0x2E6 JUMPI PUSH2 0x109 JUMP JUMPDEST DUP1 PUSH4 0xB508BA31 EQ PUSH2 0x1E6 JUMPI DUP1 PUSH4 0xB975ABB3 EQ PUSH2 0x204 JUMPI DUP1 PUSH4 0xC607BA4D EQ PUSH2 0x222 JUMPI DUP1 PUSH4 0xC7EF6BFB EQ PUSH2 0x240 JUMPI PUSH2 0x109 JUMP JUMPDEST DUP1 PUSH4 0x65410701 GT PUSH2 0xDC JUMPI DUP1 PUSH4 0x65410701 EQ PUSH2 0x172 JUMPI DUP1 PUSH4 0x735F5AEC EQ PUSH2 0x18E JUMPI DUP1 PUSH4 0x8D1D2D90 EQ PUSH2 0x1AA JUMPI DUP1 PUSH4 0x99D568B3 EQ PUSH2 0x1C8 JUMPI PUSH2 0x109 JUMP JUMPDEST DUP1 PUSH4 0x11EBAE41 EQ PUSH2 0x10D JUMPI DUP1 PUSH4 0x2224B6A9 EQ PUSH2 0x12B JUMPI DUP1 PUSH4 0x4128EDA0 EQ PUSH2 0x147 JUMPI DUP1 PUSH4 0x4CC4CE5D EQ PUSH2 0x168 JUMPI JUMPDEST PUSH0 DUP1 REVERT JUMPDEST PUSH2 0x115 PUSH2 0x306 JUMP JUMPDEST PUSH1 0x40 MLOAD PUSH2 0x122 SWAP2 SWAP1 PUSH2 0xB5C JUMP JUMPDEST PUSH1 0x40 MLOAD DUP1 SWAP2 SUB SWAP1 RETURN JUMPDEST PUSH2 0x145 PUSH1 0x4 DUP1 CALLDATASIZE SUB DUP2 ADD SWAP1 PUSH2 0x140 SWAP2 SWAP1 PUSH2 0xCEC JUMP JUMPDEST PUSH2 0x392 JUMP JUMPDEST STOP JUMPDEST PUSH2 0x14F PUSH2 0x3BD JUMP JUMPDEST PUSH1 0x40 MLOAD PUSH2 0x15F SWAP5 SWAP4 SWAP3 SWAP2 SWAP1 PUSH2 0xD83 JUMP JUMPDEST PUSH1 0x40 MLOAD DUP1 SWAP2 SUB SWAP1 RETURN JUMPDEST PUSH2 0x170 PUSH2 0x578 JUMP JUMPDEST STOP JUMPDEST PUSH2 0x18C PUSH1 0x4 DUP1 CALLDATASIZE SUB DUP2 ADD SWAP1 PUSH2 0x187 SWAP2 SWAP1 PUSH2 0xDDB JUMP JUMPDEST PUSH2 0x5B5 JUMP JUMPDEST STOP JUMPDEST PUSH2 0x1A8 PUSH1 0x4 DUP1 CALLDATASIZE SUB DUP2 ADD SWAP1 PUSH2 0x1A3 SWAP2 SWAP1 PUSH2 0xE22 JUMP JUMPDEST PUSH2 0x5C7 JUMP JUMPDEST STOP JUMPDEST PUSH2 0x1B2 PUSH2 0x5EB JUMP JUMPDEST PUSH1 0x40 MLOAD PUSH2 0x1BF SWAP2 SWAP1 PUSH2 0xB5C JUMP JUMPDEST PUSH1 0x40 MLOAD DUP1 SWAP2 SUB SWAP1 RETURN JUMPDEST PUSH2 0x1D0 PUSH2 0x677 JUMP JUMPDEST PUSH1 0x40 MLOAD PUSH2 0x1DD SWAP2 SWAP1 PUSH2 0xE98 JUMP JUMPDEST PUSH1 0x40 MLOAD DUP1 SWAP2 SUB SWAP1 RETURN JUMPDEST PUSH2 0x1EE PUSH2 0x67D JUMP JUMPDEST PUSH1 0x40 MLOAD PUSH2 0x1FB SWAP2 SWAP1 PUSH2 0xB5C JUMP JUMPDEST PUSH1 0x40 MLOAD DUP1 SWAP2 SUB SWAP1 RETURN JUMPDEST PUSH2 0x20C PUSH2 0x709 JUMP JUMPDEST PUSH1 0x40 MLOAD PUSH2 0x219 SWAP2 SWAP1 PUSH2 0xB5C JUMP JUMPDEST PUSH1 0x40 MLOAD DUP1 SWAP2 SUB SWAP1 RETURN JUMPDEST PUSH2 0x22A PUSH2 0x795 JUMP JUMPDEST PUSH1 0x40 MLOAD PUSH2 0x237 SWAP2 SWAP1 PUSH2 0xB5C JUMP JUMPDEST PUSH1 0x40 MLOAD DUP1 SWAP2 SUB SWAP1 RETURN JUMPDEST PUSH2 0x25A PUSH1 0x4 DUP1 CALLDATASIZE SUB DUP2 ADD SWAP1 PUSH2 0x255 SWAP2 SWAP1 PUSH2 0xDDB JUMP JUMPDEST PUSH2 0x821 JUMP JUMPDEST PUSH1 0x40 MLOAD PUSH2 0x267 SWAP2 SWAP1 PUSH2 0xF2B JUMP JUMPDEST PUSH1 0x40 MLOAD DUP1 SWAP2 SUB SWAP1 RETURN JUMPDEST PUSH2 0x278 PUSH2 0x869 JUMP JUMPDEST PUSH1 0x40 MLOAD PUSH2 0x285 SWAP2 SWAP1 PUSH2 0xB5C JUMP JUMPDEST PUSH1 0x40 MLOAD DUP1 SWAP2 SUB SWAP1 RETURN JUMPDEST PUSH2 0x296 PUSH2 0x8F4 JUMP JUMPDEST PUSH1 0x40 MLOAD PUSH2 0x2A3 SWAP2 SWAP1 PUSH2 0xE98 JUMP JUMPDEST PUSH1 0x40 MLOAD DUP1 SWAP2 SUB SWAP1 RETURN JUMPDEST PUSH2 0x2B4 PUSH2 0x8FA JUMP JUMPDEST PUSH1 0x40 MLOAD PUSH2 0x2C1 SWAP2 SWAP1 PUSH2 0xB5C JUMP JUMPDEST PUSH1 0x40 MLOAD DUP1 SWAP2 SUB SWAP1 RETURN JUMPDEST PUSH2 0x2E4 PUSH1 0x4 DUP1 CALLDATASIZE SUB DUP2 ADD SWAP1 PUSH2 0x2DF SWAP2 SWAP1 PUSH2 0xF44 JUMP JUMPDEST PUSH2 0x986 JUMP JUMPDEST STOP JUMPDEST PUSH2 0x2EE PUSH2 0x9C3 JUMP JUMPDEST PUSH1 0x40 MLOAD PUSH2 0x2FD SWAP4 SWAP3 SWAP2 SWAP1 PUSH2 0xFFC JUMP JUMPDEST PUSH1 0x40 MLOAD DUP1 SWAP2 SUB SWAP1 RETURN JUMPDEST PUSH1 0x1 DUP1 SLOAD PUSH2 0x313 SWAP1 PUSH2 0x106C JUMP JUMPDEST DUP1 PUSH1 0x1F ADD PUSH1 0x20 DUP1 SWAP2 DIV MUL PUSH1 0x20 ADD PUSH1 0x40 MLOAD SWAP1 DUP2 ADD PUSH1 0x40 MSTORE DUP1 SWAP3 SWAP2 SWAP1 DUP2 DUP2 MSTORE PUSH1 0x20 ADD DUP3 DUP1 SLOAD PUSH2 0x33F SWAP1 PUSH2 0x106C JUMP JUMPDEST DUP1 ISZERO PUSH2 0x38A JUMPI DUP1 PUSH1 0x1F LT PUSH2 0x361 JUMPI PUSH2 0x100 DUP1 DUP4 SLOAD DIV MUL DUP4 MSTORE SWAP2 PUSH1 0x20 ADD SWAP2 PUSH2 0x38A JUMP JUMPDEST DUP3 ADD SWAP2 SWAP1 PUSH0 MSTORE PUSH1 0x20 PUSH0 KECCAK256 SWAP1 JUMPDEST DUP2 SLOAD DUP2 MSTORE SWAP1 PUSH1 0x1 ADD SWAP1 PUSH1 0x20 ADD DUP1 DUP4 GT PUSH2 0x36D JUMPI DUP3 SWAP1 SUB PUSH1 0x1F AND DUP3 ADD SWAP2 JUMPDEST POP POP POP POP POP DUP2 JUMP JUMPDEST DUP3 PUSH0 SWAP1 DUP2 PUSH2 0x3A0 SWAP2 SWAP1 PUSH2 0x1230 JUMP JUMPDEST POP DUP2 PUSH1 0x1 SWAP1 DUP2 PUSH2 0x3B0 SWAP2 SWAP1 PUSH2 0x1230 JUMP JUMPDEST POP DUP1 PUSH1 0x2 DUP2 SWAP1 SSTORE POP POP POP POP JUMP JUMPDEST PUSH1 0x60 DUP1 PUSH1 0x60 PUSH0 PUSH1 0x3 PUSH1 0x4 PUSH1 0x5 PUSH1 0x6 SLOAD DUP4 DUP1 SLOAD PUSH2 0x3D8 SWAP1 PUSH2 0x106C JUMP JUMPDEST DUP1 PUSH1 0x1F ADD PUSH1 0x20 DUP1 SWAP2 DIV MUL PUSH1 0x20 ADD PUSH1 0x40 MLOAD SWAP1 DUP2 ADD PUSH1 0x40 MSTORE DUP1 SWAP3 SWAP2 SWAP1 DUP2 DUP2 MSTORE PUSH1 0x20 ADD DUP3 DUP1 SLOAD PUSH2 0x404 SWAP1 PUSH2 0x106C JUMP JUMPDEST DUP1 ISZERO PUSH2 0x44F JUMPI DUP1 PUSH1 0x1F LT PUSH2 0x426 JUMPI PUSH2 0x100 DUP1 DUP4 SLOAD DIV MUL DUP4 MSTORE SWAP2 PUSH1 0x20 ADD SWAP2 PUSH2 0x44F JUMP JUMPDEST DUP3 ADD SWAP2 SWAP1 PUSH0 MSTORE PUSH1 0x20 PUSH0 KECCAK256 SWAP1 JUMPDEST DUP2 SLOAD DUP2 MSTORE SWAP1 PUSH1 0x1 ADD SWAP1 PUSH1 0x20 ADD DUP1 DUP4 GT PUSH2 0x432 JUMPI DUP3 SWAP1 SUB PUSH1 0x1F AND DUP3 ADD SWAP2 JUMPDEST POP POP POP POP POP SWAP4 POP DUP3 DUP1 SLOAD PUSH2 0x462 SWAP1 PUSH2 0x106C JUMP JUMPDEST DUP1 PUSH1 0x1F ADD PUSH1 0x20 DUP1 SWAP2 DIV MUL PUSH1 0x20 ADD PUSH1 0x40 MLOAD SWAP1 DUP2 ADD PUSH1 0x40 MSTORE DUP1 SWAP3 SWAP2 SWAP1 DUP2 DUP2 MSTORE PUSH1 0x20 ADD DUP3 DUP1 SLOAD PUSH2 0x48E SWAP1 PUSH2 0x106C JUMP JUMPDEST DUP1 ISZERO PUSH2 0x4D9 JUMPI DUP1 PUSH1 0x1F LT PUSH2 0x4B0 JUMPI PUSH2 0x100 DUP1 DUP4 SLOAD DIV MUL DUP4 MSTORE SWAP2 PUSH1 0x20 ADD SWAP2 PUSH2 0x4D9 JUMP JUMPDEST DUP3 ADD SWAP2 SWAP1 PUSH0 MSTORE PUSH1 0x20 PUSH0 KECCAK256 SWAP1 JUMPDEST DUP2 SLOAD DUP2 MSTORE SWAP1 PUSH1 0x1 ADD SWAP1 PUSH1 0x20 ADD DUP1 DUP4 GT PUSH2 0x4BC JUMPI DUP3 SWAP1 SUB PUSH1 0x1F AND DUP3 ADD SWAP2 JUMPDEST POP POP POP POP POP SWAP3 POP DUP2 DUP1 SLOAD PUSH2 0x4EC SWAP1 PUSH2 0x106C JUMP JUMPDEST DUP1 PUSH1 0x1F ADD PUSH1 0x20 DUP1 SWAP2 DIV MUL PUSH1 0x20 ADD PUSH1 0x40 MLOAD SWAP1 DUP2 ADD PUSH1 0x40 MSTORE DUP1 SWAP3 SWAP2 SWAP1 DUP2 DUP2 MSTORE PUSH1 0x20 ADD DUP3 DUP1 SLOAD PUSH2 0x518 SWAP1 PUSH2 0x106C JUMP JUMPDEST DUP1 ISZERO PUSH2 0x563 JUMPI DUP1 PUSH1 0x1F LT PUSH2 0x53A JUMPI PUSH2 0x100 DUP1 DUP4 SLOAD DIV MUL DUP4 MSTORE SWAP2 PUSH1 0x20 ADD SWAP2 PUSH2 0x563 JUMP JUMPDEST DUP3 ADD SWAP2 SWAP1 PUSH0 MSTORE PUSH1 0x20 PUSH0 KECCAK256 SWAP1 JUMPDEST DUP2 SLOAD DUP2 MSTORE SWAP1 PUSH1 0x1 ADD SWAP1 PUSH1 0x20 ADD DUP1 DUP4 GT PUSH2 0x546 JUMPI DUP3 SWAP1 SUB PUSH1 0x1F AND DUP3 ADD SWAP2 JUMPDEST POP POP POP POP POP SWAP2 POP SWAP4 POP SWAP4 POP SWAP4 POP SWAP4 POP SWAP1 SWAP2 SWAP3 SWAP4 JUMP JUMPDEST PUSH32 0x9CC1C5EF53A12BF07302EBB89540F7EAC20FA8E6318D66A4149931EC0AEBA09E PUSH1 0x7 PUSH1 0x8 PUSH1 0x40 MLOAD PUSH2 0x5AB SWAP3 SWAP2 SWAP1 PUSH2 0x1380 JUMP JUMPDEST PUSH1 0x40 MLOAD DUP1 SWAP2 SUB SWAP1 LOG1 JUMP JUMPDEST DUP1 PUSH0 SWAP1 DUP2 PUSH2 0x5C3 SWAP2 SWAP1 PUSH2 0x1230 JUMP JUMPDEST POP POP JUMP JUMPDEST DUP2 PUSH1 0x7 SWAP1 DUP2 PUSH2 0x5D6 SWAP2 SWAP1 PUSH2 0x1230 JUMP JUMPDEST POP DUP1 PUSH1 0x8 SWAP1 DUP2 PUSH2 0x5E6 SWAP2 SWAP1 PUSH2 0x1230 JUMP JUMPDEST POP POP POP JUMP JUMPDEST PUSH1 0x4 DUP1 SLOAD PUSH2 0x5F8 SWAP1 PUSH2 0x106C JUMP JUMPDEST DUP1 PUSH1 0x1F ADD PUSH1 0x20 DUP1 SWAP2 DIV MUL PUSH1 0x20 ADD PUSH1 0x40 MLOAD SWAP1 DUP2 ADD PUSH1 0x40 MSTORE DUP1 SWAP3 SWAP2 SWAP1 DUP2 DUP2 MSTORE PUSH1 0x20 ADD DUP3 DUP1 SLOAD PUSH2 0x624 SWAP1 PUSH2 0x106C JUMP JUMPDEST DUP1 ISZERO PUSH2 0x66F JUMPI DUP1 PUSH1 0x1F LT PUSH2 0x646 JUMPI PUSH2 0x100 DUP1 DUP4 SLOAD DIV MUL DUP4 MSTORE SWAP2 PUSH1 0x20 ADD SWAP2 PUSH2 0x66F JUMP JUMPDEST DUP3 ADD SWAP2 SWAP1 PUSH0 MSTORE PUSH1 0x20 PUSH0 KECCAK256 SWAP1 JUMPDEST DUP2 SLOAD DUP2 MSTORE SWAP1 PUSH1 0x1 ADD SWAP1 PUSH1 0x20 ADD DUP1 DUP4 GT PUSH2 0x652 JUMPI DUP3 SWAP1 SUB PUSH1 0x1F AND DUP3 ADD SWAP2 JUMPDEST POP POP POP POP POP DUP2 JUMP JUMPDEST PUSH1 0x2 SLOAD DUP2 JUMP JUMPDEST PUSH1 0x3 DUP1 SLOAD PUSH2 0x68A SWAP1 PUSH2 0x106C JUMP JUMPDEST DUP1 PUSH1 0x1F ADD PUSH1 0x20 DUP1 SWAP2 DIV MUL PUSH1 0x20 ADD PUSH1 0x40 MLOAD SWAP1 DUP2 ADD PUSH1 0x40 MSTORE DUP1 SWAP3 SWAP2 SWAP1 DUP2 DUP2 MSTORE PUSH1 0x20 ADD DUP3 DUP1 SLOAD PUSH2 0x6B6 SWAP1 PUSH2 0x106C JUMP JUMPDEST DUP1 ISZERO PUSH2 0x701 JUMPI DUP1 PUSH1 0x1F LT PUSH2 0x6D8 JUMPI PUSH2 0x100 DUP1 DUP4 SLOAD DIV MUL DUP4 MSTORE SWAP2 PUSH1 0x20 ADD SWAP2 PUSH2 0x701 JUMP JUMPDEST DUP3 ADD SWAP2 SWAP1 PUSH0 MSTORE PUSH1 0x20 PUSH0 KECCAK256 SWAP1 JUMPDEST DUP2 SLOAD DUP2 MSTORE SWAP1 PUSH1 0x1 ADD SWAP1 PUSH1 0x20 ADD DUP1 DUP4 GT PUSH2 0x6E4 JUMPI DUP3 SWAP1 SUB PUSH1 0x1F AND DUP3 ADD SWAP2 JUMPDEST POP POP POP POP POP DUP2 JUMP JUMPDEST PUSH1 0x7 DUP1 SLOAD PUSH2 0x716 SWAP1 PUSH2 0x106C JUMP JUMPDEST DUP1 PUSH1 0x1F ADD PUSH1 0x20 DUP1 SWAP2 DIV MUL PUSH1 0x20 ADD PUSH1 0x40 MLOAD SWAP1 DUP2 ADD PUSH1 0x40 MSTORE DUP1 SWAP3 SWAP2 SWAP1 DUP2 DUP2 MSTORE PUSH1 0x20 ADD DUP3 DUP1 SLOAD PUSH2 0x742 SWAP1 PUSH2 0x106C JUMP JUMPDEST DUP1 ISZERO PUSH2 0x78D JUMPI DUP1 PUSH1 0x1F LT PUSH2 0x764 JUMPI PUSH2 0x100 DUP1 DUP4 SLOAD DIV MUL DUP4 MSTORE SWAP2 PUSH1 0x20 ADD SWAP2 PUSH2 0x78D JUMP JUMPDEST DUP3 ADD SWAP2 SWAP1 PUSH0 MSTORE PUSH1 0x20 PUSH0 KECCAK256 SWAP1 JUMPDEST DUP2 SLOAD DUP2 MSTORE SWAP1 PUSH1 0x1 ADD SWAP1 PUSH1 0x20 ADD DUP1 DUP4 GT PUSH2 0x770 JUMPI DUP3 SWAP1 SUB PUSH1 0x1F AND DUP3 ADD SWAP2 JUMPDEST POP POP POP POP POP DUP2 JUMP JUMPDEST PUSH1 0x5 DUP1 SLOAD PUSH2 0x7A2 SWAP1 PUSH2 0x106C JUMP JUMPDEST DUP1 PUSH1 0x1F ADD PUSH1 0x20 DUP1 SWAP2 DIV MUL PUSH1 0x20 ADD PUSH1 0x40 MLOAD SWAP1 DUP2 ADD PUSH1 0x40 MSTORE DUP1 SWAP3 SWAP2 SWAP1 DUP2 DUP2 MSTORE PUSH1 0x20 ADD DUP3 DUP1 SLOAD PUSH2 0x7CE SWAP1 PUSH2 0x106C JUMP JUMPDEST DUP1 ISZERO PUSH2 0x819 JUMPI DUP1 PUSH1 0x1F LT PUSH2 0x7F0 JUMPI PUSH2 0x100 DUP1 DUP4 SLOAD DIV MUL DUP4 MSTORE SWAP2 PUSH1 0x20 ADD SWAP2 PUSH2 0x819 JUMP JUMPDEST DUP3 ADD SWAP2 SWAP1 PUSH0 MSTORE PUSH1 0x20 PUSH0 KECCAK256 SWAP1 JUMPDEST DUP2 SLOAD DUP2 MSTORE SWAP1 PUSH1 0x1 ADD SWAP1 PUSH1 0x20 ADD DUP1 DUP4 GT PUSH2 0x7FC JUMPI DUP3 SWAP1 SUB PUSH1 0x1F AND DUP3 ADD SWAP2 JUMPDEST POP POP POP POP POP DUP2 JUMP JUMPDEST PUSH1 0x9 DUP2 DUP1 MLOAD PUSH1 0x20 DUP2 ADD DUP3 ADD DUP1 MLOAD DUP5 DUP3 MSTORE PUSH1 0x20 DUP4 ADD PUSH1 0x20 DUP6 ADD KECCAK256 DUP2 DUP4 MSTORE DUP1 SWAP6 POP POP POP POP POP POP PUSH0 SWAP2 POP SLOAD SWAP1 PUSH2 0x100 EXP SWAP1 DIV PUSH20 0xFFFFFFFFFFFFFFFFFFFFFFFFFFFFFFFFFFFFFFFF AND DUP2 JUMP JUMPDEST PUSH0 DUP1 SLOAD PUSH2 0x875 SWAP1 PUSH2 0x106C JUMP JUMPDEST DUP1 PUSH1 0x1F ADD PUSH1 0x20 DUP1 SWAP2 DIV MUL PUSH1 0x20 ADD PUSH1 0x40 MLOAD SWAP1 DUP2 ADD PUSH1 0x40 MSTORE DUP1 SWAP3 SWAP2 SWAP1 DUP2 DUP2 MSTORE PUSH1 0x20 ADD DUP3 DUP1 SLOAD PUSH2 0x8A1 SWAP1 PUSH2 0x106C JUMP JUMPDEST DUP1 ISZERO PUSH2 0x8EC JUMPI DUP1 PUSH1 0x1F LT PUSH2 0x8C3 JUMPI PUSH2 0x100 DUP1 DUP4 SLOAD DIV MUL DUP4 MSTORE SWAP2 PUSH1 0x20 ADD SWAP2 PUSH2 0x8EC JUMP JUMPDEST DUP3 ADD SWAP2 SWAP1 PUSH0 MSTORE PUSH1 0x20 PUSH0 KECCAK256 SWAP1 JUMPDEST DUP2 SLOAD DUP2 MSTORE SWAP1 PUSH1 0x1 ADD SWAP1 PUSH1 0x20 ADD DUP1 DUP4 GT PUSH2 0x8CF JUMPI DUP3 SWAP1 SUB PUSH1 0x1F AND DUP3 ADD SWAP2 JUMPDEST POP POP POP POP POP DUP2 JUMP JUMPDEST PUSH1 0x6 SLOAD DUP2 JUMP JUMPDEST PUSH1 0x8 DUP1 SLOAD PUSH2 0x907 SWAP1 PUSH2 0x106C JUMP JUMPDEST DUP1 PUSH1 0x1F ADD PUSH1 0x20 DUP1 SWAP2 DIV MUL PUSH1 0x20 ADD PUSH1 0x40 MLOAD SWAP1 DUP2 ADD PUSH1 0x40 MSTORE DUP1 SWAP3 SWAP2 SWAP1 DUP2 DUP2 MSTORE PUSH1 0x20 ADD DUP3 DUP1 SLOAD PUSH2 0x933 SWAP1 PUSH2 0x106C JUMP JUMPDEST DUP1 ISZERO PUSH2 0x97E JUMPI DUP1 PUSH1 0x1F LT PUSH2 0x955 JUMPI PUSH2 0x100 DUP1 DUP4 SLOAD DIV MUL DUP4 MSTORE SWAP2 PUSH1 0x20 ADD SWAP2 PUSH2 0x97E JUMP JUMPDEST DUP3 ADD SWAP2 SWAP1 PUSH0 MSTORE PUSH1 0x20 PUSH0 KECCAK256 SWAP1 JUMPDEST DUP2 SLOAD DUP2 MSTORE SWAP1 PUSH1 0x1 ADD SWAP1 PUSH1 0x20 ADD DUP1 DUP4 GT PUSH2 0x961 JUMPI DUP3 SWAP1 SUB PUSH1 0x1F AND DUP3 ADD SWAP2 JUMPDEST POP POP POP POP POP DUP2 JUMP JUMPDEST DUP4 PUSH1 0x3 SWAP1 DUP2 PUSH2 0x995 SWAP2 SWAP1 PUSH2 0x1230 JUMP JUMPDEST POP DUP3 PUSH1 0x4 SWAP1 DUP2 PUSH2 0x9A5 SWAP2 SWAP1 PUSH2 0x1230 JUMP JUMPDEST POP DUP2 PUSH1 0x5 SWAP1 DUP2 PUSH2 0x9B5 SWAP2 SWAP1 PUSH2 0x1230 JUMP JUMPDEST POP DUP1 PUSH1 0x6 DUP2 SWAP1 SSTORE POP POP POP POP POP JUMP JUMPDEST PUSH1 0x60 DUP1 PUSH0 DUP1 PUSH1 0x1 PUSH1 0x2 SLOAD DUP3 DUP1 SLOAD PUSH2 0x9D9 SWAP1 PUSH2 0x106C JUMP JUMPDEST DUP1 PUSH1 0x1F ADD PUSH1 0x20 DUP1 SWAP2 DIV MUL PUSH1 0x20 ADD PUSH1 0x40 MLOAD SWAP1 DUP2 ADD PUSH1 0x40 MSTORE DUP1 SWAP3 SWAP2 SWAP1 DUP2 DUP2 MSTORE PUSH1 0x20 ADD DUP3 DUP1 SLOAD PUSH2 0xA05 SWAP1 PUSH2 0x106C JUMP JUMPDEST DUP1 ISZERO PUSH2 0xA50 JUMPI DUP1 PUSH1 0x1F LT PUSH2 0xA27 JUMPI PUSH2 0x100 DUP1 DUP4 SLOAD DIV MUL DUP4 MSTORE SWAP2 PUSH1 0x20 ADD SWAP2 PUSH2 0xA50 JUMP JUMPDEST DUP3 ADD SWAP2 SWAP1 PUSH0 MSTORE PUSH1 0x20 PUSH0 KECCAK256 SWAP1 JUMPDEST DUP2 SLOAD DUP2 MSTORE SWAP1 PUSH1 0x1 ADD SWAP1 PUSH1 0x20 ADD DUP1 DUP4 GT PUSH2 0xA33 JUMPI DUP3 SWAP1 SUB PUSH1 0x1F AND DUP3 ADD SWAP2 JUMPDEST POP POP POP POP POP SWAP3 POP DUP2 DUP1 SLOAD PUSH2 0xA63 SWAP1 PUSH2 0x106C JUMP JUMPDEST DUP1 PUSH1 0x1F ADD PUSH1 0x20 DUP1 SWAP2 DIV MUL PUSH1 0x20 ADD PUSH1 0x40 MLOAD SWAP1 DUP2 ADD PUSH1 0x40 MSTORE DUP1 SWAP3 SWAP2 SWAP1 DUP2 DUP2 MSTORE PUSH1 0x20 ADD DUP3 DUP1 SLOAD PUSH2 0xA8F SWAP1 PUSH2 0x106C JUMP JUMPDEST DUP1 ISZERO PUSH2 0xADA JUMPI DUP1 PUSH1 0x1F LT PUSH2 0xAB1 JUMPI PUSH2 0x100 DUP1 DUP4 SLOAD DIV MUL DUP4 MSTORE SWAP2 PUSH1 0x20 ADD SWAP2 PUSH2 0xADA JUMP JUMPDEST DUP3 ADD SWAP2 SWAP1 PUSH0 MSTORE PUSH1 0x20 PUSH0 KECCAK256 SWAP1 JUMPDEST DUP2 SLOAD DUP2 MSTORE SWAP1 PUSH1 0x1 ADD SWAP1 PUSH1 0x20 ADD DUP1 DUP4 GT PUSH2 0xABD JUMPI DUP3 SWAP1 SUB PUSH1 0x1F AND DUP3 ADD SWAP2 JUMPDEST POP POP POP POP POP SWAP2 POP SWAP3 POP SWAP3 POP SWAP3 POP SWAP1 SWAP2 SWAP3 JUMP JUMPDEST PUSH0 DUP2 MLOAD SWAP1 POP SWAP2 SWAP1 POP JUMP JUMPDEST PUSH0 DUP3 DUP3 MSTORE PUSH1 0x20 DUP3 ADD SWAP1 POP SWAP3 SWAP2 POP POP JUMP JUMPDEST DUP3 DUP2 DUP4 MCOPY PUSH0 DUP4 DUP4 ADD MSTORE POP POP POP JUMP JUMPDEST PUSH0 PUSH1 0x1F NOT PUSH1 0x1F DUP4 ADD AND SWAP1 POP SWAP2 SWAP1 POP JUMP JUMPDEST PUSH0 PUSH2 0xB2E DUP3 PUSH2 0xAEC JUMP JUMPDEST PUSH2 0xB38 DUP2 DUP6 PUSH2 0xAF6 JUMP JUMPDEST SWAP4 POP PUSH2 0xB48 DUP2 DUP6 PUSH1 0x20 DUP7 ADD PUSH2 0xB06 JUMP JUMPDEST PUSH2 0xB51 DUP2 PUSH2 0xB14 JUMP JUMPDEST DUP5 ADD SWAP2 POP POP SWAP3 SWAP2 POP POP JUMP JUMPDEST PUSH0 PUSH1 0x20 DUP3 ADD SWAP1 POP DUP2 DUP2 SUB PUSH0 DUP4 ADD MSTORE PUSH2 0xB74 DUP2 DUP5 PUSH2 0xB24 JUMP JUMPDEST SWAP1 POP SWAP3 SWAP2 POP POP JUMP JUMPDEST PUSH0 PUSH1 0x40 MLOAD SWAP1 POP SWAP1 JUMP JUMPDEST PUSH0 DUP1 REVERT JUMPDEST PUSH0 DUP1 REVERT JUMPDEST PUSH0 DUP1 REVERT JUMPDEST PUSH0 DUP1 REVERT JUMPDEST PUSH32 0x4E487B7100000000000000000000000000000000000000000000000000000000 PUSH0 MSTORE PUSH1 0x41 PUSH1 0x4 MSTORE PUSH1 0x24 PUSH0 REVERT JUMPDEST PUSH2 0xBCB DUP3 PUSH2 0xB14 JUMP JUMPDEST DUP2 ADD DUP2 DUP2 LT PUSH8 0xFFFFFFFFFFFFFFFF DUP3 GT OR ISZERO PUSH2 0xBEA JUMPI PUSH2 0xBE9 PUSH2 0xB95 JUMP JUMPDEST JUMPDEST DUP1 PUSH1 0x40 MSTORE POP POP POP JUMP JUMPDEST PUSH0 PUSH2 0xBFC PUSH2 0xB7C JUMP JUMPDEST SWAP1 POP PUSH2 0xC08 DUP3 DUP3 PUSH2 0xBC2 JUMP JUMPDEST SWAP2 SWAP1 POP JUMP JUMPDEST PUSH0 PUSH8 0xFFFFFFFFFFFFFFFF DUP3 GT ISZERO PUSH2 0xC27 JUMPI PUSH2 0xC26 PUSH2 0xB95 JUMP JUMPDEST JUMPDEST PUSH2 0xC30 DUP3 PUSH2 0xB14 JUMP JUMPDEST SWAP1 POP PUSH1 0x20 DUP2 ADD SWAP1 POP SWAP2 SWAP1 POP JUMP JUMPDEST DUP3 DUP2 DUP4 CALLDATACOPY PUSH0 DUP4 DUP4 ADD MSTORE POP POP POP JUMP JUMPDEST PUSH0 PUSH2 0xC5D PUSH2 0xC58 DUP5 PUSH2 0xC0D JUMP JUMPDEST PUSH2 0xBF3 JUMP JUMPDEST SWAP1 POP DUP3 DUP2 MSTORE PUSH1 0x20 DUP2 ADD DUP5 DUP5 DUP5 ADD GT ISZERO PUSH2 0xC79 JUMPI PUSH2 0xC78 PUSH2 0xB91 JUMP JUMPDEST JUMPDEST PUSH2 0xC84 DUP5 DUP3 DUP6 PUSH2 0xC3D JUMP JUMPDEST POP SWAP4 SWAP3 POP POP POP JUMP JUMPDEST PUSH0 DUP3 PUSH1 0x1F DUP4 ADD SLT PUSH2 0xCA0 JUMPI PUSH2 0xC9F PUSH2 0xB8D JUMP JUMPDEST JUMPDEST DUP2 CALLDATALOAD PUSH2 0xCB0 DUP5 DUP3 PUSH1 0x20 DUP7 ADD PUSH2 0xC4B JUMP JUMPDEST SWAP2 POP POP SWAP3 SWAP2 POP POP JUMP JUMPDEST PUSH0 DUP2 SWAP1 POP SWAP2 SWAP1 POP JUMP JUMPDEST PUSH2 0xCCB DUP2 PUSH2 0xCB9 JUMP JUMPDEST DUP2 EQ PUSH2 0xCD5 JUMPI PUSH0 DUP1 REVERT JUMPDEST POP JUMP JUMPDEST PUSH0 DUP2 CALLDATALOAD SWAP1 POP PUSH2 0xCE6 DUP2 PUSH2 0xCC2 JUMP JUMPDEST SWAP3 SWAP2 POP POP JUMP JUMPDEST PUSH0 DUP1 PUSH0 PUSH1 0x60 DUP5 DUP7 SUB SLT ISZERO PUSH2 0xD03 JUMPI PUSH2 0xD02 PUSH2 0xB85 JUMP JUMPDEST JUMPDEST PUSH0 DUP5 ADD CALLDATALOAD PUSH8 0xFFFFFFFFFFFFFFFF DUP2 GT ISZERO PUSH2 0xD20 JUMPI PUSH2 0xD1F PUSH2 0xB89 JUMP JUMPDEST JUMPDEST PUSH2 0xD2C DUP7 DUP3 DUP8 ADD PUSH2 0xC8C JUMP JUMPDEST SWAP4 POP POP PUSH1 0x20 DUP5 ADD CALLDATALOAD PUSH8 0xFFFFFFFFFFFFFFFF DUP2 GT ISZERO PUSH2 0xD4D JUMPI PUSH2 0xD4C PUSH2 0xB89 JUMP JUMPDEST JUMPDEST PUSH2 0xD59 DUP7 DUP3 DUP8 ADD PUSH2 0xC8C JUMP JUMPDEST SWAP3 POP POP PUSH1 0x40 PUSH2 0xD6A DUP7 DUP3 DUP8 ADD PUSH2 0xCD8 JUMP JUMPDEST SWAP2 POP POP SWAP3 POP SWAP3 POP SWAP3 JUMP JUMPDEST PUSH2 0xD7D DUP2 PUSH2 0xCB9 JUMP JUMPDEST DUP3 MSTORE POP POP JUMP JUMPDEST PUSH0 PUSH1 0x80 DUP3 ADD SWAP1 POP DUP2 DUP2 SUB PUSH0 DUP4 ADD MSTORE PUSH2 0xD9B DUP2 DUP8 PUSH2 0xB24 JUMP JUMPDEST SWAP1 POP DUP2 DUP2 SUB PUSH1 0x20 DUP4 ADD MSTORE PUSH2 0xDAF DUP2 DUP7 PUSH2 0xB24 JUMP JUMPDEST SWAP1 POP DUP2 DUP2 SUB PUSH1 0x40 DUP4 ADD MSTORE PUSH2 0xDC3 DUP2 DUP6 PUSH2 0xB24 JUMP JUMPDEST SWAP1 POP PUSH2 0xDD2 PUSH1 0x60 DUP4 ADD DUP5 PUSH2 0xD74 JUMP JUMPDEST SWAP6 SWAP5 POP POP POP POP POP JUMP JUMPDEST PUSH0 PUSH1 0x20 DUP3 DUP5 SUB SLT ISZERO PUSH2 0xDF0 JUMPI PUSH2 0xDEF PUSH2 0xB85 JUMP JUMPDEST JUMPDEST PUSH0 DUP3 ADD CALLDATALOAD PUSH8 0xFFFFFFFFFFFFFFFF DUP2 GT ISZERO PUSH2 0xE0D JUMPI PUSH2 0xE0C PUSH2 0xB89 JUMP JUMPDEST JUMPDEST PUSH2 0xE19 DUP5 DUP3 DUP6 ADD PUSH2 0xC8C JUMP JUMPDEST SWAP2 POP POP SWAP3 SWAP2 POP POP JUMP JUMPDEST PUSH0 DUP1 PUSH1 0x40 DUP4 DUP6 SUB SLT ISZERO PUSH2 0xE38 JUMPI PUSH2 0xE37 PUSH2 0xB85 JUMP JUMPDEST JUMPDEST PUSH0 DUP4 ADD CALLDATALOAD PUSH8 0xFFFFFFFFFFFFFFFF DUP2 GT ISZERO PUSH2 0xE55 JUMPI PUSH2 0xE54 PUSH2 0xB89 JUMP JUMPDEST JUMPDEST PUSH2 0xE61 DUP6 DUP3 DUP7 ADD PUSH2 0xC8C JUMP JUMPDEST SWAP3 POP POP PUSH1 0x20 DUP4 ADD CALLDATALOAD PUSH8 0xFFFFFFFFFFFFFFFF DUP2 GT ISZERO PUSH2 0xE82 JUMPI PUSH2 0xE81 PUSH2 0xB89 JUMP JUMPDEST JUMPDEST PUSH2 0xE8E DUP6 DUP3 DUP7 ADD PUSH2 0xC8C JUMP JUMPDEST SWAP2 POP POP SWAP3 POP SWAP3 SWAP1 POP JUMP JUMPDEST PUSH0 PUSH1 0x20 DUP3 ADD SWAP1 POP PUSH2 0xEAB PUSH0 DUP4 ADD DUP5 PUSH2 0xD74 JUMP JUMPDEST SWAP3 SWAP2 POP POP JUMP JUMPDEST PUSH0 PUSH20 0xFFFFFFFFFFFFFFFFFFFFFFFFFFFFFFFFFFFFFFFF DUP3 AND SWAP1 POP SWAP2 SWAP1 POP JUMP JUMPDEST PUSH0 DUP2 SWAP1 POP SWAP2 SWAP1 POP JUMP JUMPDEST PUSH0 PUSH2 0xEF3 PUSH2 0xEEE PUSH2 0xEE9 DUP5 PUSH2 0xEB1 JUMP JUMPDEST PUSH2 0xED0 JUMP JUMPDEST PUSH2 0xEB1 JUMP JUMPDEST SWAP1 POP SWAP2 SWAP1 POP JUMP JUMPDEST PUSH0 PUSH2 0xF04 DUP3 PUSH2 0xED9 JUMP JUMPDEST SWAP1 POP SWAP2 SWAP1 POP JUMP JUMPDEST PUSH0 PUSH2 0xF15 DUP3 PUSH2 0xEFA JUMP JUMPDEST SWAP1 POP SWAP2 SWAP1 POP JUMP JUMPDEST PUSH2 0xF25 DUP2 PUSH2 0xF0B JUMP JUMPDEST DUP3 MSTORE POP POP JUMP JUMPDEST PUSH0 PUSH1 0x20 DUP3 ADD SWAP1 POP PUSH2 0xF3E PUSH0 DUP4 ADD DUP5 PUSH2 0xF1C JUMP JUMPDEST SWAP3 SWAP2 POP POP JUMP JUMPDEST PUSH0 DUP1 PUSH0 DUP1 PUSH1 0x80 DUP6 DUP8 SUB SLT ISZERO PUSH2 0xF5C JUMPI PUSH2 0xF5B PUSH2 0xB85 JUMP JUMPDEST JUMPDEST PUSH0 DUP6 ADD CALLDATALOAD PUSH8 0xFFFFFFFFFFFFFFFF DUP2 GT ISZERO PUSH2 0xF79 JUMPI PUSH2 0xF78 PUSH2 0xB89 JUMP JUMPDEST JUMPDEST PUSH2 0xF85 DUP8 DUP3 DUP9 ADD PUSH2 0xC8C JUMP JUMPDEST SWAP5 POP POP PUSH1 0x20 DUP6 ADD CALLDATALOAD PUSH8 0xFFFFFFFFFFFFFFFF DUP2 GT ISZERO PUSH2 0xFA6 JUMPI PUSH2 0xFA5 PUSH2 0xB89 JUMP JUMPDEST JUMPDEST PUSH2 0xFB2 DUP8 DUP3 DUP9 ADD PUSH2 0xC8C JUMP JUMPDEST SWAP4 POP POP PUSH1 0x40 DUP6 ADD CALLDATALOAD PUSH8 0xFFFFFFFFFFFFFFFF DUP2 GT ISZERO PUSH2 0xFD3 JUMPI PUSH2 0xFD2 PUSH2 0xB89 JUMP JUMPDEST JUMPDEST PUSH2 0xFDF DUP8 DUP3 DUP9 ADD PUSH2 0xC8C JUMP JUMPDEST SWAP3 POP POP PUSH1 0x60 PUSH2 0xFF0 DUP8 DUP3 DUP9 ADD PUSH2 0xCD8 JUMP JUMPDEST SWAP2 POP POP SWAP3 SWAP6 SWAP2 SWAP5 POP SWAP3 POP JUMP JUMPDEST PUSH0 PUSH1 0x60 DUP3 ADD SWAP1 POP DUP2 DUP2 SUB PUSH0 DUP4 ADD MSTORE PUSH2 0x1014 DUP2 DUP7 PUSH2 0xB24 JUMP JUMPDEST SWAP1 POP DUP2 DUP2 SUB PUSH1 0x20 DUP4 ADD MSTORE PUSH2 0x1028 DUP2 DUP6 PUSH2 0xB24 JUMP JUMPDEST SWAP1 POP PUSH2 0x1037 PUSH1 0x40 DUP4 ADD DUP5 PUSH2 0xD74 JUMP JUMPDEST SWAP5 SWAP4 POP POP POP POP JUMP JUMPDEST PUSH32 0x4E487B7100000000000000000000000000000000000000000000000000000000 PUSH0 MSTORE PUSH1 0x22 PUSH1 0x4 MSTORE PUSH1 0x24 PUSH0 REVERT JUMPDEST PUSH0 PUSH1 0x2 DUP3 DIV SWAP1 POP PUSH1 0x1 DUP3 AND DUP1 PUSH2 0x1083 JUMPI PUSH1 0x7F DUP3 AND SWAP2 POP JUMPDEST PUSH1 0x20 DUP3 LT DUP2 SUB PUSH2 0x1096 JUMPI PUSH2 0x1095 PUSH2 0x103F JUMP JUMPDEST JUMPDEST POP SWAP2 SWAP1 POP JUMP JUMPDEST PUSH0 DUP2 SWAP1 POP DUP2 PUSH0 MSTORE PUSH1 0x20 PUSH0 KECCAK256 SWAP1 POP SWAP2 SWAP1 POP JUMP JUMPDEST PUSH0 PUSH1 0x20 PUSH1 0x1F DUP4 ADD DIV SWAP1 POP SWAP2 SWAP1 POP JUMP JUMPDEST PUSH0 DUP3 DUP3 SHL SWAP1 POP SWAP3 SWAP2 POP POP JUMP JUMPDEST PUSH0 PUSH1 0x8 DUP4 MUL PUSH2 0x10F8 PUSH32 0xFFFFFFFFFFFFFFFFFFFFFFFFFFFFFFFFFFFFFFFFFFFFFFFFFFFFFFFFFFFFFFFF DUP3 PUSH2 0x10BD JUMP JUMPDEST PUSH2 0x1102 DUP7 DUP4 PUSH2 0x10BD JUMP JUMPDEST SWAP6 POP DUP1 NOT DUP5 AND SWAP4 POP DUP1 DUP7 AND DUP5 OR SWAP3 POP POP POP SWAP4 SWAP3 POP POP POP JUMP JUMPDEST PUSH0 PUSH2 0x1134 PUSH2 0x112F PUSH2 0x112A DUP5 PUSH2 0xCB9 JUMP JUMPDEST PUSH2 0xED0 JUMP JUMPDEST PUSH2 0xCB9 JUMP JUMPDEST SWAP1 POP SWAP2 SWAP1 POP JUMP JUMPDEST PUSH0 DUP2 SWAP1 POP SWAP2 SWAP1 POP JUMP JUMPDEST PUSH2 0x114D DUP4 PUSH2 0x111A JUMP JUMPDEST PUSH2 0x1161 PUSH2 0x1159 DUP3 PUSH2 0x113B JUMP JUMPDEST DUP5 DUP5 SLOAD PUSH2 0x10C9 JUMP JUMPDEST DUP3 SSTORE POP POP POP POP JUMP JUMPDEST PUSH0 SWAP1 JUMP JUMPDEST PUSH2 0x1175 PUSH2 0x1169 JUMP JUMPDEST PUSH2 0x1180 DUP2 DUP5 DUP5 PUSH2 0x1144 JUMP JUMPDEST POP POP POP JUMP JUMPDEST JUMPDEST DUP2 DUP2 LT ISZERO PUSH2 0x11A3 JUMPI PUSH2 0x1198 PUSH0 DUP3 PUSH2 0x116D JUMP JUMPDEST PUSH1 0x1 DUP2 ADD SWAP1 POP PUSH2 0x1186 JUMP JUMPDEST POP POP JUMP JUMPDEST PUSH1 0x1F DUP3 GT ISZERO PUSH2 0x11E8 JUMPI PUSH2 0x11B9 DUP2 PUSH2 0x109C JUMP JUMPDEST PUSH2 0x11C2 DUP5 PUSH2 0x10AE JUMP JUMPDEST DUP2 ADD PUSH1 0x20 DUP6 LT ISZERO PUSH2 0x11D1 JUMPI DUP2 SWAP1 POP JUMPDEST PUSH2 0x11E5 PUSH2 0x11DD DUP6 PUSH2 0x10AE JUMP JUMPDEST DUP4 ADD DUP3 PUSH2 0x1185 JUMP JUMPDEST POP POP JUMPDEST POP POP POP JUMP JUMPDEST PUSH0 DUP3 DUP3 SHR SWAP1 POP SWAP3 SWAP2 POP POP JUMP JUMPDEST PUSH0 PUSH2 0x1208 PUSH0 NOT DUP5 PUSH1 0x8 MUL PUSH2 0x11ED JUMP JUMPDEST NOT DUP1 DUP4 AND SWAP2 POP POP SWAP3 SWAP2 POP POP JUMP JUMPDEST PUSH0 PUSH2 0x1220 DUP4 DUP4 PUSH2 0x11F9 JUMP JUMPDEST SWAP2 POP DUP3 PUSH1 0x2 MUL DUP3 OR SWAP1 POP SWAP3 SWAP2 POP POP JUMP JUMPDEST PUSH2 0x1239 DUP3 PUSH2 0xAEC JUMP JUMPDEST PUSH8 0xFFFFFFFFFFFFFFFF DUP2 GT ISZERO PUSH2 0x1252 JUMPI PUSH2 0x1251 PUSH2 0xB95 JUMP JUMPDEST JUMPDEST PUSH2 0x125C DUP3 SLOAD PUSH2 0x106C JUMP JUMPDEST PUSH2 0x1267 DUP3 DUP3 DUP6 PUSH2 0x11A7 JUMP JUMPDEST PUSH0 PUSH1 0x20 SWAP1 POP PUSH1 0x1F DUP4 GT PUSH1 0x1 DUP2 EQ PUSH2 0x1298 JUMPI PUSH0 DUP5 ISZERO PUSH2 0x1286 JUMPI DUP3 DUP8 ADD MLOAD SWAP1 POP JUMPDEST PUSH2 0x1290 DUP6 DUP3 PUSH2 0x1215 JUMP JUMPDEST DUP7 SSTORE POP PUSH2 0x12F7 JUMP JUMPDEST PUSH1 0x1F NOT DUP5 AND PUSH2 0x12A6 DUP7 PUSH2 0x109C JUMP JUMPDEST PUSH0 JUMPDEST DUP3 DUP2 LT ISZERO PUSH2 0x12CD JUMPI DUP5 DUP10 ADD MLOAD DUP3 SSTORE PUSH1 0x1 DUP3 ADD SWAP2 POP PUSH1 0x20 DUP6 ADD SWAP5 POP PUSH1 0x20 DUP2 ADD SWAP1 POP PUSH2 0x12A8 JUMP JUMPDEST DUP7 DUP4 LT ISZERO PUSH2 0x12EA JUMPI DUP5 DUP10 ADD MLOAD PUSH2 0x12E6 PUSH1 0x1F DUP10 AND DUP3 PUSH2 0x11F9 JUMP JUMPDEST DUP4 SSTORE POP JUMPDEST PUSH1 0x1 PUSH1 0x2 DUP9 MUL ADD DUP9 SSTORE POP POP POP JUMPDEST POP POP POP POP POP POP JUMP JUMPDEST PUSH0 DUP2 SLOAD PUSH2 0x130B DUP2 PUSH2 0x106C JUMP JUMPDEST PUSH2 0x1315 DUP2 DUP7 PUSH2 0xAF6 JUMP JUMPDEST SWAP5 POP PUSH1 0x1 DUP3 AND PUSH0 DUP2 EQ PUSH2 0x132F JUMPI PUSH1 0x1 DUP2 EQ PUSH2 0x1345 JUMPI PUSH2 0x1377 JUMP JUMPDEST PUSH1 0xFF NOT DUP4 AND DUP7 MSTORE DUP2 ISZERO ISZERO PUSH1 0x20 MUL DUP7 ADD SWAP4 POP PUSH2 0x1377 JUMP JUMPDEST PUSH2 0x134E DUP6 PUSH2 0x109C JUMP JUMPDEST PUSH0 JUMPDEST DUP4 DUP2 LT ISZERO PUSH2 0x136F JUMPI DUP2 SLOAD DUP2 DUP10 ADD MSTORE PUSH1 0x1 DUP3 ADD SWAP2 POP PUSH1 0x20 DUP2 ADD SWAP1 POP PUSH2 0x1350 JUMP JUMPDEST DUP1 DUP9 ADD SWAP6 POP POP POP JUMPDEST POP POP POP SWAP3 SWAP2 POP POP JUMP JUMPDEST PUSH0 PUSH1 0x40 DUP3 ADD SWAP1 POP DUP2 DUP2 SUB PUSH0 DUP4 ADD MSTORE PUSH2 0x1398 DUP2 DUP6 PUSH2 0x12FF JUMP JUMPDEST SWAP1 POP DUP2 DUP2 SUB PUSH1 0x20 DUP4 ADD MSTORE PUSH2 0x13AC DUP2 DUP5 PUSH2 0x12FF JUMP JUMPDEST SWAP1 POP SWAP4 SWAP3 POP POP POP JUMP INVALID LOG2 PUSH5 0x6970667358 0x22 SLT KECCAK256 0xD7 PUSH16 0x4C5C94A49052D6EAD0E1676EEDCD9417 0x26 PUSH17 0x7B3F2EB8C2E664CA9DF58B2C64736F6C63 NUMBER STOP ADDMOD BYTE STOP CALLER LOG2 PUSH5 0x6970667358 0x22 SLT KECCAK256 0x4F SELFBALANCE PREVRANDAO SWAP10 DUP2 0xE2 0xEF 0xD1 LOG4 0xB3 GT LOG3 RETURNDATASIZE 0xAA BLOCKHASH SWAP9 CALLER CREATE2 SWAP2 CALLDATALOAD 0xBE 0xC2 0xDF 0xE8 PUSH3 0xB12A91 0x4E MLOAD TSTORE 0xDA PUSH5 0x736F6C6343 STOP ADDMOD BYTE STOP CALLER "
		},
		"gasEstimates": {
			"creation": {
				"codeDepositCost": "1911400",
				"executionCost": "2017",
				"totalCost": "1913417"
			},
			"external": {
				"admitNewStudent(string,string,string,uint256,string,string,string,string,uint256)": "infinite",
				"displayStudentDetails(string)": "infinite",
				"migrateStudent(string,string)": "infinite",
				"studentList(uint256)": "infinite"
			}
		},
		"methodIdentifiers": {
			"admitNewStudent(string,string,string,uint256,string,string,string,string,uint256)": "281f5dfc",
			"displayStudentDetails(string)": "e8f3f53b",
			"migrateStudent(string,string)": "86dae4ec",
			"studentList(uint256)": "7df221e9"
		}
	},
	"abi": [
		{
			"inputs": [
				{
					"internalType": "string",
					"name": "_studentName",
					"type": "string"
				},
				{
					"internalType": "string",
					"name": "_regdNo",
					"type": "string"
				},
				{
					"internalType": "string",
					"name": "_electiveSubject",
					"type": "string"
				},
				{
					"internalType": "uint256",
					"name": "_avgMarks",
					"type": "uint256"
				},
				{
					"internalType": "string",
					"name": "_deptName",
					"type": "string"
				},
				{
					"internalType": "string",
					"name": "_deptHead",
					"type": "string"
				},
				{
					"internalType": "string",
					"name": "_hostelName",
					"type": "string"
				},
				{
					"internalType": "string",
					"name": "_hostelLocation",
					"type": "string"
				},
				{
					"internalType": "uint256",
					"name": "_numberOfRooms",
					"type": "uint256"
				}
			],
			"name": "admitNewStudent",
			"outputs": [],
			"stateMutability": "nonpayable",
			"type": "function"
		},
		{
			"inputs": [
				{
					"internalType": "string",
					"name": "_regdNo",
					"type": "string"
				}
			],
			"name": "displayStudentDetails",
			"outputs": [
				{
					"internalType": "string",
					"name": "",
					"type": "string"
				},
				{
					"internalType": "string",
					"name": "",
					"type": "string"
				},
				{
					"internalType": "string",
					"name": "",
					"type": "string"
				},
				{
					"internalType": "uint256",
					"name": "",
					"type": "uint256"
				},
				{
					"internalType": "string",
					"name": "",
					"type": "string"
				},
				{
					"internalType": "string",
					"name": "",
					"type": "string"
				},
				{
					"internalType": "uint256",
					"name": "",
					"type": "uint256"
				}
			],
			"stateMutability": "view",
			"type": "function"
		},
		{
			"inputs": [
				{
					"internalType": "string",
					"name": "_regdNo",
					"type": "string"
				},
				{
					"internalType": "string",
					"name": "newHostelName",
					"type": "string"
				}
			],
			"name": "migrateStudent",
			"outputs": [],
			"stateMutability": "nonpayable",
			"type": "function"
		},
		{
			"inputs": [
				{
					"internalType": "uint256",
					"name": "",
					"type": "uint256"
				}
			],
			"name": "studentList",
			"outputs": [
				{
					"internalType": "contract Student",
					"name": "",
					"type": "address"
				}
			],
			"stateMutability": "view",
			"type": "function"
		}
	]
}