{
	"Day07/Maths.sol": {
		"MathLibrary": {
			"abi": [
				{
					"inputs": [
						{
							"internalType": "uint256",
							"name": "n",
							"type": "uint256"
						}
					],
					"name": "factorial",
					"outputs": [
						{
							"internalType": "uint256",
							"name": "",
							"type": "uint256"
						}
					],
					"stateMutability": "pure",
					"type": "function"
				},
				{
					"inputs": [
						{
							"internalType": "uint256",
							"name": "n",
							"type": "uint256"
						}
					],
					"name": "fibonacci",
					"outputs": [
						{
							"internalType": "uint256[]",
							"name": "",
							"type": "uint256[]"
						}
					],
					"stateMutability": "pure",
					"type": "function"
				},
				{
					"inputs": [
						{
							"internalType": "uint256",
							"name": "num",
							"type": "uint256"
						}
					],
					"name": "isArmstrong",
					"outputs": [
						{
							"internalType": "bool",
							"name": "",
							"type": "bool"
						}
					],
					"stateMutability": "pure",
					"type": "function"
				},
				{
					"inputs": [
						{
							"internalType": "uint256",
							"name": "a",
							"type": "uint256"
						},
						{
							"internalType": "uint256",
							"name": "b",
							"type": "uint256"
						}
					],
					"name": "max",
					"outputs": [
						{
							"internalType": "uint256",
							"name": "",
							"type": "uint256"
						}
					],
					"stateMutability": "pure",
					"type": "function"
				},
				{
					"inputs": [
						{
							"internalType": "uint256",
							"name": "a",
							"type": "uint256"
						},
						{
							"internalType": "uint256",
							"name": "b",
							"type": "uint256"
						}
					],
					"name": "min",
					"outputs": [
						{
							"internalType": "uint256",
							"name": "",
							"type": "uint256"
						}
					],
					"stateMutability": "pure",
					"type": "function"
				}
			],
			"devdoc": {
				"kind": "dev",
				"methods": {},
				"version": 1
			},
			"evm": {
				"assembly": "    /* \"Day07/Maths.sol\":68:1717  library MathLibrary {... */\n  dataSize(sub_0)\n  dataOffset(sub_0)\n  0x0b\n  dup3\n  dup3\n  dup3\n  codecopy\n  dup1\n  mload\n  0x00\n  byte\n  0x73\n  eq\n  tag_1\n  jumpi\n  mstore(0x00, 0x4e487b7100000000000000000000000000000000000000000000000000000000)\n  mstore(0x04, 0x00)\n  revert(0x00, 0x24)\ntag_1:\n  mstore(0x00, address)\n  0x73\n  dup2\n  mstore8\n  dup3\n  dup2\n  return\nstop\n\nsub_0: assembly {\n        /* \"Day07/Maths.sol\":68:1717  library MathLibrary {... */\n      eq(address, deployTimeAddress())\n      mstore(0x40, 0x80)\n      jumpi(tag_1, lt(calldatasize, 0x04))\n      shr(0xe0, calldataload(0x00))\n      dup1\n      0x61047ff4\n      eq\n      tag_2\n      jumpi\n      dup1\n      0x6d5433e6\n      eq\n      tag_3\n      jumpi\n      dup1\n      0x7ae2b5c7\n      eq\n      tag_4\n      jumpi\n      dup1\n      0x83714834\n      eq\n      tag_5\n      jumpi\n      dup1\n      0xfe459d20\n      eq\n      tag_6\n      jumpi\n    tag_1:\n      0x00\n      dup1\n      revert\n        /* \"Day07/Maths.sol\":702:1072  function fibonacci(uint256 n) public pure returns (uint256[] memory) {... */\n    tag_2:\n      tag_7\n      0x04\n      dup1\n      calldatasize\n      sub\n      dup2\n      add\n      swap1\n      tag_8\n      swap2\n      swap1\n      tag_9\n      jump\t// in\n    tag_8:\n      tag_10\n      jump\t// in\n    tag_7:\n      mload(0x40)\n      tag_11\n      swap2\n      swap1\n      tag_12\n      jump\t// in\n    tag_11:\n      mload(0x40)\n      dup1\n      swap2\n      sub\n      swap1\n      return\n        /* \"Day07/Maths.sol\":95:199  function max(uint256 a, uint256 b) public pure returns (uint256) {... */\n    tag_3:\n      tag_13\n      0x04\n      dup1\n      calldatasize\n      sub\n      dup2\n      add\n      swap1\n      tag_14\n      swap2\n      swap1\n      tag_15\n      jump\t// in\n    tag_14:\n      tag_16\n      jump\t// in\n    tag_13:\n      mload(0x40)\n      tag_17\n      swap2\n      swap1\n      tag_18\n      jump\t// in\n    tag_17:\n      mload(0x40)\n      dup1\n      swap2\n      sub\n      swap1\n      return\n        /* \"Day07/Maths.sol\":259:363  function min(uint256 a, uint256 b) public pure returns (uint256) {... */\n    tag_4:\n      tag_19\n      0x04\n      dup1\n      calldatasize\n      sub\n      dup2\n      add\n      swap1\n      tag_20\n      swap2\n      swap1\n      tag_15\n      jump\t// in\n    tag_20:\n      tag_21\n      jump\t// in\n    tag_19:\n      mload(0x40)\n      tag_22\n      swap2\n      swap1\n      tag_18\n      jump\t// in\n    tag_22:\n      mload(0x40)\n      dup1\n      swap2\n      sub\n      swap1\n      return\n        /* \"Day07/Maths.sol\":423:625  function factorial(uint256 n) public pure returns (uint256) {... */\n    tag_5:\n      tag_23\n      0x04\n      dup1\n      calldatasize\n      sub\n      dup2\n      add\n      swap1\n      tag_24\n      swap2\n      swap1\n      tag_9\n      jump\t// in\n    tag_24:\n      tag_25\n      jump\t// in\n    tag_23:\n      mload(0x40)\n      tag_26\n      swap2\n      swap1\n      tag_18\n      jump\t// in\n    tag_26:\n      mload(0x40)\n      dup1\n      swap2\n      sub\n      swap1\n      return\n        /* \"Day07/Maths.sol\":1138:1714  function isArmstrong(uint256 num) public pure returns (bool) {... */\n    tag_6:\n      tag_27\n      0x04\n      dup1\n      calldatasize\n      sub\n      dup2\n      add\n      swap1\n      tag_28\n      swap2\n      swap1\n      tag_9\n      jump\t// in\n    tag_28:\n      tag_29\n      jump\t// in\n    tag_27:\n      mload(0x40)\n      tag_30\n      swap2\n      swap1\n      tag_31\n      jump\t// in\n    tag_30:\n      mload(0x40)\n      dup1\n      swap2\n      sub\n      swap1\n      return\n        /* \"Day07/Maths.sol\":702:1072  function fibonacci(uint256 n) public pure returns (uint256[] memory) {... */\n    tag_10:\n        /* \"Day07/Maths.sol\":753:769  uint256[] memory */\n      0x60\n        /* \"Day07/Maths.sol\":782:808  uint256[] memory fibSeries */\n      0x00\n        /* \"Day07/Maths.sol\":825:826  n */\n      dup3\n        /* \"Day07/Maths.sol\":811:827  new uint256[](n) */\n      0xffffffffffffffff\n      dup2\n      gt\n      iszero\n      tag_33\n      jumpi\n      tag_34\n      tag_35\n      jump\t// in\n    tag_34:\n    tag_33:\n      mload(0x40)\n      swap1\n      dup1\n      dup3\n      mstore\n      dup1\n      0x20\n      mul\n      0x20\n      add\n      dup3\n      add\n      0x40\n      mstore\n      dup1\n      iszero\n      tag_36\n      jumpi\n      dup2\n      0x20\n      add\n      0x20\n      dup3\n      mul\n      dup1\n      calldatasize\n      dup4\n      calldatacopy\n      dup1\n      dup3\n      add\n      swap2\n      pop\n      pop\n      swap1\n      pop\n    tag_36:\n      pop\n        /* \"Day07/Maths.sol\":782:827  uint256[] memory fibSeries = new uint256[](n) */\n      swap1\n      pop\n        /* \"Day07/Maths.sol\":853:854  0 */\n      0x00\n        /* \"Day07/Maths.sol\":838:847  fibSeries */\n      dup2\n        /* \"Day07/Maths.sol\":848:849  0 */\n      0x00\n        /* \"Day07/Maths.sol\":838:850  fibSeries[0] */\n      dup2\n      mload\n      dup2\n      lt\n      tag_37\n      jumpi\n      tag_38\n      tag_39\n      jump\t// in\n    tag_38:\n    tag_37:\n      0x20\n      mul\n      0x20\n      add\n      add\n        /* \"Day07/Maths.sol\":838:854  fibSeries[0] = 0 */\n      dup2\n      dup2\n      mstore\n      pop\n      pop\n        /* \"Day07/Maths.sol\":873:874  1 */\n      0x01\n        /* \"Day07/Maths.sol\":869:870  n */\n      dup4\n        /* \"Day07/Maths.sol\":869:874  n > 1 */\n      gt\n        /* \"Day07/Maths.sol\":865:919  if (n > 1) {... */\n      iszero\n      tag_40\n      jumpi\n        /* \"Day07/Maths.sol\":906:907  1 */\n      0x01\n        /* \"Day07/Maths.sol\":891:900  fibSeries */\n      dup2\n        /* \"Day07/Maths.sol\":901:902  1 */\n      0x01\n        /* \"Day07/Maths.sol\":891:903  fibSeries[1] */\n      dup2\n      mload\n      dup2\n      lt\n      tag_41\n      jumpi\n      tag_42\n      tag_39\n      jump\t// in\n    tag_42:\n    tag_41:\n      0x20\n      mul\n      0x20\n      add\n      add\n        /* \"Day07/Maths.sol\":891:907  fibSeries[1] = 1 */\n      dup2\n      dup2\n      mstore\n      pop\n      pop\n        /* \"Day07/Maths.sol\":865:919  if (n > 1) {... */\n    tag_40:\n        /* \"Day07/Maths.sol\":934:943  uint256 i */\n      0x00\n        /* \"Day07/Maths.sol\":946:947  2 */\n      0x02\n        /* \"Day07/Maths.sol\":934:947  uint256 i = 2 */\n      swap1\n      pop\n        /* \"Day07/Maths.sol\":929:1038  for (uint256 i = 2; i < n; i++) {... */\n    tag_43:\n        /* \"Day07/Maths.sol\":953:954  n */\n      dup4\n        /* \"Day07/Maths.sol\":949:950  i */\n      dup2\n        /* \"Day07/Maths.sol\":949:954  i < n */\n      lt\n        /* \"Day07/Maths.sol\":929:1038  for (uint256 i = 2; i < n; i++) {... */\n      iszero\n      tag_44\n      jumpi\n        /* \"Day07/Maths.sol\":1010:1019  fibSeries */\n      dup2\n        /* \"Day07/Maths.sol\":1024:1025  2 */\n      0x02\n        /* \"Day07/Maths.sol\":1020:1021  i */\n      dup3\n        /* \"Day07/Maths.sol\":1020:1025  i - 2 */\n      tag_46\n      swap2\n      swap1\n      tag_47\n      jump\t// in\n    tag_46:\n        /* \"Day07/Maths.sol\":1010:1026  fibSeries[i - 2] */\n      dup2\n      mload\n      dup2\n      lt\n      tag_48\n      jumpi\n      tag_49\n      tag_39\n      jump\t// in\n    tag_49:\n    tag_48:\n      0x20\n      mul\n      0x20\n      add\n      add\n      mload\n        /* \"Day07/Maths.sol\":991:1000  fibSeries */\n      dup3\n        /* \"Day07/Maths.sol\":1005:1006  1 */\n      0x01\n        /* \"Day07/Maths.sol\":1001:1002  i */\n      dup4\n        /* \"Day07/Maths.sol\":1001:1006  i - 1 */\n      tag_50\n      swap2\n      swap1\n      tag_47\n      jump\t// in\n    tag_50:\n        /* \"Day07/Maths.sol\":991:1007  fibSeries[i - 1] */\n      dup2\n      mload\n      dup2\n      lt\n      tag_51\n      jumpi\n      tag_52\n      tag_39\n      jump\t// in\n    tag_52:\n    tag_51:\n      0x20\n      mul\n      0x20\n      add\n      add\n      mload\n        /* \"Day07/Maths.sol\":991:1026  fibSeries[i - 1] + fibSeries[i - 2] */\n      tag_53\n      swap2\n      swap1\n      tag_54\n      jump\t// in\n    tag_53:\n        /* \"Day07/Maths.sol\":976:985  fibSeries */\n      dup3\n        /* \"Day07/Maths.sol\":986:987  i */\n      dup3\n        /* \"Day07/Maths.sol\":976:988  fibSeries[i] */\n      dup2\n      mload\n      dup2\n      lt\n      tag_55\n      jumpi\n      tag_56\n      tag_39\n      jump\t// in\n    tag_56:\n    tag_55:\n      0x20\n      mul\n      0x20\n      add\n      add\n        /* \"Day07/Maths.sol\":976:1026  fibSeries[i] = fibSeries[i - 1] + fibSeries[i - 2] */\n      dup2\n      dup2\n      mstore\n      pop\n      pop\n        /* \"Day07/Maths.sol\":956:959  i++ */\n      dup1\n      dup1\n      0x01\n      add\n      swap2\n      pop\n      pop\n        /* \"Day07/Maths.sol\":929:1038  for (uint256 i = 2; i < n; i++) {... */\n      jump(tag_43)\n    tag_44:\n      pop\n        /* \"Day07/Maths.sol\":1055:1064  fibSeries */\n      dup1\n        /* \"Day07/Maths.sol\":1048:1064  return fibSeries */\n      swap2\n      pop\n      pop\n        /* \"Day07/Maths.sol\":702:1072  function fibonacci(uint256 n) public pure returns (uint256[] memory) {... */\n      swap2\n      swap1\n      pop\n      jump\t// out\n        /* \"Day07/Maths.sol\":95:199  function max(uint256 a, uint256 b) public pure returns (uint256) {... */\n    tag_16:\n        /* \"Day07/Maths.sol\":151:158  uint256 */\n      0x00\n        /* \"Day07/Maths.sol\":182:183  b */\n      dup2\n        /* \"Day07/Maths.sol\":178:179  a */\n      dup4\n        /* \"Day07/Maths.sol\":178:183  a > b */\n      gt\n        /* \"Day07/Maths.sol\":178:191  a > b ? a : b */\n      tag_58\n      jumpi\n        /* \"Day07/Maths.sol\":190:191  b */\n      dup2\n        /* \"Day07/Maths.sol\":178:191  a > b ? a : b */\n      jump(tag_59)\n    tag_58:\n        /* \"Day07/Maths.sol\":186:187  a */\n      dup3\n        /* \"Day07/Maths.sol\":178:191  a > b ? a : b */\n    tag_59:\n        /* \"Day07/Maths.sol\":171:191  return a > b ? a : b */\n      swap1\n      pop\n        /* \"Day07/Maths.sol\":95:199  function max(uint256 a, uint256 b) public pure returns (uint256) {... */\n      swap3\n      swap2\n      pop\n      pop\n      jump\t// out\n        /* \"Day07/Maths.sol\":259:363  function min(uint256 a, uint256 b) public pure returns (uint256) {... */\n    tag_21:\n        /* \"Day07/Maths.sol\":315:322  uint256 */\n      0x00\n        /* \"Day07/Maths.sol\":346:347  b */\n      dup2\n        /* \"Day07/Maths.sol\":342:343  a */\n      dup4\n        /* \"Day07/Maths.sol\":342:347  a < b */\n      lt\n        /* \"Day07/Maths.sol\":342:355  a < b ? a : b */\n      tag_61\n      jumpi\n        /* \"Day07/Maths.sol\":354:355  b */\n      dup2\n        /* \"Day07/Maths.sol\":342:355  a < b ? a : b */\n      jump(tag_62)\n    tag_61:\n        /* \"Day07/Maths.sol\":350:351  a */\n      dup3\n        /* \"Day07/Maths.sol\":342:355  a < b ? a : b */\n    tag_62:\n        /* \"Day07/Maths.sol\":335:355  return a < b ? a : b */\n      swap1\n      pop\n        /* \"Day07/Maths.sol\":259:363  function min(uint256 a, uint256 b) public pure returns (uint256) {... */\n      swap3\n      swap2\n      pop\n      pop\n      jump\t// out\n        /* \"Day07/Maths.sol\":423:625  function factorial(uint256 n) public pure returns (uint256) {... */\n    tag_25:\n        /* \"Day07/Maths.sol\":474:481  uint256 */\n      0x00\n        /* \"Day07/Maths.sol\":494:508  uint256 result */\n      dup1\n        /* \"Day07/Maths.sol\":511:512  1 */\n      0x01\n        /* \"Day07/Maths.sol\":494:512  uint256 result = 1 */\n      swap1\n      pop\n        /* \"Day07/Maths.sol\":528:537  uint256 i */\n      0x00\n        /* \"Day07/Maths.sol\":540:541  1 */\n      0x01\n        /* \"Day07/Maths.sol\":528:541  uint256 i = 1 */\n      swap1\n      pop\n        /* \"Day07/Maths.sol\":523:594  for (uint256 i = 1; i <= n; i++) {... */\n    tag_64:\n        /* \"Day07/Maths.sol\":548:549  n */\n      dup4\n        /* \"Day07/Maths.sol\":543:544  i */\n      dup2\n        /* \"Day07/Maths.sol\":543:549  i <= n */\n      gt\n        /* \"Day07/Maths.sol\":523:594  for (uint256 i = 1; i <= n; i++) {... */\n      tag_65\n      jumpi\n        /* \"Day07/Maths.sol\":581:582  i */\n      dup1\n        /* \"Day07/Maths.sol\":571:582  result *= i */\n      dup3\n      tag_67\n      swap2\n      swap1\n      tag_68\n      jump\t// in\n    tag_67:\n      swap2\n      pop\n        /* \"Day07/Maths.sol\":551:554  i++ */\n      dup1\n      dup1\n      tag_69\n      swap1\n      tag_70\n      jump\t// in\n    tag_69:\n      swap2\n      pop\n      pop\n        /* \"Day07/Maths.sol\":523:594  for (uint256 i = 1; i <= n; i++) {... */\n      jump(tag_64)\n    tag_65:\n      pop\n        /* \"Day07/Maths.sol\":611:617  result */\n      dup1\n        /* \"Day07/Maths.sol\":604:617  return result */\n      swap2\n      pop\n      pop\n        /* \"Day07/Maths.sol\":423:625  function factorial(uint256 n) public pure returns (uint256) {... */\n      swap2\n      swap1\n      pop\n      jump\t// out\n        /* \"Day07/Maths.sol\":1138:1714  function isArmstrong(uint256 num) public pure returns (bool) {... */\n    tag_29:\n        /* \"Day07/Maths.sol\":1193:1197  bool */\n      0x00\n        /* \"Day07/Maths.sol\":1210:1229  uint256 originalNum */\n      dup1\n        /* \"Day07/Maths.sol\":1232:1235  num */\n      dup3\n        /* \"Day07/Maths.sol\":1210:1235  uint256 originalNum = num */\n      swap1\n      pop\n        /* \"Day07/Maths.sol\":1246:1257  uint256 sum */\n      0x00\n        /* \"Day07/Maths.sol\":1272:1286  uint256 digits */\n      dup1\n        /* \"Day07/Maths.sol\":1363:1439  while (num != 0) {... */\n    tag_72:\n        /* \"Day07/Maths.sol\":1377:1378  0 */\n      0x00\n        /* \"Day07/Maths.sol\":1370:1373  num */\n      dup6\n        /* \"Day07/Maths.sol\":1370:1378  num != 0 */\n      eq\n        /* \"Day07/Maths.sol\":1363:1439  while (num != 0) {... */\n      tag_73\n      jumpi\n        /* \"Day07/Maths.sol\":1395:1403  digits++ */\n      dup1\n      dup1\n      tag_74\n      swap1\n      tag_70\n      jump\t// in\n    tag_74:\n      swap2\n      pop\n      pop\n        /* \"Day07/Maths.sol\":1425:1427  10 */\n      0x0a\n        /* \"Day07/Maths.sol\":1418:1427  num /= 10 */\n      dup6\n      tag_75\n      swap2\n      swap1\n      tag_76\n      jump\t// in\n    tag_75:\n      swap5\n      pop\n        /* \"Day07/Maths.sol\":1363:1439  while (num != 0) {... */\n      jump(tag_72)\n    tag_73:\n        /* \"Day07/Maths.sol\":1465:1476  originalNum */\n      dup3\n        /* \"Day07/Maths.sol\":1459:1476  num = originalNum */\n      swap5\n      pop\n        /* \"Day07/Maths.sol\":1532:1661  while (num != 0) {... */\n    tag_77:\n        /* \"Day07/Maths.sol\":1546:1547  0 */\n      0x00\n        /* \"Day07/Maths.sol\":1539:1542  num */\n      dup6\n        /* \"Day07/Maths.sol\":1539:1547  num != 0 */\n      eq\n        /* \"Day07/Maths.sol\":1532:1661  while (num != 0) {... */\n      tag_78\n      jumpi\n        /* \"Day07/Maths.sol\":1564:1577  uint256 digit */\n      0x00\n        /* \"Day07/Maths.sol\":1586:1588  10 */\n      0x0a\n        /* \"Day07/Maths.sol\":1580:1583  num */\n      dup7\n        /* \"Day07/Maths.sol\":1580:1588  num % 10 */\n      tag_79\n      swap2\n      swap1\n      tag_80\n      jump\t// in\n    tag_79:\n        /* \"Day07/Maths.sol\":1564:1588  uint256 digit = num % 10 */\n      swap1\n      pop\n        /* \"Day07/Maths.sol\":1619:1625  digits */\n      dup2\n        /* \"Day07/Maths.sol\":1610:1615  digit */\n      dup2\n        /* \"Day07/Maths.sol\":1610:1625  digit ** digits */\n      tag_81\n      swap2\n      swap1\n      tag_82\n      jump\t// in\n    tag_81:\n        /* \"Day07/Maths.sol\":1603:1625  sum += digit ** digits */\n      dup4\n      tag_83\n      swap2\n      swap1\n      tag_54\n      jump\t// in\n    tag_83:\n      swap3\n      pop\n        /* \"Day07/Maths.sol\":1647:1649  10 */\n      0x0a\n        /* \"Day07/Maths.sol\":1640:1649  num /= 10 */\n      dup7\n      tag_84\n      swap2\n      swap1\n      tag_76\n      jump\t// in\n    tag_84:\n      swap6\n      pop\n        /* \"Day07/Maths.sol\":1549:1661  {... */\n      pop\n        /* \"Day07/Maths.sol\":1532:1661  while (num != 0) {... */\n      jump(tag_77)\n    tag_78:\n        /* \"Day07/Maths.sol\":1695:1706  originalNum */\n      dup3\n        /* \"Day07/Maths.sol\":1688:1691  sum */\n      dup3\n        /* \"Day07/Maths.sol\":1688:1706  sum == originalNum */\n      eq\n        /* \"Day07/Maths.sol\":1681:1706  return sum == originalNum */\n      swap4\n      pop\n      pop\n      pop\n      pop\n        /* \"Day07/Maths.sol\":1138:1714  function isArmstrong(uint256 num) public pure returns (bool) {... */\n      swap2\n      swap1\n      pop\n      jump\t// out\n        /* \"#utility.yul\":88:205   */\n    tag_86:\n        /* \"#utility.yul\":197:198   */\n      0x00\n        /* \"#utility.yul\":194:195   */\n      dup1\n        /* \"#utility.yul\":187:199   */\n      revert\n        /* \"#utility.yul\":334:411   */\n    tag_88:\n        /* \"#utility.yul\":371:378   */\n      0x00\n        /* \"#utility.yul\":400:405   */\n      dup2\n        /* \"#utility.yul\":389:405   */\n      swap1\n      pop\n        /* \"#utility.yul\":334:411   */\n      swap2\n      swap1\n      pop\n      jump\t// out\n        /* \"#utility.yul\":417:539   */\n    tag_89:\n        /* \"#utility.yul\":490:514   */\n      tag_112\n        /* \"#utility.yul\":508:513   */\n      dup2\n        /* \"#utility.yul\":490:514   */\n      tag_88\n      jump\t// in\n    tag_112:\n        /* \"#utility.yul\":483:488   */\n      dup2\n        /* \"#utility.yul\":480:515   */\n      eq\n        /* \"#utility.yul\":470:533   */\n      tag_113\n      jumpi\n        /* \"#utility.yul\":529:530   */\n      0x00\n        /* \"#utility.yul\":526:527   */\n      dup1\n        /* \"#utility.yul\":519:531   */\n      revert\n        /* \"#utility.yul\":470:533   */\n    tag_113:\n        /* \"#utility.yul\":417:539   */\n      pop\n      jump\t// out\n        /* \"#utility.yul\":545:684   */\n    tag_90:\n        /* \"#utility.yul\":591:596   */\n      0x00\n        /* \"#utility.yul\":629:635   */\n      dup2\n        /* \"#utility.yul\":616:636   */\n      calldataload\n        /* \"#utility.yul\":607:636   */\n      swap1\n      pop\n        /* \"#utility.yul\":645:678   */\n      tag_115\n        /* \"#utility.yul\":672:677   */\n      dup2\n        /* \"#utility.yul\":645:678   */\n      tag_89\n      jump\t// in\n    tag_115:\n        /* \"#utility.yul\":545:684   */\n      swap3\n      swap2\n      pop\n      pop\n      jump\t// out\n        /* \"#utility.yul\":690:1019   */\n    tag_9:\n        /* \"#utility.yul\":749:755   */\n      0x00\n        /* \"#utility.yul\":798:800   */\n      0x20\n        /* \"#utility.yul\":786:795   */\n      dup3\n        /* \"#utility.yul\":777:784   */\n      dup5\n        /* \"#utility.yul\":773:796   */\n      sub\n        /* \"#utility.yul\":769:801   */\n      slt\n        /* \"#utility.yul\":766:885   */\n      iszero\n      tag_117\n      jumpi\n        /* \"#utility.yul\":804:883   */\n      tag_118\n      tag_86\n      jump\t// in\n    tag_118:\n        /* \"#utility.yul\":766:885   */\n    tag_117:\n        /* \"#utility.yul\":924:925   */\n      0x00\n        /* \"#utility.yul\":949:1002   */\n      tag_119\n        /* \"#utility.yul\":994:1001   */\n      dup5\n        /* \"#utility.yul\":985:991   */\n      dup3\n        /* \"#utility.yul\":974:983   */\n      dup6\n        /* \"#utility.yul\":970:992   */\n      add\n        /* \"#utility.yul\":949:1002   */\n      tag_90\n      jump\t// in\n    tag_119:\n        /* \"#utility.yul\":939:1002   */\n      swap2\n      pop\n        /* \"#utility.yul\":895:1012   */\n      pop\n        /* \"#utility.yul\":690:1019   */\n      swap3\n      swap2\n      pop\n      pop\n      jump\t// out\n        /* \"#utility.yul\":1025:1139   */\n    tag_91:\n        /* \"#utility.yul\":1092:1098   */\n      0x00\n        /* \"#utility.yul\":1126:1131   */\n      dup2\n        /* \"#utility.yul\":1120:1132   */\n      mload\n        /* \"#utility.yul\":1110:1132   */\n      swap1\n      pop\n        /* \"#utility.yul\":1025:1139   */\n      swap2\n      swap1\n      pop\n      jump\t// out\n        /* \"#utility.yul\":1145:1337   */\n    tag_92:\n        /* \"#utility.yul\":1252:1263   */\n      0x00\n        /* \"#utility.yul\":1286:1292   */\n      dup3\n        /* \"#utility.yul\":1281:1284   */\n      dup3\n        /* \"#utility.yul\":1274:1293   */\n      mstore\n        /* \"#utility.yul\":1326:1330   */\n      0x20\n        /* \"#utility.yul\":1321:1324   */\n      dup3\n        /* \"#utility.yul\":1317:1331   */\n      add\n        /* \"#utility.yul\":1302:1331   */\n      swap1\n      pop\n        /* \"#utility.yul\":1145:1337   */\n      swap3\n      swap2\n      pop\n      pop\n      jump\t// out\n        /* \"#utility.yul\":1343:1475   */\n    tag_93:\n        /* \"#utility.yul\":1410:1414   */\n      0x00\n        /* \"#utility.yul\":1433:1436   */\n      dup2\n        /* \"#utility.yul\":1425:1436   */\n      swap1\n      pop\n        /* \"#utility.yul\":1463:1467   */\n      0x20\n        /* \"#utility.yul\":1458:1461   */\n      dup3\n        /* \"#utility.yul\":1454:1468   */\n      add\n        /* \"#utility.yul\":1446:1468   */\n      swap1\n      pop\n        /* \"#utility.yul\":1343:1475   */\n      swap2\n      swap1\n      pop\n      jump\t// out\n        /* \"#utility.yul\":1481:1597   */\n    tag_94:\n        /* \"#utility.yul\":1566:1590   */\n      tag_124\n        /* \"#utility.yul\":1584:1589   */\n      dup2\n        /* \"#utility.yul\":1566:1590   */\n      tag_88\n      jump\t// in\n    tag_124:\n        /* \"#utility.yul\":1561:1564   */\n      dup3\n        /* \"#utility.yul\":1554:1591   */\n      mstore\n        /* \"#utility.yul\":1481:1597   */\n      pop\n      pop\n      jump\t// out\n        /* \"#utility.yul\":1603:1798   */\n    tag_95:\n        /* \"#utility.yul\":1680:1690   */\n      0x00\n        /* \"#utility.yul\":1701:1755   */\n      tag_126\n        /* \"#utility.yul\":1751:1754   */\n      dup4\n        /* \"#utility.yul\":1743:1749   */\n      dup4\n        /* \"#utility.yul\":1701:1755   */\n      tag_94\n      jump\t// in\n    tag_126:\n        /* \"#utility.yul\":1787:1791   */\n      0x20\n        /* \"#utility.yul\":1782:1785   */\n      dup4\n        /* \"#utility.yul\":1778:1792   */\n      add\n        /* \"#utility.yul\":1764:1792   */\n      swap1\n      pop\n        /* \"#utility.yul\":1603:1798   */\n      swap3\n      swap2\n      pop\n      pop\n      jump\t// out\n        /* \"#utility.yul\":1804:1917   */\n    tag_96:\n        /* \"#utility.yul\":1874:1878   */\n      0x00\n        /* \"#utility.yul\":1906:1910   */\n      0x20\n        /* \"#utility.yul\":1901:1904   */\n      dup3\n        /* \"#utility.yul\":1897:1911   */\n      add\n        /* \"#utility.yul\":1889:1911   */\n      swap1\n      pop\n        /* \"#utility.yul\":1804:1917   */\n      swap2\n      swap1\n      pop\n      jump\t// out\n        /* \"#utility.yul\":1953:2709   */\n    tag_97:\n        /* \"#utility.yul\":2080:2083   */\n      0x00\n        /* \"#utility.yul\":2109:2163   */\n      tag_129\n        /* \"#utility.yul\":2157:2162   */\n      dup3\n        /* \"#utility.yul\":2109:2163   */\n      tag_91\n      jump\t// in\n    tag_129:\n        /* \"#utility.yul\":2179:2273   */\n      tag_130\n        /* \"#utility.yul\":2266:2272   */\n      dup2\n        /* \"#utility.yul\":2261:2264   */\n      dup6\n        /* \"#utility.yul\":2179:2273   */\n      tag_92\n      jump\t// in\n    tag_130:\n        /* \"#utility.yul\":2172:2273   */\n      swap4\n      pop\n        /* \"#utility.yul\":2297:2353   */\n      tag_131\n        /* \"#utility.yul\":2347:2352   */\n      dup4\n        /* \"#utility.yul\":2297:2353   */\n      tag_93\n      jump\t// in\n    tag_131:\n        /* \"#utility.yul\":2376:2383   */\n      dup1\n        /* \"#utility.yul\":2407:2408   */\n      0x00\n        /* \"#utility.yul\":2392:2684   */\n    tag_132:\n        /* \"#utility.yul\":2417:2423   */\n      dup4\n        /* \"#utility.yul\":2414:2415   */\n      dup2\n        /* \"#utility.yul\":2411:2424   */\n      lt\n        /* \"#utility.yul\":2392:2684   */\n      iszero\n      tag_134\n      jumpi\n        /* \"#utility.yul\":2493:2499   */\n      dup2\n        /* \"#utility.yul\":2487:2500   */\n      mload\n        /* \"#utility.yul\":2520:2591   */\n      tag_135\n        /* \"#utility.yul\":2587:2590   */\n      dup9\n        /* \"#utility.yul\":2572:2585   */\n      dup3\n        /* \"#utility.yul\":2520:2591   */\n      tag_95\n      jump\t// in\n    tag_135:\n        /* \"#utility.yul\":2513:2591   */\n      swap8\n      pop\n        /* \"#utility.yul\":2614:2674   */\n      tag_136\n        /* \"#utility.yul\":2667:2673   */\n      dup4\n        /* \"#utility.yul\":2614:2674   */\n      tag_96\n      jump\t// in\n    tag_136:\n        /* \"#utility.yul\":2604:2674   */\n      swap3\n      pop\n        /* \"#utility.yul\":2452:2684   */\n      pop\n        /* \"#utility.yul\":2439:2440   */\n      0x01\n        /* \"#utility.yul\":2436:2437   */\n      dup2\n        /* \"#utility.yul\":2432:2441   */\n      add\n        /* \"#utility.yul\":2427:2441   */\n      swap1\n      pop\n        /* \"#utility.yul\":2392:2684   */\n      jump(tag_132)\n    tag_134:\n        /* \"#utility.yul\":2396:2410   */\n      pop\n        /* \"#utility.yul\":2700:2703   */\n      dup6\n        /* \"#utility.yul\":2693:2703   */\n      swap4\n      pop\n        /* \"#utility.yul\":2085:2709   */\n      pop\n      pop\n      pop\n        /* \"#utility.yul\":1953:2709   */\n      swap3\n      swap2\n      pop\n      pop\n      jump\t// out\n        /* \"#utility.yul\":2715:3104   */\n    tag_12:\n        /* \"#utility.yul\":2866:2870   */\n      0x00\n        /* \"#utility.yul\":2904:2906   */\n      0x20\n        /* \"#utility.yul\":2893:2902   */\n      dup3\n        /* \"#utility.yul\":2889:2907   */\n      add\n        /* \"#utility.yul\":2881:2907   */\n      swap1\n      pop\n        /* \"#utility.yul\":2953:2962   */\n      dup2\n        /* \"#utility.yul\":2947:2951   */\n      dup2\n        /* \"#utility.yul\":2943:2963   */\n      sub\n        /* \"#utility.yul\":2939:2940   */\n      0x00\n        /* \"#utility.yul\":2928:2937   */\n      dup4\n        /* \"#utility.yul\":2924:2941   */\n      add\n        /* \"#utility.yul\":2917:2964   */\n      mstore\n        /* \"#utility.yul\":2981:3097   */\n      tag_138\n        /* \"#utility.yul\":3092:3096   */\n      dup2\n        /* \"#utility.yul\":3083:3089   */\n      dup5\n        /* \"#utility.yul\":2981:3097   */\n      tag_97\n      jump\t// in\n    tag_138:\n        /* \"#utility.yul\":2973:3097   */\n      swap1\n      pop\n        /* \"#utility.yul\":2715:3104   */\n      swap3\n      swap2\n      pop\n      pop\n      jump\t// out\n        /* \"#utility.yul\":3110:3584   */\n    tag_15:\n        /* \"#utility.yul\":3178:3184   */\n      0x00\n        /* \"#utility.yul\":3186:3192   */\n      dup1\n        /* \"#utility.yul\":3235:3237   */\n      0x40\n        /* \"#utility.yul\":3223:3232   */\n      dup4\n        /* \"#utility.yul\":3214:3221   */\n      dup6\n        /* \"#utility.yul\":3210:3233   */\n      sub\n        /* \"#utility.yul\":3206:3238   */\n      slt\n        /* \"#utility.yul\":3203:3322   */\n      iszero\n      tag_140\n      jumpi\n        /* \"#utility.yul\":3241:3320   */\n      tag_141\n      tag_86\n      jump\t// in\n    tag_141:\n        /* \"#utility.yul\":3203:3322   */\n    tag_140:\n        /* \"#utility.yul\":3361:3362   */\n      0x00\n        /* \"#utility.yul\":3386:3439   */\n      tag_142\n        /* \"#utility.yul\":3431:3438   */\n      dup6\n        /* \"#utility.yul\":3422:3428   */\n      dup3\n        /* \"#utility.yul\":3411:3420   */\n      dup7\n        /* \"#utility.yul\":3407:3429   */\n      add\n        /* \"#utility.yul\":3386:3439   */\n      tag_90\n      jump\t// in\n    tag_142:\n        /* \"#utility.yul\":3376:3439   */\n      swap3\n      pop\n        /* \"#utility.yul\":3332:3449   */\n      pop\n        /* \"#utility.yul\":3488:3490   */\n      0x20\n        /* \"#utility.yul\":3514:3567   */\n      tag_143\n        /* \"#utility.yul\":3559:3566   */\n      dup6\n        /* \"#utility.yul\":3550:3556   */\n      dup3\n        /* \"#utility.yul\":3539:3548   */\n      dup7\n        /* \"#utility.yul\":3535:3557   */\n      add\n        /* \"#utility.yul\":3514:3567   */\n      tag_90\n      jump\t// in\n    tag_143:\n        /* \"#utility.yul\":3504:3567   */\n      swap2\n      pop\n        /* \"#utility.yul\":3459:3577   */\n      pop\n        /* \"#utility.yul\":3110:3584   */\n      swap3\n      pop\n      swap3\n      swap1\n      pop\n      jump\t// out\n        /* \"#utility.yul\":3590:3716   */\n    tag_98:\n        /* \"#utility.yul\":3685:3709   */\n      tag_145\n        /* \"#utility.yul\":3703:3708   */\n      dup2\n        /* \"#utility.yul\":3685:3709   */\n      tag_88\n      jump\t// in\n    tag_145:\n        /* \"#utility.yul\":3680:3683   */\n      dup3\n        /* \"#utility.yul\":3673:3710   */\n      mstore\n        /* \"#utility.yul\":3590:3716   */\n      pop\n      pop\n      jump\t// out\n        /* \"#utility.yul\":3722:3960   */\n    tag_18:\n        /* \"#utility.yul\":3823:3827   */\n      0x00\n        /* \"#utility.yul\":3861:3863   */\n      0x20\n        /* \"#utility.yul\":3850:3859   */\n      dup3\n        /* \"#utility.yul\":3846:3864   */\n      add\n        /* \"#utility.yul\":3838:3864   */\n      swap1\n      pop\n        /* \"#utility.yul\":3874:3953   */\n      tag_147\n        /* \"#utility.yul\":3950:3951   */\n      0x00\n        /* \"#utility.yul\":3939:3948   */\n      dup4\n        /* \"#utility.yul\":3935:3952   */\n      add\n        /* \"#utility.yul\":3926:3932   */\n      dup5\n        /* \"#utility.yul\":3874:3953   */\n      tag_98\n      jump\t// in\n    tag_147:\n        /* \"#utility.yul\":3722:3960   */\n      swap3\n      swap2\n      pop\n      pop\n      jump\t// out\n        /* \"#utility.yul\":3966:4056   */\n    tag_99:\n        /* \"#utility.yul\":4000:4007   */\n      0x00\n        /* \"#utility.yul\":4043:4048   */\n      dup2\n        /* \"#utility.yul\":4036:4049   */\n      iszero\n        /* \"#utility.yul\":4029:4050   */\n      iszero\n        /* \"#utility.yul\":4018:4050   */\n      swap1\n      pop\n        /* \"#utility.yul\":3966:4056   */\n      swap2\n      swap1\n      pop\n      jump\t// out\n        /* \"#utility.yul\":4062:4179   */\n    tag_100:\n        /* \"#utility.yul\":4151:4172   */\n      tag_150\n        /* \"#utility.yul\":4166:4171   */\n      dup2\n        /* \"#utility.yul\":4151:4172   */\n      tag_99\n      jump\t// in\n    tag_150:\n        /* \"#utility.yul\":4146:4149   */\n      dup3\n        /* \"#utility.yul\":4139:4173   */\n      mstore\n        /* \"#utility.yul\":4062:4179   */\n      pop\n      pop\n      jump\t// out\n        /* \"#utility.yul\":4185:4411   */\n    tag_31:\n        /* \"#utility.yul\":4280:4284   */\n      0x00\n        /* \"#utility.yul\":4318:4320   */\n      0x20\n        /* \"#utility.yul\":4307:4316   */\n      dup3\n        /* \"#utility.yul\":4303:4321   */\n      add\n        /* \"#utility.yul\":4295:4321   */\n      swap1\n      pop\n        /* \"#utility.yul\":4331:4404   */\n      tag_152\n        /* \"#utility.yul\":4401:4402   */\n      0x00\n        /* \"#utility.yul\":4390:4399   */\n      dup4\n        /* \"#utility.yul\":4386:4403   */\n      add\n        /* \"#utility.yul\":4377:4383   */\n      dup5\n        /* \"#utility.yul\":4331:4404   */\n      tag_100\n      jump\t// in\n    tag_152:\n        /* \"#utility.yul\":4185:4411   */\n      swap3\n      swap2\n      pop\n      pop\n      jump\t// out\n        /* \"#utility.yul\":4417:4597   */\n    tag_35:\n        /* \"#utility.yul\":4465:4542   */\n      0x4e487b7100000000000000000000000000000000000000000000000000000000\n        /* \"#utility.yul\":4462:4463   */\n      0x00\n        /* \"#utility.yul\":4455:4543   */\n      mstore\n        /* \"#utility.yul\":4562:4566   */\n      0x41\n        /* \"#utility.yul\":4559:4560   */\n      0x04\n        /* \"#utility.yul\":4552:4567   */\n      mstore\n        /* \"#utility.yul\":4586:4590   */\n      0x24\n        /* \"#utility.yul\":4583:4584   */\n      0x00\n        /* \"#utility.yul\":4576:4591   */\n      revert\n        /* \"#utility.yul\":4603:4783   */\n    tag_39:\n        /* \"#utility.yul\":4651:4728   */\n      0x4e487b7100000000000000000000000000000000000000000000000000000000\n        /* \"#utility.yul\":4648:4649   */\n      0x00\n        /* \"#utility.yul\":4641:4729   */\n      mstore\n        /* \"#utility.yul\":4748:4752   */\n      0x32\n        /* \"#utility.yul\":4745:4746   */\n      0x04\n        /* \"#utility.yul\":4738:4753   */\n      mstore\n        /* \"#utility.yul\":4772:4776   */\n      0x24\n        /* \"#utility.yul\":4769:4770   */\n      0x00\n        /* \"#utility.yul\":4762:4777   */\n      revert\n        /* \"#utility.yul\":4789:4969   */\n    tag_101:\n        /* \"#utility.yul\":4837:4914   */\n      0x4e487b7100000000000000000000000000000000000000000000000000000000\n        /* \"#utility.yul\":4834:4835   */\n      0x00\n        /* \"#utility.yul\":4827:4915   */\n      mstore\n        /* \"#utility.yul\":4934:4938   */\n      0x11\n        /* \"#utility.yul\":4931:4932   */\n      0x04\n        /* \"#utility.yul\":4924:4939   */\n      mstore\n        /* \"#utility.yul\":4958:4962   */\n      0x24\n        /* \"#utility.yul\":4955:4956   */\n      0x00\n        /* \"#utility.yul\":4948:4963   */\n      revert\n        /* \"#utility.yul\":4975:5169   */\n    tag_47:\n        /* \"#utility.yul\":5015:5019   */\n      0x00\n        /* \"#utility.yul\":5035:5055   */\n      tag_157\n        /* \"#utility.yul\":5053:5054   */\n      dup3\n        /* \"#utility.yul\":5035:5055   */\n      tag_88\n      jump\t// in\n    tag_157:\n        /* \"#utility.yul\":5030:5055   */\n      swap2\n      pop\n        /* \"#utility.yul\":5069:5089   */\n      tag_158\n        /* \"#utility.yul\":5087:5088   */\n      dup4\n        /* \"#utility.yul\":5069:5089   */\n      tag_88\n      jump\t// in\n    tag_158:\n        /* \"#utility.yul\":5064:5089   */\n      swap3\n      pop\n        /* \"#utility.yul\":5113:5114   */\n      dup3\n        /* \"#utility.yul\":5110:5111   */\n      dup3\n        /* \"#utility.yul\":5106:5115   */\n      sub\n        /* \"#utility.yul\":5098:5115   */\n      swap1\n      pop\n        /* \"#utility.yul\":5137:5138   */\n      dup2\n        /* \"#utility.yul\":5131:5135   */\n      dup2\n        /* \"#utility.yul\":5128:5139   */\n      gt\n        /* \"#utility.yul\":5125:5162   */\n      iszero\n      tag_159\n      jumpi\n        /* \"#utility.yul\":5142:5160   */\n      tag_160\n      tag_101\n      jump\t// in\n    tag_160:\n        /* \"#utility.yul\":5125:5162   */\n    tag_159:\n        /* \"#utility.yul\":4975:5169   */\n      swap3\n      swap2\n      pop\n      pop\n      jump\t// out\n        /* \"#utility.yul\":5175:5366   */\n    tag_54:\n        /* \"#utility.yul\":5215:5218   */\n      0x00\n        /* \"#utility.yul\":5234:5254   */\n      tag_162\n        /* \"#utility.yul\":5252:5253   */\n      dup3\n        /* \"#utility.yul\":5234:5254   */\n      tag_88\n      jump\t// in\n    tag_162:\n        /* \"#utility.yul\":5229:5254   */\n      swap2\n      pop\n        /* \"#utility.yul\":5268:5288   */\n      tag_163\n        /* \"#utility.yul\":5286:5287   */\n      dup4\n        /* \"#utility.yul\":5268:5288   */\n      tag_88\n      jump\t// in\n    tag_163:\n        /* \"#utility.yul\":5263:5288   */\n      swap3\n      pop\n        /* \"#utility.yul\":5311:5312   */\n      dup3\n        /* \"#utility.yul\":5308:5309   */\n      dup3\n        /* \"#utility.yul\":5304:5313   */\n      add\n        /* \"#utility.yul\":5297:5313   */\n      swap1\n      pop\n        /* \"#utility.yul\":5332:5335   */\n      dup1\n        /* \"#utility.yul\":5329:5330   */\n      dup3\n        /* \"#utility.yul\":5326:5336   */\n      gt\n        /* \"#utility.yul\":5323:5359   */\n      iszero\n      tag_164\n      jumpi\n        /* \"#utility.yul\":5339:5357   */\n      tag_165\n      tag_101\n      jump\t// in\n    tag_165:\n        /* \"#utility.yul\":5323:5359   */\n    tag_164:\n        /* \"#utility.yul\":5175:5366   */\n      swap3\n      swap2\n      pop\n      pop\n      jump\t// out\n        /* \"#utility.yul\":5372:5782   */\n    tag_68:\n        /* \"#utility.yul\":5412:5419   */\n      0x00\n        /* \"#utility.yul\":5435:5455   */\n      tag_167\n        /* \"#utility.yul\":5453:5454   */\n      dup3\n        /* \"#utility.yul\":5435:5455   */\n      tag_88\n      jump\t// in\n    tag_167:\n        /* \"#utility.yul\":5430:5455   */\n      swap2\n      pop\n        /* \"#utility.yul\":5469:5489   */\n      tag_168\n        /* \"#utility.yul\":5487:5488   */\n      dup4\n        /* \"#utility.yul\":5469:5489   */\n      tag_88\n      jump\t// in\n    tag_168:\n        /* \"#utility.yul\":5464:5489   */\n      swap3\n      pop\n        /* \"#utility.yul\":5524:5525   */\n      dup3\n        /* \"#utility.yul\":5521:5522   */\n      dup3\n        /* \"#utility.yul\":5517:5526   */\n      mul\n        /* \"#utility.yul\":5546:5576   */\n      tag_169\n        /* \"#utility.yul\":5564:5575   */\n      dup2\n        /* \"#utility.yul\":5546:5576   */\n      tag_88\n      jump\t// in\n    tag_169:\n        /* \"#utility.yul\":5535:5576   */\n      swap2\n      pop\n        /* \"#utility.yul\":5725:5726   */\n      dup3\n        /* \"#utility.yul\":5716:5723   */\n      dup3\n        /* \"#utility.yul\":5712:5727   */\n      div\n        /* \"#utility.yul\":5709:5710   */\n      dup5\n        /* \"#utility.yul\":5706:5728   */\n      eq\n        /* \"#utility.yul\":5686:5687   */\n      dup4\n        /* \"#utility.yul\":5679:5688   */\n      iszero\n        /* \"#utility.yul\":5659:5742   */\n      or\n        /* \"#utility.yul\":5636:5775   */\n      tag_170\n      jumpi\n        /* \"#utility.yul\":5755:5773   */\n      tag_171\n      tag_101\n      jump\t// in\n    tag_171:\n        /* \"#utility.yul\":5636:5775   */\n    tag_170:\n        /* \"#utility.yul\":5420:5782   */\n      pop\n        /* \"#utility.yul\":5372:5782   */\n      swap3\n      swap2\n      pop\n      pop\n      jump\t// out\n        /* \"#utility.yul\":5788:6021   */\n    tag_70:\n        /* \"#utility.yul\":5827:5830   */\n      0x00\n        /* \"#utility.yul\":5850:5874   */\n      tag_173\n        /* \"#utility.yul\":5868:5873   */\n      dup3\n        /* \"#utility.yul\":5850:5874   */\n      tag_88\n      jump\t// in\n    tag_173:\n        /* \"#utility.yul\":5841:5874   */\n      swap2\n      pop\n        /* \"#utility.yul\":5896:5962   */\n      0xffffffffffffffffffffffffffffffffffffffffffffffffffffffffffffffff\n        /* \"#utility.yul\":5889:5894   */\n      dup3\n        /* \"#utility.yul\":5886:5963   */\n      sub\n        /* \"#utility.yul\":5883:5986   */\n      tag_174\n      jumpi\n        /* \"#utility.yul\":5966:5984   */\n      tag_175\n      tag_101\n      jump\t// in\n    tag_175:\n        /* \"#utility.yul\":5883:5986   */\n    tag_174:\n        /* \"#utility.yul\":6013:6014   */\n      0x01\n        /* \"#utility.yul\":6006:6011   */\n      dup3\n        /* \"#utility.yul\":6002:6015   */\n      add\n        /* \"#utility.yul\":5995:6015   */\n      swap1\n      pop\n        /* \"#utility.yul\":5788:6021   */\n      swap2\n      swap1\n      pop\n      jump\t// out\n        /* \"#utility.yul\":6027:6207   */\n    tag_102:\n        /* \"#utility.yul\":6075:6152   */\n      0x4e487b7100000000000000000000000000000000000000000000000000000000\n        /* \"#utility.yul\":6072:6073   */\n      0x00\n        /* \"#utility.yul\":6065:6153   */\n      mstore\n        /* \"#utility.yul\":6172:6176   */\n      0x12\n        /* \"#utility.yul\":6169:6170   */\n      0x04\n        /* \"#utility.yul\":6162:6177   */\n      mstore\n        /* \"#utility.yul\":6196:6200   */\n      0x24\n        /* \"#utility.yul\":6193:6194   */\n      0x00\n        /* \"#utility.yul\":6186:6201   */\n      revert\n        /* \"#utility.yul\":6213:6398   */\n    tag_76:\n        /* \"#utility.yul\":6253:6254   */\n      0x00\n        /* \"#utility.yul\":6270:6290   */\n      tag_178\n        /* \"#utility.yul\":6288:6289   */\n      dup3\n        /* \"#utility.yul\":6270:6290   */\n      tag_88\n      jump\t// in\n    tag_178:\n        /* \"#utility.yul\":6265:6290   */\n      swap2\n      pop\n        /* \"#utility.yul\":6304:6324   */\n      tag_179\n        /* \"#utility.yul\":6322:6323   */\n      dup4\n        /* \"#utility.yul\":6304:6324   */\n      tag_88\n      jump\t// in\n    tag_179:\n        /* \"#utility.yul\":6299:6324   */\n      swap3\n      pop\n        /* \"#utility.yul\":6343:6344   */\n      dup3\n        /* \"#utility.yul\":6333:6368   */\n      tag_180\n      jumpi\n        /* \"#utility.yul\":6348:6366   */\n      tag_181\n      tag_102\n      jump\t// in\n    tag_181:\n        /* \"#utility.yul\":6333:6368   */\n    tag_180:\n        /* \"#utility.yul\":6390:6391   */\n      dup3\n        /* \"#utility.yul\":6387:6388   */\n      dup3\n        /* \"#utility.yul\":6383:6392   */\n      div\n        /* \"#utility.yul\":6378:6392   */\n      swap1\n      pop\n        /* \"#utility.yul\":6213:6398   */\n      swap3\n      swap2\n      pop\n      pop\n      jump\t// out\n        /* \"#utility.yul\":6404:6580   */\n    tag_80:\n        /* \"#utility.yul\":6436:6437   */\n      0x00\n        /* \"#utility.yul\":6453:6473   */\n      tag_183\n        /* \"#utility.yul\":6471:6472   */\n      dup3\n        /* \"#utility.yul\":6453:6473   */\n      tag_88\n      jump\t// in\n    tag_183:\n        /* \"#utility.yul\":6448:6473   */\n      swap2\n      pop\n        /* \"#utility.yul\":6487:6507   */\n      tag_184\n        /* \"#utility.yul\":6505:6506   */\n      dup4\n        /* \"#utility.yul\":6487:6507   */\n      tag_88\n      jump\t// in\n    tag_184:\n        /* \"#utility.yul\":6482:6507   */\n      swap3\n      pop\n        /* \"#utility.yul\":6526:6527   */\n      dup3\n        /* \"#utility.yul\":6516:6551   */\n      tag_185\n      jumpi\n        /* \"#utility.yul\":6531:6549   */\n      tag_186\n      tag_102\n      jump\t// in\n    tag_186:\n        /* \"#utility.yul\":6516:6551   */\n    tag_185:\n        /* \"#utility.yul\":6572:6573   */\n      dup3\n        /* \"#utility.yul\":6569:6570   */\n      dup3\n        /* \"#utility.yul\":6565:6574   */\n      mod\n        /* \"#utility.yul\":6560:6574   */\n      swap1\n      pop\n        /* \"#utility.yul\":6404:6580   */\n      swap3\n      swap2\n      pop\n      pop\n      jump\t// out\n        /* \"#utility.yul\":6586:6688   */\n    tag_103:\n        /* \"#utility.yul\":6628:6636   */\n      0x00\n        /* \"#utility.yul\":6675:6680   */\n      dup2\n        /* \"#utility.yul\":6672:6673   */\n      0x01\n        /* \"#utility.yul\":6668:6681   */\n      shr\n        /* \"#utility.yul\":6647:6681   */\n      swap1\n      pop\n        /* \"#utility.yul\":6586:6688   */\n      swap2\n      swap1\n      pop\n      jump\t// out\n        /* \"#utility.yul\":6694:7542   */\n    tag_104:\n        /* \"#utility.yul\":6755:6760   */\n      0x00\n        /* \"#utility.yul\":6762:6766   */\n      dup1\n        /* \"#utility.yul\":6786:6792   */\n      dup3\n        /* \"#utility.yul\":6777:6792   */\n      swap2\n      pop\n        /* \"#utility.yul\":6810:6815   */\n      dup4\n        /* \"#utility.yul\":6801:6815   */\n      swap1\n      pop\n        /* \"#utility.yul\":6824:7536   */\n    tag_189:\n        /* \"#utility.yul\":6845:6846   */\n      0x01\n        /* \"#utility.yul\":6835:6843   */\n      dup6\n        /* \"#utility.yul\":6832:6847   */\n      gt\n        /* \"#utility.yul\":6824:7536   */\n      iszero\n      tag_191\n      jumpi\n        /* \"#utility.yul\":6940:6944   */\n      dup1\n        /* \"#utility.yul\":6935:6938   */\n      dup7\n        /* \"#utility.yul\":6931:6945   */\n      div\n        /* \"#utility.yul\":6925:6929   */\n      dup2\n        /* \"#utility.yul\":6922:6946   */\n      gt\n        /* \"#utility.yul\":6919:6969   */\n      iszero\n      tag_192\n      jumpi\n        /* \"#utility.yul\":6949:6967   */\n      tag_193\n      tag_101\n      jump\t// in\n    tag_193:\n        /* \"#utility.yul\":6919:6969   */\n    tag_192:\n        /* \"#utility.yul\":6999:7000   */\n      0x01\n        /* \"#utility.yul\":6989:6997   */\n      dup6\n        /* \"#utility.yul\":6985:7001   */\n      and\n        /* \"#utility.yul\":6982:7433   */\n      iszero\n      tag_194\n      jumpi\n        /* \"#utility.yul\":7414:7418   */\n      dup1\n        /* \"#utility.yul\":7407:7412   */\n      dup3\n        /* \"#utility.yul\":7403:7419   */\n      mul\n        /* \"#utility.yul\":7394:7419   */\n      swap2\n      pop\n        /* \"#utility.yul\":6982:7433   */\n    tag_194:\n        /* \"#utility.yul\":7464:7468   */\n      dup1\n        /* \"#utility.yul\":7458:7462   */\n      dup2\n        /* \"#utility.yul\":7454:7469   */\n      mul\n        /* \"#utility.yul\":7446:7469   */\n      swap1\n      pop\n        /* \"#utility.yul\":7494:7526   */\n      tag_195\n        /* \"#utility.yul\":7517:7525   */\n      dup6\n        /* \"#utility.yul\":7494:7526   */\n      tag_103\n      jump\t// in\n    tag_195:\n        /* \"#utility.yul\":7482:7526   */\n      swap5\n      pop\n        /* \"#utility.yul\":6824:7536   */\n      jump(tag_189)\n    tag_191:\n        /* \"#utility.yul\":6694:7542   */\n      swap5\n      pop\n      swap5\n      swap3\n      pop\n      pop\n      pop\n      jump\t// out\n        /* \"#utility.yul\":7548:8621   */\n    tag_105:\n        /* \"#utility.yul\":7602:7607   */\n      0x00\n        /* \"#utility.yul\":7793:7801   */\n      dup3\n        /* \"#utility.yul\":7783:7823   */\n      tag_197\n      jumpi\n        /* \"#utility.yul\":7814:7815   */\n      0x01\n        /* \"#utility.yul\":7805:7815   */\n      swap1\n      pop\n        /* \"#utility.yul\":7816:7821   */\n      jump(tag_196)\n        /* \"#utility.yul\":7783:7823   */\n    tag_197:\n        /* \"#utility.yul\":7842:7846   */\n      dup2\n        /* \"#utility.yul\":7832:7868   */\n      tag_198\n      jumpi\n        /* \"#utility.yul\":7859:7860   */\n      0x00\n        /* \"#utility.yul\":7850:7860   */\n      swap1\n      pop\n        /* \"#utility.yul\":7861:7866   */\n      jump(tag_196)\n        /* \"#utility.yul\":7832:7868   */\n    tag_198:\n        /* \"#utility.yul\":7928:7932   */\n      dup2\n        /* \"#utility.yul\":7976:7977   */\n      0x01\n        /* \"#utility.yul\":7971:7998   */\n      dup2\n      eq\n      tag_200\n      jumpi\n        /* \"#utility.yul\":8012:8013   */\n      0x02\n        /* \"#utility.yul\":8007:8198   */\n      dup2\n      eq\n      tag_201\n      jumpi\n        /* \"#utility.yul\":7921:8198   */\n      jump(tag_199)\n        /* \"#utility.yul\":7971:7998   */\n    tag_200:\n        /* \"#utility.yul\":7989:7990   */\n      0x01\n        /* \"#utility.yul\":7980:7990   */\n      swap2\n      pop\n        /* \"#utility.yul\":7991:7996   */\n      pop\n      jump(tag_196)\n        /* \"#utility.yul\":8007:8198   */\n    tag_201:\n        /* \"#utility.yul\":8052:8055   */\n      0xff\n        /* \"#utility.yul\":8042:8050   */\n      dup5\n        /* \"#utility.yul\":8039:8056   */\n      gt\n        /* \"#utility.yul\":8036:8079   */\n      iszero\n      tag_202\n      jumpi\n        /* \"#utility.yul\":8059:8077   */\n      tag_203\n      tag_101\n      jump\t// in\n    tag_203:\n        /* \"#utility.yul\":8036:8079   */\n    tag_202:\n        /* \"#utility.yul\":8108:8116   */\n      dup4\n        /* \"#utility.yul\":8105:8106   */\n      0x02\n        /* \"#utility.yul\":8101:8117   */\n      exp\n        /* \"#utility.yul\":8092:8117   */\n      swap2\n      pop\n        /* \"#utility.yul\":8143:8146   */\n      dup5\n        /* \"#utility.yul\":8136:8141   */\n      dup3\n        /* \"#utility.yul\":8133:8147   */\n      gt\n        /* \"#utility.yul\":8130:8170   */\n      iszero\n      tag_204\n      jumpi\n        /* \"#utility.yul\":8150:8168   */\n      tag_205\n      tag_101\n      jump\t// in\n    tag_205:\n        /* \"#utility.yul\":8130:8170   */\n    tag_204:\n        /* \"#utility.yul\":8183:8188   */\n      pop\n      jump(tag_196)\n        /* \"#utility.yul\":7921:8198   */\n    tag_199:\n      pop\n        /* \"#utility.yul\":8307:8309   */\n      0x20\n        /* \"#utility.yul\":8297:8305   */\n      dup4\n        /* \"#utility.yul\":8294:8310   */\n      lt\n        /* \"#utility.yul\":8288:8291   */\n      0x0133\n        /* \"#utility.yul\":8282:8286   */\n      dup4\n        /* \"#utility.yul\":8279:8292   */\n      lt\n        /* \"#utility.yul\":8275:8311   */\n      and\n        /* \"#utility.yul\":8257:8259   */\n      0x4e\n        /* \"#utility.yul\":8247:8255   */\n      dup5\n        /* \"#utility.yul\":8244:8260   */\n      lt\n        /* \"#utility.yul\":8239:8241   */\n      0x0b\n        /* \"#utility.yul\":8233:8237   */\n      dup5\n        /* \"#utility.yul\":8230:8242   */\n      lt\n        /* \"#utility.yul\":8226:8261   */\n      and\n        /* \"#utility.yul\":8210:8321   */\n      or\n        /* \"#utility.yul\":8207:8453   */\n      iszero\n      tag_206\n      jumpi\n        /* \"#utility.yul\":8363:8371   */\n      dup3\n        /* \"#utility.yul\":8357:8361   */\n      dup3\n        /* \"#utility.yul\":8353:8372   */\n      exp\n        /* \"#utility.yul\":8344:8372   */\n      swap1\n      pop\n        /* \"#utility.yul\":8398:8401   */\n      dup4\n        /* \"#utility.yul\":8391:8396   */\n      dup2\n        /* \"#utility.yul\":8388:8402   */\n      gt\n        /* \"#utility.yul\":8385:8425   */\n      iszero\n      tag_207\n      jumpi\n        /* \"#utility.yul\":8405:8423   */\n      tag_208\n      tag_101\n      jump\t// in\n    tag_208:\n        /* \"#utility.yul\":8385:8425   */\n    tag_207:\n        /* \"#utility.yul\":8438:8443   */\n      jump(tag_196)\n        /* \"#utility.yul\":8207:8453   */\n    tag_206:\n        /* \"#utility.yul\":8478:8520   */\n      tag_209\n        /* \"#utility.yul\":8516:8519   */\n      dup5\n        /* \"#utility.yul\":8506:8514   */\n      dup5\n        /* \"#utility.yul\":8500:8504   */\n      dup5\n        /* \"#utility.yul\":8497:8498   */\n      0x01\n        /* \"#utility.yul\":8478:8520   */\n      tag_104\n      jump\t// in\n    tag_209:\n        /* \"#utility.yul\":8463:8520   */\n      swap3\n      pop\n      swap1\n      pop\n        /* \"#utility.yul\":8552:8556   */\n      dup2\n        /* \"#utility.yul\":8547:8550   */\n      dup5\n        /* \"#utility.yul\":8543:8557   */\n      div\n        /* \"#utility.yul\":8536:8541   */\n      dup2\n        /* \"#utility.yul\":8533:8558   */\n      gt\n        /* \"#utility.yul\":8530:8581   */\n      iszero\n      tag_210\n      jumpi\n        /* \"#utility.yul\":8561:8579   */\n      tag_211\n      tag_101\n      jump\t// in\n    tag_211:\n        /* \"#utility.yul\":8530:8581   */\n    tag_210:\n        /* \"#utility.yul\":8610:8614   */\n      dup2\n        /* \"#utility.yul\":8603:8608   */\n      dup2\n        /* \"#utility.yul\":8599:8615   */\n      mul\n        /* \"#utility.yul\":8590:8615   */\n      swap1\n      pop\n        /* \"#utility.yul\":7548:8621   */\n    tag_196:\n      swap4\n      swap3\n      pop\n      pop\n      pop\n      jump\t// out\n        /* \"#utility.yul\":8627:8912   */\n    tag_82:\n        /* \"#utility.yul\":8687:8692   */\n      0x00\n        /* \"#utility.yul\":8711:8734   */\n      tag_213\n        /* \"#utility.yul\":8729:8733   */\n      dup3\n        /* \"#utility.yul\":8711:8734   */\n      tag_88\n      jump\t// in\n    tag_213:\n        /* \"#utility.yul\":8703:8734   */\n      swap2\n      pop\n        /* \"#utility.yul\":8755:8782   */\n      tag_214\n        /* \"#utility.yul\":8773:8781   */\n      dup4\n        /* \"#utility.yul\":8755:8782   */\n      tag_88\n      jump\t// in\n    tag_214:\n        /* \"#utility.yul\":8743:8782   */\n      swap3\n      pop\n        /* \"#utility.yul\":8801:8905   */\n      tag_215\n        /* \"#utility.yul\":8838:8904   */\n      0xffffffffffffffffffffffffffffffffffffffffffffffffffffffffffffffff\n        /* \"#utility.yul\":8828:8836   */\n      dup5\n        /* \"#utility.yul\":8822:8826   */\n      dup5\n        /* \"#utility.yul\":8801:8905   */\n      tag_105\n      jump\t// in\n    tag_215:\n        /* \"#utility.yul\":8792:8905   */\n      swap1\n      pop\n        /* \"#utility.yul\":8627:8912   */\n      swap3\n      swap2\n      pop\n      pop\n      jump\t// out\n\n    auxdata: 0xa26469706673582212202fd1a7b88df1f626b389780915f55feefa03d3febbb884ba1cedce5e5f194c8e64736f6c634300081a0033\n}\n",
				"bytecode": {
					"linkReferences": {},
					"object": "61090261004d600b8282823980515f1a6073146041577f4e487b71000000000000000000000000000000000000000000000000000000005f525f60045260245ffd5b305f52607381538281f3fe7300000000000000000000000000000000000000003014608060405260043610610060575f3560e01c806361047ff4146100645780636d5433e6146100945780637ae2b5c7146100c457806383714834146100f4578063fe459d2014610124575b5f80fd5b61007e600480360381019061007991906103b6565b610154565b60405161008b9190610498565b60405180910390f35b6100ae60048036038101906100a991906104b8565b61028a565b6040516100bb9190610505565b60405180910390f35b6100de60048036038101906100d991906104b8565b6102a2565b6040516100eb9190610505565b60405180910390f35b61010e600480360381019061010991906103b6565b6102ba565b60405161011b9190610505565b60405180910390f35b61013e600480360381019061013991906103b6565b6102f8565b60405161014b9190610538565b60405180910390f35b60605f8267ffffffffffffffff81111561017157610170610551565b5b60405190808252806020026020018201604052801561019f5781602001602082028036833780820191505090505b5090505f815f815181106101b6576101b561057e565b5b60200260200101818152505060018311156101ee576001816001815181106101e1576101e061057e565b5b6020026020010181815250505b5f600290505b83811015610280578160028261020a91906105d8565b8151811061021b5761021a61057e565b5b60200260200101518260018361023191906105d8565b815181106102425761024161057e565b5b6020026020010151610254919061060b565b8282815181106102675761026661057e565b5b60200260200101818152505080806001019150506101f4565b5080915050919050565b5f818311610298578161029a565b825b905092915050565b5f8183106102b057816102b2565b825b905092915050565b5f80600190505f600190505b8381116102ee5780826102d9919061063e565b915080806102e69061067f565b9150506102c6565b5080915050919050565b5f808290505f805b5f85146103295780806103129061067f565b915050600a8561032291906106f3565b9450610300565b8294505b5f8514610372575f600a866103429190610723565b905081816103509190610882565b8361035b919061060b565b9250600a8661036a91906106f3565b95505061032d565b8282149350505050919050565b5f80fd5b5f819050919050565b61039581610383565b811461039f575f80fd5b50565b5f813590506103b08161038c565b92915050565b5f602082840312156103cb576103ca61037f565b5b5f6103d8848285016103a2565b91505092915050565b5f81519050919050565b5f82825260208201905092915050565b5f819050602082019050919050565b61041381610383565b82525050565b5f610424838361040a565b60208301905092915050565b5f602082019050919050565b5f610446826103e1565b61045081856103eb565b935061045b836103fb565b805f5b8381101561048b5781516104728882610419565b975061047d83610430565b92505060018101905061045e565b5085935050505092915050565b5f6020820190508181035f8301526104b0818461043c565b905092915050565b5f80604083850312156104ce576104cd61037f565b5b5f6104db858286016103a2565b92505060206104ec858286016103a2565b9150509250929050565b6104ff81610383565b82525050565b5f6020820190506105185f8301846104f6565b92915050565b5f8115159050919050565b6105328161051e565b82525050565b5f60208201905061054b5f830184610529565b92915050565b7f4e487b71000000000000000000000000000000000000000000000000000000005f52604160045260245ffd5b7f4e487b71000000000000000000000000000000000000000000000000000000005f52603260045260245ffd5b7f4e487b71000000000000000000000000000000000000000000000000000000005f52601160045260245ffd5b5f6105e282610383565b91506105ed83610383565b9250828203905081811115610605576106046105ab565b5b92915050565b5f61061582610383565b915061062083610383565b9250828201905080821115610638576106376105ab565b5b92915050565b5f61064882610383565b915061065383610383565b925082820261066181610383565b91508282048414831517610678576106776105ab565b5b5092915050565b5f61068982610383565b91507fffffffffffffffffffffffffffffffffffffffffffffffffffffffffffffffff82036106bb576106ba6105ab565b5b600182019050919050565b7f4e487b71000000000000000000000000000000000000000000000000000000005f52601260045260245ffd5b5f6106fd82610383565b915061070883610383565b925082610718576107176106c6565b5b828204905092915050565b5f61072d82610383565b915061073883610383565b925082610748576107476106c6565b5b828206905092915050565b5f8160011c9050919050565b5f808291508390505b60018511156107a857808604811115610784576107836105ab565b5b60018516156107935780820291505b80810290506107a185610753565b9450610768565b94509492505050565b5f826107c0576001905061087b565b816107cd575f905061087b565b81600181146107e357600281146107ed5761081c565b600191505061087b565b60ff8411156107ff576107fe6105ab565b5b8360020a915084821115610816576108156105ab565b5b5061087b565b5060208310610133831016604e8410600b84101617156108515782820a90508381111561084c5761084b6105ab565b5b61087b565b61085e848484600161075f565b92509050818404811115610875576108746105ab565b5b81810290505b9392505050565b5f61088c82610383565b915061089783610383565b92506108c47fffffffffffffffffffffffffffffffffffffffffffffffffffffffffffffffff84846107b1565b90509291505056fea26469706673582212202fd1a7b88df1f626b389780915f55feefa03d3febbb884ba1cedce5e5f194c8e64736f6c634300081a0033",
					"opcodes": "PUSH2 0x902 PUSH2 0x4D PUSH1 0xB DUP3 DUP3 DUP3 CODECOPY DUP1 MLOAD PUSH0 BYTE PUSH1 0x73 EQ PUSH1 0x41 JUMPI PUSH32 0x4E487B7100000000000000000000000000000000000000000000000000000000 PUSH0 MSTORE PUSH0 PUSH1 0x4 MSTORE PUSH1 0x24 PUSH0 REVERT JUMPDEST ADDRESS PUSH0 MSTORE PUSH1 0x73 DUP2 MSTORE8 DUP3 DUP2 RETURN INVALID PUSH20 0x0 ADDRESS EQ PUSH1 0x80 PUSH1 0x40 MSTORE PUSH1 0x4 CALLDATASIZE LT PUSH2 0x60 JUMPI PUSH0 CALLDATALOAD PUSH1 0xE0 SHR DUP1 PUSH4 0x61047FF4 EQ PUSH2 0x64 JUMPI DUP1 PUSH4 0x6D5433E6 EQ PUSH2 0x94 JUMPI DUP1 PUSH4 0x7AE2B5C7 EQ PUSH2 0xC4 JUMPI DUP1 PUSH4 0x83714834 EQ PUSH2 0xF4 JUMPI DUP1 PUSH4 0xFE459D20 EQ PUSH2 0x124 JUMPI JUMPDEST PUSH0 DUP1 REVERT JUMPDEST PUSH2 0x7E PUSH1 0x4 DUP1 CALLDATASIZE SUB DUP2 ADD SWAP1 PUSH2 0x79 SWAP2 SWAP1 PUSH2 0x3B6 JUMP JUMPDEST PUSH2 0x154 JUMP JUMPDEST PUSH1 0x40 MLOAD PUSH2 0x8B SWAP2 SWAP1 PUSH2 0x498 JUMP JUMPDEST PUSH1 0x40 MLOAD DUP1 SWAP2 SUB SWAP1 RETURN JUMPDEST PUSH2 0xAE PUSH1 0x4 DUP1 CALLDATASIZE SUB DUP2 ADD SWAP1 PUSH2 0xA9 SWAP2 SWAP1 PUSH2 0x4B8 JUMP JUMPDEST PUSH2 0x28A JUMP JUMPDEST PUSH1 0x40 MLOAD PUSH2 0xBB SWAP2 SWAP1 PUSH2 0x505 JUMP JUMPDEST PUSH1 0x40 MLOAD DUP1 SWAP2 SUB SWAP1 RETURN JUMPDEST PUSH2 0xDE PUSH1 0x4 DUP1 CALLDATASIZE SUB DUP2 ADD SWAP1 PUSH2 0xD9 SWAP2 SWAP1 PUSH2 0x4B8 JUMP JUMPDEST PUSH2 0x2A2 JUMP JUMPDEST PUSH1 0x40 MLOAD PUSH2 0xEB SWAP2 SWAP1 PUSH2 0x505 JUMP JUMPDEST PUSH1 0x40 MLOAD DUP1 SWAP2 SUB SWAP1 RETURN JUMPDEST PUSH2 0x10E PUSH1 0x4 DUP1 CALLDATASIZE SUB DUP2 ADD SWAP1 PUSH2 0x109 SWAP2 SWAP1 PUSH2 0x3B6 JUMP JUMPDEST PUSH2 0x2BA JUMP JUMPDEST PUSH1 0x40 MLOAD PUSH2 0x11B SWAP2 SWAP1 PUSH2 0x505 JUMP JUMPDEST PUSH1 0x40 MLOAD DUP1 SWAP2 SUB SWAP1 RETURN JUMPDEST PUSH2 0x13E PUSH1 0x4 DUP1 CALLDATASIZE SUB DUP2 ADD SWAP1 PUSH2 0x139 SWAP2 SWAP1 PUSH2 0x3B6 JUMP JUMPDEST PUSH2 0x2F8 JUMP JUMPDEST PUSH1 0x40 MLOAD PUSH2 0x14B SWAP2 SWAP1 PUSH2 0x538 JUMP JUMPDEST PUSH1 0x40 MLOAD DUP1 SWAP2 SUB SWAP1 RETURN JUMPDEST PUSH1 0x60 PUSH0 DUP3 PUSH8 0xFFFFFFFFFFFFFFFF DUP2 GT ISZERO PUSH2 0x171 JUMPI PUSH2 0x170 PUSH2 0x551 JUMP JUMPDEST JUMPDEST PUSH1 0x40 MLOAD SWAP1 DUP1 DUP3 MSTORE DUP1 PUSH1 0x20 MUL PUSH1 0x20 ADD DUP3 ADD PUSH1 0x40 MSTORE DUP1 ISZERO PUSH2 0x19F JUMPI DUP2 PUSH1 0x20 ADD PUSH1 0x20 DUP3 MUL DUP1 CALLDATASIZE DUP4 CALLDATACOPY DUP1 DUP3 ADD SWAP2 POP POP SWAP1 POP JUMPDEST POP SWAP1 POP PUSH0 DUP2 PUSH0 DUP2 MLOAD DUP2 LT PUSH2 0x1B6 JUMPI PUSH2 0x1B5 PUSH2 0x57E JUMP JUMPDEST JUMPDEST PUSH1 0x20 MUL PUSH1 0x20 ADD ADD DUP2 DUP2 MSTORE POP POP PUSH1 0x1 DUP4 GT ISZERO PUSH2 0x1EE JUMPI PUSH1 0x1 DUP2 PUSH1 0x1 DUP2 MLOAD DUP2 LT PUSH2 0x1E1 JUMPI PUSH2 0x1E0 PUSH2 0x57E JUMP JUMPDEST JUMPDEST PUSH1 0x20 MUL PUSH1 0x20 ADD ADD DUP2 DUP2 MSTORE POP POP JUMPDEST PUSH0 PUSH1 0x2 SWAP1 POP JUMPDEST DUP4 DUP2 LT ISZERO PUSH2 0x280 JUMPI DUP2 PUSH1 0x2 DUP3 PUSH2 0x20A SWAP2 SWAP1 PUSH2 0x5D8 JUMP JUMPDEST DUP2 MLOAD DUP2 LT PUSH2 0x21B JUMPI PUSH2 0x21A PUSH2 0x57E JUMP JUMPDEST JUMPDEST PUSH1 0x20 MUL PUSH1 0x20 ADD ADD MLOAD DUP3 PUSH1 0x1 DUP4 PUSH2 0x231 SWAP2 SWAP1 PUSH2 0x5D8 JUMP JUMPDEST DUP2 MLOAD DUP2 LT PUSH2 0x242 JUMPI PUSH2 0x241 PUSH2 0x57E JUMP JUMPDEST JUMPDEST PUSH1 0x20 MUL PUSH1 0x20 ADD ADD MLOAD PUSH2 0x254 SWAP2 SWAP1 PUSH2 0x60B JUMP JUMPDEST DUP3 DUP3 DUP2 MLOAD DUP2 LT PUSH2 0x267 JUMPI PUSH2 0x266 PUSH2 0x57E JUMP JUMPDEST JUMPDEST PUSH1 0x20 MUL PUSH1 0x20 ADD ADD DUP2 DUP2 MSTORE POP POP DUP1 DUP1 PUSH1 0x1 ADD SWAP2 POP POP PUSH2 0x1F4 JUMP JUMPDEST POP DUP1 SWAP2 POP POP SWAP2 SWAP1 POP JUMP JUMPDEST PUSH0 DUP2 DUP4 GT PUSH2 0x298 JUMPI DUP2 PUSH2 0x29A JUMP JUMPDEST DUP3 JUMPDEST SWAP1 POP SWAP3 SWAP2 POP POP JUMP JUMPDEST PUSH0 DUP2 DUP4 LT PUSH2 0x2B0 JUMPI DUP2 PUSH2 0x2B2 JUMP JUMPDEST DUP3 JUMPDEST SWAP1 POP SWAP3 SWAP2 POP POP JUMP JUMPDEST PUSH0 DUP1 PUSH1 0x1 SWAP1 POP PUSH0 PUSH1 0x1 SWAP1 POP JUMPDEST DUP4 DUP2 GT PUSH2 0x2EE JUMPI DUP1 DUP3 PUSH2 0x2D9 SWAP2 SWAP1 PUSH2 0x63E JUMP JUMPDEST SWAP2 POP DUP1 DUP1 PUSH2 0x2E6 SWAP1 PUSH2 0x67F JUMP JUMPDEST SWAP2 POP POP PUSH2 0x2C6 JUMP JUMPDEST POP DUP1 SWAP2 POP POP SWAP2 SWAP1 POP JUMP JUMPDEST PUSH0 DUP1 DUP3 SWAP1 POP PUSH0 DUP1 JUMPDEST PUSH0 DUP6 EQ PUSH2 0x329 JUMPI DUP1 DUP1 PUSH2 0x312 SWAP1 PUSH2 0x67F JUMP JUMPDEST SWAP2 POP POP PUSH1 0xA DUP6 PUSH2 0x322 SWAP2 SWAP1 PUSH2 0x6F3 JUMP JUMPDEST SWAP5 POP PUSH2 0x300 JUMP JUMPDEST DUP3 SWAP5 POP JUMPDEST PUSH0 DUP6 EQ PUSH2 0x372 JUMPI PUSH0 PUSH1 0xA DUP7 PUSH2 0x342 SWAP2 SWAP1 PUSH2 0x723 JUMP JUMPDEST SWAP1 POP DUP2 DUP2 PUSH2 0x350 SWAP2 SWAP1 PUSH2 0x882 JUMP JUMPDEST DUP4 PUSH2 0x35B SWAP2 SWAP1 PUSH2 0x60B JUMP JUMPDEST SWAP3 POP PUSH1 0xA DUP7 PUSH2 0x36A SWAP2 SWAP1 PUSH2 0x6F3 JUMP JUMPDEST SWAP6 POP POP PUSH2 0x32D JUMP JUMPDEST DUP3 DUP3 EQ SWAP4 POP POP POP POP SWAP2 SWAP1 POP JUMP JUMPDEST PUSH0 DUP1 REVERT JUMPDEST PUSH0 DUP2 SWAP1 POP SWAP2 SWAP1 POP JUMP JUMPDEST PUSH2 0x395 DUP2 PUSH2 0x383 JUMP JUMPDEST DUP2 EQ PUSH2 0x39F JUMPI PUSH0 DUP1 REVERT JUMPDEST POP JUMP JUMPDEST PUSH0 DUP2 CALLDATALOAD SWAP1 POP PUSH2 0x3B0 DUP2 PUSH2 0x38C JUMP JUMPDEST SWAP3 SWAP2 POP POP JUMP JUMPDEST PUSH0 PUSH1 0x20 DUP3 DUP5 SUB SLT ISZERO PUSH2 0x3CB JUMPI PUSH2 0x3CA PUSH2 0x37F JUMP JUMPDEST JUMPDEST PUSH0 PUSH2 0x3D8 DUP5 DUP3 DUP6 ADD PUSH2 0x3A2 JUMP JUMPDEST SWAP2 POP POP SWAP3 SWAP2 POP POP JUMP JUMPDEST PUSH0 DUP2 MLOAD SWAP1 POP SWAP2 SWAP1 POP JUMP JUMPDEST PUSH0 DUP3 DUP3 MSTORE PUSH1 0x20 DUP3 ADD SWAP1 POP SWAP3 SWAP2 POP POP JUMP JUMPDEST PUSH0 DUP2 SWAP1 POP PUSH1 0x20 DUP3 ADD SWAP1 POP SWAP2 SWAP1 POP JUMP JUMPDEST PUSH2 0x413 DUP2 PUSH2 0x383 JUMP JUMPDEST DUP3 MSTORE POP POP JUMP JUMPDEST PUSH0 PUSH2 0x424 DUP4 DUP4 PUSH2 0x40A JUMP JUMPDEST PUSH1 0x20 DUP4 ADD SWAP1 POP SWAP3 SWAP2 POP POP JUMP JUMPDEST PUSH0 PUSH1 0x20 DUP3 ADD SWAP1 POP SWAP2 SWAP1 POP JUMP JUMPDEST PUSH0 PUSH2 0x446 DUP3 PUSH2 0x3E1 JUMP JUMPDEST PUSH2 0x450 DUP2 DUP6 PUSH2 0x3EB JUMP JUMPDEST SWAP4 POP PUSH2 0x45B DUP4 PUSH2 0x3FB JUMP JUMPDEST DUP1 PUSH0 JUMPDEST DUP4 DUP2 LT ISZERO PUSH2 0x48B JUMPI DUP2 MLOAD PUSH2 0x472 DUP9 DUP3 PUSH2 0x419 JUMP JUMPDEST SWAP8 POP PUSH2 0x47D DUP4 PUSH2 0x430 JUMP JUMPDEST SWAP3 POP POP PUSH1 0x1 DUP2 ADD SWAP1 POP PUSH2 0x45E JUMP JUMPDEST POP DUP6 SWAP4 POP POP POP POP SWAP3 SWAP2 POP POP JUMP JUMPDEST PUSH0 PUSH1 0x20 DUP3 ADD SWAP1 POP DUP2 DUP2 SUB PUSH0 DUP4 ADD MSTORE PUSH2 0x4B0 DUP2 DUP5 PUSH2 0x43C JUMP JUMPDEST SWAP1 POP SWAP3 SWAP2 POP POP JUMP JUMPDEST PUSH0 DUP1 PUSH1 0x40 DUP4 DUP6 SUB SLT ISZERO PUSH2 0x4CE JUMPI PUSH2 0x4CD PUSH2 0x37F JUMP JUMPDEST JUMPDEST PUSH0 PUSH2 0x4DB DUP6 DUP3 DUP7 ADD PUSH2 0x3A2 JUMP JUMPDEST SWAP3 POP POP PUSH1 0x20 PUSH2 0x4EC DUP6 DUP3 DUP7 ADD PUSH2 0x3A2 JUMP JUMPDEST SWAP2 POP POP SWAP3 POP SWAP3 SWAP1 POP JUMP JUMPDEST PUSH2 0x4FF DUP2 PUSH2 0x383 JUMP JUMPDEST DUP3 MSTORE POP POP JUMP JUMPDEST PUSH0 PUSH1 0x20 DUP3 ADD SWAP1 POP PUSH2 0x518 PUSH0 DUP4 ADD DUP5 PUSH2 0x4F6 JUMP JUMPDEST SWAP3 SWAP2 POP POP JUMP JUMPDEST PUSH0 DUP2 ISZERO ISZERO SWAP1 POP SWAP2 SWAP1 POP JUMP JUMPDEST PUSH2 0x532 DUP2 PUSH2 0x51E JUMP JUMPDEST DUP3 MSTORE POP POP JUMP JUMPDEST PUSH0 PUSH1 0x20 DUP3 ADD SWAP1 POP PUSH2 0x54B PUSH0 DUP4 ADD DUP5 PUSH2 0x529 JUMP JUMPDEST SWAP3 SWAP2 POP POP JUMP JUMPDEST PUSH32 0x4E487B7100000000000000000000000000000000000000000000000000000000 PUSH0 MSTORE PUSH1 0x41 PUSH1 0x4 MSTORE PUSH1 0x24 PUSH0 REVERT JUMPDEST PUSH32 0x4E487B7100000000000000000000000000000000000000000000000000000000 PUSH0 MSTORE PUSH1 0x32 PUSH1 0x4 MSTORE PUSH1 0x24 PUSH0 REVERT JUMPDEST PUSH32 0x4E487B7100000000000000000000000000000000000000000000000000000000 PUSH0 MSTORE PUSH1 0x11 PUSH1 0x4 MSTORE PUSH1 0x24 PUSH0 REVERT JUMPDEST PUSH0 PUSH2 0x5E2 DUP3 PUSH2 0x383 JUMP JUMPDEST SWAP2 POP PUSH2 0x5ED DUP4 PUSH2 0x383 JUMP JUMPDEST SWAP3 POP DUP3 DUP3 SUB SWAP1 POP DUP2 DUP2 GT ISZERO PUSH2 0x605 JUMPI PUSH2 0x604 PUSH2 0x5AB JUMP JUMPDEST JUMPDEST SWAP3 SWAP2 POP POP JUMP JUMPDEST PUSH0 PUSH2 0x615 DUP3 PUSH2 0x383 JUMP JUMPDEST SWAP2 POP PUSH2 0x620 DUP4 PUSH2 0x383 JUMP JUMPDEST SWAP3 POP DUP3 DUP3 ADD SWAP1 POP DUP1 DUP3 GT ISZERO PUSH2 0x638 JUMPI PUSH2 0x637 PUSH2 0x5AB JUMP JUMPDEST JUMPDEST SWAP3 SWAP2 POP POP JUMP JUMPDEST PUSH0 PUSH2 0x648 DUP3 PUSH2 0x383 JUMP JUMPDEST SWAP2 POP PUSH2 0x653 DUP4 PUSH2 0x383 JUMP JUMPDEST SWAP3 POP DUP3 DUP3 MUL PUSH2 0x661 DUP2 PUSH2 0x383 JUMP JUMPDEST SWAP2 POP DUP3 DUP3 DIV DUP5 EQ DUP4 ISZERO OR PUSH2 0x678 JUMPI PUSH2 0x677 PUSH2 0x5AB JUMP JUMPDEST JUMPDEST POP SWAP3 SWAP2 POP POP JUMP JUMPDEST PUSH0 PUSH2 0x689 DUP3 PUSH2 0x383 JUMP JUMPDEST SWAP2 POP PUSH32 0xFFFFFFFFFFFFFFFFFFFFFFFFFFFFFFFFFFFFFFFFFFFFFFFFFFFFFFFFFFFFFFFF DUP3 SUB PUSH2 0x6BB JUMPI PUSH2 0x6BA PUSH2 0x5AB JUMP JUMPDEST JUMPDEST PUSH1 0x1 DUP3 ADD SWAP1 POP SWAP2 SWAP1 POP JUMP JUMPDEST PUSH32 0x4E487B7100000000000000000000000000000000000000000000000000000000 PUSH0 MSTORE PUSH1 0x12 PUSH1 0x4 MSTORE PUSH1 0x24 PUSH0 REVERT JUMPDEST PUSH0 PUSH2 0x6FD DUP3 PUSH2 0x383 JUMP JUMPDEST SWAP2 POP PUSH2 0x708 DUP4 PUSH2 0x383 JUMP JUMPDEST SWAP3 POP DUP3 PUSH2 0x718 JUMPI PUSH2 0x717 PUSH2 0x6C6 JUMP JUMPDEST JUMPDEST DUP3 DUP3 DIV SWAP1 POP SWAP3 SWAP2 POP POP JUMP JUMPDEST PUSH0 PUSH2 0x72D DUP3 PUSH2 0x383 JUMP JUMPDEST SWAP2 POP PUSH2 0x738 DUP4 PUSH2 0x383 JUMP JUMPDEST SWAP3 POP DUP3 PUSH2 0x748 JUMPI PUSH2 0x747 PUSH2 0x6C6 JUMP JUMPDEST JUMPDEST DUP3 DUP3 MOD SWAP1 POP SWAP3 SWAP2 POP POP JUMP JUMPDEST PUSH0 DUP2 PUSH1 0x1 SHR SWAP1 POP SWAP2 SWAP1 POP JUMP JUMPDEST PUSH0 DUP1 DUP3 SWAP2 POP DUP4 SWAP1 POP JUMPDEST PUSH1 0x1 DUP6 GT ISZERO PUSH2 0x7A8 JUMPI DUP1 DUP7 DIV DUP2 GT ISZERO PUSH2 0x784 JUMPI PUSH2 0x783 PUSH2 0x5AB JUMP JUMPDEST JUMPDEST PUSH1 0x1 DUP6 AND ISZERO PUSH2 0x793 JUMPI DUP1 DUP3 MUL SWAP2 POP JUMPDEST DUP1 DUP2 MUL SWAP1 POP PUSH2 0x7A1 DUP6 PUSH2 0x753 JUMP JUMPDEST SWAP5 POP PUSH2 0x768 JUMP JUMPDEST SWAP5 POP SWAP5 SWAP3 POP POP POP JUMP JUMPDEST PUSH0 DUP3 PUSH2 0x7C0 JUMPI PUSH1 0x1 SWAP1 POP PUSH2 0x87B JUMP JUMPDEST DUP2 PUSH2 0x7CD JUMPI PUSH0 SWAP1 POP PUSH2 0x87B JUMP JUMPDEST DUP2 PUSH1 0x1 DUP2 EQ PUSH2 0x7E3 JUMPI PUSH1 0x2 DUP2 EQ PUSH2 0x7ED JUMPI PUSH2 0x81C JUMP JUMPDEST PUSH1 0x1 SWAP2 POP POP PUSH2 0x87B JUMP JUMPDEST PUSH1 0xFF DUP5 GT ISZERO PUSH2 0x7FF JUMPI PUSH2 0x7FE PUSH2 0x5AB JUMP JUMPDEST JUMPDEST DUP4 PUSH1 0x2 EXP SWAP2 POP DUP5 DUP3 GT ISZERO PUSH2 0x816 JUMPI PUSH2 0x815 PUSH2 0x5AB JUMP JUMPDEST JUMPDEST POP PUSH2 0x87B JUMP JUMPDEST POP PUSH1 0x20 DUP4 LT PUSH2 0x133 DUP4 LT AND PUSH1 0x4E DUP5 LT PUSH1 0xB DUP5 LT AND OR ISZERO PUSH2 0x851 JUMPI DUP3 DUP3 EXP SWAP1 POP DUP4 DUP2 GT ISZERO PUSH2 0x84C JUMPI PUSH2 0x84B PUSH2 0x5AB JUMP JUMPDEST JUMPDEST PUSH2 0x87B JUMP JUMPDEST PUSH2 0x85E DUP5 DUP5 DUP5 PUSH1 0x1 PUSH2 0x75F JUMP JUMPDEST SWAP3 POP SWAP1 POP DUP2 DUP5 DIV DUP2 GT ISZERO PUSH2 0x875 JUMPI PUSH2 0x874 PUSH2 0x5AB JUMP JUMPDEST JUMPDEST DUP2 DUP2 MUL SWAP1 POP JUMPDEST SWAP4 SWAP3 POP POP POP JUMP JUMPDEST PUSH0 PUSH2 0x88C DUP3 PUSH2 0x383 JUMP JUMPDEST SWAP2 POP PUSH2 0x897 DUP4 PUSH2 0x383 JUMP JUMPDEST SWAP3 POP PUSH2 0x8C4 PUSH32 0xFFFFFFFFFFFFFFFFFFFFFFFFFFFFFFFFFFFFFFFFFFFFFFFFFFFFFFFFFFFFFFFF DUP5 DUP5 PUSH2 0x7B1 JUMP JUMPDEST SWAP1 POP SWAP3 SWAP2 POP POP JUMP INVALID LOG2 PUSH5 0x6970667358 0x22 SLT KECCAK256 0x2F 0xD1 0xA7 0xB8 DUP14 CALL 0xF6 0x26 0xB3 DUP10 PUSH25 0x915F55FEEFA03D3FEBBB884BA1CEDCE5E5F194C8E64736F6C PUSH4 0x4300081A STOP CALLER "
				},
				"gasEstimates": {
					"creation": {
						"codeDepositCost": "461200",
						"executionCost": "522",
						"totalCost": "461722"
					},
					"external": {
						"factorial(uint256)": "infinite",
						"fibonacci(uint256)": "infinite",
						"isArmstrong(uint256)": "infinite",
						"max(uint256,uint256)": "infinite",
						"min(uint256,uint256)": "infinite"
					}
				},
				"methodIdentifiers": {
					"factorial(uint256)": "83714834",
					"fibonacci(uint256)": "61047ff4",
					"isArmstrong(uint256)": "fe459d20",
					"max(uint256,uint256)": "6d5433e6",
					"min(uint256,uint256)": "7ae2b5c7"
				}
			},
			"storageLayout": {
				"storage": [],
				"types": null
			},
			"userdoc": {
				"kind": "user",
				"methods": {},
				"version": 1
			}
		}
	}
}