{
	"Day07/Maths.sol": {
		"MathContract": {
			"abi": [
				{
					"inputs": [
						{
							"internalType": "uint256",
							"name": "num",
							"type": "uint256"
						}
					],
					"name": "checkArmstrong",
					"outputs": [
						{
							"internalType": "bool",
							"name": "",
							"type": "bool"
						}
					],
					"stateMutability": "pure",
					"type": "function"
				},
				{
					"inputs": [
						{
							"internalType": "uint256",
							"name": "n",
							"type": "uint256"
						}
					],
					"name": "getFactorial",
					"outputs": [
						{
							"internalType": "uint256",
							"name": "",
							"type": "uint256"
						}
					],
					"stateMutability": "pure",
					"type": "function"
				},
				{
					"inputs": [
						{
							"internalType": "uint256",
							"name": "n",
							"type": "uint256"
						}
					],
					"name": "getFibonacci",
					"outputs": [
						{
							"internalType": "uint256[]",
							"name": "",
							"type": "uint256[]"
						}
					],
					"stateMutability": "pure",
					"type": "function"
				},
				{
					"inputs": [
						{
							"internalType": "uint256",
							"name": "a",
							"type": "uint256"
						},
						{
							"internalType": "uint256",
							"name": "b",
							"type": "uint256"
						}
					],
					"name": "getMax",
					"outputs": [
						{
							"internalType": "uint256",
							"name": "",
							"type": "uint256"
						}
					],
					"stateMutability": "pure",
					"type": "function"
				},
				{
					"inputs": [
						{
							"internalType": "uint256",
							"name": "a",
							"type": "uint256"
						},
						{
							"internalType": "uint256",
							"name": "b",
							"type": "uint256"
						}
					],
					"name": "getMin",
					"outputs": [
						{
							"internalType": "uint256",
							"name": "",
							"type": "uint256"
						}
					],
					"stateMutability": "pure",
					"type": "function"
				}
			],
			"devdoc": {
				"kind": "dev",
				"methods": {},
				"version": 1
			},
			"evm": {
				"assembly": "    /* \"Day07/Maths.sol\":1767:2678  contract MathContract {... */\n  mstore(0x40, 0x80)\n  callvalue\n  dup1\n  iszero\n  tag_1\n  jumpi\n  0x00\n  dup1\n  revert\ntag_1:\n  pop\n  dataSize(sub_0)\n  dup1\n  dataOffset(sub_0)\n  0x00\n  codecopy\n  0x00\n  return\nstop\n\nsub_0: assembly {\n        /* \"Day07/Maths.sol\":1767:2678  contract MathContract {... */\n      mstore(0x40, 0x80)\n      callvalue\n      dup1\n      iszero\n      tag_1\n      jumpi\n      0x00\n      dup1\n      revert\n    tag_1:\n      pop\n      jumpi(tag_2, lt(calldatasize, 0x04))\n      shr(0xe0, calldataload(0x00))\n      dup1\n      0x0fd95db5\n      eq\n      tag_3\n      jumpi\n      dup1\n      0x26b23020\n      eq\n      tag_4\n      jumpi\n      dup1\n      0x82358414\n      eq\n      tag_5\n      jumpi\n      dup1\n      0x90cbcf92\n      eq\n      tag_6\n      jumpi\n      dup1\n      0xb6e12936\n      eq\n      tag_7\n      jumpi\n    tag_2:\n      0x00\n      dup1\n      revert\n        /* \"Day07/Maths.sol\":2066:2168  function getMin(uint256 a, uint256 b) public pure returns (uint256) {... */\n    tag_3:\n      tag_8\n      0x04\n      dup1\n      calldatasize\n      sub\n      dup2\n      add\n      swap1\n      tag_9\n      swap2\n      swap1\n      tag_10\n      jump\t// in\n    tag_9:\n      tag_11\n      jump\t// in\n    tag_8:\n      mload(0x40)\n      tag_12\n      swap2\n      swap1\n      tag_13\n      jump\t// in\n    tag_12:\n      mload(0x40)\n      dup1\n      swap2\n      sub\n      swap1\n      return\n        /* \"Day07/Maths.sol\":1913:2015  function getMax(uint256 a, uint256 b) public pure returns (uint256) {... */\n    tag_4:\n      tag_14\n      0x04\n      dup1\n      calldatasize\n      sub\n      dup2\n      add\n      swap1\n      tag_15\n      swap2\n      swap1\n      tag_10\n      jump\t// in\n    tag_15:\n      tag_16\n      jump\t// in\n    tag_14:\n      mload(0x40)\n      tag_17\n      swap2\n      swap1\n      tag_13\n      jump\t// in\n    tag_17:\n      mload(0x40)\n      dup1\n      swap2\n      sub\n      swap1\n      return\n        /* \"Day07/Maths.sol\":2228:2330  function getFactorial(uint256 n) public pure returns (uint256) {... */\n    tag_5:\n      tag_18\n      0x04\n      dup1\n      calldatasize\n      sub\n      dup2\n      add\n      swap1\n      tag_19\n      swap2\n      swap1\n      tag_20\n      jump\t// in\n    tag_19:\n      tag_21\n      jump\t// in\n    tag_18:\n      mload(0x40)\n      tag_22\n      swap2\n      swap1\n      tag_13\n      jump\t// in\n    tag_22:\n      mload(0x40)\n      dup1\n      swap2\n      sub\n      swap1\n      return\n        /* \"Day07/Maths.sol\":2398:2509  function getFibonacci(uint256 n) public pure returns (uint256[] memory) {... */\n    tag_6:\n      tag_23\n      0x04\n      dup1\n      calldatasize\n      sub\n      dup2\n      add\n      swap1\n      tag_24\n      swap2\n      swap1\n      tag_20\n      jump\t// in\n    tag_24:\n      tag_25\n      jump\t// in\n    tag_23:\n      mload(0x40)\n      tag_26\n      swap2\n      swap1\n      tag_27\n      jump\t// in\n    tag_26:\n      mload(0x40)\n      dup1\n      swap2\n      sub\n      swap1\n      return\n        /* \"Day07/Maths.sol\":2568:2675  function checkArmstrong(uint256 num) public pure returns (bool) {... */\n    tag_7:\n      tag_28\n      0x04\n      dup1\n      calldatasize\n      sub\n      dup2\n      add\n      swap1\n      tag_29\n      swap2\n      swap1\n      tag_20\n      jump\t// in\n    tag_29:\n      tag_30\n      jump\t// in\n    tag_28:\n      mload(0x40)\n      tag_31\n      swap2\n      swap1\n      tag_32\n      jump\t// in\n    tag_31:\n      mload(0x40)\n      dup1\n      swap2\n      sub\n      swap1\n      return\n        /* \"Day07/Maths.sol\":2066:2168  function getMin(uint256 a, uint256 b) public pure returns (uint256) {... */\n    tag_11:\n        /* \"Day07/Maths.sol\":2125:2132  uint256 */\n      0x00\n        /* \"Day07/Maths.sol\":2152:2153  a */\n      dup3\n        /* \"Day07/Maths.sol\":2152:2157  a.min */\n      linkerSymbol(\"3dee09d7529be6c1fdd98db12560a626218ab44ebf27db5a9b30bcd5652d6534\")\n      0x7ae2b5c7\n      swap1\n      swap2\n        /* \"Day07/Maths.sol\":2158:2159  b */\n      dup5\n        /* \"Day07/Maths.sol\":2152:2160  a.min(b) */\n      mload(0x40)\n      dup4\n      0xffffffff\n      and\n      0xe0\n      shl\n      dup2\n      mstore\n      0x04\n      add\n      tag_34\n      swap3\n      swap2\n      swap1\n      tag_35\n      jump\t// in\n    tag_34:\n      0x20\n      mload(0x40)\n      dup1\n      dup4\n      sub\n      dup2\n      dup7\n      gas\n      delegatecall\n      iszero\n      dup1\n      iszero\n      tag_37\n      jumpi\n      returndatasize\n      0x00\n      dup1\n      returndatacopy\n      revert(0x00, returndatasize)\n    tag_37:\n      pop\n      pop\n      pop\n      pop\n      mload(0x40)\n      returndatasize\n      not(0x1f)\n      0x1f\n      dup3\n      add\n      and\n      dup3\n      add\n      dup1\n      0x40\n      mstore\n      pop\n      dup2\n      add\n      swap1\n      tag_38\n      swap2\n      swap1\n      tag_39\n      jump\t// in\n    tag_38:\n        /* \"Day07/Maths.sol\":2145:2160  return a.min(b) */\n      swap1\n      pop\n        /* \"Day07/Maths.sol\":2066:2168  function getMin(uint256 a, uint256 b) public pure returns (uint256) {... */\n      swap3\n      swap2\n      pop\n      pop\n      jump\t// out\n        /* \"Day07/Maths.sol\":1913:2015  function getMax(uint256 a, uint256 b) public pure returns (uint256) {... */\n    tag_16:\n        /* \"Day07/Maths.sol\":1972:1979  uint256 */\n      0x00\n        /* \"Day07/Maths.sol\":1999:2000  a */\n      dup3\n        /* \"Day07/Maths.sol\":1999:2004  a.max */\n      linkerSymbol(\"3dee09d7529be6c1fdd98db12560a626218ab44ebf27db5a9b30bcd5652d6534\")\n      0x6d5433e6\n      swap1\n      swap2\n        /* \"Day07/Maths.sol\":2005:2006  b */\n      dup5\n        /* \"Day07/Maths.sol\":1999:2007  a.max(b) */\n      mload(0x40)\n      dup4\n      0xffffffff\n      and\n      0xe0\n      shl\n      dup2\n      mstore\n      0x04\n      add\n      tag_41\n      swap3\n      swap2\n      swap1\n      tag_35\n      jump\t// in\n    tag_41:\n      0x20\n      mload(0x40)\n      dup1\n      dup4\n      sub\n      dup2\n      dup7\n      gas\n      delegatecall\n      iszero\n      dup1\n      iszero\n      tag_43\n      jumpi\n      returndatasize\n      0x00\n      dup1\n      returndatacopy\n      revert(0x00, returndatasize)\n    tag_43:\n      pop\n      pop\n      pop\n      pop\n      mload(0x40)\n      returndatasize\n      not(0x1f)\n      0x1f\n      dup3\n      add\n      and\n      dup3\n      add\n      dup1\n      0x40\n      mstore\n      pop\n      dup2\n      add\n      swap1\n      tag_44\n      swap2\n      swap1\n      tag_39\n      jump\t// in\n    tag_44:\n        /* \"Day07/Maths.sol\":1992:2007  return a.max(b) */\n      swap1\n      pop\n        /* \"Day07/Maths.sol\":1913:2015  function getMax(uint256 a, uint256 b) public pure returns (uint256) {... */\n      swap3\n      swap2\n      pop\n      pop\n      jump\t// out\n        /* \"Day07/Maths.sol\":2228:2330  function getFactorial(uint256 n) public pure returns (uint256) {... */\n    tag_21:\n        /* \"Day07/Maths.sol\":2282:2289  uint256 */\n      0x00\n        /* \"Day07/Maths.sol\":2309:2310  n */\n      dup2\n        /* \"Day07/Maths.sol\":2309:2320  n.factorial */\n      linkerSymbol(\"3dee09d7529be6c1fdd98db12560a626218ab44ebf27db5a9b30bcd5652d6534\")\n      0x83714834\n      swap1\n      swap2\n        /* \"Day07/Maths.sol\":2309:2322  n.factorial() */\n      mload(0x40)\n      dup3\n      0xffffffff\n      and\n      0xe0\n      shl\n      dup2\n      mstore\n      0x04\n      add\n      tag_46\n      swap2\n      swap1\n      tag_47\n      jump\t// in\n    tag_46:\n      0x20\n      mload(0x40)\n      dup1\n      dup4\n      sub\n      dup2\n      dup7\n      gas\n      delegatecall\n      iszero\n      dup1\n      iszero\n      tag_49\n      jumpi\n      returndatasize\n      0x00\n      dup1\n      returndatacopy\n      revert(0x00, returndatasize)\n    tag_49:\n      pop\n      pop\n      pop\n      pop\n      mload(0x40)\n      returndatasize\n      not(0x1f)\n      0x1f\n      dup3\n      add\n      and\n      dup3\n      add\n      dup1\n      0x40\n      mstore\n      pop\n      dup2\n      add\n      swap1\n      tag_50\n      swap2\n      swap1\n      tag_39\n      jump\t// in\n    tag_50:\n        /* \"Day07/Maths.sol\":2302:2322  return n.factorial() */\n      swap1\n      pop\n        /* \"Day07/Maths.sol\":2228:2330  function getFactorial(uint256 n) public pure returns (uint256) {... */\n      swap2\n      swap1\n      pop\n      jump\t// out\n        /* \"Day07/Maths.sol\":2398:2509  function getFibonacci(uint256 n) public pure returns (uint256[] memory) {... */\n    tag_25:\n        /* \"Day07/Maths.sol\":2452:2468  uint256[] memory */\n      0x60\n        /* \"Day07/Maths.sol\":2488:2489  n */\n      dup2\n        /* \"Day07/Maths.sol\":2488:2499  n.fibonacci */\n      linkerSymbol(\"3dee09d7529be6c1fdd98db12560a626218ab44ebf27db5a9b30bcd5652d6534\")\n      0x61047ff4\n      swap1\n      swap2\n        /* \"Day07/Maths.sol\":2488:2501  n.fibonacci() */\n      mload(0x40)\n      dup3\n      0xffffffff\n      and\n      0xe0\n      shl\n      dup2\n      mstore\n      0x04\n      add\n      tag_52\n      swap2\n      swap1\n      tag_47\n      jump\t// in\n    tag_52:\n      0x00\n      mload(0x40)\n      dup1\n      dup4\n      sub\n      dup2\n      dup7\n      gas\n      delegatecall\n      iszero\n      dup1\n      iszero\n      tag_54\n      jumpi\n      returndatasize\n      0x00\n      dup1\n      returndatacopy\n      revert(0x00, returndatasize)\n    tag_54:\n      pop\n      pop\n      pop\n      pop\n      mload(0x40)\n      returndatasize\n      0x00\n      dup3\n      returndatacopy\n      returndatasize\n      not(0x1f)\n      0x1f\n      dup3\n      add\n      and\n      dup3\n      add\n      dup1\n      0x40\n      mstore\n      pop\n      dup2\n      add\n      swap1\n      tag_55\n      swap2\n      swap1\n      tag_56\n      jump\t// in\n    tag_55:\n        /* \"Day07/Maths.sol\":2481:2501  return n.fibonacci() */\n      swap1\n      pop\n        /* \"Day07/Maths.sol\":2398:2509  function getFibonacci(uint256 n) public pure returns (uint256[] memory) {... */\n      swap2\n      swap1\n      pop\n      jump\t// out\n        /* \"Day07/Maths.sol\":2568:2675  function checkArmstrong(uint256 num) public pure returns (bool) {... */\n    tag_30:\n        /* \"Day07/Maths.sol\":2626:2630  bool */\n      0x00\n        /* \"Day07/Maths.sol\":2650:2653  num */\n      dup2\n        /* \"Day07/Maths.sol\":2650:2665  num.isArmstrong */\n      linkerSymbol(\"3dee09d7529be6c1fdd98db12560a626218ab44ebf27db5a9b30bcd5652d6534\")\n      0xfe459d20\n      swap1\n      swap2\n        /* \"Day07/Maths.sol\":2650:2667  num.isArmstrong() */\n      mload(0x40)\n      dup3\n      0xffffffff\n      and\n      0xe0\n      shl\n      dup2\n      mstore\n      0x04\n      add\n      tag_58\n      swap2\n      swap1\n      tag_47\n      jump\t// in\n    tag_58:\n      0x20\n      mload(0x40)\n      dup1\n      dup4\n      sub\n      dup2\n      dup7\n      gas\n      delegatecall\n      iszero\n      dup1\n      iszero\n      tag_60\n      jumpi\n      returndatasize\n      0x00\n      dup1\n      returndatacopy\n      revert(0x00, returndatasize)\n    tag_60:\n      pop\n      pop\n      pop\n      pop\n      mload(0x40)\n      returndatasize\n      not(0x1f)\n      0x1f\n      dup3\n      add\n      and\n      dup3\n      add\n      dup1\n      0x40\n      mstore\n      pop\n      dup2\n      add\n      swap1\n      tag_61\n      swap2\n      swap1\n      tag_62\n      jump\t// in\n    tag_61:\n        /* \"Day07/Maths.sol\":2643:2667  return num.isArmstrong() */\n      swap1\n      pop\n        /* \"Day07/Maths.sol\":2568:2675  function checkArmstrong(uint256 num) public pure returns (bool) {... */\n      swap2\n      swap1\n      pop\n      jump\t// out\n        /* \"#utility.yul\":7:82   */\n    tag_63:\n        /* \"#utility.yul\":40:46   */\n      0x00\n        /* \"#utility.yul\":73:75   */\n      0x40\n        /* \"#utility.yul\":67:76   */\n      mload\n        /* \"#utility.yul\":57:76   */\n      swap1\n      pop\n        /* \"#utility.yul\":7:82   */\n      swap1\n      jump\t// out\n        /* \"#utility.yul\":88:205   */\n    tag_64:\n        /* \"#utility.yul\":197:198   */\n      0x00\n        /* \"#utility.yul\":194:195   */\n      dup1\n        /* \"#utility.yul\":187:199   */\n      revert\n        /* \"#utility.yul\":211:328   */\n    tag_65:\n        /* \"#utility.yul\":320:321   */\n      0x00\n        /* \"#utility.yul\":317:318   */\n      dup1\n        /* \"#utility.yul\":310:322   */\n      revert\n        /* \"#utility.yul\":334:411   */\n    tag_66:\n        /* \"#utility.yul\":371:378   */\n      0x00\n        /* \"#utility.yul\":400:405   */\n      dup2\n        /* \"#utility.yul\":389:405   */\n      swap1\n      pop\n        /* \"#utility.yul\":334:411   */\n      swap2\n      swap1\n      pop\n      jump\t// out\n        /* \"#utility.yul\":417:539   */\n    tag_67:\n        /* \"#utility.yul\":490:514   */\n      tag_98\n        /* \"#utility.yul\":508:513   */\n      dup2\n        /* \"#utility.yul\":490:514   */\n      tag_66\n      jump\t// in\n    tag_98:\n        /* \"#utility.yul\":483:488   */\n      dup2\n        /* \"#utility.yul\":480:515   */\n      eq\n        /* \"#utility.yul\":470:533   */\n      tag_99\n      jumpi\n        /* \"#utility.yul\":529:530   */\n      0x00\n        /* \"#utility.yul\":526:527   */\n      dup1\n        /* \"#utility.yul\":519:531   */\n      revert\n        /* \"#utility.yul\":470:533   */\n    tag_99:\n        /* \"#utility.yul\":417:539   */\n      pop\n      jump\t// out\n        /* \"#utility.yul\":545:684   */\n    tag_68:\n        /* \"#utility.yul\":591:596   */\n      0x00\n        /* \"#utility.yul\":629:635   */\n      dup2\n        /* \"#utility.yul\":616:636   */\n      calldataload\n        /* \"#utility.yul\":607:636   */\n      swap1\n      pop\n        /* \"#utility.yul\":645:678   */\n      tag_101\n        /* \"#utility.yul\":672:677   */\n      dup2\n        /* \"#utility.yul\":645:678   */\n      tag_67\n      jump\t// in\n    tag_101:\n        /* \"#utility.yul\":545:684   */\n      swap3\n      swap2\n      pop\n      pop\n      jump\t// out\n        /* \"#utility.yul\":690:1164   */\n    tag_10:\n        /* \"#utility.yul\":758:764   */\n      0x00\n        /* \"#utility.yul\":766:772   */\n      dup1\n        /* \"#utility.yul\":815:817   */\n      0x40\n        /* \"#utility.yul\":803:812   */\n      dup4\n        /* \"#utility.yul\":794:801   */\n      dup6\n        /* \"#utility.yul\":790:813   */\n      sub\n        /* \"#utility.yul\":786:818   */\n      slt\n        /* \"#utility.yul\":783:902   */\n      iszero\n      tag_103\n      jumpi\n        /* \"#utility.yul\":821:900   */\n      tag_104\n      tag_64\n      jump\t// in\n    tag_104:\n        /* \"#utility.yul\":783:902   */\n    tag_103:\n        /* \"#utility.yul\":941:942   */\n      0x00\n        /* \"#utility.yul\":966:1019   */\n      tag_105\n        /* \"#utility.yul\":1011:1018   */\n      dup6\n        /* \"#utility.yul\":1002:1008   */\n      dup3\n        /* \"#utility.yul\":991:1000   */\n      dup7\n        /* \"#utility.yul\":987:1009   */\n      add\n        /* \"#utility.yul\":966:1019   */\n      tag_68\n      jump\t// in\n    tag_105:\n        /* \"#utility.yul\":956:1019   */\n      swap3\n      pop\n        /* \"#utility.yul\":912:1029   */\n      pop\n        /* \"#utility.yul\":1068:1070   */\n      0x20\n        /* \"#utility.yul\":1094:1147   */\n      tag_106\n        /* \"#utility.yul\":1139:1146   */\n      dup6\n        /* \"#utility.yul\":1130:1136   */\n      dup3\n        /* \"#utility.yul\":1119:1128   */\n      dup7\n        /* \"#utility.yul\":1115:1137   */\n      add\n        /* \"#utility.yul\":1094:1147   */\n      tag_68\n      jump\t// in\n    tag_106:\n        /* \"#utility.yul\":1084:1147   */\n      swap2\n      pop\n        /* \"#utility.yul\":1039:1157   */\n      pop\n        /* \"#utility.yul\":690:1164   */\n      swap3\n      pop\n      swap3\n      swap1\n      pop\n      jump\t// out\n        /* \"#utility.yul\":1170:1288   */\n    tag_69:\n        /* \"#utility.yul\":1257:1281   */\n      tag_108\n        /* \"#utility.yul\":1275:1280   */\n      dup2\n        /* \"#utility.yul\":1257:1281   */\n      tag_66\n      jump\t// in\n    tag_108:\n        /* \"#utility.yul\":1252:1255   */\n      dup3\n        /* \"#utility.yul\":1245:1282   */\n      mstore\n        /* \"#utility.yul\":1170:1288   */\n      pop\n      pop\n      jump\t// out\n        /* \"#utility.yul\":1294:1516   */\n    tag_13:\n        /* \"#utility.yul\":1387:1391   */\n      0x00\n        /* \"#utility.yul\":1425:1427   */\n      0x20\n        /* \"#utility.yul\":1414:1423   */\n      dup3\n        /* \"#utility.yul\":1410:1428   */\n      add\n        /* \"#utility.yul\":1402:1428   */\n      swap1\n      pop\n        /* \"#utility.yul\":1438:1509   */\n      tag_110\n        /* \"#utility.yul\":1506:1507   */\n      0x00\n        /* \"#utility.yul\":1495:1504   */\n      dup4\n        /* \"#utility.yul\":1491:1508   */\n      add\n        /* \"#utility.yul\":1482:1488   */\n      dup5\n        /* \"#utility.yul\":1438:1509   */\n      tag_69\n      jump\t// in\n    tag_110:\n        /* \"#utility.yul\":1294:1516   */\n      swap3\n      swap2\n      pop\n      pop\n      jump\t// out\n        /* \"#utility.yul\":1522:1851   */\n    tag_20:\n        /* \"#utility.yul\":1581:1587   */\n      0x00\n        /* \"#utility.yul\":1630:1632   */\n      0x20\n        /* \"#utility.yul\":1618:1627   */\n      dup3\n        /* \"#utility.yul\":1609:1616   */\n      dup5\n        /* \"#utility.yul\":1605:1628   */\n      sub\n        /* \"#utility.yul\":1601:1633   */\n      slt\n        /* \"#utility.yul\":1598:1717   */\n      iszero\n      tag_112\n      jumpi\n        /* \"#utility.yul\":1636:1715   */\n      tag_113\n      tag_64\n      jump\t// in\n    tag_113:\n        /* \"#utility.yul\":1598:1717   */\n    tag_112:\n        /* \"#utility.yul\":1756:1757   */\n      0x00\n        /* \"#utility.yul\":1781:1834   */\n      tag_114\n        /* \"#utility.yul\":1826:1833   */\n      dup5\n        /* \"#utility.yul\":1817:1823   */\n      dup3\n        /* \"#utility.yul\":1806:1815   */\n      dup6\n        /* \"#utility.yul\":1802:1824   */\n      add\n        /* \"#utility.yul\":1781:1834   */\n      tag_68\n      jump\t// in\n    tag_114:\n        /* \"#utility.yul\":1771:1834   */\n      swap2\n      pop\n        /* \"#utility.yul\":1727:1844   */\n      pop\n        /* \"#utility.yul\":1522:1851   */\n      swap3\n      swap2\n      pop\n      pop\n      jump\t// out\n        /* \"#utility.yul\":1857:1971   */\n    tag_70:\n        /* \"#utility.yul\":1924:1930   */\n      0x00\n        /* \"#utility.yul\":1958:1963   */\n      dup2\n        /* \"#utility.yul\":1952:1964   */\n      mload\n        /* \"#utility.yul\":1942:1964   */\n      swap1\n      pop\n        /* \"#utility.yul\":1857:1971   */\n      swap2\n      swap1\n      pop\n      jump\t// out\n        /* \"#utility.yul\":1977:2161   */\n    tag_71:\n        /* \"#utility.yul\":2076:2087   */\n      0x00\n        /* \"#utility.yul\":2110:2116   */\n      dup3\n        /* \"#utility.yul\":2105:2108   */\n      dup3\n        /* \"#utility.yul\":2098:2117   */\n      mstore\n        /* \"#utility.yul\":2150:2154   */\n      0x20\n        /* \"#utility.yul\":2145:2148   */\n      dup3\n        /* \"#utility.yul\":2141:2155   */\n      add\n        /* \"#utility.yul\":2126:2155   */\n      swap1\n      pop\n        /* \"#utility.yul\":1977:2161   */\n      swap3\n      swap2\n      pop\n      pop\n      jump\t// out\n        /* \"#utility.yul\":2167:2299   */\n    tag_72:\n        /* \"#utility.yul\":2234:2238   */\n      0x00\n        /* \"#utility.yul\":2257:2260   */\n      dup2\n        /* \"#utility.yul\":2249:2260   */\n      swap1\n      pop\n        /* \"#utility.yul\":2287:2291   */\n      0x20\n        /* \"#utility.yul\":2282:2285   */\n      dup3\n        /* \"#utility.yul\":2278:2292   */\n      add\n        /* \"#utility.yul\":2270:2292   */\n      swap1\n      pop\n        /* \"#utility.yul\":2167:2299   */\n      swap2\n      swap1\n      pop\n      jump\t// out\n        /* \"#utility.yul\":2305:2413   */\n    tag_73:\n        /* \"#utility.yul\":2382:2406   */\n      tag_119\n        /* \"#utility.yul\":2400:2405   */\n      dup2\n        /* \"#utility.yul\":2382:2406   */\n      tag_66\n      jump\t// in\n    tag_119:\n        /* \"#utility.yul\":2377:2380   */\n      dup3\n        /* \"#utility.yul\":2370:2407   */\n      mstore\n        /* \"#utility.yul\":2305:2413   */\n      pop\n      pop\n      jump\t// out\n        /* \"#utility.yul\":2419:2598   */\n    tag_74:\n        /* \"#utility.yul\":2488:2498   */\n      0x00\n        /* \"#utility.yul\":2509:2555   */\n      tag_121\n        /* \"#utility.yul\":2551:2554   */\n      dup4\n        /* \"#utility.yul\":2543:2549   */\n      dup4\n        /* \"#utility.yul\":2509:2555   */\n      tag_73\n      jump\t// in\n    tag_121:\n        /* \"#utility.yul\":2587:2591   */\n      0x20\n        /* \"#utility.yul\":2582:2585   */\n      dup4\n        /* \"#utility.yul\":2578:2592   */\n      add\n        /* \"#utility.yul\":2564:2592   */\n      swap1\n      pop\n        /* \"#utility.yul\":2419:2598   */\n      swap3\n      swap2\n      pop\n      pop\n      jump\t// out\n        /* \"#utility.yul\":2604:2717   */\n    tag_75:\n        /* \"#utility.yul\":2674:2678   */\n      0x00\n        /* \"#utility.yul\":2706:2710   */\n      0x20\n        /* \"#utility.yul\":2701:2704   */\n      dup3\n        /* \"#utility.yul\":2697:2711   */\n      add\n        /* \"#utility.yul\":2689:2711   */\n      swap1\n      pop\n        /* \"#utility.yul\":2604:2717   */\n      swap2\n      swap1\n      pop\n      jump\t// out\n        /* \"#utility.yul\":2753:3485   */\n    tag_76:\n        /* \"#utility.yul\":2872:2875   */\n      0x00\n        /* \"#utility.yul\":2901:2955   */\n      tag_124\n        /* \"#utility.yul\":2949:2954   */\n      dup3\n        /* \"#utility.yul\":2901:2955   */\n      tag_70\n      jump\t// in\n    tag_124:\n        /* \"#utility.yul\":2971:3057   */\n      tag_125\n        /* \"#utility.yul\":3050:3056   */\n      dup2\n        /* \"#utility.yul\":3045:3048   */\n      dup6\n        /* \"#utility.yul\":2971:3057   */\n      tag_71\n      jump\t// in\n    tag_125:\n        /* \"#utility.yul\":2964:3057   */\n      swap4\n      pop\n        /* \"#utility.yul\":3081:3137   */\n      tag_126\n        /* \"#utility.yul\":3131:3136   */\n      dup4\n        /* \"#utility.yul\":3081:3137   */\n      tag_72\n      jump\t// in\n    tag_126:\n        /* \"#utility.yul\":3160:3167   */\n      dup1\n        /* \"#utility.yul\":3191:3192   */\n      0x00\n        /* \"#utility.yul\":3176:3460   */\n    tag_127:\n        /* \"#utility.yul\":3201:3207   */\n      dup4\n        /* \"#utility.yul\":3198:3199   */\n      dup2\n        /* \"#utility.yul\":3195:3208   */\n      lt\n        /* \"#utility.yul\":3176:3460   */\n      iszero\n      tag_129\n      jumpi\n        /* \"#utility.yul\":3277:3283   */\n      dup2\n        /* \"#utility.yul\":3271:3284   */\n      mload\n        /* \"#utility.yul\":3304:3367   */\n      tag_130\n        /* \"#utility.yul\":3363:3366   */\n      dup9\n        /* \"#utility.yul\":3348:3361   */\n      dup3\n        /* \"#utility.yul\":3304:3367   */\n      tag_74\n      jump\t// in\n    tag_130:\n        /* \"#utility.yul\":3297:3367   */\n      swap8\n      pop\n        /* \"#utility.yul\":3390:3450   */\n      tag_131\n        /* \"#utility.yul\":3443:3449   */\n      dup4\n        /* \"#utility.yul\":3390:3450   */\n      tag_75\n      jump\t// in\n    tag_131:\n        /* \"#utility.yul\":3380:3450   */\n      swap3\n      pop\n        /* \"#utility.yul\":3236:3460   */\n      pop\n        /* \"#utility.yul\":3223:3224   */\n      0x01\n        /* \"#utility.yul\":3220:3221   */\n      dup2\n        /* \"#utility.yul\":3216:3225   */\n      add\n        /* \"#utility.yul\":3211:3225   */\n      swap1\n      pop\n        /* \"#utility.yul\":3176:3460   */\n      jump(tag_127)\n    tag_129:\n        /* \"#utility.yul\":3180:3194   */\n      pop\n        /* \"#utility.yul\":3476:3479   */\n      dup6\n        /* \"#utility.yul\":3469:3479   */\n      swap4\n      pop\n        /* \"#utility.yul\":2877:3485   */\n      pop\n      pop\n      pop\n        /* \"#utility.yul\":2753:3485   */\n      swap3\n      swap2\n      pop\n      pop\n      jump\t// out\n        /* \"#utility.yul\":3491:3864   */\n    tag_27:\n        /* \"#utility.yul\":3634:3638   */\n      0x00\n        /* \"#utility.yul\":3672:3674   */\n      0x20\n        /* \"#utility.yul\":3661:3670   */\n      dup3\n        /* \"#utility.yul\":3657:3675   */\n      add\n        /* \"#utility.yul\":3649:3675   */\n      swap1\n      pop\n        /* \"#utility.yul\":3721:3730   */\n      dup2\n        /* \"#utility.yul\":3715:3719   */\n      dup2\n        /* \"#utility.yul\":3711:3731   */\n      sub\n        /* \"#utility.yul\":3707:3708   */\n      0x00\n        /* \"#utility.yul\":3696:3705   */\n      dup4\n        /* \"#utility.yul\":3692:3709   */\n      add\n        /* \"#utility.yul\":3685:3732   */\n      mstore\n        /* \"#utility.yul\":3749:3857   */\n      tag_133\n        /* \"#utility.yul\":3852:3856   */\n      dup2\n        /* \"#utility.yul\":3843:3849   */\n      dup5\n        /* \"#utility.yul\":3749:3857   */\n      tag_76\n      jump\t// in\n    tag_133:\n        /* \"#utility.yul\":3741:3857   */\n      swap1\n      pop\n        /* \"#utility.yul\":3491:3864   */\n      swap3\n      swap2\n      pop\n      pop\n      jump\t// out\n        /* \"#utility.yul\":3870:3960   */\n    tag_77:\n        /* \"#utility.yul\":3904:3911   */\n      0x00\n        /* \"#utility.yul\":3947:3952   */\n      dup2\n        /* \"#utility.yul\":3940:3953   */\n      iszero\n        /* \"#utility.yul\":3933:3954   */\n      iszero\n        /* \"#utility.yul\":3922:3954   */\n      swap1\n      pop\n        /* \"#utility.yul\":3870:3960   */\n      swap2\n      swap1\n      pop\n      jump\t// out\n        /* \"#utility.yul\":3966:4075   */\n    tag_78:\n        /* \"#utility.yul\":4047:4068   */\n      tag_136\n        /* \"#utility.yul\":4062:4067   */\n      dup2\n        /* \"#utility.yul\":4047:4068   */\n      tag_77\n      jump\t// in\n    tag_136:\n        /* \"#utility.yul\":4042:4045   */\n      dup3\n        /* \"#utility.yul\":4035:4069   */\n      mstore\n        /* \"#utility.yul\":3966:4075   */\n      pop\n      pop\n      jump\t// out\n        /* \"#utility.yul\":4081:4291   */\n    tag_32:\n        /* \"#utility.yul\":4168:4172   */\n      0x00\n        /* \"#utility.yul\":4206:4208   */\n      0x20\n        /* \"#utility.yul\":4195:4204   */\n      dup3\n        /* \"#utility.yul\":4191:4209   */\n      add\n        /* \"#utility.yul\":4183:4209   */\n      swap1\n      pop\n        /* \"#utility.yul\":4219:4284   */\n      tag_138\n        /* \"#utility.yul\":4281:4282   */\n      0x00\n        /* \"#utility.yul\":4270:4279   */\n      dup4\n        /* \"#utility.yul\":4266:4283   */\n      add\n        /* \"#utility.yul\":4257:4263   */\n      dup5\n        /* \"#utility.yul\":4219:4284   */\n      tag_78\n      jump\t// in\n    tag_138:\n        /* \"#utility.yul\":4081:4291   */\n      swap3\n      swap2\n      pop\n      pop\n      jump\t// out\n        /* \"#utility.yul\":4297:4423   */\n    tag_79:\n        /* \"#utility.yul\":4392:4416   */\n      tag_140\n        /* \"#utility.yul\":4410:4415   */\n      dup2\n        /* \"#utility.yul\":4392:4416   */\n      tag_66\n      jump\t// in\n    tag_140:\n        /* \"#utility.yul\":4387:4390   */\n      dup3\n        /* \"#utility.yul\":4380:4417   */\n      mstore\n        /* \"#utility.yul\":4297:4423   */\n      pop\n      pop\n      jump\t// out\n        /* \"#utility.yul\":4429:4785   */\n    tag_35:\n        /* \"#utility.yul\":4558:4562   */\n      0x00\n        /* \"#utility.yul\":4596:4598   */\n      0x40\n        /* \"#utility.yul\":4585:4594   */\n      dup3\n        /* \"#utility.yul\":4581:4599   */\n      add\n        /* \"#utility.yul\":4573:4599   */\n      swap1\n      pop\n        /* \"#utility.yul\":4609:4688   */\n      tag_142\n        /* \"#utility.yul\":4685:4686   */\n      0x00\n        /* \"#utility.yul\":4674:4683   */\n      dup4\n        /* \"#utility.yul\":4670:4687   */\n      add\n        /* \"#utility.yul\":4661:4667   */\n      dup6\n        /* \"#utility.yul\":4609:4688   */\n      tag_79\n      jump\t// in\n    tag_142:\n        /* \"#utility.yul\":4698:4778   */\n      tag_143\n        /* \"#utility.yul\":4774:4776   */\n      0x20\n        /* \"#utility.yul\":4763:4772   */\n      dup4\n        /* \"#utility.yul\":4759:4777   */\n      add\n        /* \"#utility.yul\":4750:4756   */\n      dup5\n        /* \"#utility.yul\":4698:4778   */\n      tag_79\n      jump\t// in\n    tag_143:\n        /* \"#utility.yul\":4429:4785   */\n      swap4\n      swap3\n      pop\n      pop\n      pop\n      jump\t// out\n        /* \"#utility.yul\":4791:4934   */\n    tag_80:\n        /* \"#utility.yul\":4848:4853   */\n      0x00\n        /* \"#utility.yul\":4879:4885   */\n      dup2\n        /* \"#utility.yul\":4873:4886   */\n      mload\n        /* \"#utility.yul\":4864:4886   */\n      swap1\n      pop\n        /* \"#utility.yul\":4895:4928   */\n      tag_145\n        /* \"#utility.yul\":4922:4927   */\n      dup2\n        /* \"#utility.yul\":4895:4928   */\n      tag_67\n      jump\t// in\n    tag_145:\n        /* \"#utility.yul\":4791:4934   */\n      swap3\n      swap2\n      pop\n      pop\n      jump\t// out\n        /* \"#utility.yul\":4940:5291   */\n    tag_39:\n        /* \"#utility.yul\":5010:5016   */\n      0x00\n        /* \"#utility.yul\":5059:5061   */\n      0x20\n        /* \"#utility.yul\":5047:5056   */\n      dup3\n        /* \"#utility.yul\":5038:5045   */\n      dup5\n        /* \"#utility.yul\":5034:5057   */\n      sub\n        /* \"#utility.yul\":5030:5062   */\n      slt\n        /* \"#utility.yul\":5027:5146   */\n      iszero\n      tag_147\n      jumpi\n        /* \"#utility.yul\":5065:5144   */\n      tag_148\n      tag_64\n      jump\t// in\n    tag_148:\n        /* \"#utility.yul\":5027:5146   */\n    tag_147:\n        /* \"#utility.yul\":5185:5186   */\n      0x00\n        /* \"#utility.yul\":5210:5274   */\n      tag_149\n        /* \"#utility.yul\":5266:5273   */\n      dup5\n        /* \"#utility.yul\":5257:5263   */\n      dup3\n        /* \"#utility.yul\":5246:5255   */\n      dup6\n        /* \"#utility.yul\":5242:5264   */\n      add\n        /* \"#utility.yul\":5210:5274   */\n      tag_80\n      jump\t// in\n    tag_149:\n        /* \"#utility.yul\":5200:5274   */\n      swap2\n      pop\n        /* \"#utility.yul\":5156:5284   */\n      pop\n        /* \"#utility.yul\":4940:5291   */\n      swap3\n      swap2\n      pop\n      pop\n      jump\t// out\n        /* \"#utility.yul\":5297:5535   */\n    tag_47:\n        /* \"#utility.yul\":5398:5402   */\n      0x00\n        /* \"#utility.yul\":5436:5438   */\n      0x20\n        /* \"#utility.yul\":5425:5434   */\n      dup3\n        /* \"#utility.yul\":5421:5439   */\n      add\n        /* \"#utility.yul\":5413:5439   */\n      swap1\n      pop\n        /* \"#utility.yul\":5449:5528   */\n      tag_151\n        /* \"#utility.yul\":5525:5526   */\n      0x00\n        /* \"#utility.yul\":5514:5523   */\n      dup4\n        /* \"#utility.yul\":5510:5527   */\n      add\n        /* \"#utility.yul\":5501:5507   */\n      dup5\n        /* \"#utility.yul\":5449:5528   */\n      tag_79\n      jump\t// in\n    tag_151:\n        /* \"#utility.yul\":5297:5535   */\n      swap3\n      swap2\n      pop\n      pop\n      jump\t// out\n        /* \"#utility.yul\":5541:5658   */\n    tag_81:\n        /* \"#utility.yul\":5650:5651   */\n      0x00\n        /* \"#utility.yul\":5647:5648   */\n      dup1\n        /* \"#utility.yul\":5640:5652   */\n      revert\n        /* \"#utility.yul\":5664:5766   */\n    tag_82:\n        /* \"#utility.yul\":5705:5711   */\n      0x00\n        /* \"#utility.yul\":5756:5758   */\n      0x1f\n        /* \"#utility.yul\":5752:5759   */\n      not\n        /* \"#utility.yul\":5747:5749   */\n      0x1f\n        /* \"#utility.yul\":5740:5745   */\n      dup4\n        /* \"#utility.yul\":5736:5750   */\n      add\n        /* \"#utility.yul\":5732:5760   */\n      and\n        /* \"#utility.yul\":5722:5760   */\n      swap1\n      pop\n        /* \"#utility.yul\":5664:5766   */\n      swap2\n      swap1\n      pop\n      jump\t// out\n        /* \"#utility.yul\":5772:5952   */\n    tag_83:\n        /* \"#utility.yul\":5820:5897   */\n      0x4e487b7100000000000000000000000000000000000000000000000000000000\n        /* \"#utility.yul\":5817:5818   */\n      0x00\n        /* \"#utility.yul\":5810:5898   */\n      mstore\n        /* \"#utility.yul\":5917:5921   */\n      0x41\n        /* \"#utility.yul\":5914:5915   */\n      0x04\n        /* \"#utility.yul\":5907:5922   */\n      mstore\n        /* \"#utility.yul\":5941:5945   */\n      0x24\n        /* \"#utility.yul\":5938:5939   */\n      0x00\n        /* \"#utility.yul\":5931:5946   */\n      revert\n        /* \"#utility.yul\":5958:6239   */\n    tag_84:\n        /* \"#utility.yul\":6041:6068   */\n      tag_156\n        /* \"#utility.yul\":6063:6067   */\n      dup3\n        /* \"#utility.yul\":6041:6068   */\n      tag_82\n      jump\t// in\n    tag_156:\n        /* \"#utility.yul\":6033:6039   */\n      dup2\n        /* \"#utility.yul\":6029:6069   */\n      add\n        /* \"#utility.yul\":6171:6177   */\n      dup2\n        /* \"#utility.yul\":6159:6169   */\n      dup2\n        /* \"#utility.yul\":6156:6178   */\n      lt\n        /* \"#utility.yul\":6135:6153   */\n      0xffffffffffffffff\n        /* \"#utility.yul\":6123:6133   */\n      dup3\n        /* \"#utility.yul\":6120:6154   */\n      gt\n        /* \"#utility.yul\":6117:6179   */\n      or\n        /* \"#utility.yul\":6114:6202   */\n      iszero\n      tag_157\n      jumpi\n        /* \"#utility.yul\":6182:6200   */\n      tag_158\n      tag_83\n      jump\t// in\n    tag_158:\n        /* \"#utility.yul\":6114:6202   */\n    tag_157:\n        /* \"#utility.yul\":6222:6232   */\n      dup1\n        /* \"#utility.yul\":6218:6220   */\n      0x40\n        /* \"#utility.yul\":6211:6233   */\n      mstore\n        /* \"#utility.yul\":6001:6239   */\n      pop\n        /* \"#utility.yul\":5958:6239   */\n      pop\n      pop\n      jump\t// out\n        /* \"#utility.yul\":6245:6374   */\n    tag_85:\n        /* \"#utility.yul\":6279:6285   */\n      0x00\n        /* \"#utility.yul\":6306:6326   */\n      tag_160\n      tag_63\n      jump\t// in\n    tag_160:\n        /* \"#utility.yul\":6296:6326   */\n      swap1\n      pop\n        /* \"#utility.yul\":6335:6368   */\n      tag_161\n        /* \"#utility.yul\":6363:6367   */\n      dup3\n        /* \"#utility.yul\":6355:6361   */\n      dup3\n        /* \"#utility.yul\":6335:6368   */\n      tag_84\n      jump\t// in\n    tag_161:\n        /* \"#utility.yul\":6245:6374   */\n      swap2\n      swap1\n      pop\n      jump\t// out\n        /* \"#utility.yul\":6380:6691   */\n    tag_86:\n        /* \"#utility.yul\":6457:6461   */\n      0x00\n        /* \"#utility.yul\":6547:6565   */\n      0xffffffffffffffff\n        /* \"#utility.yul\":6539:6545   */\n      dup3\n        /* \"#utility.yul\":6536:6566   */\n      gt\n        /* \"#utility.yul\":6533:6589   */\n      iszero\n      tag_163\n      jumpi\n        /* \"#utility.yul\":6569:6587   */\n      tag_164\n      tag_83\n      jump\t// in\n    tag_164:\n        /* \"#utility.yul\":6533:6589   */\n    tag_163:\n        /* \"#utility.yul\":6619:6623   */\n      0x20\n        /* \"#utility.yul\":6611:6617   */\n      dup3\n        /* \"#utility.yul\":6607:6624   */\n      mul\n        /* \"#utility.yul\":6599:6624   */\n      swap1\n      pop\n        /* \"#utility.yul\":6679:6683   */\n      0x20\n        /* \"#utility.yul\":6673:6677   */\n      dup2\n        /* \"#utility.yul\":6669:6684   */\n      add\n        /* \"#utility.yul\":6661:6684   */\n      swap1\n      pop\n        /* \"#utility.yul\":6380:6691   */\n      swap2\n      swap1\n      pop\n      jump\t// out\n        /* \"#utility.yul\":6697:6814   */\n    tag_87:\n        /* \"#utility.yul\":6806:6807   */\n      0x00\n        /* \"#utility.yul\":6803:6804   */\n      dup1\n        /* \"#utility.yul\":6796:6808   */\n      revert\n        /* \"#utility.yul\":6837:7569   */\n    tag_88:\n        /* \"#utility.yul\":6944:6949   */\n      0x00\n        /* \"#utility.yul\":6969:7050   */\n      tag_167\n        /* \"#utility.yul\":6985:7049   */\n      tag_168\n        /* \"#utility.yul\":7042:7048   */\n      dup5\n        /* \"#utility.yul\":6985:7049   */\n      tag_86\n      jump\t// in\n    tag_168:\n        /* \"#utility.yul\":6969:7050   */\n      tag_85\n      jump\t// in\n    tag_167:\n        /* \"#utility.yul\":6960:7050   */\n      swap1\n      pop\n        /* \"#utility.yul\":7070:7075   */\n      dup1\n        /* \"#utility.yul\":7099:7105   */\n      dup4\n        /* \"#utility.yul\":7092:7097   */\n      dup3\n        /* \"#utility.yul\":7085:7106   */\n      mstore\n        /* \"#utility.yul\":7133:7137   */\n      0x20\n        /* \"#utility.yul\":7126:7131   */\n      dup3\n        /* \"#utility.yul\":7122:7138   */\n      add\n        /* \"#utility.yul\":7115:7138   */\n      swap1\n      pop\n        /* \"#utility.yul\":7186:7190   */\n      0x20\n        /* \"#utility.yul\":7178:7184   */\n      dup5\n        /* \"#utility.yul\":7174:7191   */\n      mul\n        /* \"#utility.yul\":7166:7172   */\n      dup4\n        /* \"#utility.yul\":7162:7192   */\n      add\n        /* \"#utility.yul\":7215:7218   */\n      dup6\n        /* \"#utility.yul\":7207:7213   */\n      dup2\n        /* \"#utility.yul\":7204:7219   */\n      gt\n        /* \"#utility.yul\":7201:7323   */\n      iszero\n      tag_169\n      jumpi\n        /* \"#utility.yul\":7234:7313   */\n      tag_170\n      tag_87\n      jump\t// in\n    tag_170:\n        /* \"#utility.yul\":7201:7323   */\n    tag_169:\n        /* \"#utility.yul\":7349:7355   */\n      dup4\n        /* \"#utility.yul\":7332:7563   */\n    tag_171:\n        /* \"#utility.yul\":7366:7372   */\n      dup2\n        /* \"#utility.yul\":7361:7364   */\n      dup2\n        /* \"#utility.yul\":7358:7373   */\n      lt\n        /* \"#utility.yul\":7332:7563   */\n      iszero\n      tag_173\n      jumpi\n        /* \"#utility.yul\":7441:7444   */\n      dup1\n        /* \"#utility.yul\":7470:7518   */\n      tag_174\n        /* \"#utility.yul\":7514:7517   */\n      dup9\n        /* \"#utility.yul\":7502:7512   */\n      dup3\n        /* \"#utility.yul\":7470:7518   */\n      tag_80\n      jump\t// in\n    tag_174:\n        /* \"#utility.yul\":7465:7468   */\n      dup5\n        /* \"#utility.yul\":7458:7519   */\n      mstore\n        /* \"#utility.yul\":7548:7552   */\n      0x20\n        /* \"#utility.yul\":7543:7546   */\n      dup5\n        /* \"#utility.yul\":7539:7553   */\n      add\n        /* \"#utility.yul\":7532:7553   */\n      swap4\n      pop\n        /* \"#utility.yul\":7408:7563   */\n      pop\n        /* \"#utility.yul\":7392:7396   */\n      0x20\n        /* \"#utility.yul\":7387:7390   */\n      dup2\n        /* \"#utility.yul\":7383:7397   */\n      add\n        /* \"#utility.yul\":7376:7397   */\n      swap1\n      pop\n        /* \"#utility.yul\":7332:7563   */\n      jump(tag_171)\n    tag_173:\n        /* \"#utility.yul\":7336:7357   */\n      pop\n        /* \"#utility.yul\":6950:7569   */\n      pop\n      pop\n        /* \"#utility.yul\":6837:7569   */\n      swap4\n      swap3\n      pop\n      pop\n      pop\n      jump\t// out\n        /* \"#utility.yul\":7592:7977   */\n    tag_89:\n        /* \"#utility.yul\":7674:7679   */\n      0x00\n        /* \"#utility.yul\":7723:7726   */\n      dup3\n        /* \"#utility.yul\":7716:7720   */\n      0x1f\n        /* \"#utility.yul\":7708:7714   */\n      dup4\n        /* \"#utility.yul\":7704:7721   */\n      add\n        /* \"#utility.yul\":7700:7727   */\n      slt\n        /* \"#utility.yul\":7690:7812   */\n      tag_176\n      jumpi\n        /* \"#utility.yul\":7731:7810   */\n      tag_177\n      tag_81\n      jump\t// in\n    tag_177:\n        /* \"#utility.yul\":7690:7812   */\n    tag_176:\n        /* \"#utility.yul\":7841:7847   */\n      dup2\n        /* \"#utility.yul\":7835:7848   */\n      mload\n        /* \"#utility.yul\":7866:7971   */\n      tag_178\n        /* \"#utility.yul\":7967:7970   */\n      dup5\n        /* \"#utility.yul\":7959:7965   */\n      dup3\n        /* \"#utility.yul\":7952:7956   */\n      0x20\n        /* \"#utility.yul\":7944:7950   */\n      dup7\n        /* \"#utility.yul\":7940:7957   */\n      add\n        /* \"#utility.yul\":7866:7971   */\n      tag_88\n      jump\t// in\n    tag_178:\n        /* \"#utility.yul\":7857:7971   */\n      swap2\n      pop\n        /* \"#utility.yul\":7680:7977   */\n      pop\n        /* \"#utility.yul\":7592:7977   */\n      swap3\n      swap2\n      pop\n      pop\n      jump\t// out\n        /* \"#utility.yul\":7983:8537   */\n    tag_56:\n        /* \"#utility.yul\":8078:8084   */\n      0x00\n        /* \"#utility.yul\":8127:8129   */\n      0x20\n        /* \"#utility.yul\":8115:8124   */\n      dup3\n        /* \"#utility.yul\":8106:8113   */\n      dup5\n        /* \"#utility.yul\":8102:8125   */\n      sub\n        /* \"#utility.yul\":8098:8130   */\n      slt\n        /* \"#utility.yul\":8095:8214   */\n      iszero\n      tag_180\n      jumpi\n        /* \"#utility.yul\":8133:8212   */\n      tag_181\n      tag_64\n      jump\t// in\n    tag_181:\n        /* \"#utility.yul\":8095:8214   */\n    tag_180:\n        /* \"#utility.yul\":8274:8275   */\n      0x00\n        /* \"#utility.yul\":8263:8272   */\n      dup3\n        /* \"#utility.yul\":8259:8276   */\n      add\n        /* \"#utility.yul\":8253:8277   */\n      mload\n        /* \"#utility.yul\":8304:8322   */\n      0xffffffffffffffff\n        /* \"#utility.yul\":8296:8302   */\n      dup2\n        /* \"#utility.yul\":8293:8323   */\n      gt\n        /* \"#utility.yul\":8290:8407   */\n      iszero\n      tag_182\n      jumpi\n        /* \"#utility.yul\":8326:8405   */\n      tag_183\n      tag_65\n      jump\t// in\n    tag_183:\n        /* \"#utility.yul\":8290:8407   */\n    tag_182:\n        /* \"#utility.yul\":8431:8520   */\n      tag_184\n        /* \"#utility.yul\":8512:8519   */\n      dup5\n        /* \"#utility.yul\":8503:8509   */\n      dup3\n        /* \"#utility.yul\":8492:8501   */\n      dup6\n        /* \"#utility.yul\":8488:8510   */\n      add\n        /* \"#utility.yul\":8431:8520   */\n      tag_89\n      jump\t// in\n    tag_184:\n        /* \"#utility.yul\":8421:8520   */\n      swap2\n      pop\n        /* \"#utility.yul\":8224:8530   */\n      pop\n        /* \"#utility.yul\":7983:8537   */\n      swap3\n      swap2\n      pop\n      pop\n      jump\t// out\n        /* \"#utility.yul\":8543:8659   */\n    tag_90:\n        /* \"#utility.yul\":8613:8634   */\n      tag_186\n        /* \"#utility.yul\":8628:8633   */\n      dup2\n        /* \"#utility.yul\":8613:8634   */\n      tag_77\n      jump\t// in\n    tag_186:\n        /* \"#utility.yul\":8606:8611   */\n      dup2\n        /* \"#utility.yul\":8603:8635   */\n      eq\n        /* \"#utility.yul\":8593:8653   */\n      tag_187\n      jumpi\n        /* \"#utility.yul\":8649:8650   */\n      0x00\n        /* \"#utility.yul\":8646:8647   */\n      dup1\n        /* \"#utility.yul\":8639:8651   */\n      revert\n        /* \"#utility.yul\":8593:8653   */\n    tag_187:\n        /* \"#utility.yul\":8543:8659   */\n      pop\n      jump\t// out\n        /* \"#utility.yul\":8665:8802   */\n    tag_91:\n        /* \"#utility.yul\":8719:8724   */\n      0x00\n        /* \"#utility.yul\":8750:8756   */\n      dup2\n        /* \"#utility.yul\":8744:8757   */\n      mload\n        /* \"#utility.yul\":8735:8757   */\n      swap1\n      pop\n        /* \"#utility.yul\":8766:8796   */\n      tag_189\n        /* \"#utility.yul\":8790:8795   */\n      dup2\n        /* \"#utility.yul\":8766:8796   */\n      tag_90\n      jump\t// in\n    tag_189:\n        /* \"#utility.yul\":8665:8802   */\n      swap3\n      swap2\n      pop\n      pop\n      jump\t// out\n        /* \"#utility.yul\":8808:9153   */\n    tag_62:\n        /* \"#utility.yul\":8875:8881   */\n      0x00\n        /* \"#utility.yul\":8924:8926   */\n      0x20\n        /* \"#utility.yul\":8912:8921   */\n      dup3\n        /* \"#utility.yul\":8903:8910   */\n      dup5\n        /* \"#utility.yul\":8899:8922   */\n      sub\n        /* \"#utility.yul\":8895:8927   */\n      slt\n        /* \"#utility.yul\":8892:9011   */\n      iszero\n      tag_191\n      jumpi\n        /* \"#utility.yul\":8930:9009   */\n      tag_192\n      tag_64\n      jump\t// in\n    tag_192:\n        /* \"#utility.yul\":8892:9011   */\n    tag_191:\n        /* \"#utility.yul\":9050:9051   */\n      0x00\n        /* \"#utility.yul\":9075:9136   */\n      tag_193\n        /* \"#utility.yul\":9128:9135   */\n      dup5\n        /* \"#utility.yul\":9119:9125   */\n      dup3\n        /* \"#utility.yul\":9108:9117   */\n      dup6\n        /* \"#utility.yul\":9104:9126   */\n      add\n        /* \"#utility.yul\":9075:9136   */\n      tag_91\n      jump\t// in\n    tag_193:\n        /* \"#utility.yul\":9065:9136   */\n      swap2\n      pop\n        /* \"#utility.yul\":9021:9146   */\n      pop\n        /* \"#utility.yul\":8808:9153   */\n      swap3\n      swap2\n      pop\n      pop\n      jump\t// out\n\n    auxdata: 0xa264697066735822122042b9361603b75a350bc2d0e1494f1255d9cda857646c0148f9bf2d9e25f7be4664736f6c634300081a0033\n}\n",
				"bytecode": {
					"linkReferences": {
						"Day07/Maths.sol": {
							"MathLibrary": [
								{
									"length": 20,
									"start": 361
								},
								{
									"length": 20,
									"start": 492
								},
								{
									"length": 20,
									"start": 623
								},
								{
									"length": 20,
									"start": 752
								},
								{
									"length": 20,
									"start": 883
								}
							]
						}
					},
					"object": "6080604052348015600e575f80fd5b506108628061001c5f395ff3fe608060405234801561000f575f80fd5b5060043610610055575f3560e01c80630fd95db51461005957806326b230201461008957806382358414146100b957806390cbcf92146100e9578063b6e1293614610119575b5f80fd5b610073600480360381019061006e9190610417565b610149565b6040516100809190610464565b60405180910390f35b6100a3600480360381019061009e9190610417565b6101cc565b6040516100b09190610464565b60405180910390f35b6100d360048036038101906100ce919061047d565b61024f565b6040516100e09190610464565b60405180910390f35b61010360048036038101906100fe919061047d565b6102cf565b604051610110919061055f565b60405180910390f35b610133600480360381019061012e919061047d565b610353565b6040516101409190610599565b60405180910390f35b5f8273__$3dee09d7529be6c1fdd98db12560a62621$__637ae2b5c79091846040518363ffffffff1660e01b81526004016101859291906105c1565b602060405180830381865af41580156101a0573d5f803e3d5ffd5b505050506040513d601f19601f820116820180604052508101906101c491906105fc565b905092915050565b5f8273__$3dee09d7529be6c1fdd98db12560a62621$__636d5433e69091846040518363ffffffff1660e01b81526004016102089291906105c1565b602060405180830381865af4158015610223573d5f803e3d5ffd5b505050506040513d601f19601f8201168201806040525081019061024791906105fc565b905092915050565b5f8173__$3dee09d7529be6c1fdd98db12560a62621$__638371483490916040518263ffffffff1660e01b81526004016102899190610627565b602060405180830381865af41580156102a4573d5f803e3d5ffd5b505050506040513d601f19601f820116820180604052508101906102c891906105fc565b9050919050565b60608173__$3dee09d7529be6c1fdd98db12560a62621$__6361047ff490916040518263ffffffff1660e01b815260040161030a9190610627565b5f60405180830381865af4158015610324573d5f803e3d5ffd5b505050506040513d5f823e3d601f19601f8201168201806040525081019061034c9190610790565b9050919050565b5f8173__$3dee09d7529be6c1fdd98db12560a62621$__63fe459d2090916040518263ffffffff1660e01b815260040161038d9190610627565b602060405180830381865af41580156103a8573d5f803e3d5ffd5b505050506040513d601f19601f820116820180604052508101906103cc9190610801565b9050919050565b5f604051905090565b5f80fd5b5f80fd5b5f819050919050565b6103f6816103e4565b8114610400575f80fd5b50565b5f81359050610411816103ed565b92915050565b5f806040838503121561042d5761042c6103dc565b5b5f61043a85828601610403565b925050602061044b85828601610403565b9150509250929050565b61045e816103e4565b82525050565b5f6020820190506104775f830184610455565b92915050565b5f60208284031215610492576104916103dc565b5b5f61049f84828501610403565b91505092915050565b5f81519050919050565b5f82825260208201905092915050565b5f819050602082019050919050565b6104da816103e4565b82525050565b5f6104eb83836104d1565b60208301905092915050565b5f602082019050919050565b5f61050d826104a8565b61051781856104b2565b9350610522836104c2565b805f5b8381101561055257815161053988826104e0565b9750610544836104f7565b925050600181019050610525565b5085935050505092915050565b5f6020820190508181035f8301526105778184610503565b905092915050565b5f8115159050919050565b6105938161057f565b82525050565b5f6020820190506105ac5f83018461058a565b92915050565b6105bb816103e4565b82525050565b5f6040820190506105d45f8301856105b2565b6105e160208301846105b2565b9392505050565b5f815190506105f6816103ed565b92915050565b5f60208284031215610611576106106103dc565b5b5f61061e848285016105e8565b91505092915050565b5f60208201905061063a5f8301846105b2565b92915050565b5f80fd5b5f601f19601f8301169050919050565b7f4e487b71000000000000000000000000000000000000000000000000000000005f52604160045260245ffd5b61068a82610644565b810181811067ffffffffffffffff821117156106a9576106a8610654565b5b80604052505050565b5f6106bb6103d3565b90506106c78282610681565b919050565b5f67ffffffffffffffff8211156106e6576106e5610654565b5b602082029050602081019050919050565b5f80fd5b5f61070d610708846106cc565b6106b2565b905080838252602082019050602084028301858111156107305761072f6106f7565b5b835b81811015610759578061074588826105e8565b845260208401935050602081019050610732565b5050509392505050565b5f82601f83011261077757610776610640565b5b81516107878482602086016106fb565b91505092915050565b5f602082840312156107a5576107a46103dc565b5b5f82015167ffffffffffffffff8111156107c2576107c16103e0565b5b6107ce84828501610763565b91505092915050565b6107e08161057f565b81146107ea575f80fd5b50565b5f815190506107fb816107d7565b92915050565b5f60208284031215610816576108156103dc565b5b5f610823848285016107ed565b9150509291505056fea264697066735822122042b9361603b75a350bc2d0e1494f1255d9cda857646c0148f9bf2d9e25f7be4664736f6c634300081a0033",
					"opcodes": "PUSH1 0x80 PUSH1 0x40 MSTORE CALLVALUE DUP1 ISZERO PUSH1 0xE JUMPI PUSH0 DUP1 REVERT JUMPDEST POP PUSH2 0x862 DUP1 PUSH2 0x1C PUSH0 CODECOPY PUSH0 RETURN INVALID PUSH1 0x80 PUSH1 0x40 MSTORE CALLVALUE DUP1 ISZERO PUSH2 0xF JUMPI PUSH0 DUP1 REVERT JUMPDEST POP PUSH1 0x4 CALLDATASIZE LT PUSH2 0x55 JUMPI PUSH0 CALLDATALOAD PUSH1 0xE0 SHR DUP1 PUSH4 0xFD95DB5 EQ PUSH2 0x59 JUMPI DUP1 PUSH4 0x26B23020 EQ PUSH2 0x89 JUMPI DUP1 PUSH4 0x82358414 EQ PUSH2 0xB9 JUMPI DUP1 PUSH4 0x90CBCF92 EQ PUSH2 0xE9 JUMPI DUP1 PUSH4 0xB6E12936 EQ PUSH2 0x119 JUMPI JUMPDEST PUSH0 DUP1 REVERT JUMPDEST PUSH2 0x73 PUSH1 0x4 DUP1 CALLDATASIZE SUB DUP2 ADD SWAP1 PUSH2 0x6E SWAP2 SWAP1 PUSH2 0x417 JUMP JUMPDEST PUSH2 0x149 JUMP JUMPDEST PUSH1 0x40 MLOAD PUSH2 0x80 SWAP2 SWAP1 PUSH2 0x464 JUMP JUMPDEST PUSH1 0x40 MLOAD DUP1 SWAP2 SUB SWAP1 RETURN JUMPDEST PUSH2 0xA3 PUSH1 0x4 DUP1 CALLDATASIZE SUB DUP2 ADD SWAP1 PUSH2 0x9E SWAP2 SWAP1 PUSH2 0x417 JUMP JUMPDEST PUSH2 0x1CC JUMP JUMPDEST PUSH1 0x40 MLOAD PUSH2 0xB0 SWAP2 SWAP1 PUSH2 0x464 JUMP JUMPDEST PUSH1 0x40 MLOAD DUP1 SWAP2 SUB SWAP1 RETURN JUMPDEST PUSH2 0xD3 PUSH1 0x4 DUP1 CALLDATASIZE SUB DUP2 ADD SWAP1 PUSH2 0xCE SWAP2 SWAP1 PUSH2 0x47D JUMP JUMPDEST PUSH2 0x24F JUMP JUMPDEST PUSH1 0x40 MLOAD PUSH2 0xE0 SWAP2 SWAP1 PUSH2 0x464 JUMP JUMPDEST PUSH1 0x40 MLOAD DUP1 SWAP2 SUB SWAP1 RETURN JUMPDEST PUSH2 0x103 PUSH1 0x4 DUP1 CALLDATASIZE SUB DUP2 ADD SWAP1 PUSH2 0xFE SWAP2 SWAP1 PUSH2 0x47D JUMP JUMPDEST PUSH2 0x2CF JUMP JUMPDEST PUSH1 0x40 MLOAD PUSH2 0x110 SWAP2 SWAP1 PUSH2 0x55F JUMP JUMPDEST PUSH1 0x40 MLOAD DUP1 SWAP2 SUB SWAP1 RETURN JUMPDEST PUSH2 0x133 PUSH1 0x4 DUP1 CALLDATASIZE SUB DUP2 ADD SWAP1 PUSH2 0x12E SWAP2 SWAP1 PUSH2 0x47D JUMP JUMPDEST PUSH2 0x353 JUMP JUMPDEST PUSH1 0x40 MLOAD PUSH2 0x140 SWAP2 SWAP1 PUSH2 0x599 JUMP JUMPDEST PUSH1 0x40 MLOAD DUP1 SWAP2 SUB SWAP1 RETURN JUMPDEST PUSH0 DUP3 PUSH20 0x0 PUSH4 0x7AE2B5C7 SWAP1 SWAP2 DUP5 PUSH1 0x40 MLOAD DUP4 PUSH4 0xFFFFFFFF AND PUSH1 0xE0 SHL DUP2 MSTORE PUSH1 0x4 ADD PUSH2 0x185 SWAP3 SWAP2 SWAP1 PUSH2 0x5C1 JUMP JUMPDEST PUSH1 0x20 PUSH1 0x40 MLOAD DUP1 DUP4 SUB DUP2 DUP7 GAS DELEGATECALL ISZERO DUP1 ISZERO PUSH2 0x1A0 JUMPI RETURNDATASIZE PUSH0 DUP1 RETURNDATACOPY RETURNDATASIZE PUSH0 REVERT JUMPDEST POP POP POP POP PUSH1 0x40 MLOAD RETURNDATASIZE PUSH1 0x1F NOT PUSH1 0x1F DUP3 ADD AND DUP3 ADD DUP1 PUSH1 0x40 MSTORE POP DUP2 ADD SWAP1 PUSH2 0x1C4 SWAP2 SWAP1 PUSH2 0x5FC JUMP JUMPDEST SWAP1 POP SWAP3 SWAP2 POP POP JUMP JUMPDEST PUSH0 DUP3 PUSH20 0x0 PUSH4 0x6D5433E6 SWAP1 SWAP2 DUP5 PUSH1 0x40 MLOAD DUP4 PUSH4 0xFFFFFFFF AND PUSH1 0xE0 SHL DUP2 MSTORE PUSH1 0x4 ADD PUSH2 0x208 SWAP3 SWAP2 SWAP1 PUSH2 0x5C1 JUMP JUMPDEST PUSH1 0x20 PUSH1 0x40 MLOAD DUP1 DUP4 SUB DUP2 DUP7 GAS DELEGATECALL ISZERO DUP1 ISZERO PUSH2 0x223 JUMPI RETURNDATASIZE PUSH0 DUP1 RETURNDATACOPY RETURNDATASIZE PUSH0 REVERT JUMPDEST POP POP POP POP PUSH1 0x40 MLOAD RETURNDATASIZE PUSH1 0x1F NOT PUSH1 0x1F DUP3 ADD AND DUP3 ADD DUP1 PUSH1 0x40 MSTORE POP DUP2 ADD SWAP1 PUSH2 0x247 SWAP2 SWAP1 PUSH2 0x5FC JUMP JUMPDEST SWAP1 POP SWAP3 SWAP2 POP POP JUMP JUMPDEST PUSH0 DUP2 PUSH20 0x0 PUSH4 0x83714834 SWAP1 SWAP2 PUSH1 0x40 MLOAD DUP3 PUSH4 0xFFFFFFFF AND PUSH1 0xE0 SHL DUP2 MSTORE PUSH1 0x4 ADD PUSH2 0x289 SWAP2 SWAP1 PUSH2 0x627 JUMP JUMPDEST PUSH1 0x20 PUSH1 0x40 MLOAD DUP1 DUP4 SUB DUP2 DUP7 GAS DELEGATECALL ISZERO DUP1 ISZERO PUSH2 0x2A4 JUMPI RETURNDATASIZE PUSH0 DUP1 RETURNDATACOPY RETURNDATASIZE PUSH0 REVERT JUMPDEST POP POP POP POP PUSH1 0x40 MLOAD RETURNDATASIZE PUSH1 0x1F NOT PUSH1 0x1F DUP3 ADD AND DUP3 ADD DUP1 PUSH1 0x40 MSTORE POP DUP2 ADD SWAP1 PUSH2 0x2C8 SWAP2 SWAP1 PUSH2 0x5FC JUMP JUMPDEST SWAP1 POP SWAP2 SWAP1 POP JUMP JUMPDEST PUSH1 0x60 DUP2 PUSH20 0x0 PUSH4 0x61047FF4 SWAP1 SWAP2 PUSH1 0x40 MLOAD DUP3 PUSH4 0xFFFFFFFF AND PUSH1 0xE0 SHL DUP2 MSTORE PUSH1 0x4 ADD PUSH2 0x30A SWAP2 SWAP1 PUSH2 0x627 JUMP JUMPDEST PUSH0 PUSH1 0x40 MLOAD DUP1 DUP4 SUB DUP2 DUP7 GAS DELEGATECALL ISZERO DUP1 ISZERO PUSH2 0x324 JUMPI RETURNDATASIZE PUSH0 DUP1 RETURNDATACOPY RETURNDATASIZE PUSH0 REVERT JUMPDEST POP POP POP POP PUSH1 0x40 MLOAD RETURNDATASIZE PUSH0 DUP3 RETURNDATACOPY RETURNDATASIZE PUSH1 0x1F NOT PUSH1 0x1F DUP3 ADD AND DUP3 ADD DUP1 PUSH1 0x40 MSTORE POP DUP2 ADD SWAP1 PUSH2 0x34C SWAP2 SWAP1 PUSH2 0x790 JUMP JUMPDEST SWAP1 POP SWAP2 SWAP1 POP JUMP JUMPDEST PUSH0 DUP2 PUSH20 0x0 PUSH4 0xFE459D20 SWAP1 SWAP2 PUSH1 0x40 MLOAD DUP3 PUSH4 0xFFFFFFFF AND PUSH1 0xE0 SHL DUP2 MSTORE PUSH1 0x4 ADD PUSH2 0x38D SWAP2 SWAP1 PUSH2 0x627 JUMP JUMPDEST PUSH1 0x20 PUSH1 0x40 MLOAD DUP1 DUP4 SUB DUP2 DUP7 GAS DELEGATECALL ISZERO DUP1 ISZERO PUSH2 0x3A8 JUMPI RETURNDATASIZE PUSH0 DUP1 RETURNDATACOPY RETURNDATASIZE PUSH0 REVERT JUMPDEST POP POP POP POP PUSH1 0x40 MLOAD RETURNDATASIZE PUSH1 0x1F NOT PUSH1 0x1F DUP3 ADD AND DUP3 ADD DUP1 PUSH1 0x40 MSTORE POP DUP2 ADD SWAP1 PUSH2 0x3CC SWAP2 SWAP1 PUSH2 0x801 JUMP JUMPDEST SWAP1 POP SWAP2 SWAP1 POP JUMP JUMPDEST PUSH0 PUSH1 0x40 MLOAD SWAP1 POP SWAP1 JUMP JUMPDEST PUSH0 DUP1 REVERT JUMPDEST PUSH0 DUP1 REVERT JUMPDEST PUSH0 DUP2 SWAP1 POP SWAP2 SWAP1 POP JUMP JUMPDEST PUSH2 0x3F6 DUP2 PUSH2 0x3E4 JUMP JUMPDEST DUP2 EQ PUSH2 0x400 JUMPI PUSH0 DUP1 REVERT JUMPDEST POP JUMP JUMPDEST PUSH0 DUP2 CALLDATALOAD SWAP1 POP PUSH2 0x411 DUP2 PUSH2 0x3ED JUMP JUMPDEST SWAP3 SWAP2 POP POP JUMP JUMPDEST PUSH0 DUP1 PUSH1 0x40 DUP4 DUP6 SUB SLT ISZERO PUSH2 0x42D JUMPI PUSH2 0x42C PUSH2 0x3DC JUMP JUMPDEST JUMPDEST PUSH0 PUSH2 0x43A DUP6 DUP3 DUP7 ADD PUSH2 0x403 JUMP JUMPDEST SWAP3 POP POP PUSH1 0x20 PUSH2 0x44B DUP6 DUP3 DUP7 ADD PUSH2 0x403 JUMP JUMPDEST SWAP2 POP POP SWAP3 POP SWAP3 SWAP1 POP JUMP JUMPDEST PUSH2 0x45E DUP2 PUSH2 0x3E4 JUMP JUMPDEST DUP3 MSTORE POP POP JUMP JUMPDEST PUSH0 PUSH1 0x20 DUP3 ADD SWAP1 POP PUSH2 0x477 PUSH0 DUP4 ADD DUP5 PUSH2 0x455 JUMP JUMPDEST SWAP3 SWAP2 POP POP JUMP JUMPDEST PUSH0 PUSH1 0x20 DUP3 DUP5 SUB SLT ISZERO PUSH2 0x492 JUMPI PUSH2 0x491 PUSH2 0x3DC JUMP JUMPDEST JUMPDEST PUSH0 PUSH2 0x49F DUP5 DUP3 DUP6 ADD PUSH2 0x403 JUMP JUMPDEST SWAP2 POP POP SWAP3 SWAP2 POP POP JUMP JUMPDEST PUSH0 DUP2 MLOAD SWAP1 POP SWAP2 SWAP1 POP JUMP JUMPDEST PUSH0 DUP3 DUP3 MSTORE PUSH1 0x20 DUP3 ADD SWAP1 POP SWAP3 SWAP2 POP POP JUMP JUMPDEST PUSH0 DUP2 SWAP1 POP PUSH1 0x20 DUP3 ADD SWAP1 POP SWAP2 SWAP1 POP JUMP JUMPDEST PUSH2 0x4DA DUP2 PUSH2 0x3E4 JUMP JUMPDEST DUP3 MSTORE POP POP JUMP JUMPDEST PUSH0 PUSH2 0x4EB DUP4 DUP4 PUSH2 0x4D1 JUMP JUMPDEST PUSH1 0x20 DUP4 ADD SWAP1 POP SWAP3 SWAP2 POP POP JUMP JUMPDEST PUSH0 PUSH1 0x20 DUP3 ADD SWAP1 POP SWAP2 SWAP1 POP JUMP JUMPDEST PUSH0 PUSH2 0x50D DUP3 PUSH2 0x4A8 JUMP JUMPDEST PUSH2 0x517 DUP2 DUP6 PUSH2 0x4B2 JUMP JUMPDEST SWAP4 POP PUSH2 0x522 DUP4 PUSH2 0x4C2 JUMP JUMPDEST DUP1 PUSH0 JUMPDEST DUP4 DUP2 LT ISZERO PUSH2 0x552 JUMPI DUP2 MLOAD PUSH2 0x539 DUP9 DUP3 PUSH2 0x4E0 JUMP JUMPDEST SWAP8 POP PUSH2 0x544 DUP4 PUSH2 0x4F7 JUMP JUMPDEST SWAP3 POP POP PUSH1 0x1 DUP2 ADD SWAP1 POP PUSH2 0x525 JUMP JUMPDEST POP DUP6 SWAP4 POP POP POP POP SWAP3 SWAP2 POP POP JUMP JUMPDEST PUSH0 PUSH1 0x20 DUP3 ADD SWAP1 POP DUP2 DUP2 SUB PUSH0 DUP4 ADD MSTORE PUSH2 0x577 DUP2 DUP5 PUSH2 0x503 JUMP JUMPDEST SWAP1 POP SWAP3 SWAP2 POP POP JUMP JUMPDEST PUSH0 DUP2 ISZERO ISZERO SWAP1 POP SWAP2 SWAP1 POP JUMP JUMPDEST PUSH2 0x593 DUP2 PUSH2 0x57F JUMP JUMPDEST DUP3 MSTORE POP POP JUMP JUMPDEST PUSH0 PUSH1 0x20 DUP3 ADD SWAP1 POP PUSH2 0x5AC PUSH0 DUP4 ADD DUP5 PUSH2 0x58A JUMP JUMPDEST SWAP3 SWAP2 POP POP JUMP JUMPDEST PUSH2 0x5BB DUP2 PUSH2 0x3E4 JUMP JUMPDEST DUP3 MSTORE POP POP JUMP JUMPDEST PUSH0 PUSH1 0x40 DUP3 ADD SWAP1 POP PUSH2 0x5D4 PUSH0 DUP4 ADD DUP6 PUSH2 0x5B2 JUMP JUMPDEST PUSH2 0x5E1 PUSH1 0x20 DUP4 ADD DUP5 PUSH2 0x5B2 JUMP JUMPDEST SWAP4 SWAP3 POP POP POP JUMP JUMPDEST PUSH0 DUP2 MLOAD SWAP1 POP PUSH2 0x5F6 DUP2 PUSH2 0x3ED JUMP JUMPDEST SWAP3 SWAP2 POP POP JUMP JUMPDEST PUSH0 PUSH1 0x20 DUP3 DUP5 SUB SLT ISZERO PUSH2 0x611 JUMPI PUSH2 0x610 PUSH2 0x3DC JUMP JUMPDEST JUMPDEST PUSH0 PUSH2 0x61E DUP5 DUP3 DUP6 ADD PUSH2 0x5E8 JUMP JUMPDEST SWAP2 POP POP SWAP3 SWAP2 POP POP JUMP JUMPDEST PUSH0 PUSH1 0x20 DUP3 ADD SWAP1 POP PUSH2 0x63A PUSH0 DUP4 ADD DUP5 PUSH2 0x5B2 JUMP JUMPDEST SWAP3 SWAP2 POP POP JUMP JUMPDEST PUSH0 DUP1 REVERT JUMPDEST PUSH0 PUSH1 0x1F NOT PUSH1 0x1F DUP4 ADD AND SWAP1 POP SWAP2 SWAP1 POP JUMP JUMPDEST PUSH32 0x4E487B7100000000000000000000000000000000000000000000000000000000 PUSH0 MSTORE PUSH1 0x41 PUSH1 0x4 MSTORE PUSH1 0x24 PUSH0 REVERT JUMPDEST PUSH2 0x68A DUP3 PUSH2 0x644 JUMP JUMPDEST DUP2 ADD DUP2 DUP2 LT PUSH8 0xFFFFFFFFFFFFFFFF DUP3 GT OR ISZERO PUSH2 0x6A9 JUMPI PUSH2 0x6A8 PUSH2 0x654 JUMP JUMPDEST JUMPDEST DUP1 PUSH1 0x40 MSTORE POP POP POP JUMP JUMPDEST PUSH0 PUSH2 0x6BB PUSH2 0x3D3 JUMP JUMPDEST SWAP1 POP PUSH2 0x6C7 DUP3 DUP3 PUSH2 0x681 JUMP JUMPDEST SWAP2 SWAP1 POP JUMP JUMPDEST PUSH0 PUSH8 0xFFFFFFFFFFFFFFFF DUP3 GT ISZERO PUSH2 0x6E6 JUMPI PUSH2 0x6E5 PUSH2 0x654 JUMP JUMPDEST JUMPDEST PUSH1 0x20 DUP3 MUL SWAP1 POP PUSH1 0x20 DUP2 ADD SWAP1 POP SWAP2 SWAP1 POP JUMP JUMPDEST PUSH0 DUP1 REVERT JUMPDEST PUSH0 PUSH2 0x70D PUSH2 0x708 DUP5 PUSH2 0x6CC JUMP JUMPDEST PUSH2 0x6B2 JUMP JUMPDEST SWAP1 POP DUP1 DUP4 DUP3 MSTORE PUSH1 0x20 DUP3 ADD SWAP1 POP PUSH1 0x20 DUP5 MUL DUP4 ADD DUP6 DUP2 GT ISZERO PUSH2 0x730 JUMPI PUSH2 0x72F PUSH2 0x6F7 JUMP JUMPDEST JUMPDEST DUP4 JUMPDEST DUP2 DUP2 LT ISZERO PUSH2 0x759 JUMPI DUP1 PUSH2 0x745 DUP9 DUP3 PUSH2 0x5E8 JUMP JUMPDEST DUP5 MSTORE PUSH1 0x20 DUP5 ADD SWAP4 POP POP PUSH1 0x20 DUP2 ADD SWAP1 POP PUSH2 0x732 JUMP JUMPDEST POP POP POP SWAP4 SWAP3 POP POP POP JUMP JUMPDEST PUSH0 DUP3 PUSH1 0x1F DUP4 ADD SLT PUSH2 0x777 JUMPI PUSH2 0x776 PUSH2 0x640 JUMP JUMPDEST JUMPDEST DUP2 MLOAD PUSH2 0x787 DUP5 DUP3 PUSH1 0x20 DUP7 ADD PUSH2 0x6FB JUMP JUMPDEST SWAP2 POP POP SWAP3 SWAP2 POP POP JUMP JUMPDEST PUSH0 PUSH1 0x20 DUP3 DUP5 SUB SLT ISZERO PUSH2 0x7A5 JUMPI PUSH2 0x7A4 PUSH2 0x3DC JUMP JUMPDEST JUMPDEST PUSH0 DUP3 ADD MLOAD PUSH8 0xFFFFFFFFFFFFFFFF DUP2 GT ISZERO PUSH2 0x7C2 JUMPI PUSH2 0x7C1 PUSH2 0x3E0 JUMP JUMPDEST JUMPDEST PUSH2 0x7CE DUP5 DUP3 DUP6 ADD PUSH2 0x763 JUMP JUMPDEST SWAP2 POP POP SWAP3 SWAP2 POP POP JUMP JUMPDEST PUSH2 0x7E0 DUP2 PUSH2 0x57F JUMP JUMPDEST DUP2 EQ PUSH2 0x7EA JUMPI PUSH0 DUP1 REVERT JUMPDEST POP JUMP JUMPDEST PUSH0 DUP2 MLOAD SWAP1 POP PUSH2 0x7FB DUP2 PUSH2 0x7D7 JUMP JUMPDEST SWAP3 SWAP2 POP POP JUMP JUMPDEST PUSH0 PUSH1 0x20 DUP3 DUP5 SUB SLT ISZERO PUSH2 0x816 JUMPI PUSH2 0x815 PUSH2 0x3DC JUMP JUMPDEST JUMPDEST PUSH0 PUSH2 0x823 DUP5 DUP3 DUP6 ADD PUSH2 0x7ED JUMP JUMPDEST SWAP2 POP POP SWAP3 SWAP2 POP POP JUMP INVALID LOG2 PUSH5 0x6970667358 0x22 SLT KECCAK256 TIMESTAMP 0xB9 CALLDATASIZE AND SUB 0xB7 GAS CALLDATALOAD SIGNEXTEND 0xC2 0xD0 0xE1 BLOBHASH 0x4F SLT SSTORE 0xD9 0xCD 0xA8 JUMPI PUSH5 0x6C0148F9BF 0x2D SWAP15 0x25 0xF7 0xBE CHAINID PUSH5 0x736F6C6343 STOP ADDMOD BYTE STOP CALLER "
				},
				"gasEstimates": {
					"creation": {
						"codeDepositCost": "429200",
						"executionCost": "466",
						"totalCost": "429666"
					},
					"external": {
						"checkArmstrong(uint256)": "infinite",
						"getFactorial(uint256)": "infinite",
						"getFibonacci(uint256)": "infinite",
						"getMax(uint256,uint256)": "infinite",
						"getMin(uint256,uint256)": "infinite"
					}
				},
				"methodIdentifiers": {
					"checkArmstrong(uint256)": "b6e12936",
					"getFactorial(uint256)": "82358414",
					"getFibonacci(uint256)": "90cbcf92",
					"getMax(uint256,uint256)": "26b23020",
					"getMin(uint256,uint256)": "0fd95db5"
				}
			},
			"storageLayout": {
				"storage": [],
				"types": null
			},
			"userdoc": {
				"kind": "user",
				"methods": {},
				"version": 1
			}
		}
	}
}